:020000040800F2
:1000000000000120BD020008211000082510000892
:10001000291000082D100008311000080000000011
:100020000000000000000000000000003510000883
:1000300039100008000000003D10000841100008C1
:10004000590D0008590D0008590D0008590D0008F8
:10005000590D0008590D000845100008590D0008F9
:10006000590D0008590D0008590D0008590D0008D8
:10007000590D0008590D0008590D0008590D0008C8
:10008000590D0008590D0008590D00080000000026
:10009000000000000000000000000000590D0008F2
:1000A000590D0008590D0008590D0008590D000898
:1000B000590D0008590D0008590D0008590D000888
:1000C000590D0008590D0008590D0008590D000878
:1000D000590D0008590D0008590D000800000000D6
:1000E000590D0008590D0008590D000800000000C6
:1000F000000000000000000000000000590D000892
:1001000000000000590D0008590D0008590D0008A5
:1001100000000000000000000000000000000000DF
:10012000590D0008590D0008590D0008590D000817
:10013000590D000800000000000000000000000051
:10014000000000000000000000000000590D000841
:10015000590D0008590D0008590D0008590D0008E7
:10016000590D0008590D00080000000000000000B3
:10017000000000000000000000000000000000007F
:1001800000000000590D0008000000000000000001
:10019000590D000800B583B000F0DAFD3549364B43
:1001A000364C3748374A2260994202600CD2CA4323
:1001B000134423F00303344A0433134452F8045B1A
:1001C00041F8045B9A42F9D12268304B9A4200D040
:1001D000FEE702682E4B9A42FAD12E4A2E4B2F4848
:1001E0002F49284C04609A420C600AD2D44323441D
:1001F00023F0030304331344002442F8044B9A42CF
:10020000FBD1036803B1FEE70B68002BFBD100F0C4
:10021000A1FD684601A900F093FD224C224B1B1B57
:10022000032BC8BFE51804DD54F8043B9847AC42E3
:10023000FAD11E4C1E4B1B1B032BC8BFE51804DD57
:1002400054F8043B9847AC42FAD19DE8030000F013
:10025000E3FD184C184BE41A032C064606DD1C443B
:100260001D4654F8043D9847AC42FAD1304600F0A0
:1002700065FD00BF000000202400002000000020D9
:1002800020000020BABADECA741000087856341272
:1002900032547698240000203400002024000020EE
:1002A000300000203003000830030008300300084D
:1002B00030030008300300083003000808B5FFF7DA
:1002C00069FF00BF00BEFEE71EF0040F0CBFEFF396
:1002D0000880EFF309807146124A104700BEFEE71E
:1002E00000BEFEE71EF0040F0CBFEFF30880EFF333
:1002F000098071460C4A104700BEFEE71EF0040F4D
:100300000CBFEFF30880EFF309807146074A1047EE
:1003100000BEFEE700BEFEE700BEFEE700BEFEE751
:1003200070470000DD020008F90200081103000810
:1003300010B5044600F0E6FC064BA3FB0030800934
:1003400000F088F821464FF0FF30002200F040F81E
:10035000002010BDD34D621008B5094B1A6842F455
:1003600000721A601A6842F480621A60032000F07A
:100370001DF80F20FFF7DCFF00F0C2F9002008BDD8
:10038000003C0240024A136801331360704700BF0B
:1003900028000020014B1868704700BF280000208B
:1003A000014B1868000C7047002004E0074AD16830
:1003B0004FF6FF030B4043F0BF6300F0070043F428
:1003C000003343EA0023D360704700BF00ED00E034
:1003D000184BDB68C3F3022330B4C3F10705042DC7
:1003E00003F1040428BF0425062C17D9033B01247C
:1003F0009C40013C22400124AC40013C21409940FA
:10040000002842EA01020CDB00F1604000F5614087
:100410001201D2B280F8002330BC7047002213468C
:10042000E9E7054B00F00F0012010344D2B21A763F
:1004300030BC704700ED00E0FCEC00E000F01F0174
:1004400001234009024A8B4042F82030704700BF28
:1004500000E100E00138B0F1807F0ED2084B10B40B
:10046000084C5860F02084F8230000220721104631
:100470009A6019605DF8044B70470120704700BF17
:1004800010E000E000ED00E02DE9F04FDFF840C2A1
:10049000DFF840E20F68854E85B0002303E00133AA
:1004A000102B00F09F8001229A4002EA0704944238
:1004B000F5D14D6825F0100ABAF1020F00F09580D1
:1004C0004FEA43090322D0F800B002FA09F2D243FE
:1004D00005F0030802EA0B0B08FA09F80AF1FF3AE3
:1004E0004BEA0808BAF1010F0192C0F8008040F20F
:1004F000A680D0F80C8002EA080A8A6802FA09F895
:100500004AEA0802C260EA00C9D5DEF8442042F493
:100510008042CEF84420DEF8442023F0030909F19C
:10052000804902F4804209F59C39039203F0030AE2
:10053000039AD9F808804FEA8A0A0F2202FA0AF2CF
:10054000604528EA020800F09380594A904200F082
:100550009180584A904200F09180574A904200F0B2
:100560009180564A904200F09180554A904200F0A6
:100570009180544A904200F09180534A904200F09A
:100580009180524A90420CBF0822092202FA0AF2D4
:1005900042EA0802C9F8082032686FEA040815F434
:1005A000803F14BF224308EA02023260726815F4E9
:1005B000003F14BF224308EA02027260B26815F4D9
:1005C000801F14BF224308EA0202B260F268AD0243
:1005D00003F1010354BF08EA02041443102BF46032
:1005E0007FF461AF05B0BDE8F08F4FEAD30900EBAF
:1005F000890903F00708D9F820204FEA88084FF04E
:100600000F0A0AFA08FA22EA0A0A0A6902FA08F242
:100610004AEA0202C9F820204FEA43090322D0F82F
:1006200000A002FA09F2D24305F0030802EA0A0A1E
:1006300008FA09F84AEA08080192C0F80080D0F8E0
:10064000088002EA080ACA6802FA09F84AEA0808B1
:10065000C0F80880D0F804A0019AC5F300182AEA6F
:10066000040A08FA03F84AEA0808C0F8048040E7D8
:1006700000228DE7012202FA0AF289E7022202FA39
:100680000AF285E7032202FA0AF281E7042202FA5B
:100690000AF27DE7052202FA0AF279E7062202FA57
:1006A0000AF275E7072202FA0AF271E7003C0140FC
:1006B0000004024000080240000C0240001002400A
:1006C0000014024000180240001C024000200240BA
:1006D000000002400038024002B9090481617047FD
:1006E0004369594041617047044A5169084208B55D
:1006F00002D0506100F014FC08BD00BF003C014076
:10070000704700BF2DE9F0410368DE0782B0044660
:1007100037D5A8498A6802F00C02042A00F0F78055
:100720008A6802F00C02082A00F0ED80A24BA14D6D
:1007300000221A70FFF72EFE41F28836074605E0C8
:10074000FFF728FEC01BB04200F2CA802B68990355
:10075000F6D4994B22791A706368002B00F015814A
:10076000FFF718FE934D074641F2883605E0FFF784
:1007700011FEC01BB04200F2B3802B689A03F6D57D
:1007800023689F0730D58B4A916811F00C0F00F059
:10079000AF80916801F00C01082900F0A580E368A2
:1007A000002B00F0E180854B824D01221A60FFF79B
:1007B000F1FD064605E0FFF7EDFD801B642800F221
:1007C0008F802B687B4A9807F5D51168F82393FA38
:1007D000A3F3B3FA83F32069DBB221F0F801984068
:1007E00040EA0103136023681A0721D4580735D45F
:1007F000A369CBB16F4DAA6802F00C02082A7ED023
:10080000022B6F4B4FF000021A6000F0CE80FFF712
:10081000C1FD2C46054604E0FFF7BCFD401B6428E3
:100820005ED823689B01F7D4002002B0BDE8F081B8
:100830006369002B75D0634B5E4D01221A60FFF790
:10084000A9FD064604E0FFF7A5FD801B642847D8F4
:100850006B6F9B07F7D523685807C9D5554B5A4D81
:100860001A6C42F080521A641B6C03F0805301939F
:10087000019B2B6843F480732B60FFF78BFD0646CA
:1008800004E0FFF787FD801B642829D82B68D90571
:10089000F7D54E4B474D00221A70FFF77BFD41F212
:1008A0008836074604E0FFF775FDC01BB04217D835
:1008B0002B6F9A07F7D4454B227A1A70A368002B46
:1008C00000F0CB80FFF766FD3A4D074641F28836CF
:1008D0002B6F9B078CD4FFF75DFDC01BB042F7D98F
:1008E000032002B0BDE8F081526856023FF557AFD1
:1008F000304A1268950724D5E268012A21D00120E8
:1009000002B0BDE8F0814A6855027FF50FAF294A71
:10091000126890037FF535AF6268002A7FF431AF2B
:10092000EDE7284A234D1360FFF734FD064604E047
:10093000FFF730FD801B6428D2D86B6F9F07F7D478
:1009400089E71C4DF822296892FAA2F2B2FA82F2E3
:100950002069D2B221F0F801904040EA01022A60F9
:100960001A077FF543AF63E7144A124D1360FFF790
:1009700011FD064604E0FFF70DFD801B6428AFD88B
:100980002B689907F7D423682EE7FFF703FD094D7D
:10099000074641F2883604E0FFF7FCFCC01BB0427A
:1009A0009ED82B689B03F7D4EAE6FFF7F3FC0646D4
:1009B00013E000BF00380240023802400000474206
:1009C00060004742800E474200700040703802408D
:1009D000FFF7E0FC801B642882D82B68274A990126
:1009E000F6D447F6C07C9CFAACFCBCFA8CFC4FF405
:1009F000403191FAA1F1B1FA81F14FF0706696FAA7
:100A0000A6F6B6FA86F6A36A606AD4F82080D4F80F
:100A10001CE0E76A1A4D5FFA8CF45B08C9B2A0408B
:100A200048EA0E0E013BF4B24EEA00008B4003434D
:100A300007FA04F10B430121536029601446FFF7C4
:100A4000A9FC054605E0FFF7A5FC401B64283FF61E
:100A500047AF23689A01F6D5E6E6FFF79BFC074D02
:100A6000074641F288362B6F98077FF5C1AEFFF736
:100A700091FCC01BB042F6D932E700BF00380240FB
:100A8000600047427C4A136803F00F038B422DE954
:100A9000F0410C46054609D2CBB21370136803F03F
:100AA0000F038B4258D00120BDE8F08103689A07FC
:100AB00006D57248AA68816821F0F0010A43826075
:100AC000DF0727D56B68012B79D09A1E012A6B4A64
:100AD000126840F287809107E5D5684EB26822F02F
:100AE00003021343B360FFF755FC6B68012B074605
:100AF0007CD0022B00F08880032B65D041F288382F
:100B000004E0FFF747FCC01B404565D8B36813F00D
:100B10000C0FF6D1584BE2B21A701B6803F00F03AA
:100B2000A342C0D12B685A0706D55448EA688168A9
:100B300021F4E0510A4382601B0707D54F4A296917
:100B4000936823F4604343EAC10393600F20FFF7E7
:100B5000EFFB0020BDE8F08103689F0706D54748FA
:100B6000AA68816821F0F0010A438260DE07DAD5C5
:100B70006B68012B56D09A1E012A404A12682ED962
:100B8000910790D53D4CA26822F003021343A36065
:100B9000FFF700FC6B68012B064648D0022B54D0AF
:100BA000032B60D041F2883704E0FFF7F3FB801B92
:100BB000B84211D8A36813F00C0FF6D1B2E72F4A50
:100BC0001268960389D46EE741F28834B368FFF760
:100BD000E1FBC01BA042F9D90320BDE8F0819001E0
:100BE000D0D460E790013FF578AF5CE741F28838F8
:100BF00004E0FFF7CFFBC01B4045EDD8B36803F01E
:100C00000C03042BF5D185E741F2883804E0FFF7A7
:100C1000C1FBC01B4045DFD8B36803F00C03082BB1
:100C2000F5D177E7154A12689403ABD43BE741F25C
:100C3000883704E0FFF7AEFB801BB842CCD8A3682E
:100C400003F00C03042BF5D16CE741F2883704E084
:100C5000FFF7A0FB801BB842BED8A36803F00C03CB
:100C6000082BF5D15EE741F28835A368FFF792FBC8
:100C7000801BA842F9D9AFE7003C0240003802408F
:100C80001D498B6803F00C03042B33D0082B2FD1A4
:100C90004A6830B44D684B6802F03F04690247F679
:100CA000C07292FAA2F2B2FA82F247F6C070D2B2E1
:100CB00000EA030020FA02F04ABF1049104AB1FBD3
:100CC000F4F20D4958BFB2FBF4F202FB00F34FF40B
:100CD0004032486892FAA2F2B2FA82F200F440304E
:100CE000D2B2D0400130400030BCB3FBF0F07047CE
:100CF00003487047014870470038024000127A00EC
:100D00000024F40008B5FFF7BBFF094AF0239268FE
:100D100093FAA3F3B3FA83F302F0F002DBB222FA00
:100D200003F30449044ACB5CD840106008BD00BFFF
:100D3000003802404C1000080C000020FEE700BF05
:100D40000122024B02600B60704700BF04000020CC
:100D500000F004B800F024B8FEE700000D4B0E4888
:100D60001A68002142F0010210B41A6099601A68F2
:100D70000A4C22F0847222F480321A605C601A6895
:100D80004FF0006422F480221A60D96084605DF81C
:100D9000044B70470038024000ED00E010300024A2
:100DA0001848836803F00C03042B29D0082B0AD0C1
:100DB000154B144A154892681549C2F30312825C18
:100DC000D3400B6070474368416813F4800F436859
:100DD00018BF104801F03F020CBF0B49B0FBF2F105
:100DE000C3F3881308BFB1FBF2F101FB03F2054B1B
:100DF0005B68C3F3014301335B00B2FBF3F3D8E755
:100E0000044BD6E7003802400024F4005C100008D0
:100E10000C00002000127A0080B594B0FFF79CFA15
:100E2000012000F08FF8002000F08CF8022000F084
:100E300089F8032000F086F8344A354B116C41F0F4
:100E400080511164126C02F080520192019A1A686A
:100E500042F480421A601B6803F480430293022428
:100E600001234FF4A871072208A84FF48006082533
:100E700008930993029F0E9412940F961095119166
:100E80001392FFF73FFC034600283BD10F264FF497
:100E9000A0554FF4805203A80521049405930396AE
:100EA00006950792FFF7EEFD40BBFFF779FA41F296
:100EB000010398421CD0154B16491A6B164842F094
:100EC00001021A631B6B099103F00103039308A944
:100ED00001230024039A08930A94FFF7D5FA062009
:100EE00022460221FFF774FA0620FFF7A7FAFEE771
:100EF0000A4A136843F480731360DCE7204600F06D
:100F000073F8FEE7204600F06FF8FEE70038024075
:100F1000007000400000211000000240003C024030
:100F2000012800D0704708B500F06CF8002000F0F0
:100F300069F8022000F066F80320BDE8084000F0E0
:100F400061B800BF70B504468AB030B301282FD015
:100F5000022838D0032809D1204B1A6B42F008022E
:100F60001A631B6B03F008030493049B1C4B1D4D79
:100F700033F8146055F8240005960123022205A9D0
:100F8000069307930892FFF77FFA314655F824003D
:100F90000022FFF7A1FB0AB070BD104B1A6B42F0A4
:100FA00008021A631B6B03F008030193019BDDE742
:100FB0000A4B1A6B42F008021A631B6B03F008031A
:100FC0000293029BD2E7054B1A6B42F008021A63A8
:100FD0001B6B03F008030393039BC7E70038024031
:100FE0006C1000081000002003460449044A51F820
:100FF000200032F813100122FFF76EBB1000002012
:101000006C10000803460449044A51F8200032F8E5
:101010001310FFF765BB00BF100000206C10000824
:10102000704700BFFEE700BFFEE700BFFEE700BF5E
:10103000FEE700BF704700BF704700BF704700BFAA
:10104000FFF7A0B90120FFF74FBB00BF0000000071
:10105000010203040102030406070809000000005E
:101060000000000001020304060708090010002028
:0410700000400080BC
:10107400785634122C000020000000000024F400F4
:10108400000C0240000C0240000C0240000C024024
:0410940032547698C4
:040000050800019559
:00000001FF
