:020000040800F2
:100000000000022089010008CD0C0008D90C00086E
:10001000E90C0008F90C0008090D000800000000B8
:10002000000000000000000000000000190D0008A2
:10003000290D000800000000390D0008490D0008D6
:100040001502000815020008150200081502000834
:100050001502000815020008150200081502000824
:100060001502000815020008150200081502000814
:100070001502000815020008150200081502000804
:1000800015020008150200081502000815020008F4
:1000900015020008150200081502000815020008E4
:1000A00015020008150200081502000815020008D4
:1000B00015020008150200081502000815020008C4
:1000C00015020008150200081502000815020008B4
:1000D00015020008150200087D0D00081502000831
:1000E0005D0D000815020008910E000815020008B9
:1000F000910D0008150200081502000815020008FD
:10010000150200089D0D00081502000815020008E0
:100110001502000815020008150200081502000863
:10012000B50D00081502000815020008A90D000809
:100130001502000815020008150200081502000843
:10014000150200081502000815020008750E0008C7
:10015000150E000815020008150200081502000817
:100160001502000815020008150200081502000813
:100170001502000815020008150200081502000803
:10018000150200081502000880B584B000AF0D4BC1
:10019000BB600D4B7B60BB683B6004E03B681A1D95
:1001A0003A6000221A607A683B689A42F6D809F0F1
:1001B0007DFA00F021FFF86009F0AEFAF86806F069
:1001C00071FE00BF100900207815002080B584B0B2
:1001D00000AF0D4BFB600D4BBB600D4B7B60BB68F4
:1001E0003B6007E03B681A1D3A60FA68111DF96030
:1001F00012681A607A683B689A42F3D809F0AAFA42
:100200001037BD4680BD00BF1C2D01080000002036
:100210000C09002080B400AFFEE700BF80B400AF3F
:10022000FEE700BF80B400AFFEE700BF80B400AFC0
:10023000FEE700BF80B400AFFEE700BF80B400AFB0
:10024000FEE700BF80B400AFFEE700BF80B400AFA0
:10025000FEE700BF80B400AFFEE700BF80B400AF90
:04026000FEE700BFF6
:08026400CD01000849EF00087C
:1002700090B58FB00CAF012300930323019377480F
:1002800001210122042300F08BFB012300930323AF
:100290000193734801210022042300F081FB002315
:1002A0000093032301936E4801210022052300F0EF
:1002B00077FB6B482021002209F002FF0023009306
:1002C00003230193674800210022002300F068FB0C
:1002D000002300930323019362480021002201239D
:1002E00000F05EFB00230093032301935E4800218E
:1002F0000022072300F054FB022300930323019301
:1003000005230293554802210022062300F06EFBCC
:100310000223009303230193052302934F480221F4
:100320000022072300F062FB0223009303230193C2
:1003300005230293494802210022052300F056FBC1
:1003400000230093002301934FF4007302931823BA
:1003500003930023049307230593444800210022BC
:10036000002303F065FB4248002132220BF034FFEA
:1003700000237B6009E07B68D9B23E4A7B68134466
:100380000A461A707B6801337B607B68312BF2D997
:10039000384C4023009332230193002302934FF4FF
:1003A00080630393002304930023059300230693A3
:1003B0004FF400330793002308930023099300238D
:1003C0000A9300230B932C484FF0C0612B4A23461D
:1003D00000F042F9264C00230093322301930023BE
:1003E00002934FF480630393002304930023059347
:1003F000002306934FF40033079300230893002350
:10040000099300230A9300230B931D484FF0C0610A
:100410001A4A234600F020F938200021002200F07B
:1004200049FE44200021012200F044FE124801212F
:1004300009F0BEFB1248012109F0BAFB0B4802216A
:1004400001220AF08DFD0948012101220AF088FDF0
:1004500000F018F80C37BD4690BD00BF0000024008
:100460000008024000040240001002400030014039
:10047000200A0020EC090020886402400C30014072
:100480001064024080B500AF1348144909F002FC23
:100490001148134909F0BEFC1248134909F0FAFB50
:1004A0001048124909F0B6FC0B480D49012209F029
:1004B0001FFC0C480D49012209F01AFC0C480421CC
:1004C000002209F0FDFD0B4801210AF01BFD0A483E
:1004D0000BF016FF80BD00BF10640240200000102A
:1004E000208000108864024000080020008800205E
:1004F00000080240003001401426010880B483B097
:1005000000AF03463960FB7197F90730002B0BDA17
:100510000D49FB7903F00F03043B3A68D2B2120194
:10052000D2B20B441A7609E0084997F907303A68C5
:10053000D2B21201D2B20B4483F800230C37BD466D
:100540005DF8047B704700BF00ED00E000E100E0D3
:1005500080B582B000AF78607B68013BB3F1807FEB
:1005600001D301230FE00A4A7B68013B53604FF03F
:10057000FF300F21FFF7C2FF054B00229A60044BAA
:1005800007221A60002318460837BD4680BD00BF09
:1005900010E000E080B485B000AF78600F4B1B68BE
:1005A000FB600E4B1A687B689A420AD97B68FA682E
:1005B000D31AFB6000BF094B1A68FB689A42FAD84D
:1005C00007E07B68054A136000BF044B1B68002BE3
:1005D000FBD11437BD465DF8047B7047100900203D
:1005E00080B500AF044B1B68044AA2FB03239B09A0
:1005F0001846FFF7ADFF80BD58000020D34D6210B4
:1006000080B500AF124BD3E90023013243F1000360
:100610000F49C1E900230F4B1B68002B04D00D4B81
:100620001B68013B0B4A1360094BD3E900231046BA
:1006300019464FF4FA724FF000030AF0B3FF134368
:1006400004D101F061F9032000F0BAFC80BD00BFC5
:10065000180900201009002080B594B000AFF860A0
:10066000B9607A603B60F86809F07AF9F8680121AE
:1006700001F038F8FB6D7B62BB6F3B64FB6F7B6402
:10068000D7F88030BB64FB6E7B637B6EFB623B6F95
:10069000BB637B68BB61D7F88430FB64BB6E3B6394
:1006A000FB6E7B633B6EBB627B6FFB63BB687B61F6
:1006B000BB6D3B623B68FB6107F11403F8681946A8
:1006C00009F020FA5037BD4680BD00BF80B584B028
:1006D00000AFF860B9601346FB80FB88F868B96822
:1006E0001A46012300F016F81037BD4680BD00BF42
:1006F00080B584B000AFF860B9601346FB80FB881A
:10070000F868B9681A46002300F004F81037BD46AF
:1007100080BD00BF80B584B000AFF860B9601146FD
:100720001A460B46FB8013467B717B79F8681946A5
:1007300009F03EFAFA887B79B86811461A460AF041
:100740000FFC1037BD4680BD80B584B004AF1D4896
:10075000012100F0C1FD0023009303230193032333
:100760000293184802210022062300F03FF91548A1
:10077000012100F0B1FD0023009303230193032323
:100780000293104802210022072300F02FF90E489F
:10079000012100F09FFE0C480121022202230AF0F1
:1007A00091FD094801210AF0EFFC07484FF6FF715F
:1007B0000AF0D0FC044801210AF006FD00F048F8D8
:1007C000BD4680BD000802400004014080B584B0F1
:1007D00004AF1D48012100F07FFD00230093032397
:1007E000019302230293184802210022002300F003
:1007F000FDF81548012100F06FFD0023009303234D
:10080000019302230293104802210022012300F0E9
:10081000EDF80E48012100F05DFE0C480121022296
:1008200002230AF04FFD094801210AF0ADFC0748F8
:100830004FF6FF710AF08EFC044801210AF0C4FC57
:1008400000F026F8BD4680BD00000240000C0040CC
:1008500080B500AF72B6094B00221A80084B002207
:100860001A80084B00221A80074B00221A80074882
:1008700000210AF061FC62B680BD00BF2A09002099
:10088000280900202409002020090020000401403C
:1008900080B500AF72B6094B00221A80084B0022C7
:1008A0001A80084B00221A80074B00221A80074842
:1008B00000210AF041FC62B680BD00BF2E09002075
:1008C0002C0900202609002022090020000C0040ED
:1008D00080B500AF134B1B889AB2134B1A80134894
:1008E0000AF046FC03469AB20E4B1A800D4B1B8849
:1008F0009BB29AB20C4B1B889BB29BB2D31A9BB291
:100900009AB20B4B1A800A4B1B889BB29AB2094BC6
:100910001B889BB29BB213449BB29AB2054B1A80C0
:1009200080BD00BF280900202A09002000040140E2
:10093000240900202009002080B500AF134B1B883C
:100940009AB2134B1A8013480AF012FC03469AB26B
:100950000E4B1A800D4B1B889BB29AB20C4B1B8816
:100960009BB29BB2D31A9BB29AB20B4B1A800A4B22
:100970001B889BB29AB2094B1B889BB29BB2134453
:100980009BB29AB2054B1A8080BD00BF2C09002093
:100990002E090020000C004026090020220900201A
:1009A00080B586B000AFF8607B600B46FB721346E3
:1009B000BB72F868012100F08FFCFB7A3B75BB7AB3
:1009C000BB757B68012202FA03F33B6197F8203084
:1009D000FB7597F824307B7507F11003F86819460A
:1009E00009F0E0FA1837BD4680BD00BF80B586B07B
:1009F00002AFF8607B600B46FB721346BB727B68EC
:100A00009BB203F00F039AB297F82030F8681146B2
:100A10001A4609F07FFBF97ABA7A3B7E00933B7F56
:100A20000193F8687B68FFF7BBFF1037BD4680BDB8
:100A300080B588B000AFF860B96011461A460B4621
:100A4000FB711346BB71F868012100F045FC4FF4BF
:100A50008040012109F028FDF86800F065F80346A0
:100A60001A46BB68DBB203F00F03DBB2104619462F
:100A70000AF0B6FABB68012202FA03F37B61BB7984
:100A80003B76FB797B760123BB7607F1140318468E
:100A900009F0EEF9BB6803F00F030F2B37D801A262
:100AA00052F823F0E50A0008EB0A0008F10A0008F2
:100AB000F70A0008FD0A0008030B0008030B0008F2
:100AC000030B0008030B0008030B0008090B0008C8
:100AD000090B0008090B0008090B0008090B0008A6
:100AE000090B00080623FB7711E00723FB770EE0D4
:100AF0000823FB770BE00923FB7708E00A23FB7749
:100B000005E01723FB7702E02823FB7700BFF97F7E
:100B100097F8282097F82C30084611461A4600F01E
:100B2000C9FA2037BD4680BD80B483B000AF78607D
:100B30007B68244A934201D100233CE07B68224A2F
:100B4000934201D1012336E07B68204A934201D1D0
:100B5000022330E07B681E4A934201D103232AE03E
:100B60007B681C4A934201D1042324E07B681A4A23
:100B7000934201D105231EE07B68184A934201D1BC
:100B8000062318E07B68164A934201D1072312E03E
:100B90007B68144A934201D108230CE07B68124A17
:100BA000934201D1092306E07B68104A934201D1A8
:100BB0000A2300E0002318460C37BD465DF8047B8D
:100BC000704700BF000002400004024000080240DD
:100BD000000C0240001002400014024000180240C5
:100BE000001C024000200240002402400028024075
:100BF00080B500AF03F078FE204800F051F800F017
:100C000067F900F05BF81E4800F04AF800F06CFA53
:100C100000F054F81B4800F043F8FFF795FDFFF78C
:100C2000D5FD00F04BF8184800F03AF8FFF7D8FC73
:100C300000F044F8154800F033F800F0D3FD00F060
:100C40003DF8134800F02CF800F0C2FD00F036F833
:100C5000104800F025F800F0E5FE00F02FF80E48EF
:100C600000F01EF802F01EFF00F028F80B4800F01C
:100C700017F8FFF7FDFA00F021F880BD2C260108D7
:100C800034260108402601084C2601085426010894
:100C9000582601085C26010860260108682601081C
:100CA00080B582B000AF7860034879680BF0E6FA4F
:100CB0000837BD4680BD00BF6C26010880B500AF77
:100CC00001480BF01DFB80BD8026010880B400AFF9
:100CD000BD465DF8047B704780B500AF01480BF05E
:100CE000CDFAFEE78C26010880B500AF01480BF075
:100CF000C5FAFEE79826010880B500AF01480BF061
:100D0000BDFAFEE7B426010880B500AF01480BF03C
:100D1000B5FAFEE7C026010880B500AF01480BF028
:100D2000ADFA80BDD026010880B500AF01480BF0B8
:100D3000A5FA80BDE026010880B500AF01480BF0A0
:100D40009DFA80BDF026010880B500AFFFF758FC82
:100D5000FFF7BEFDFFF7F0FD80BD00BF80B500AF1F
:100D600000F042FA00F088FA00F050FA00F072FA4F
:100D700000F05EFA00F092FA80BD00BF80B500AFCF
:100D800002480BF0BDFA03F019FE80BDFC260108F5
:100D900080B500AF02F056FF80BD00BF80B500AF48
:100DA00002F010FA80BD00BF80B500AF02F06EFA0D
:100DB00080BD00BF80B500AF10480BF0A1FA10480D
:100DC000104908F0CFFF0346012B15D10C480E49FE
:100DD00008F060FF0A480B4909F01CF80848094967
:100DE000002208F085FF094800210AF08BF8084826
:100DF0000421012209F064F980BD00BF1027010819
:100E000010640240208000102000001000300140DB
:100E10000008024080B500AF10480BF071FA10488E
:100E2000104908F09FFF0346012B15D10C480E49CD
:100E300008F030FF0A480B4908F0ECFF0848094960
:100E4000002208F055FF094800210AF05BF8084825
:100E50000421012209F034F980BD00BF28270108D0
:100E60008864024000880020000800200030014013
:100E70000008024080B500AF03480BF041FA034878
:100E800004F008FC80BD00BF40270108540A002080
:100E900080B500AF0B480BF033FA0B4B9B7A002B5D
:100EA0000AD00A4A094B1B6823F00603136008F0B6
:100EB00051FC054804F060FA4FF4802009F064F812
:100EC00080BD00BF54270108540A002010ED00E047
:100ED00080B582B002AF002300930323019324481E
:100EE000012100220223FFF75BFD2148042100229B
:100EF00009F0E6F800230093032301931C48012125
:100F000000220323FFF74CFD19480821002209F0B5
:100F1000D7F80023009303230193154801210022F1
:100F20000423FFF73DFD12481021002209F0C8F804
:100F300000230093032301930D4801210022052380
:100F4000FFF72EFD0A482021002209F0B9F80023FE
:100F50000093032301930648012100220623FFF793
:100F60001FFD03484021002209F0AAF8BD4680BDBC
:100F70000010024080B582B000AF03460A46FB7104
:100F80001346BB71FB790C4A52F82310FB790B4ACC
:100F900052F823301A46012393409AB2BB79002BB2
:100FA00014BF01230023DBB2084611461A4609F09C
:100FB00087F80837BD4680BD0000002014000020DF
:100FC00080B582B000AF0346FB71FB79084A52F846
:100FD0002310FB79074A52F823301A460123934025
:100FE0009BB20846194609F083F80837BD4680BD14
:100FF000000000201400002090B58DB004AFFFF772
:10100000F7FD284B0093284A01AB92E8030083E8E0
:10101000030000230393002000217F22322303F0EA
:1010200081F80023FB61FB690133FB6102F086FE5E
:1010300003463B811C4B5B78FB761B4B1B781A46A7
:10104000920013445B00DBB20933BB7607F10C035B
:1010500018461649FA690BF0E9F97A7AFB7ED31A39
:10106000D9B27B7ABA7E002003F050FA7A7AFB7EFE
:10107000D31ADBB2013BD9B207F10C040A4B5A6810
:1010800000921B680020224602F0FAFFFFF7FAF9EF
:101090000748F9690BF0F2F840F6B830FFF77AFA32
:1010A000C1E700BF6C27010824240108A427010818
:1010B000AC27010880B584B000AF0346FB710B4636
:1010C000BB7113467B71FB793B73BB797B737B7977
:1010D000BB730123FB7307F10C03184608F0E0FB18
:1010E0001037BD4680BD00BF80B582B002AF00237F
:1010F0000093032301933B48002100220F23FFF7B5
:101100004FFC0F2300930F23019336480F21082231
:101110000023FFF78DFC0023009303230193314844
:10112000002100220E23FFF73BFC0F2300930F2327
:1011300001932C480E2108220023FFF779FC00239D
:101140000093032301932748002100220D23FFF77A
:1011500027FC0F2300930F23019322480D2108221F
:101160000023FFF765FC00230093032301931D4830
:10117000002100220C23FFF713FC0F2300930F2301
:10118000019318480C2108220023FFF751FC00238B
:101190000093032301931348002100220B23FFF740
:1011A000FFFB0F2300930F2301930E480B2108220E
:1011B0000023FFF73DFC002300930323019309481C
:1011C000002100220A23FFF7EBFB0F2300930F23DC
:1011D000019304480A2108220023FFF729FCBD4699
:1011E00080BD00BF000C024080B500AF4FF400404E
:1011F00008F0B0FE0346002B06D00020FFF7E0FE0B
:101200004FF4004008F0C0FE80BD00BF80B500AFC5
:101210004FF4804008F09EFE0346002B06D00120CC
:10122000FFF7CEFE4FF4804008F0AEFE80BD00BF59
:1012300080B500AF4FF4005008F08CFE0346002B41
:1012400006D00220FFF7BCFE4FF4005008F09CFED1
:1012500080BD00BF80B500AF4FF4805008F07AFE2B
:101260000346002B06D00320FFF7AAFE4FF4805060
:1012700008F08AFE80BD00BF80B500AF4FF400606B
:1012800008F068FE0346002B06D00420FFF798FE06
:101290004FF4006008F078FE80BD00BF80B500AF5D
:1012A0004FF4806008F056FE0346002B12D0002059
:1012B000FFF786FE0120FFF783FE0220FFF780FE86
:1012C0000320FFF77DFE0420FFF77AFE4FF48060D5
:1012D00008F05AFE80BD00BF80B582B000AF7860D4
:1012E0000B46FB707B68394A934205D1FB7801209D
:1012F000194609F07FF865E07B68354A934205D1CD
:10130000FB780220194609F075F85BE07B68314AEA
:10131000934205D1FB780420194609F06BF851E09F
:101320007B682D4A934205D1FB780820194609F0C5
:1013300061F847E07B68294A934205D1FB78102089
:10134000194609F057F83DE07B68254A934205D1DC
:10135000FB782020194609F04DF833E07B68214ADC
:10136000934205D1FB784020194609F043F829E063
:101370007B681D4A934205D1FB788020194609F00D
:1013800039F81FE07B68194A934206D1FB784FF485
:101390008070194609F02EF814E07B68144A9342D5
:1013A00006D1FB784FF40070194609F023F809E0E4
:1013B0007B68104A934205D1FB784FF48060194650
:1013C00009F018F80837BD4680BD00BF0000024094
:1013D0000004024000080240000C024000100240DD
:1013E0000014024000180240001C0240002002408D
:1013F000002402400028024080B582B000AF78602F
:101400000B46FB707B682B4A934205D1FB7810207A
:10141000194609F049F84AE07B68274A934206D109
:10142000FB784FF40030194609F020F83FE07B6864
:10143000224A934206D1FB784FF48020194609F0E6
:1014400015F834E07B681E4A934206D1FB784FF4CE
:101450000020194609F00AF829E07B68194A9342EE
:1014600006D1FB784FF48010194608F0FFFF1EE00C
:101470007B68154A934205D1FB782020194609F074
:1014800013F814E07B68114A934206D1FB784FF0C1
:101490008040194608F0EAFF09E07B680C4A934255
:1014A00005D1FB784FF00040194608F0DFFF083700
:1014B000BD4680BD0010014000440040004800408F
:1014C000004C0040005000400014014000780040F3
:1014D000007C004080B582B000AF78600B46FB70A6
:1014E0007B68B3F1804F05D1FB780120194608F0E5
:1014F000BDFF84E07B68434A934205D1FB7802201C
:10150000194608F0B3FF7AE07B683F4A934205D161
:10151000FB780420194608F0A9FF70E07B683B4A7D
:10152000934205D1FB780820194608F09FFF66E03A
:101530007B68374A934205D1FB781020194608F0A2
:1015400095FF5CE07B68334A934205D1FB7820200D
:10155000194608F08BFF52E07B682F4A934205D171
:10156000FB784020194608F081FF48E07B682B4A51
:10157000934205D1FB788020194608F077FF3EE0C2
:101580007B68274A934206D1FB784FF48070194656
:1015900008F06CFF33E07B68224A934205D1FB7868
:1015A0000120194608F080FF29E07B681E4A93421B
:1015B00005D1FB780220194608F076FF1FE07B6812
:1015C0001A4A934206D1FB784FF48030194608F04E
:1015D0006BFF14E07B68164A934206D1FB784FF408
:1015E0000030194608F060FF09E07B68114A934219
:1015F00005D1FB784FF48020194608F055FF0837D5
:10160000BD4680BD0004004000080040000C0040C2
:10161000001000400014004000180040001C004072
:101620000020004000000140000401400040014053
:10163000004401400048014080B582B000AF7860AE
:101640000B46FB707B68214A934206D1FB784FF42E
:101650008040194608F00AFF35E07B681C4A934237
:1016600006D1FB784FF40040194608F0FFFE2AE04F
:101670007B68184A934206D1FB784FF48050194694
:1016800008F012FF1FE07B68134A934206D1FB78F3
:101690004FF48050194608F007FF14E07B680F4AAA
:1016A000934206D1FB784FF48010194608F0FCFEF7
:1016B00009E07B680A4A934205D1FB784FF4001099
:1016C000194608F0F1FE0837BD4680BD00380040DD
:1016D000003C004000300140003401400050014017
:1016E0000054014080B582B000AF78600B46FB70BB
:1016F0007B68274A93421BD07B68264A934217D0C7
:101700007B68254A934213D07B68244A93420FD0CA
:101710007B68234A93420BD07B68224A934207D0CE
:101720007B68214A934203D07B68204A934205D1CB
:10173000FB784FF40010194608F05CFE7B681C4AE9
:1017400093421BD07B681B4A934217D07B681A4A8E
:10175000934213D07B68194A93420FD07B68184A92
:1017600093420BD07B68174A934207D07B68164A96
:10177000934203D07B68154A934205D1FB784FF41E
:101780008000194608F036FE0837BD4680BD00BF10
:1017900010600240286002404060024058600240F1
:1017A0007060024088600240A0600240B860024061
:1017B00010640240286402404064024058640240C1
:1017C0007064024088640240A0640240B864024031
:1017D00080B500AF4020012108F02AFE012008F06A
:1017E000F7FE80BD80B584B000AF0023FB604FF0F2
:1017F0008050012108F03AFE012008F0D3FC0120BE
:1018000008F0E0FC39480AF07BFD2BE03220FEF7BF
:10181000C1FEFB680133FB603548F9680AF02EFD14
:10182000FB68052B1ED1002008F0CCFC012008F03D
:10183000E9FC00BF612008F091FE0346002BF9D0BF
:101840004FF4007008F098FD2A4BFF221A602A4BD3
:101850007F221A6029480AF053FD4FF47A70FEF790
:1018600099FE0FE0412008F079FE0346002BCDD011
:101870004FF4807008F080FD1E4BFF221A601E4B53
:101880007F221A60012008F0A5FD08F041FF1A4BE5
:101890001B687B60174B1B68BB6000233B603B46AB
:1018A000184608F0B1FE164B1522DA70144B0422CC
:1018B0005A70134B18229A70114B06221A7001208D
:1018C0000F4909F039F80F4B4022DA700D4B162200
:1018D0001A700C4B10225A700A4B00229A70012089
:1018E000084908F051FF1037BD4680BDC0270108E8
:1018F000C42701083409002030090020F827010816
:101900003C09002038090020B0B586B002AF02F0D3
:1019100015FA03463B80254B5B78FB73234B1B7802
:10192000DB00DBB20733BB730020214908F0B6FFB0
:101930001F4B1B781D461E4B5B781C461C4B9B782F
:101940001A463B1D009218461A492A4623460AF0B9
:101950006DFD3B1D184819460AF090FC3A78BB7B98
:10196000D31ADBB2013BD8B27A78FB7BD31AD9B257
:101970003B78013BDAB27B7802F0C8FD3A78BB7B5A
:10198000D31ADBB2013BD8B27A78FB7BD31ADBB235
:10199000013BD9B23C1D054B5A6800921B68224698
:1019A00002F06EFB1037BD46B0BD00BF2424010815
:1019B00038090020202801083028010880B485B0AB
:1019C00000AF7860154BFB60FB68013BFB60FB6878
:1019D00000221A70FB68013BFB607968104BA3FB87
:1019E0000123DA0813469B0013445B00CA1AD3B2E2
:1019F0003033DBB2DAB2FB681A707B68084AA2FBAC
:101A00000323DB087B607B68002BE3D1FB6818466F
:101A10001437BD465DF8047B704700BF880900207D
:101A2000CDCCCCCC90B5ADF50B7D02AF31200121F2
:101A30000022FFF73FFBB64800214FF40C720AF07A
:101A4000CBFB0020B24907F02DF803461A46B14BF4
:101A50001A70B04B1B78002B05D0AE4B1B78AE48EC
:101A600019460AF00BFCAD4800214FF409720AF048
:101A7000B3FBAA48AA49012207F03EF803461A46DA
:101A8000A44B1A70A34B1B78002B05D0A14B1B78DD
:101A9000A44819460AF0F2FB9E4B1B78002B40F03D
:101AA0009D800023C7F81C323A4607F503739B4814
:101AB00011464FF4007207F08FF903461A46954B12
:101AC0001A70944B1B78002B05D0924B1B789648CC
:101AD00019460AF0D3FB8F4B1B78002B00D00DE08A
:101AE000D7F80C32D7F81C221344C7F81C32D7F8A9
:101AF0000C32B3F5007F00D200E0D5E7874807F04D
:101B000013FD03461A46834B1A70824B1B78002B39
:101B100005D0804B1B78854819460AF0AFFB8448F6
:101B2000D7F81C120AF0AAFB7C4882490A2206F068
:101B3000E3FF03461A46774B1A70764B1B78002B4F
:101B400005D0744B1B787C4819460AF097FB714B03
:101B50001B78002B42D1794A07F5017312681146B0
:101B600019800233120C1A70D7F81C02FFF726FFF7
:101B7000C7F81802D7F818020AF0DCFC024607F58D
:101B800002736648D7F8181207F082FA03461A461D
:101B9000604B1A7007F5017318460AF0CBFC044637
:101BA00007F5017207F502735C481146224607F0FB
:101BB0006FFA03461A46574B1A70584807F0B4FCA0
:101BC00003461A46534B1A70524B1B78002B05D014
:101BD000504B1B785A4819460AF050FB4F48594958
:101BE0000A2206F089FF03461A464A4B1A70494BEF
:101BF0001B78002B05D0474B1B78534819460AF039
:101C00003DFB444B1B78002B40F066814F4B504A04
:101C10001A604E4B1B684F48194607F099FC034663
:101C20001A463C4B1A703B4B1B78002B05D0394BA6
:101C30001B78494819460AF021FB364B1B78002BCC
:101C400040F039813B46C7F814324248434907F017
:101C5000E5FC03461A462F4B1A702E4B1B78002BBF
:101C600005D02C4B1B783E4819460AF007FB294B40
:101C70001B78002B40F01F81384B5B7A002B00F063
:101C80001A81384BC7F81032344B1B7A03F010031B
:101C9000002B01D0442100E02D21304B1B7A03F0B2
:101CA0000103002B01D0522200E02D222B4B1B7A86
:101CB00003F00403002B01D0532400E02D24274B14
:101CC0001B7A03F00203002B01D0482300E02D23F0
:101CD0000093254823460AF0D1FA204B1B6823487D
:101CE00019460AF0CBFA194B1B6821481946D7F858
:101CF00010220AF0C3FAD7F814325A1CC7F814227B
:101D0000164A127A02F01002002A33D0442232E03E
:101D1000601000204C1300203828010850130020C8
:101D20004C2801085828010878280108982801083B
:101D3000B8280108C8280108D4280108A4290108E6
:101D4000F4280108142901081C2901085C1000204E
:101D500038290108301300203C2901089012002086
:101D600054290108991200206C29010878290108DA
:101D7000802901082D221A70D7F814325A1CC7F88E
:101D80001422574A127A02F00102002A01D052228C
:101D900000E02D221A70D7F814325A1CC7F814220A
:101DA0004F4A127A02F00402002A01D0532200E0C6
:101DB0002D221A70D7F814325A1CC7F81422484A38
:101DC000127A02F00202002A01D0482200E02D22FD
:101DD0001A70D7F814325A1CC7F8142220221A702D
:101DE0003F4B1B681846FFF7E9FD0346D7F814027E
:101DF00019460AF041FBD7F814020AF09BFB024691
:101E0000D7F814321344C7F81432D7F814325A1CD6
:101E1000C7F8142220221A70324B1B68D7F814021C
:101E200019460AF029FBD7F814020AF083FB024690
:101E3000D7F814321344C7F81432D7F814325A1CA6
:101E4000C7F814222F221A70D7F81402D7F81012EC
:101E50000AF012FBD7F814020AF06CFB0246D7F81E
:101E600014321344C7F81432D7F814325A1CC7F886
:101E700014220D221A70D7F814325A1CC7F81422F3
:101E80000A221A70D7F814325A1CC7F814220022FA
:101E90001A703B4618460AF04DFB04463A4607F5D1
:101EA000007311481146224607F0F2F803461A461D
:101EB0000E4B1A70C6E60C4807F036FB03461A466E
:101EC0000A4B1A70094B1B78002B05D0074B1B7867
:101ED000074819460AF0D2F907F50977BD4690BDC3
:101EE000901200205C100020501300204C130020A2
:101EF0008829010880B584B004AF00230093032330
:101F000001930C2302932648022100220C23FEF7A2
:101F10006DFD01230093032301930C2302932148B9
:101F2000022100220223FEF761FD01230093032317
:101F300001930C2302931A48022100220823FEF782
:101F400055FD01230093032301930C2302931448AE
:101F5000022100220923FEF749FD012300930323F8
:101F600001930C2302930E48022100220A23FEF75C
:101F70003DFD01230093032301930C2302930848A2
:101F8000022100220B23FEF731FD4FF400600121F6
:101F900008F08AFA04480121FFF7A4FBBD4680BD82
:101FA00000080240000C02405864024080B592B024
:101FB00000AF7860396023484FF0FA5107F06AFEAD
:101FC0002048002107F0F4FD1E4807F0C9FC4FF03F
:101FD0000063FB601C4B3B617B687B614023BB6102
:101FE0000023FB6100233B624FF480637B624FF46C
:101FF0008053BB624FF48043FB6200233B634FF48A
:1020000040337B630423BB630323FB634FF4000370
:102010003B644FF400137B6407F10C030948194635
:1020200007F070FD07481021012207F061FE054806
:10203000202107F0D9FD0348012107F0B9FD4837F9
:10204000BD4680BD58640240802C014080B592B0EE
:1020500000AF7860396023484FF0FA5107F01AFE5C
:102060002048002107F0A4FD1E4807F079FC4FF03E
:102070000063FB601C4B3B617B687B610023BB61A1
:102080000023FB6100233B624FF480637B624FF4CB
:102090008053BB624FF48043FB6200233B634FF4E9
:1020A00040337B630423BB630323FB634FF40003D0
:1020B0003B644FF400137B6407F10C030948194695
:1020C00007F020FD07481021012207F011FE054806
:1020D000202107F089FD0348012107F069FD4837F9
:1020E000BD4680BD58640240802C014080B582B05E
:1020F00000AF0023FB71FFF7FDFE08F0E7FC00F0E6
:1021000091F80346FB71FB79DBB2002B02D0FB791F
:10211000DBB23DE000F09CF90346FB71FB79DBB2DA
:10212000002B02D0FB79DBB232E01B4B02221A7586
:10213000194B00221A60184B00225A60164B0022DD
:102140009A60154B0022DA60134B00221A61124884
:1021500008F0CAFC114800F041FA0346FB71FB7914
:10216000DBB2002B08D10D4BB3F854301B041846DA
:1021700000F07CFD0346FB71FB79DBB2002B05D13F
:102180004FF4006000F006FD0346FB71FB79DBB203
:1021900018460837BD4680BD00130020A812002055
:1021A00080B582B000AF0423FB7100F011F8034644
:1021B000FB71FB79042B01D1002305E0FB79FF2B98
:1021C00001D1022300E0012318460837BD4680BD37
:1021D00080B582B000AF00237B6000F019F80346A1
:1021E000012B0FD13B1D184600F0B0FF0346002B1A
:1021F00001D0FF2307E07B685B0ADBB203F00F032B
:10220000DBB200E0FF2318460837BD4680BD00BFA3
:1022100080B483B000AF012318460C37BD465DF88B
:10222000047B704780B586B000AF0023FB710023AC
:102230007B6100233B610023FB600023BB60814B7B
:1022400076221A757F4B00221A607E4B00225A605C
:102250007C4B00229A607B4B0022DA60794B002293
:102260001A61784808F040FC032008F07BFC01204C
:1022700008F068FC744B00221A60734B00225A600D
:10228000714B00229A60704B0022DA606E4B4FF463
:1022900080621A616C4808F081FC01F00FF8034677
:1022A000FB71FB79DBB2002B02D0FB79DBB2C5E01E
:1022B000654B4FF4D5721A60634B08225A60624B2B
:1022C00040229A60604B0022DA605F4B4FF48062DC
:1022D0001A615D4808F062FC01F016F80346FB71D4
:1022E000FB79DBB2002B06D1584B01221A604FF06C
:1022F0008043BB6017E0544B00221A60524B3722D8
:102300005A60514B40229A604F4B0022DA604E4B8C
:102310004FF480621A614C4808F040FC372001F00D
:102320002FF80346FB71484B00221A60464B3722B8
:102330005A60454B40229A60434B0022DA60424B80
:102340004FF480621A61404808F028FC372001F001
:1023500017F80346FB71FB79DBB2002B6CD14FE021
:10236000394B00221A60384B37225A60364B4022D4
:102370009A60354B0022DA60334B4FF480621A6169
:10238000314808F00BFC372000F0FAFF0346FB71E0
:10239000FB79DBB2002B02D0FB79DBB24EE0BB68ED
:1023A00043F0004343F48013274A1360264B29224D
:1023B0005A60254B40229A60234B0022DA60224B60
:1023C0004FF480621A61204808F0E8FB01F0AAF897
:1023D0000346FB71FB79DBB2002B02D0FB79DBB249
:1023E0002CE0002008F012FC78617B69DB0F012BE8
:1023F0000CBF01230023DBB2FB603B6901333B616F
:10240000FB68002B04D13B694FF6FE729342A7D9BB
:102410003B694FF6FE72934204D91B23FB71FB7993
:10242000DBB20BE07B6903F080437B617B69002BAF
:1024300002D0064B02221A60FB79DBB2184618372D
:10244000BD4680BD00130020481000204009002038
:1024500080B582B000AF0023FB710123BB8008F080
:102460008FFB0346002B03D12523FB71FB79A7E0EB
:10247000554B1B68042B33D0544B00221A60534B2E
:1024800002225A60514BC0229A60504B0022DA60FF
:102490004E4B4FF480621A614C4808F07FFB01F00C
:1024A00069F80346FB71FB79002B01D0FB7987E0CB
:1024B000002008F0ABFB0246454B1A60042008F0F0
:1024C000A5FB0246424B5A60082008F09FFB0246DB
:1024D0003F4B9A600C2008F099FB02463C4BDA60B7
:1024E000394B1B68002B0BD0374B1B68012B07D0D7
:1024F000354B1B68062B03D0334B1B68022B1ED1B8
:10250000324B00221A60314B03225A602F4B40227B
:102510009A602E4B0022DA602C4B4FF480621A61D5
:102520002A4808F03BFB3B1D0320194601F056F8F2
:102530000346FB71FB79002B01D0FB7940E0224B75
:102540001B68042B39D0BB881A46224B1A60BB8803
:102550001B041A461D4B1A601C4B09225A601B4B68
:10256000C0229A60194B0022DA60184B4FF4806247
:102570001A61164808F012FB00F0FCFF0346FB71DD
:10258000FB79002B01D0FB791AE0002008F03EFB1C
:102590000246114B1A60042008F038FB02460E4B2D
:1025A0005A60082008F032FB02460B4B9A600C2060
:1025B00008F02CFB0246084BDA600023FB71FB7924
:1025C00018460837BD4680BD40090020481000204D
:1025D000540900206409002044090020B0B485B0EB
:1025E00000AF78600021B9730021F9738D49096843
:1025F000C8B2796881F856008B49096888B2796851
:10260000A1F8540089490968090EF973F97B890911
:10261000C8B279680870F97B01F03C018910C8B232
:1026200079684870F97B01F00301C8B27968887055
:102630007E49096801F47F01090CF9737968F87B18
:10264000C8707A49096801F47F41090AF973796809
:10265000F87B087175490968F9737968F87B4871E6
:1026600072494968090EF973F97B89B2090188B288
:102670007968C8806D49496801F47F01090CF973D4
:102680007968C98888B2F97B0909C9B289B201435E
:1026900088B27968C880F97B01F00F01C8B2796807
:1026A00008726249496801F47F41090AF973F97BAC
:1026B000C909C8B279684872F97B01F040018911F3
:1026C000C8B279688872F97B01F020014911C8B25B
:1026D0007968C872F97B01F010010911C8B27968F4
:1026E00008737968002048734E490968002904D0AE
:1026F0004C490968012940F09B80FB7B03F00303F0
:102700009B021A467B681A61484B5B68FB737B68C7
:102710001B69FA7B92001A437B681A61434B9B68E2
:102720001B0EFB737B681B69FA7B9209D2B21A43BA
:102730007B681A61FB7B03F03803DB10DAB27B683D
:102740001A75FB7B03F00703DAB27B685A75374BC7
:102750009B6803F47F031B0CFB73FB7B5B09DAB202
:102760007B689A75FB7B03F01C039B10DAB27B68D5
:10277000DA75FB7B03F00303DBB25B00DAB27B6844
:102780001A762A4B9B6803F47F431B0AFB737B6812
:102790001B7EDAB2FB7BDB09DBB21343DAB27B6868
:1027A0001A767B681B6901331A464FF0000379687B
:1027B000C1E912237B681B7EDBB20233012202FADD
:1027C00003F37A68D2E912011A464FEAE27302FB78
:1027D00001F500FB03F42C44A0FB0223E1180B4697
:1027E0007968C1E912237B681B7ADBB21A460123A0
:1027F00093401A467B681A657B68D3E912017B68AF
:102800001B6D1A464FF0000302FB01F500FB03F4B9
:102810002C44A0FB0223E1180B467968C1E912237E
:1028200042E000BF40090020640900204409002064
:10283000AB490968022937D1AA494968F973F97B7C
:1028400001F03F010904084679680861A5498968D3
:10285000090EF97379680969F87B00020843796801
:102860000861A049896801F47F01090CF97379684E
:102870000869F97B0843796808619A49896801F415
:102880007F41090AF97379680969013108464FF0F7
:102890000001CB0443EA5033C2047968C1E9122332
:1028A0007B684FF400721A65FB7B03F040039B11B9
:1028B000DAB27B685A76FB7B03F03F03DBB25B0046
:1028C000DAB27B689A76874B9B68FB737B689B7E4A
:1028D000DAB2FB7BDB09DBB21343DAB27B689A76B0
:1028E000FB7B03F07F03DAB27B68DA767D4BDB6833
:1028F0001B0EFB73FB7BDB09DAB27B681A77FB7B71
:1029000003F060035B11DAB27B685A77FB7B03F05C
:102910001C039B10DAB27B689A77FB7B03F00303FE
:10292000DBB29B00DAB27B68DA776E4BDB6803F4CC
:102930007F031B0CFB737B68DB7FDAB2FB7B9B099D
:10294000DBB21343DAB27B68DA77FB7B03F0200358
:102950005B11DAB27B6883F820207B68002283F861
:102960002120FB7B03F00103DAB27B6883F822208D
:102970005C4BDB6803F47F431B0AFB73FB7BDB09C7
:10298000DAB27B6883F82320FB7B03F040039B11C2
:10299000DAB27B6883F82420FB7B03F020035B1111
:1029A000DAB27B6883F82520FB7B03F010031B1150
:1029B000DAB27B6883F82620FB7B03F00C039B10C4
:1029C000DAB27B6883F82720FB7B03F00303DAB2DB
:1029D0007B6883F82820434BDB68FB73FB7B5B0839
:1029E000DAB27B6883F829207B68012283F82A20E9
:1029F0003D4B1B681B0EFB737B68FA7B83F82C2016
:102A0000394B1B6803F47F031B0CFB73FB7B9BB2EE
:102A10001B029AB27B68DA85334B1B6803F47F4351
:102A20001B0AFB737B68DB8D9AB2FB7B9BB2134363
:102A30009AB27B68DA852C4B1B68FB73FB7B1B0609
:102A40001A467B681A63284B5B681B0EFB737B6816
:102A50001B6BFA7B12041A437B681A63224B5B6878
:102A600003F47F031B0CFB737B681B6BFA7B120266
:102A70001A437B681A631C4B5B6803F47F431B0A91
:102A8000FB737B681A6BFB7B1A437B681A63164BDC
:102A90005B68FB737B68FA7B83F83420124B9B687E
:102AA0001B0EFB737B68FA7B83F835200E4B9B680B
:102AB00003F47F031B0CFB73FB7B1B061A467B682E
:102AC0009A63094B9B6803F47F431B0AFB737B6883
:102AD0009B6BFA7B12041A437B689A6306E000BF83
:102AE000400900204409002054090020284B9B681D
:102AF000FB737B689B6BFA7B12021A437B689A63B9
:102B0000234BDB681B0EFB737B689A6BFB7B1A43C2
:102B10007B689A631E4BDB6803F47F031B0CFB731B
:102B20007B6893F83C30DAB2FB7B1B09DBB21343C2
:102B3000DAB27B6883F83C20FB7B9BB203F00F0387
:102B40009BB21B029AB27B68DA87114BDB6803F4F5
:102B50007F431B0AFB737B68DB8F9AB2FB7B9BB2C4
:102B600013439AB27B68DA87094BDB68FB73FB7B04
:102B70005B08DAB27B6883F840207B68012283F827
:102B80004120BB7B18461437BD46B0BC704700BF20
:102B90005409002080B584B000AF78600023FB7337
:102BA000304B1B68032B03D12723FB73FB7B54E0C3
:102BB0002C4B1B68002B07D02A4B1B68012B03D022
:102BC000284B1B68022B47D17B68B3F5805F03D18C
:102BD0002723FB73FB7B40E07B68B3F5006F1ED1BE
:102BE000012000F063FD0346FB73FB7B002B33D118
:102BF0001D4B02221A751C4B00221A601A4B002230
:102C00005A60194B00229A60174B4FF40062DA6049
:102C1000154B00221A61144807F066FF1CE00020E3
:102C200000F044FD0346FB73FB7B002B14D10E4BDD
:102C300002221A750C4B00221A600B4B00225A60BC
:102C4000094B00229A60084B0022DA60064B0022F2
:102C50001A61054807F048FFFB7B18461037BD4650
:102C600080BD00BF400900200013002080B584B063
:102C700000AF78600023FB730E4A7B6813600D4B36
:102C800007225A600B4B40229A600A4B0022DA60FE
:102C9000084B4FF480621A61064807F07FFF072057
:102CA00000F06EFB0346FB73FB7B18461037BD46F6
:102CB00080BD00BF4810002080B586B000AFF8602E
:102CC000B9607A603B600023FB75404B00221A70AC
:102CD0003F4B00221A603F4B01221A603E4B0022FC
:102CE000DA623E4B1B68022B03D14FF400737B600A
:102CF00004E0BB687A6802FB03F3BB60384A7B6878
:102D00001360374B10225A60354B40229A60344B87
:102D10000022DA60324B4FF480621A61304807F0CB
:102D20003DFF102000F02CFB0346FB75FB7D002BC4
:102D300001D0FB7D46E02B4B4FF0FF321A603B6821
:102D40007A6802FB03F3274A5360264B90229A606D
:102D5000244B0222DA60234B00221A61214B01220C
:102D60005A61204807F066FF1D4ABB6813601C4B80
:102D700012225A601A4B40229A60194B0022DA60E4
:102D8000174B4FF480621A61154807F007FF1220B5
:102D900000F0F6FA0346FB75FB7D002B01D0FB7DAE
:102DA00010E040F22A30012107F08EFF012007F0E9
:102DB0007BFF3B687A6802FB03F3F8681946FFF76C
:102DC00045F9FB7D18461837BD4680BD6C090020CB
:102DD0007009002068090020002C014040090020F3
:102DE000481000201813002080B582B000AF0023E7
:102DF000FB714FF0FF333B6002E03B68013B3B60FF
:102E0000224B1B68002B0BD1214B1B68002B07D1D9
:102E1000204B1B78DBB2002B02D13B68002BECD19E
:102E20001A4B00221A604FF0FF333B6002E03B6810
:102E3000013B3B60184B5B6B03F40053002B02D04B
:102E40003B68002BF3D1154B1B68012B03D100F01D
:102E500059F90346FB713B68002B04D1FB79002B29
:102E600001D10423FB7140F2FF5007F065FF094BCD
:102E70001B78DBB2002B03D0064B1B78DBB200E0E3
:102E8000FB7918460837BD4680BD00BF7409002095
:102E9000700900206C090020002C01406809002006
:102EA00080B586B000AFF860B9607A603B600023FF
:102EB000FB755E4B00221A705D4B00221A605D4B61
:102EC00001221A605C4B0022DA625C4B1B68022B09
:102ED00003D14FF400737B6004E0BB687A6802FBA7
:102EE00003F3BB60564A7B681360554B10225A604F
:102EF000534B40229A60524B0022DA60504B4FF401
:102F000080621A614E4807F049FE102000F038FA3E
:102F10000346FB75FB7D002B01D0FB7D82E0494B16
:102F20001B681B04464A1360454B37225A60444BCA
:102F300040229A60424B0022DA60414B4FF480629B
:102F40001A613F4807F02AFE372000F019FA0346BD
:102F5000FB75FB7D002B01D0FB7D63E0384A3B68AD
:102F60001360374B17225A60354B40229A60344B1E
:102F70000022DA60324B4FF480621A61304807F069
:102F80000DFE172000F0FCF90346FB75FB7D002BBE
:102F900001D0FB7D46E02A4ABB681360284B19220A
:102FA0005A60274B40229A60254B0022DA60244B5E
:102FB0004FF480621A61224807F0F0FD192000F0FA
:102FC000DFF90346FB75FB7D002B01D0FB7D29E07B
:102FD0001D4B4FF0FF321A603B687A6802FB03F327
:102FE000194A5360184B90229A60174B0022DA60FE
:102FF000154B00221A61144B01225A61124807F046
:1030000019FE40F22A30012107F05EFE012007F090
:103010004BFE3B687A6802FB03F3F8681946FEF73B
:10302000C5FFFB7D18461837BD4680BD6C090020E2
:103030007009002068090020002C01404009002090
:1030400048100020640900201813002080B582B0C9
:1030500000AF0023FB714FF0FF333B6002E03B68A1
:10306000013B3B60224B1B68002B0BD1214B1B68A3
:10307000002B07D1204B1B78DBB2002B02D13B6821
:10308000002BECD11A4B00221A604FF0FF333B604B
:1030900002E03B68013B3B60184B5B6B03F48053E1
:1030A000002B02D03B68002BF3D1154B1B68012B82
:1030B00003D100F027F80346FB713B68002B04D1D5
:1030C000FB79002B01D10423FB7140F2FF5007F084
:1030D00033FE094B1B78DBB2002B03D0064B1B7869
:1030E000DBB200E0FB7918460837BD4680BD00BF63
:1030F00074090020700900206C090020002C014098
:103100006809002080B582B000AF0023FB710E4B30
:1031100000221A600C4B0C225A600B4B40229A6022
:10312000094B0022DA60084B4FF480621A610648AE
:1031300007F034FD0C2000F023F90346FB71FB7906
:1031400018460837BD4680BD4810002080B584B0C1
:1031500000AF78600023FB737B68002B03D126232C
:10316000FB73FB7B25E0154B1B681B04144A1360A3
:10317000134B0D225A60124B40229A60104B0022D2
:10318000DA600F4B4FF480621A610D4807F006FDBC
:103190000D2000F0F5F80346FB73FB7B002B01D0FC
:1031A000FB7B06E0002007F031FD02467B681A60D9
:1031B000FB7B18461037BD4680BD00BF6409002068
:1031C0004810002080B500AF4FF4807007F0C2FDBA
:1031D0000346002B0AD02B4B00221A704FF480704C
:1031E00007F0D2FD284B01221A6041E0022007F0CF
:1031F000B1FD0346002B06D0022007F0C5FD214B90
:1032000002221A7034E0082007F0A4FD0346002BC8
:1032100006D0082007F0B8FD1A4B04221A7027E0E8
:10322000202007F097FD0346002B06D0202007F052
:10323000ABFD144B06221A701AE0102007F08AFD2D
:103240000346002B06D0102007F09EFD0D4B0522F3
:103250001A700DE04FF4007007F07CFD0346002B60
:1032600006D04FF4007007F08FFD064B07221A704E
:103270004CF23A30002107F027FD024B1B78DBB2FD
:10328000184680BD6C0900207009002080B500AF91
:10329000074B1B6803F0C053002B07D0054B0122DE
:1032A0001A6005484FF0C25106F0F4FC80BD00BF23
:1032B00000640240740900205864024080B582B066
:1032C00000AF0023FB704FF480337B6002E07B682B
:1032D000013B7B607B68002B05D0802007F012FD4E
:1032E0000346002BF3D07B68002B03D10323FB7034
:1032F000FB7804E040F2FF5007F01EFDFB78184613
:103300000837BD4680BD00BF80B584B000AF002344
:10331000FB714FF48033BB60184B5B6BFB6005E0C7
:10332000BB68013BBB60154B5B6BFB60FB6803F04C
:103330004503002B02D1BB68002BF1D1BB68002BE9
:1033400004D0FB6803F00403002B06D00323FB71B9
:10335000042007F0F1FCFB790CE0FB6803F040036C
:10336000002B06D00023FB71402007F0E5FCFB7921
:1033700000E0FB7918461037BD4680BD002C0140A7
:1033800080B586B000AF0346FB710023FB74634B2E
:103390005B6B7B6102E0614B5B6B7B617B6903F084
:1033A0004503002BF7D07B6903F00403002B06D004
:1033B0000323FB74042007F0BFFCFB7CA9E07B69BE
:1033C00003F00103002B06D00123FB74012007F05A
:1033D000B3FCFB7C9DE007F00DFC03461A46FB792D
:1033E000934203D01023FB74FB7C92E040F2FF5029
:1033F00007F0A2FC002007F009FCF860FA68484BCF
:103400001340002B01D1FB7C83E0FB68002B01DA29
:103410001C237EE0FB6803F08043002B01D00923CE
:1034200077E0FB6803F00053002B01D00A2370E023
:10343000FB6803F08053002B01D00B2369E0FB688D
:1034400003F00063002B01D00C2362E0FB6803F063
:103450008063002B01D00D235BE0FB6803F08073D9
:10346000002B01D00E2354E0FB6803F40003002B73
:1034700001D00F234DE0FB6803F48003002B01D043
:10348000102346E0FB6803F40013002B01D0112346
:103490003FE0FB6803F48013002B01D0122338E0D7
:1034A000FB6803F40023002B01D0132331E0FB68F9
:1034B00003F48023002B01D014232AE0FB6803F4DB
:1034C0000033002B01D0152323E0FB6803F4803385
:1034D000002B01D016231CE0FB6803F40043002BF3
:1034E00001D0172315E0FB6803F48043002B01D0C3
:1034F00018230EE0FB6803F40053002B01D01923BE
:1035000007E0FB6803F00803002B01D01A2300E05A
:10351000FB7C18461837BD4680BD00BF002C01401B
:1035200008E0FFFD80B582B000AF0023FB70104BB8
:103530005B6B7B6002E00E4B5B6B7B607B6803F038
:103540004503002BF7D07B6803F00403002B06D063
:103550000323FB70042007F0EFFBFB7804E040F24C
:10356000FF5007F0E9FBFB7818460837BD4680BDE1
:10357000002C014080B582B000AF0023FB70164BD9
:103580005B6B7B6002E0144B5B6B7B607B6803F0E2
:103590004503002BF7D07B6803F00403002B06D013
:1035A0000323FB70042007F0C7FBFB7810E07B6867
:1035B00003F00103002B06D00123FB70012007F06C
:1035C000BBFBFB7804E040F2FF5007F0B5FBFB7853
:1035D00018460837BD4680BD002C014080B586B036
:1035E00000AF03463960FB710023FB742E4B5B6B0D
:1035F0007B6102E02C4B5B6B7B617B6903F04503D5
:10360000002BF7D07B6903F00403002B06D00323C3
:10361000FB74042007F090FBFB7C40E07B6903F027
:103620000103002B06D00123FB74012007F084FB6B
:10363000FB7C34E007F0DEFA03461A46FB7993423E
:1036400003D01023FB74FB7C29E040F2FF5007F00D
:1036500073FB002007F0DAFAF860FB6803F46043BC
:10366000002B06D1FB681B0C9AB23B681A80FB7CCE
:1036700015E0FB6803F40053002B01D013230EE088
:10368000FB6803F48043002B01D0102307E0FB68A4
:1036900003F40043002B01D00F2300E0FB7C18460D
:1036A0001837BD4680BD00BF002C014080B586B0F4
:1036B00000AF0346FB710023FB750023FB60002372
:1036C0003B61002007F0A2FA034603F00073002BD1
:1036D00003D00E23FB75FB7D9FE0524B1B689AB213
:1036E00007F10C031046194600F0A0F80346FB75DD
:1036F000FB7D002B01D0FB7D8FE0FB79012B46D1B8
:103700003B6903F48023002B3DD0464B1B681B0410
:10371000454A1360444B37225A60434B40229A601B
:10372000414B0022DA60404B4FF480621A613E4800
:1037300007F034FA3720FFF723FE0346FB75FB7DC5
:10374000002B01D0FB7D68E0374B02221A60364B1C
:1037500006225A60344B40229A60334B0022DA60D2
:10376000314B4FF480621A612F4807F017FA062098
:10377000FFF706FE0346FB75FB7D002B01D0FB7DAA
:103780004BE0FB7D49E02523FB75FB7D45E03B6974
:1037900003F48033002B3DD0224B1B681B04224ACC
:1037A0001360214B37225A601F4B40229A601E4BF8
:1037B0000022DA601C4B4FF480621A611A4807F04D
:1037C000EDF93720FFF7DCFD0346FB75FB7D002B91
:1037D00001D0FB7D21E0144B00221A60124B06221F
:1037E0005A60114B40229A600F4B0022DA600E4B58
:1037F0004FF480621A610C4807F0D0F90620FFF7F9
:10380000BFFD0346FB75FB7D002B01D0FB7D04E073
:10381000FB7D02E02523FB75FB7D18461837BD466E
:1038200080BD00BF640900204810002090B587B01B
:1038300000AF03463960FB8000237B610023FB74EB
:103840000023BB600023FB60754B08221A60744B99
:1038500010225A60724B40229A60714B0022DA604B
:103860006F4B4FF480621A616D4807F097F9102092
:10387000FFF786FD0346FB74FB7C002B01D0FB7C2D
:10388000CAE0684B1B681B04654A1360644B37220F
:103890005A60634B40229A60614B0022DA60604BB1
:1038A0004FF480621A615E4807F078F93720FFF71D
:1038B00067FD0346FB74FB7C002B01D0FB7CABE077
:1038C000594B4FF0FF321A60574B08225A60564B43
:1038D00030229A60544B0222DA60534B00221A6164
:1038E000514B01225A61504807F0A4F94C4B002279
:1038F0001A604B4B33225A60494B40229A60484B26
:103900000022DA60464B4FF480621A61444807F0A7
:1039100045F93320FFF734FD0346FB74FB7C002B95
:1039200001D0FB7C78E012E04FF4001007F0EAF9D8
:103930000346002B0BD07B699B0007F10802D418CB
:1039400007F0A6F9034623607B6901337B61374B9F
:103950005A6B40F22A631340002BE5D0082007F091
:10396000D1F90346002B06D0082007F0E5F904231F
:10397000FB74FB7C50E0022007F0C4F90346002BE7
:1039800006D0022007F0D8F90223FB74FB7C43E049
:10399000202007F0B7F90346002B06D0202007F0BF
:1039A000CBF90623FB74FB7C36E04FF4007007F084
:1039B000A9F90346002B07D04FF4007007F0BCF9BB
:1039C0000723FB74FB7C27E040F2FF5007F0B4F9BB
:1039D0003B680433BA681106BA6802F47F421202E7
:1039E0001143BA6802F47F02120A1143BA68120E38
:1039F0000A431A60FB681A06FB6803F47F431B0244
:103A00001A43FB6803F47F031B0A1A43FB681B0E6F
:103A10001A433B681A60FB7C18461C37BD4690BDB4
:103A2000481000206409002018130020002C0140D9
:103A300080B58AB000AFF860084611461A460346C2
:103A40007B810B463B811346FB80F86807F0AAF99F
:103A5000F8680121FDF7F0FD7B89BB823B89FB8281
:103A6000FB883B833B8E7B83BB8EBB833B8FFB837F
:103A7000BB8F3B84B7F840307B84B7F84430BB84BD
:103A800007F11403F868194607F0F8F900BFF86861
:103A9000022107F089FA0346002BF8D02837BD46EB
:103AA00080BD00BF80B586B006AF494B40225A703A
:103AB000474B80221A70464B4FF480625A60444B49
:103AC00001221A72424B03225A72414B00221A748D
:103AD0003F4B5B68184608F047F803461A463C4BD4
:103AE000DA603B4BDB68002B0AD1394BDB681846A8
:103AF00008F042F8374808F0C1FB012008F024F82C
:103B0000002300930323019333480121002206235D
:103B1000FCF746FF30484021002206F0D1FA00238E
:103B20000093032301932C48012100220723FCF773
:103B300037FF29488021002206F0C2FA00230093B3
:103B4000032301932448012100220823FCF728FFC6
:103B500021484FF48071002206F0B2FA022300934C
:103B600003230193062302931B480221002205230D
:103B7000FCF73CFF022300930323019306230293E7
:103B80001548022100220323FCF730FF13480121CE
:103B9000FDF752FD00230093002301934FF40073BF
:103BA00002930023039300230493072305930B48F8
:103BB0004FF440414FF482720023FFF739FF07486A
:103BC000012107F09FF900F003FDBD4680BD00BF55
:103BD00088090020A829010800040240003C004098
:103BE00080B500AF012000F0A7FD002000F0B4FD7B
:103BF0001248002107F086F900F0EEFD10480F4949
:103C00000222FCF763FD0D48012107F07BF900BF9C
:103C10000B484FF0205106F001F80346002BF7D077
:103C2000074806490222FCF763FD0548002105F01C
:103C3000BFFF012000F090FD80BD00BF003C0040B0
:103C4000B860024080B500AF0A48012107F000FBD0
:103C50000346002B0DD00748012107F023FB00206D
:103C60000121FDF787F9FFF7BBFF00200021FDF7D9
:103C700081F980BD001C004080B582B000AF0346D2
:103C8000FB71FB79002B0CD1A02000F077FDC02048
:103C900000F074FD202000F071FD012000F06EFDA9
:103CA0002EE0FB79012B0CD1A12000F067FDC8208C
:103CB00000F064FD202000F061FD012000F05EFDB9
:103CC0001EE0FB79022B0CD1A12000F057FDC02093
:103CD00000F054FD202000F051FD002000F04EFDCA
:103CE0000EE0FB79032B0BD1A02000F047FDC8208C
:103CF00000F044FD202000F041FD002000F03EFDDA
:103D00000837BD4680BD00BF80B582B000AF034616
:103D1000FB71094AFB791372FB79012B03D1A620B1
:103D200000F02CFD05E0FB79002B02D1A72000F06C
:103D300025FD0837BD4680BD8809002080B483B0CA
:103D400000AF164B5B7A022B03D0144B5B7A032B2C
:103D500006D1124B1B783B70104B5B787B700DE0EB
:103D60000E4B5B7A002B03D00C4B5B7A012B05D1F9
:103D70000A4B5B783B70094B1B787B703B88BB80A0
:103D800000233A7962F307037A7962F30F23184626
:103D90000C37BD465DF8047B704700BF88090020E2
:103DA00090B585B000AF0346FB710B46BB7113465F
:103DB0007B71FFF7C3FF0346BB813B7BFA799A42D5
:103DC00080F0B1807B7BBA799A4280F0AC80574B0F
:103DD0005B7A022B03D0554B5B7A032B4ED17B7958
:103DE000002B24D0514BDB68F979BA79D208D4B2D0
:103DF00020464E4A127802FB00F20A4413444B4A12
:103E0000D268F8794949097801FB04F101440A4470
:103E10001278D0B2BA7902F00702012101FA02F257
:103E2000D2B201460A43D2B2D2B21A707BE03F4B03
:103E3000DB68F979BA79D208D4B220463B4A1278C5
:103E400002FB00F20A441344384AD268F879374931
:103E5000097801FB04F101440A441278D0B2BA791E
:103E600002F00702012101FA02F2D2B2D243D2B229
:103E700001460A40D2B2D2B21A7054E02B4B5B7AA0
:103E8000002B03D0294B5B7A012B4CD17B79002B83
:103E900023D0264BDA68FB79DB08D8B20446BB791D
:103EA0002249497801FB03F3002B00DA0733DB10CA
:103EB000E1180A441D49C96803440B441B78D8B271
:103EC000FB7903F00703012101FA03F3DBB201469A
:103ED0000B43DBB2DBB2137025E0144BDA68FB79DD
:103EE000DB08D8B20446BB791049497801FB03F3DB
:103EF000002B00DA0733DB10E1180A440B49C968CC
:103F000003440B441B78D8B2FB7903F0070301216B
:103F100001FA03F3DBB2DB43DBB201460B40DBB259
:103F2000DBB21370FFE71437BD4690BD880900204F
:103F300082B02DE9F04389B000AF7B640346FB718A
:103F40000B46BB7113467B716B461E4697F84410B7
:103F50000B46013B7B61CAB24FF000034FEAC30935
:103F600049EA52794FEAC208CAB24FF00003DD00B5
:103F700045EA5275D4000B460733DB08DB00ADEB96
:103F8000030D6B4600333B6197F846307A799A42CD
:103F90001ED397F847307A799A4219D80023FB77D5
:103FA00010E0FB7FBA6C7979203997F8440000FB68
:103FB00001F0F97F01440A4411783A69D154FB7F3A
:103FC0000133FB7797F84430FA7F9A42E9D30EE049
:103FD0000023FB7706E0FB7F3A69FF21D154FB7F8A
:103FE0000133FB7797F84430FA7F9A42F3D30023EA
:103FF000BB8338E000237B832CE00023FB73BB8B67
:104000003A69D35C1A4697F8453019467B8BDB43F7
:104010000B4402FA03F3FB73FB7BDB09FB73FB7BB3
:10402000002B14D0BB8BDAB2FB791344D9B297F8CA
:104030004520BB791344DAB27B8BDBB2D31ADAB2F8
:1040400097F84C30084611461A46FFF7A9FE7B8BBD
:1040500001337B837A8B97F8453001339A42CCDB6E
:10406000BB8B0133BB8397F844309BB2BA8B9A4227
:10407000C0D3B5462437BD46BDE8F04302B0704713
:1040800082B080B584B002AF3A607B610346FB71B9
:104090000B46BB71F979BA7901230193BB6900938F
:1040A0007B69084611463A6800F006F80837BD46B5
:1040B000BDE8804002B0704782B090B587B002AFD3
:1040C0003A607B620346FB710B46BB710023FB73B6
:1040D0001BE097F824300133DAB2FB7B12FB03F3C9
:1040E000DAB2FB791344D8B2FB7B3A6813441B78ED
:1040F000DAB2B97997F82C300193BB6A00937B6AE6
:10410000FFF716FFFB7B0133FB73FC7B386808F07D
:1041100011FA03469C42DCD31437BD46BDE89040FB
:1041200002B0704790B591B002AF04460846114600
:104130001A462346FB710346BB710B467B7113463F
:104140003B71FA79BB791046194600F079FB0346BA
:10415000BB837A793B791046194600F071FB034620
:104160003B833A7E3B7F934228BF1346DBB23B75CD
:104170007A7E7B7F934238BF1346DBB27B753A7EF3
:104180003B7F934238BF1346DBB23B747A7E7B7F22
:10419000934238BF1346DBB27B743A7E3B7F934237
:1041A00028BF1346DBB23B737A7E7B7F934228BFE6
:1041B0001346DBB27B733A7E3B7F934238BF134694
:1041C000DBB23B727A7E7B7F934238BF1346DBB211
:1041D0007B723B7A1A463B7BD21A97F84C300133FC
:1041E00092FBF3F3BB627B7D1A467B7BD21A97F876
:1041F0004D30013392FBF3F37B62B86C08F09AF90F
:104200003862387B797B3A7C7C7C002300932346A0
:1042100000F098F97B6DBA6A02FB03F3FB6201239D
:104220003B63E3E000237B63D8E0BA6CFB6A134492
:104230001B785BB20A2B05D1BB6A7B63FB6A013337
:10424000FB62C8E0BA6CFB6A13441B785BB2092BB3
:1042500040F09180FB6A0133FB623A7D97F84C3065
:104260000133D9B27B6BDBB211FB03F3DBB2134436
:10427000D8B27A7D97F84D300133D9B23B6BDBB2BF
:1042800011FB03F3DBB2D31ADAB2012301933B6DC6
:104290000093FB6C11462022FFF74AFE7B6B013333
:1042A0007B633A7D97F84C300133D9B27B6BDBB23C
:1042B00011FB03F3DBB21344D8B27A7D97F84D308B
:1042C0000133D9B23B6BDBB211FB03F3DBB2D31A80
:1042D000DAB2012301933B6D0093FB6C114620225F
:1042E000FFF726FE7B6B01337B633A7D97F84C30FA
:1042F0000133D9B27B6BDBB211FB03F3DBB21344A6
:10430000D8B27A7D97F84D300133D9B23B6BDBB22E
:1043100011FB03F3DBB2D31ADAB2012301933B6D35
:104320000093FB6C11462022FFF702FE7B6B0133EA
:104330007B633A7D97F84C300133D9B27B6BDBB2AB
:1043400011FB03F3DBB21344D8B27A7D97F84D30FA
:104350000133D9B23B6BDBB211FB03F3DBB2D31AEF
:10436000DAB2012301933B6D0093FB6C11462022CE
:10437000FFF7DEFD2FE0BA6CFB6A13441B78002BBD
:1043800031D0FA6A3B6A9A422DD23A7D97F84C3086
:104390000133D9B27B6BDBB211FB03F3DBB2134405
:1043A000D8B27A7D97F84D300133D9B23B6BDBB28E
:1043B00011FB03F3DBB2D31AD9B2FB6A5A1CFA62BF
:1043C000BA6C13441B78DAB2012301933B6D00935E
:1043D000FB6CFFF7ADFD7B6B01337B637A6BBB6AD4
:1043E0009A42FFF422AF3B6B01333B637B6A5A1C5A
:1043F0003B6B9A423FF616AF3C37BD4690BD00BFBF
:1044000090B58BB000AF0446084611461A462346C5
:10441000FB710346BB710B467B7113463B71FA7906
:10442000BB791046194600F00BFA0346BB817A7936
:104430003B791046194600F003FA03463B813B7A6C
:104440001A463B7BD31A002BB8BF5B423B623A7BD8
:104450003B7A9A4201D2012301E04FF0FF33FB6126
:104460007B7A1A467B7BD31A002BB8BF5B42BB61B9
:104470007A7B7B7A9A4201D2012301E04FF0FF332D
:104480007B613A6ABB699A4205DCBB695B42DA0F21
:1044900013445B1003E03B6ADA0F13445B107B624A
:1044A000397B7A7B97F83830084611461A46FFF771
:1044B00077FC3A7B3B7A9A4204D17A7B7B7A9A42A8
:1044C00000D11FE07B6A3B613B6A5A423B699A42DA
:1044D00009DA7A6ABB69D31A7B623A7BFB69DBB281
:1044E0001344DBB23B733A69BB699A4209DA7A6AD0
:1044F0003B6A13447B627A7B7B69DBB21344DBB299
:104500007B73CDE72C37BD4690BD00BF90B585B01D
:1045100002AF0446084611461A462346FB7103467D
:10452000BB710B467B7113463B71F879B9797A7987
:104530003C7900230093234600F004F80C37BD4675
:1045400090BD00BF90B587B002AF04460846114643
:104550001A462346FB710346BB710B467B7113461B
:104560003B717A79FB79934228BF1346BB737A7902
:10457000FB79934238BF13467B733A79BB799342F8
:1045800028BF13463B733A79BB79934238BF134631
:10459000FB720023FB7312E03A7BFB7B1344D9B21E
:1045A0003A7BFB7B1344DCB2B87B7A7B97F82030F4
:1045B00000932346FFF724FFFB7B0133FB73FA7B59
:1045C000F97A3B7BCB1A9A42E6DB1437BD4690BDA5
:1045D00080B584B000AF002000F09EF80A20FBF701
:1045E000D9FF012000F098F80A20FBF7D3FF012043
:1045F00000F0A2F8012000F0AFF8AE2000F0BEF805
:10460000D52000F0BBF8802000F0B8F8A82000F01A
:10461000B5F83F2000F0B2F8D32000F0AFF800204A
:1046200000F0ACF8402000F0A9F88D2000F0A6F8CA
:10463000374B1B7C012B03D1102000F09FF802E0C8
:10464000142000F09BF8324B5B7A1846FFF714FBFE
:10465000DA2000F093F8122000F090F8812000F0AA
:104660008DF82B4B1B7C012B03D19F2000F086F88B
:1046700002E0CF2000F082F8D92000F07FF8244B30
:104680001B7C012B03D1222000F078F802E0F120FE
:1046900000F074F8DB2000F071F8402000F06EF8B4
:1046A000A42000F06BF81A4B1B7A1846FFF72CFB7E
:1046B000174BDA68164B5B68104600211A4607F064
:1046C0008BFDAF2000F05AF82C200F210022FCF7C0
:1046D000F1FC10480121FCF7FDFE44F61F63BB60AE
:1046E0005323BB800023BB810023FB803B1D094873
:1046F000194606F0B7FC07480121012206F084FDA7
:104700000448012106F060FD1037BD4680BD00BFA2
:1047100088090020001C004080B582B000AF03462D
:10472000FB71FB79034880211A4605F0C9FC083764
:10473000BD4680BD0004024080B582B000AF034694
:10474000FB71FB79034840211A4605F0B9FC083794
:10475000BD4680BD0004024080B582B000AF034674
:10476000FB71FB7904484FF480711A4605F0A8FCF0
:104770000837BD4680BD00BF0004024080B582B04E
:1047800000AF0346FB710020FFF7D6FFFB79184608
:1047900000F004F80837BD4680BD00BF80B582B088
:1047A00000AF0346FB710020FFF7D6FFFB799BB2F9
:1047B0000848194606F0C6FB00BF0648022106F06D
:1047C000F3FB0346002BF8D00120FFF7C5FF0837A5
:1047D000BD4680BD003C004090B58DB00CAF154883
:1047E00005F0BEF8144BDB681C46134B5B68402297
:1047F00000920193002302934FF4806303930023FC
:10480000049300230593002306934FF4003307938A
:10481000002308930023099300230A9300230B939A
:1048200004480021054A2346FBF716FF0437BD461E
:1048300090BD00BFB8600240880900200C3C0040D9
:1048400080B485B000AF03460A46FB711346BB71C6
:10485000244B5B7A022B03D0224B5B7A032B13D1C0
:10486000204B1B78FA799A4203D31E4B1B78013BED
:10487000FB711C4B5B78BA799A4204D3194B5B7875
:10488000013BBB711AE019E0164B5B7A002B03D099
:10489000144B5B7A012B11D1124B5B78FA799A4257
:1048A00003D3104B5B78013BFB710E4B1B78BA793D
:1048B0009A4203D30B4B1B78013BBB71FB793B72D4
:1048C000BB797B723B89BB8100233A7B62F3070390
:1048D0007A7B62F30F2318461437BD465DF8047BDC
:1048E000704700BF8809002080B588B004AF01235D
:1048F000009303230193072302932C4802210022F3
:104900000623FCF773F80123009303230193072385
:1049100002932648022100220523FCF767F8244869
:104920000121FCF769FD4FF461333B600023BB803C
:104930000023FB8000233B810023BB810C237B8170
:104940003B461B48194606F009FD194840F225511F
:10495000012206F0DFFD262002210022FCF7AAFB3F
:104960001348012106F0B6FD124B1B685B68184620
:1049700000210222002307F0DDFC0E4B1B689B6820
:10498000184600210222002307F0D4FC094B1B68C3
:10499000DB68184600210222002307F0CBFC064802
:1049A00007F0AEFC1037BD4680BD00BF000C0240D2
:1049B00000440040980400202C2B010880B400AF74
:1049C000BD465DF8047B704780B489B000AFF860E5
:1049D000B96011461A460B46FB711346BB80002393
:1049E000FB76FB68DB78002B22D100237B61002360
:1049F000FB61BB880333002B00DA03339B107B6120
:104A0000FB79FA6832339B0013449B683B610023B7
:104A1000FB6109E0BB681A683B691A60FB690133F6
:104A2000FB61BB680433BB60FA697B699A42F1D3CE
:104A3000FB7E18462437BD465DF8047B704700BFF7
:104A400080B489B000AFF860B9601346FB800023E2
:104A5000FB61FB880333002B00DA03339B10BB613F
:104A6000FB68D3F8D0307B610023FB6109E07B69F0
:104A70001A68BB681A60FB690133FB61BB680433C9
:104A8000BB60FA69BB699A42F1D3BB681846243708
:104A9000BD465DF8047B704780B586B000AF786096
:104AA00039600023FB7400237B610023FB60FB68FB
:104AB00043F02003FB603B68DBB203F01F03DBB273
:104AC00003F01F039B01FA6822F4F8621343FB60B2
:104AD0007B68DB68FA681A617B68DB681B69FB60CE
:104AE0007B6901337B617B69094A934200D906E007
:104AF000FB685B0903F00103DBB2012BECD0032060
:104B000002F078F9FB7C18461837BD4680BD00BF1F
:104B1000400D030080B483B000AF78607B68DB6831
:104B20005B6903F0010318460C37BD465DF8047B52
:104B3000704700BF80B582B000AF78607868FFF73B
:104B4000E9FF0346012B14BF01230023DBB2184603
:104B50000837BD4680BD00BF80B485B000AF786027
:104B60000023FB607B68DB685B69FB607B68DB685C
:104B70009B69FA681340FB60FB6818461437BD4612
:104B80005DF8047B704700BF80B485B000AF7860EB
:104B90000023FB737B681B699B68BB603B7AC3F394
:104BA0004103DBB2022B09D0032B04D0012B02D02E
:104BB0000323FB7305E00223FB7302E00123FB7375
:104BC00000BFFB7B18461437BD465DF8047B704779
:104BD00080B487B000AF78600023FB750023BB6012
:104BE0007B681B699B683B617B689B691B68FB60FA
:104BF0003B7CC3F34103DBB2022B04D0BB896FF3D0
:104C00000A03BB8105E0BB89032262F30A03BB816F
:104C100000BF7B689B69FA681A607B7A43F00103E6
:104C20007B727B681B697A6812695168BA68D243E3
:104C30001140BA680A435A60FB7D18461C37BD46CE
:104C40005DF8047B704700BF80B487B000AF786028
:104C500039600023FB740023FB600023BB603B68CA
:104C60005B78012B0FD13B681B787A6804339B007B
:104C700013449B687B613B681B781A460123934071
:104C80009BB23B810EE03B681B787A6814339B0033
:104C900013445B687B613B681B781A460123934091
:104CA0009BB27B817B691B68FB607B7B23F07F036E
:104CB000DBB2002B27D13B689B689BB2C3F30A038E
:104CC0009AB2BB8962F30A03BB813B68DB7803F0CD
:104CD0000303DAB2BB7B62F38303BB733B68DB88FD
:104CE000DBB203F00F03DAB2FB8962F38913FB81B5
:104CF000FB7B43F01003FB737B7B43F080037B73F0
:104D0000FA687B691A607B681B697A681269D169E5
:104D1000BA680A43DA61FB7C18461C37BD465DF869
:104D2000047B704780B588B000AF7860396000239D
:104D3000FB770023BB6100237B6100233B613B6861
:104D40005B78012B40F0AB803B681B787A680433BA
:104D50009B0013449B681B687B613B681B787A68E7
:104D600004339B0013449B681B693B613B685B6990
:104D7000002B09D13B696FF312033B617B8A01224F
:104D800062F3CC037B8222E03B685B69C3F31202CF
:104D90003B6962F312033B613B685A693B689B685D
:104DA00013445A1E3B689B68B2FBF3F39BB2C3F3F8
:104DB00009039AB27B8A62F3CC037B823B68DB787F
:104DC000012B04D1FB7C012262F34613FB743B6888
:104DD0001B787A6804339B0013449B683A691A6114
:104DE0007B68DB78012B0AD13B681B787A68043337
:104DF0009B0013449B683A6812695A6115E03B684E
:104E0000DB78012B11D03B685B69002B0DD03B6830
:104E10001B781A4601239340BB617B681B697A6843
:104E20001269516BBA690A435A633B68DB78012BFC
:104E300014D17B681B699B68FB60FB68C3F30D237F
:104E40009BB203F00103002B04D1FB7D43F0200350
:104E5000FB7503E0FB7D43F01003FB75FB7D43F026
:104E60000403FB75FB7D43F08003FB753B681B78F7
:104E70007A6804339B0013449B687A691A603B6824
:104E8000DB78012B40F089803B68D9683B681A7851
:104E90003B685B699BB27868FFF796FD7DE03B68F5
:104EA0001B787A6814339B0013445B681B687B6132
:104EB0003B681B787A6814339B0013445B681B695A
:104EC0003B613B685B69002B0DD13B689B68C3F37A
:104ED00012023B6962F312033B617B8A012262F397
:104EE000CC037B8220E03B685A693B689B68134493
:104EF0005A1E3B689B68B2FBF3F39BB2C3F30903F2
:104F00009AB27B8A62F3CC037B827B8AC3F3C903A8
:104F10009BB21A463B689B6803FB02F3C3F3120281
:104F20003B6962F312033B613B681B787A68143378
:104F30009B0013445B683A691A617B68DB78012B3C
:104F400009D13B681B787A6814339B0013445B6873
:104F50003A6812695A613B68DB78012B0CD13B68D7
:104F60005B79002B04D0FB7D43F02003FB7503E04D
:104F7000FB7D43F01003FB75FB7D43F00403FB75E1
:104F8000FB7D43F08003FB753B681B787A68143324
:104F90009B0013445B687A691A60FB7F18462037D0
:104FA000BD4680BD80B489B000AF78603960002311
:104FB000FB770023BB6100233B610023BB603B68A0
:104FC0005B78012B70D17B689B697B617B691B6877
:104FD0003B617B691B69BB603B685B69002B09D146
:104FE0003B7A6FF306033B72BB7A012262F3C40380
:104FF000BB7223E03B685A693B689B689A420ED9B2
:105000003B689A683B685A613B689B68DBB203F077
:105010007F03DAB23B7A62F306033B7209E03B6836
:105020005B69DBB203F07F03DAB23B7A62F306031B
:105030003B72BB7A012262F3C403BB72BA687B691C
:105040001A617B68DB78012B09D13B681B787A6891
:1050500004339B0013449B683A6812695A61FB7CD5
:1050600043F00403FB74FB7C43F08003FB743A6958
:105070007B691A607B68DB78002B76D13B685B69C3
:10508000002B72D03B681B781A46012393401A46C6
:10509000BB691343BB617B681B697A681269516BFA
:1050A000BA690A435A6360E03B681B787A68143334
:1050B0009B0013445B681B683B613B681B787A6804
:1050C00014339B0013445B681B69BB603B685B69DE
:1050D000002B0FD13B689B68DBB203F07F03DAB291
:1050E0003B7A62F306033B72BB7A012262F3C4038C
:1050F000BB7212E03B689A683B685A613B689B68E8
:10510000DBB203F07F03DAB23B7A62F306033B7251
:10511000BB7A012262F3C403BB723B681B787A68D6
:1051200014339B0013445B68BA681A617B68DB78B0
:10513000012B09D13B681B787A6814339B00134418
:105140005B683A6812695A61FB7C43F00403FB74A4
:10515000FB7C43F08003FB743B681B787A68143354
:105160009B0013445B683A691A60FB7F184624373A
:10517000BD465DF8047B704780B487B000AF7860AF
:1051800039600023FB750023FB603B685B78012BD3
:105190001CD13B681B787A6804339B0013449B68DE
:1051A0003B613B691B68FB60FB7B23F07F03DBB249
:1051B000002B03D0FB7B43F04003FB73BB7B43F02E
:1051C0002003BB73FA683B691A6011E03B681B78E7
:1051D0007A6814339B0013445B683B613B691B682E
:1051E000FB60BB7B43F02003BB73FA683B691A602A
:1051F000FB7D18461C37BD465DF8047B704700BF39
:1052000080B487B000AF786039600023FB7400235E
:10521000FB603B685B78012B08D13B681B787A68A0
:1052200004339B0013449B687B6107E03B681B7859
:105230007A6814339B0013445B687B617B691B684D
:10524000FB60BB7B6FF34513BB733B68DB78032BC1
:1052500003D03B68DB78022B03D1FB7B43F01003C8
:10526000FB73FA687B691A60FB7C18461C37BD46E5
:105270005DF8047B704700BF80B485B000AF7860F4
:105280007B681B699B69FB607B681B69DB69FA684B
:105290001340FB60FB681B0C18461437BD465DF8D5
:1052A000047B704780B485B000AF78600B46FB701C
:1052B000FB787A6814339B0013445B689B68FB603F
:1052C0007B681B695B69FA681340FB60FB681846E2
:1052D0001437BD465DF8047B704700BF80B485B0CD
:1052E00000AF78607B681B699B69FB607B681B690A
:1052F000DB69FA681340FB60FB689BB21846143701
:10530000BD465DF8047B704780B487B000AF78601D
:1053100000233B61FB7C43F0C003FB74BB7C012298
:1053200062F3C403BB743B7C182262F306033B7434
:105330007B685B6D3A691A617B68DB78012B16D15B
:105340000023FB607B685B6D7A6802F5B9625A6185
:105350007B685B6D1B68FB60FB7B43F08003FB732A
:105360004FF08023FB607B685B6DFA681A601C3726
:10537000BD465DF8047B704780B485B000AF7860AF
:105380007B689B7A002B1BD07B681B699B68FB604A
:105390003B7B03F00103DBB2002B11D07B6803F5EC
:1053A00086731B68BB603B7A6FF341033B723B7AA9
:1053B0006FF300033B727B68D3F80C31BA681A6054
:1053C0001437BD465DF8047B704700BF80B584B0DC
:1053D00000AF7860084611461A460346FB700B463C
:1053E0003B801346BB70FB785BB2002B0CDAFB787A
:1053F00003F07F0213469B001344DB0003F58C731C
:105400007A681344FB600BE0FB7803F07F021346DD
:105410009B001344DB0003F55C737A681344FB6064
:10542000FB7803F07F03DAB2FB681A70FB78DB09C4
:10543000DBB21A46FB685A703A88FB689A60FB68D0
:10544000BA78DA70FB685B78002B04D0FB681B78B5
:105450009AB2FB68DA80BB78022B02D1FB6800228B
:105460001A717868F968FFF7EFFB002318461037C8
:10547000BD4680BD80B586B000AFF8607A601A4640
:105480000B46FB7213463B81FB7A03F07F02134607
:105490009B001344DB0003F55C73FA6813447B61E3
:1054A0007B697A68DA603A897B695A617B69002294
:1054B0009A617B6900225A70FB7A03F07F03DAB2AB
:1054C0007B691A70FB68DB78012B02D17A687B69F3
:1054D0001A617B691B78002B04D1F8687969FFF7A2
:1054E00061FD03E0F8687969FFF71CFC00231846AA
:1054F0001837BD4680BD00BF80B586B000AFF860EC
:105500007A603B600B46FB72FB7A03F07F02134626
:105510009B001344DB0003F58C73FA6813447B6132
:105520007B6901225A70FB7A03F07F03DAB27B6950
:105530001A707B697A68DA607A687B691A617B69BC
:1055400000229A617B693A685A617B691B78002B5B
:1055500004D1F8687969FFF725FD03E0F8687969F7
:10556000FFF7E0FB002318461837BD4680BD00BF9B
:1055700080B584B000AF78600B46FB70FB785BB2FF
:10558000002B0CDAFB7803F07F0213469B001344D8
:10559000DB0003F58C737A681344FB6009E0FA784A
:1055A00013469B001344DB0003F55C737A681344D5
:1055B000FB60FB6801229A70FB7803F07F03DAB28C
:1055C000FB681A70FB78DB09DBB21A46FB685A707D
:1055D0007868F968FFF7D0FD002318461037BD46FC
:1055E00080BD00BF80B584B000AF78600B46FB7013
:1055F000FB785BB2002B0CDAFB7803F07F021346DA
:105600009B001344DB0003F58C737A681344FB6042
:1056100009E0FA7813469B001344DB0003F55C7342
:105620007A681344FB60FB6800229A70FB7803F0F1
:105630007F03DAB2FB681A70FB78DB09DBB21A462B
:10564000FB685A707868F968FFF7DAFD002318469E
:105650001037BD4680BD00BF80B485B000AF786014
:105660000B46FB700023FB60FB7803F07F03DAB28C
:10567000BB8962F30A13BB817B681B697A68126974
:105680001168FA680A431A601437BD465DF8047B56
:10569000704700BF80B586B000AF786000237B61A3
:1056A0007868FFF747FA0346002B00F09C80786883
:1056B000FFF752FA03463B613B69002B01D10023FF
:1056C00092E0BB7C03F00803DBB2002B06D07868C5
:1056D00000F012FA02467B6913437B61BB7C03F046
:1056E0000403DBB2002B06D0786800F00FF9024605
:1056F0007B6913437B613B7C03F00203DBB2002B2D
:1057000009D00023FB603B7B43F002033B737B68C3
:10571000DB68FA685A61FB7C23F07F03DBB2002B65
:1057200006D0786800F064F802467B6913437B6119
:105730007B7C03F00803DBB2002B06D0786800F016
:1057400097F802467B6913437B613B7C03F00803B7
:10575000DBB2002B06D0786800F08AFA02467B693B
:1057600013437B613B7C03F01003DBB2002B06D0BC
:10577000786800F097FA02467B6913437B617B7C73
:1057800003F01003DBB2002B06D0786800F07EFB3C
:1057900002467B6913437B617B7C03F02003DBB211
:1057A000002B06D0786800F00DFC02467B6913439D
:1057B0007B61BB7C03F01003DBB2002B06D0786862
:1057C00000F03CFC02467B6913437B61BB7C03F029
:1057D0002003DBB2002B06D0786800F049FC0246BB
:1057E0007B6913437B617B6918461837BD4680BDD2
:1057F00080B586B000AF78607B689B7A002B11D0B3
:105800007B6803F586731B68FB603B7B6FF341038A
:105810003B733B7B6FF300033B737B68D3F80C3126
:10582000FA681A6000233B613B7C43F001033B7440
:105830007B681B697A68126951683A69D2430A40E9
:105840005A600A4B1B689B697868984700237B6104
:10585000FB7D43F08003FB757B68DB687A695A61E6
:10586000012318461837BD4680BD00BF54000020F4
:1058700080B586B000AF7860224B1B685B697868A2
:1058800098477B681B699B68FB6000237B617B7D7D
:1058900043F008037B757B68DB687A695A617B6833
:1058A0009B7A002B29D03B7B03F00103DBB2002B5A
:1058B00023D000233B613B7C43F001033B747B68B6
:1058C000D3F80C317A68D2F80C2111683A690A438E
:1058D0001A603B7C43F002033B747B68D3F80C31C5
:1058E0007A68D2F80C2111683A690A431A60064AAC
:1058F000054B1B6943F00603136101231846183753
:10590000BD4680BD5400002000ED00E080B586B0AB
:1059100000AF786000233B610023BB607868FFF72D
:10592000DDFC7861DCE07B6903F00103002B00F013
:10593000D1803B69DBB27868194600F0B3FB0346BF
:10594000BB603B7A03F00103DBB2002B32D03B6932
:10595000012202FA03F3FB607B681B697A68126913
:10596000516BFA68D2430A405A630023BB603B7A0A
:1059700043F001033B727A683B6904339B00134494
:105980009B68BA689A605B4B1B685B683A69D2B2E5
:105990007868114698477B68DB78012B0AD13B6910
:1059A000002B07D17B6893F81131042B02D1786862
:1059B000FFF7AAFC3B7A03F00403DBB2002B0DD007
:1059C0000023BB603B7A43F004033B727A683B6977
:1059D00004339B0013449B68BA689A603B7A03F0D7
:1059E0000803DBB2002B0DD00023BB603B7A43F0F1
:1059F00008033B727A683B6904339B0013449B683D
:105A0000BA689A603B7A03F01003DBB2002B0DD02A
:105A10000023BB603B7A43F010033B727A683B691A
:105A200004339B0013449B68BA689A603B7A03F086
:105A30002003DBB2002B0DD00023BB603B7A43F088
:105A400020033B727A683B6904339B0013449B68D4
:105A5000BA689A603B7A03F04003DBB2002B0DD0AA
:105A60000023BB603B7A43F040033B727A683B699A
:105A700004339B0013449B68BA689A603B7A03F036
:105A80000203DBB2002B0DD00023BB603B7A43F056
:105A900002033B727A683B6904339B0013449B68A2
:105AA000BA689A603B7A23F07F03DBB2002B11D0F7
:105AB0007868396900F078F90023BB603B7A43F0DD
:105AC00080033B727A683B6904339B0013449B68F4
:105AD000BA689A603B6901333B617B695B087B6113
