:020000040800F2
:1000000000000220890100088D11000899110008E4
:10001000A9110008B9110008C9110008000000006A
:10002000000000000000000000000000D9110008DE
:10003000E911000800000000F91100080912000889
:100040001502000815020008150200081502000834
:100050001502000815020008150200081502000824
:100060001502000815020008150200081502000814
:100070001502000815020008150200081502000804
:1000800015020008150200081502000815020008F4
:1000900015020008150200081502000815020008E4
:1000A00015020008150200081502000815020008D4
:1000B00015020008150200081502000815020008C4
:1000C00015020008150200081502000815020008B4
:1000D00015020008150200083D120008150200086C
:1000E0001D12000815020008C513000815020008BB
:1000F0005112000815020008150200081502000838
:10010000150200085D12000815020008150200081B
:100110001502000815020008150200081502000863
:10012000150200081502000875120008F5120008F3
:100130001502000815020008150200081502000843
:10014000150200081502000815020008A91300088E
:1001500015020008691200081502000815020008BF
:100160001502000815020008150200081502000813
:100170001502000815020008150200081502000803
:10018000150200081502000880B584B000AF0D4BC1
:10019000BB600D4B7B60BB683B6004E03B681A1D95
:1001A0003A6000221A607A683B689A42F6D807F0F3
:1001B00071FB01F0BBF9F86007F0A2FBF86807F0EB
:1001C0005DFA00BFF0090020A023002080B584B0B4
:1001D00000AF0D4BFB600D4BBB600D4B7B60BB68F4
:1001E0003B6007E03B681A1D3A60FA68111DF96030
:1001F00012681A607A683B689A42F3D807F09EFB4F
:100200001037BD4680BD00BF54110108000000201A
:10021000EC09002080B400AFFEE700BF80B400AF5F
:10022000FEE700BF80B400AFFEE700BF80B400AFC0
:10023000FEE700BF80B400AFFEE700BF80B400AFB0
:10024000FEE700BF80B400AFFEE700BF80B400AFA0
:10025000FEE700BF80B400AFFEE700BF80B400AF90
:04026000FEE700BFF6
:08026400CD01000849CE00089D
:1002700080B483B000AF0346FB71084997F907309B
:100280005B09FA7902F01F02012000FA02F241F83C
:1002900023200C37BD465DF8047B704700E100E089
:1002A00080B588B006AF554800214FF4007209F0C0
:1002B00071FF00237B6009E07B68D9B2504A7B68FC
:1002C00013440A461A707B6801337B607B68B3F580
:1002D000007FF1D34B48012102F05AF84A4801212E
:1002E00002F056F83B20FFF7C3FF3A20FFF7C0FFAC
:1002F0003A200021012201F02BFD3B2000210022A9
:1003000001F026FD022300930323019305230293AA
:100310003E4802210022062300F0EEFB0223009358
:100320000323019305230293384802210022072367
:1003300000F0E2FB022300930323019305230293C1
:10034000324802210022052300F0D6FB012300934E
:10035000032301932D4800210022042300F0A6FB73
:100360000123009303230193294801210022042340
:1003700000F09CFB002300930323019324480121F8
:100380000022052300F092FB21482021002207F0E3
:1003900083FF00230093032301931E4800210022C2
:1003A000002300F083FB00230093032301931948EB
:1003B00000210022012300F079FB00230093032396
:1003C0000193154800210022072300F06FFB002352
:1003D0000093002301934FF40073029318230393B7
:1003E00000230493072305930C48002100220023D7
:1003F00002F0AAF90837BD4680BD00BF9C1200205C
:10040000AC0A0020406402405864024000000240F0
:100410000008024000040240001002400030014089
:1004200080B590B000AF4B4807F0A0FB4A4807F0FA
:100430009DFB4FF400737B6100233B6303237B63CD
:100440000023BB6300237B624FF48063FB610023C6
:10045000BB62424BBB600023FB6300233B62002373
:100460007B620023BB614FF40033FB624FF0C0633B
:100470007B6040233B613A4BFB6000BF354B1B6800
:1004800003F00103002BF9D13B1D3248194607F058
:100490003FFC4FF400737B6100233B6303237B63CA
:1004A0000023BB6300237B624FF48063FB61002366
:1004B000BB622A4BBB600023FB6300233B6200232B
:1004C0007B620023BB614FF40033FB624FF0C063DB
:1004D0007B6000233B61234BFB6000BF1E4B1B680E
:1004E00003F00103002BF9D13B1D1B48194607F00F
:1004F0000FFC1D480221012208F0D8FC1A480121F6
:10050000012208F0D3FC13481821012207F0DCFC7B
:1005100011481821012207F0D7FC0E48012107F0ED
:100520004DFC0D48012107F049FC0F48012108F05E
:100530008FFC012000F06AF80C480421002207F02B
:10054000ABFE0B4A0A4B5B6983F0100353614037E3
:10055000BD4680BD58640240406402400C300140FA
:10056000AC0A00209C120020003001400000024034
:100570000008024080B483B000AF03463960FB71CD
:1005800097F90730002B0BDA0D49FB7903F00F03C5
:10059000043B3A68D2B21201D2B20B441A7609E097
:1005A000084997F907303A68D2B21201D2B20B4427
:1005B00083F800230C37BD465DF8047B704700BF0D
:1005C00000ED00E000E100E080B582B000AF7860AF
:1005D0007B68013BB3F1807F01D301230FE00A4A1E
:1005E0007B68013B53604FF0FF300F21FFF7C2FFE4
:1005F000054B00229A60044B07221A60002318461C
:100600000837BD4680BD00BF10E000E080B485B073
:1006100000AF78600F4B1B68FB600E4B1A687B685D
:100620009A420AD97B68FA68D31AFB6000BF094B6B
:100630001A68FB689A42FAD807E07B68054A13609B
:1006400000BF044B1B68002BFBD11437BD465DF87F
:10065000047B7047F009002080B500AF044B1B6895
:10066000044AA2FB03239B091846FFF7ADFF80BD98
:1006700038010020D34D621080B500AF124BD3E992
:100680000023013243F100030F49C1E900230F4B5E
:100690001B68002B04D00D4B1B68013B0B4A1360F9
:1006A000094BD3E90023104619464FF064024FF07E
:1006B000000308F01DFF134304D101F047FF03209E
:1006C00000F018FF80BD00BFF8090020F0090020ED
:1006D00080B400AF044BD3E9002313461846BD464F
:1006E0005DF8047B704700BFF809002080B483B038
:1006F00000AF786039603A687B68D31A18460C37C7
:10070000BD465DF8047B704780B582B000AF78606D
:10071000064BD3E90023134678681946FFF7E6FF36
:10072000034618460837BD4680BD00BFF8090020C3
:1007300080B594B000AFF860B9607A603B60F8684B
:1007400007F014FAF868012101F022FEFB6D7B62CC
:10075000BB6F3B64FB6F7B64D7F88030BB64FB6E80
:100760007B637B6EFB623B6FBB637B68BB61D7F8CF
:100770008430FB64BB6E3B63FB6E7B633B6EBB6292
:100780007B6FFB63BB687B61BB6D3B623B68FB615E
:1007900007F11403F868194607F0BAFA5037BD4656
:1007A00080BD00BF80B584B000AFF860B96013466B
:1007B000FB80FB88F868B9681A46012300F016F838
:1007C0001037BD4680BD00BF80B584B000AFF86073
:1007D000B9601346FB80FB88F868B9681A460023A5
:1007E00000F004F81037BD4680BD00BF80B584B06E
:1007F00000AFF860B96011461A460B46FB801346FD
:100800007B717B79F868194607F0D8FAFA887B790A
:10081000B86811461A4608F049FB1037BD4680BD3E
:1008200080B584B004AF1D48012101F0ABFB00236B
:10083000009303230193032302931848022100220B
:10084000062300F059F91548012101F09BFB002314
:1008500000930323019303230293104802210022F3
:10086000072300F049F90E48012101F089FC0C48EA
:1008700001210222022308F0CBFC0948012108F0E3
:1008800029FC07484FF6FF7108F00AFC04480121D3
:1008900008F040FC00F048F8BD4680BD000802406A
:1008A0000004014080B584B004AF1D48012101F06F
:1008B00069FB00230093032301930223029318484A
:1008C00002210022002300F017F91548012101F050
:1008D00059FB002300930323019302230293104842
:1008E00002210022012300F007F90E48012101F046
:1008F00047FC0C4801210222022308F089FC094828
:10090000012108F0E7FB07484FF6FF7108F0C8FB2C
:100910000448012108F0FEFB00F026F8BD4680BD2A
:1009200000000240000C004080B500AF72B6094BD9
:1009300000221A80084B00221A80084B00221A80DD
:10094000074B00221A800748002108F09BFB62B683
:1009500080BD00BF0A0A0020080A0020040A002007
:10096000000A00200004014080B500AF72B6094BB8
:1009700000221A80084B00221A80084B00221A809D
:10098000074B00221A800748002108F07BFB62B663
:1009900080BD00BF0E0A00200C0A0020060A0020BD
:1009A000020A0020000C004080B500AF174B1B88E6
:1009B0009AB2174B1A80174808F080FB03469AB288
:1009C000124B1A80114B1B889BB29AB2104B1B889A
:1009D0009BB29BB2D31A9BB29AB20F4B1A800E4BAA
:1009E0001B889BB29AB20D4B1B889BB29BB21344DF
:1009F0009BB29AB2094B1A80074B1B889BB2002B03
:100A000002D0012000F076FD80BD00BF080A002062
:100A10000A0A002000040140040A0020000A002005
:100A200080B500AF1C4B1B889AB21C4B1A801C4827
:100A300008F044FB03469AB2174B1A80164B1B88EA
:100A40009BB29AB2154B1B889BB29BB2D31A9BB236
:100A50009AB2144B1A80134B1B889BB29AB2124B5A
:100A60001B889BB29BB213449BB29AB20E4B1A8066
:100A70000C4B1B889BB2002B0DD0012000F03AFDDF
:100A8000084B1B889BB21BB2002B02DD01F04AF819
:100A900001E001F041F880BD0C0A00200E0A0020A0
:100AA000000C0040060A0020020A002080B586B033
:100AB00000AFF8607B600B46FB721346BB72F868B0
:100AC000012101F05FFAFB7A3B75BB7ABB757B684D
:100AD000012202FA03F33B6197F82030FB7597F887
:100AE00024307B7507F11003F868194607F046FBC0
:100AF0001837BD4680BD00BF80B586B002AFF86034
:100B00007B600B46FB721346BB727B689BB203F0A3
:100B10000F039AB297F82030F86811461A4607F08A
:100B2000E5FBF97ABA7A3B7E00933B7F0193F86844
:100B30007B68FFF7BBFF1037BD4680BD80B588B02E
:100B400000AFF860B96011461A460B46FB711346B8
:100B5000BB71F868012101F015FA4FF480400121C2
:100B600007F06EFDF86800F065F803461A46BB68AA
:100B7000DBB203F00F03DBB21046194608F0D6F9DA
:100B8000BB68012202FA03F37B61BB793B76FB79F8
:100B90007B760123BB7607F11403184607F054FA5D
:100BA000BB6803F00F030F2B37D801A252F823F0D4
:100BB000F10B0008F70B0008FD0B0008030C000800
:100BC000090C00080F0C00080F0C00080F0C00089F
:100BD0000F0C00080F0C0008150C0008150C00087D
:100BE000150C0008150C0008150C0008150C000861
:100BF0000623FB7711E00723FB770EE00823FB7742
:100C00000BE00923FB7708E00A23FB7705E01723B5
:100C1000FB7702E02823FB7700BFF97F97F82820B5
:100C200097F82C30084611461A4601F091F8203703
:100C3000BD4680BD80B483B000AF78607B68244A35
:100C4000934201D100233CE07B68224A934201D1C8
:100C5000012336E07B68204A934201D1022330E031
:100C60007B681E4A934201D103232AE07B681C4A19
:100C7000934201D1042324E07B681A4A934201D1B4
:100C800005231EE07B68184A934201D1062318E031
:100C90007B68164A934201D1072312E07B68144A0D
:100CA000934201D108230CE07B68124A934201D1A0
:100CB000092306E07B68104A934201D10A2300E031
:100CC000002318460C37BD465DF8047B704700BF13
:100CD000000002400004024000080240000C0240F4
:100CE000001002400014024000180240001C0240A4
:100CF00000200240002402400028024090B589B044
:100D000004AF00F0BFF8002000F018FA02F026FF50
:100D1000002000F027FA012000F010FA00F072FB2A
:100D2000012000F01FFA022000F008FA01F02AF872
:100D3000022000F017FA032000F000FAFFF770FD20
:100D4000FFF7B0FD032000F00DFA042000F0F6F9E3
:100D5000FFF782FC042000F005FA052000F0EEF910
:100D600001F096FB052000F0FDF9062000F0E6F901
:100D7000FFF796FA062000F0F5F9072000F0DEF9FB
:100D800001F07CFB072000F0EDF9082000F0D6F917
:100D900001F02EFC082000F0E5F9092000F0CEF962
:100DA00001F00CFD092000F0DDF90A2000F0C6F981
:100DB00002F03EFF0A2000F0D5F90B2000F0BEF94A
:100DC00000F054FF0B2000F0CDF900F0FBFB0020F9
:100DD00037217F22372302F05DFA234BFB60234B40
:100DE000BB60234B7B60B86809F024FB0446F868BD
:100DF00009F020FB03461C44786809F01BFB0346FE
:100E000023440633184608F08DFE03463B60194B19
:100E100000937B68019338681749BA68FB6809F04A
:100E2000E3FA3B680093154A01AB92E8030083E8BC
:100E3000030000230393002000217F22352302F0CA
:100E4000B3F84FF4FA60FFF7E1FB00F085F80C4BC4
:100E500001221A700C2000F071F90C2000F082F9C8
:100E60001437BD4690BD00BFCC070108D407010868
:100E7000F4070108180801080C080108C402010859
:100E80001015002080B500AF00201A4900F04CF882
:100E90000120194900F048F80220184900F044F8F0
:100EA0000320174900F040F80420164900F03CF8F0
:100EB0000520154900F038F80620144900F034F8F0
:100EC0000720134900F030F80820124900F02CF8F0
:100ED0000920114900F028F80A20104900F024F8F0
:100EE0000B200F4900F020F80C200E4900F01CF8F0
:100EF00080BD00BF2008010828080108300801084B
:100F00003C08010848080108500801085408010875
:100F1000580801085C080108600801086808010811
:100F20006C0801087808010880B483B000AF03465C
:100F30003960FB71FB7906493A6841F82320FB7957
:100F4000044A0021D1540C37BD465DF8047B70473C
:100F5000AC1400209C14002090B585B004AF002094
:100F600000217F22352302F009FC6F4B00936F4A6A
:100F700001AB92E8030083E8030000230393002001
:100F800000217F22352302F00FF8694B1C68694B62
:100F90001A78694B01925A6800921B6800201E2142
:100FA000224602F031F9624B5C68624B5A78624B20
:100FB00001925A6800921B6800201421224602F018
:100FC00023F95B4B9C685B4B9A785B4B01925A68A8
:100FD00000921B6800200A21224602F015F9544BAA
:100FE000DC68544BDA78544B01925A6800921B68C3
:100FF00000200021224602F007F94D4B1C694D4BA1
:101000001A794D4B01925A6800921B6846201E21A6
:10101000224602F0F9F8464B5C69464B5A79464B3A
:1010200001925A6800921B6846201421224602F061
:10103000EBF83F4B9C693F4B9A793F4B01925A68C2
:1010400000921B6846200A21224602F0DDF8384B48
:10105000DC69384BDA79384B01925A6800921B6888
:1010600046200021224602F0CFF84FF4FA60FFF745
:10107000CDFA002000217F22352302F07FFB2A4B8E
:1010800000932A4A01AB92E8030083E8030000239F
:101090000393002000217F22352301F085FF244B9C
:1010A0001C6A244B1A7A244B01925A6800921B68DE
:1010B00000201E21224602F0A7F81D4B5C6A1D4B42
:1010C0005A7A1D4B01925A6800921B680020142125
:1010D000224602F099F8164B9C6A164B9A7A164BE8
:1010E00001925A6800921B6800200A21224602F0F1
:1010F0008BF80F4BDC6A0F4BDA7A0F4B01925A6870
:1011000000921B6800200021224602F07DF84FF477
:10111000FA60FFF77BFA002000217F22352302F0DE
:101120002DFB0437BD4690BD8C080108CC02010898
:10113000AC1400209C140020C402010880B582B0C9
:1011400000AF0346FB71FB79044A52F82330044890
:10115000194609F071F80837BD4680BDAC1400206F
:101160009C08010880B582B000AF0346FB71FB7993
:10117000044A0121D154044809F0A0F80837BD46BB
:1011800080BD00BF9C140020B008010880B400AFEF
:10119000BD465DF8047B704780B500AF014809F09B
:1011A0004BF8FEE7BC08010880B500AF014809F024
:1011B00043F8FEE7C808010880B500AF014809F010
:1011C0003BF8FEE7E408010880B500AF014809F0EC
:1011D00033F8FEE7F008010880B500AF014809F0D8
:1011E0002BF880BD0009010880B500AF014809F067
:1011F00023F880BD1009010880B500AF014809F04F
:101200001BF880BD2009010880B500AFFFF734FA54
:10121000FFF7CAFBFFF704FC80BD00BF80B500AF3D
:1012200000F030FE00F082FE00F042FE00F06AFEA8
:1012300000F054FE00F090FE80BD00BF80B500AF0E
:10124000024809F03BF802F0EDFC80BD2C090108D2
:1012500080B500AF01F086FB80BD00BF80B500AF58
:1012600001F0F4F980BD00BF80B500AF01F052FA83
:1012700080BD00BF80B500AF19481A4906F05EFE78
:101280000346012B0CD11648174906F0EFFD144810
:10129000144906F0ABFE12480821002206F014FEA5
:1012A0000F48124906F04AFE0346012B16D10C489E
:1012B0004FF0815106F0DAFD09480C4906F096FE20
:1012C00007481021002206F0FFFD0548002106F026
:1012D00075FD07480121002207F0E8FD80BD00BF31
:1012E00040640240004010100000101000802010E8
:1012F0000030014080B500AF2548264906F01EFEAB
:101300000346012B0DD122484FF0A05106F0AEFD4F
:101310001F48204906F06AFE1D480821002206F0F9
:10132000D3FD1B481C4906F009FE0346012B2DD1B5
:1013300017484FF0C05106F099FD1548164906F0C0
:1013400055FE13481021002206F0BEFD1048002172
:1013500006F034FD11480221002207F0A7FD00BF6E
:101360000F4B1B6803F00103002BF9D100BF084BA2
:101370001B6803F00103002BF9D10848002107F096
:1013800067FD08480421012206F086FF80BD00BFEA
:1013900058640240004000140080001800300140F2
:1013A000406402400000024080B500AF034808F0EE
:1013B00085FF034803F0F8FF80BD00BF4009010826
:1013C000AC0C002080B500AF0B4808F077FF0B4B4A
:1013D0009B7A002B0AD00A4A094B1B6823F00603AC
:1013E000136006F0ABFA054803F098FD4FF4802037
:1013F00006F0B6FE80BD00BF54090108AC0C002009
:1014000010ED00E080B582B002AF0023009303230B
:1014100001932448012100220223FFF747FB2148C2
:101420000421002206F038FF0023009303230193D8
:101430001C48012100220323FFF738FB194808212B
:10144000002206F029FF002300930323019315488F
:10145000012100220423FFF729FB1248102100225A
:1014600006F01AFF00230093032301930D48012186
:1014700000220523FFF71AFB0A482021002206F06C
:101480000BFF002300930323019306480121002250
:101490000623FFF70BFB03484021002206F0FCFE69
:1014A000BD4680BD0010024080B582B000AF03464B
:1014B0000A46FB711346BB71FB790C4A52F82310A4
:1014C000FB790B4A52F823301A46012393409AB213
:1014D000BB79002B14BF01230023DBB20846114661
:1014E0001A4606F0D9FE0837BD4680BD0000002030
:1014F0001400002080B582B000AF0346FB71FB7979
:10150000084A52F82310FB79074A52F823301A464A
:10151000012393409BB20846194606F0D5FE0837D2
:10152000BD4680BD000000201400002090B58BB0A7
:1015300002AFFFF7E3FB0023FB61FB690133FB61B3
:1015400001F08EFA03463B811B4B5B78FB761A4B0E
:101550001B781A46920013445B00DBB20933BB765A
:1015600007F10C0318461549FA6908F03DFF7A7A2D
:10157000FB7ED31AD9B27B7ABA7E002002F0FEF845
:101580007A7AFB7ED31ADBB2013BD9B207F10C04A5
:10159000094B5A6800921B680020224601F064FC47
:1015A000FEF73EFF0648F96908F046FE4FF47A70F0
:1015B000FFF72CF8C1E700BFC40201086C0901085D
:1015C0007409010880B586B000AF434B00221A6051
:1015D000414B1B680133404A13603F4B1B683F4A35
:1015E000D3613E4B01221A763D4B00221A703B48D4
:1015F0003C49002200F0B4F8786138483A490022AA
:1016000000F0AEF8386135483849002200F0A8F8FB
:10161000F86032483649002200F0A2F8B8602F483E
:101620003449002200F09CF8786038693249334A26
:1016300000F096F838693249324A00F091F838697A
:101640003149002200F08CF838693049304A00F006
:1016500087F878692F49304A00F082F878692F4975
:101660002F4A00F07DF878692E492F4A00F078F86B
:10167000F8682E492E4A00F073F8F8682D490022C8
:1016800000F06EF8F8682C49002200F069F8B8689C
:101690002A492B4A00F064F8B8682A492A4A00F01F
:1016A0005FF8B8682949264A00F05AF8786828494E
:1016B000002200F055F878682649002200F050F822
:1016C00078682549002200F04BF8244B034A1A6041
:1016D0001837BD4680BD00BF0C150020E014002067
:1016E00010150020880901088C09010894090108D7
:1016F000980901089C090108A8090108011C0008B3
:10170000B80901080D1C0008C8090108D80901081A
:10171000191C0008EC090108251C0008F80901083B
:10172000311C0008040A01083D1C0008140A0108C5
:10173000491C0008200A01082C0A01083C0A01087B
:10174000551C0008480A0108611C0008540A0108D9
:10175000640A0108740A0108840A010804150020BB
:1017600080B586B000AFF860B9607A6001202421AE
:1017700008F08AF903467B617B69002B1BD07B69EB
:10178000FA685A607B69BA685A617B697A681A623A
:10179000FB681B780133DAB27B691A70084B1B684F
:1017A0000133074A1360064B1A687B69DA61F868EF
:1017B000796900F007F87B6918461837BD4680BD87
:1017C0000C15002080B485B000AF786039603B68AC
:1017D0007A685A607B689B68002B06D17B683A6800
:1017E0009A603B6801221A7610E07B689B68FB6078
:1017F00002E0FB681B69FB60FB681B69002BF8D1EA
:10180000FB683A681A613B68FA68DA601437BD46CB
:101810005DF8047B704700BF90B593B002AF78606D
:101820007B689B68002B00F0D58000233B77352335
:101830007B777F233B7600237B766B4A07F10C0393
:1018400092E8030083E803003B7B0133162202FB8E
:1018500003F37B627A7F7B7BB2FBF3F3DBB2FB6348
:101860007B7B0133FA6B02FB03F3013B7A7F9342EC
:1018700002D8FB6B0133FB637B689B68BB6300236F
:101880007B6300233B630023FB6228E07B6B013317
:101890007B63BB6B1B7E012B08D13B6B002B03D002
:1018A000BB6B00221A7601E07B6B3B637A6BFB6BB0
:1018B0009A4211D8BB6B5B69184608F0BBFD024623
:1018C000FB6A9A4206D3BB6B5B69184608F0B2FD0F
:1018D000034600E0FB6AFB62BB6B1B69BB63BB6B2F
:1018E000002BD3D13B7B01331A46FB6A02FB03F387
:1018F000FB62FA6A7B6A934238BF1346FB627B68DD
:101900009B68BB623B7F3B757B7F023BDBB27B7599
:1019100059E07B7D1A467B7E19467B7B0B44013B5D
:101920009A424DDBBB6A5B69184608F083FD0346AB
:101930003A7B013202FB03F3FA6AD31A5B083B627B
:10194000BB6A1B7E002B24D0387D7B7D0233D9B24D
:101950003A7DFB6ADBB21344DCB27A7D7B7BD31A1F
:10196000DBB20133DBB2224601F0ECFE3A7D3B6A8A
:10197000DBB21344D8B27A7D7B7BD31AD9B2BB6A6F
:101980005A69002301933B690093FB6801F0BEFA9A
:101990000FE03A7D3B6ADBB21344D8B27A7D7B7BA1
:1019A000D31AD9B2BB6A5A693B690093FB6801F04C
:1019B0005BFA7A7D7B7BD31ADBB2023BDBB27B75B1
:1019C000BB6A1B69BB62BB6A002BA2D1074B012219
:1019D0001A7006E07B681B6A002B02D07B681B6ACA
:1019E00098474437BD4690BDC40201081015002039
:1019F00080B500AF0D4B1B78002B15D00C4B5B7ADC
:101A0000002B11D00A4B1B7B002B0DD00020352161
:101A10007F22002301F0B2FE064B1B681846FFF739
:101A2000FBFE024B00221A7080BD00BF1015002083
:101A30009C1400200415002080B584B000AF03463C
:101A4000FB71304B1B681846FEF75EFE0346322BD7
:101A500050D9FB79002B22D12B4B1B689B68002BA4
:101A600016D0294B1B689B68FB6002E0FB681B6972
:101A7000FB60FB681B7E002BF8D0FB68DB68002B4B
:101A800006D0FB6800221A76FB68DB6801221A7612
:101A90001E4808F013FC1E4B01221A702AE0FB7945
:101AA000012B22D1184B1B689B68002B16D0164BBC
:101AB0001B689B68BB6002E0BB681B69BB60BB68BE
:101AC0001B7E002BF8D0BB681B69002B06D0BB68BF
:101AD00000221A76BB681B6901221A760D4808F0AD
:101AE000EDFB0B4B01221A7004E0FB79022B01D0B5
:101AF000FB79032BFEF7ECFD0246024B1A60103710
:101B0000BD4680BD100A002004150020680B0108A6
:101B100010150020780B010880B500AF0020FFF7FA
:101B20008BFF80BD80B500AF0120FFF785FF80BD32
:101B300080B582B000AF124B1B681846FEF7E4FD7B
:101B40000346322B14D90F4B1B689B687B607B6864
:101B5000002B0DD002E07B681B697B607B681B7EDD
:101B6000002BF8D0074A7B681360074B01221A70DC
:101B7000FEF7AEFD0246024B1A600837BD4680BD37
:101B8000100A0020041500201015002080B582B036
:101B900000AF184B1B681846FEF7B6FD0346322B04
:101BA00020D9154B1B687B607B68002B1AD002E0A4
:101BB0007B68DB687B607B68DB68002BF8D102E028
:101BC0007B681B697B607B681B7E002BF8D07B6881
:101BD0005B68002B03D07B685B68074A1360074B88
:101BE00001221A70FEF774FD0246024B1A60083794
:101BF000BD4680BD100A00200415002010150020ED
:101C000080B400AFBD465DF8047B704780B400AF80
:101C1000BD465DF8047B704780B400AFBD465DF8FB
:101C2000047B704780B400AFBD465DF8047B70470D
:101C300080B400AFBD465DF8047B704780B400AF50
:101C4000BD465DF8047B704780B400AFBD465DF8CB
:101C5000047B704780B400AFBD465DF8047B7047DD
:101C600080B400AFBD465DF8047B704780B586B098
:101C700006AF002300930323019332480121002281
:101C80000923FEF713FF2F484FF40071002206F0DE
:101C900003FB00230093032301932A480021002221
:101CA0000823FEF703FF1720FF21002200F050F861
:101CB000002300930323019305230293224802216A
:101CC00000220E23FEF718FF002300930323019345
:101CD000052302931C48022100220E23FEF70CFF6D
:101CE0000023009303230193052302931648022146
:101CF00000220F23FEF700FF00230093032301932C
:101D0000052302931048022100220D23FEF7F4FE62
:101D100000230093002301934FF4007302930823E0
:101D200003930023049307230593084800214FF4ED
:101D30008272002300F008FD0448012107F088F8B2
:101D4000BD4680BD000C0240000402400038004047
:101D500080B584B000AF0346FB710B46BB711346E0
:101D60007B71FB793B73BB797B737B79BB730123FD
:101D7000FB7307F10C03184605F098FE1037BD46BB
:101D800080BD00BF80B582B002AF00230093032363
:101D900001933B48002100220F23FEF787FE0F230B
:101DA00000930F23019336480F2108220023FEF7EA
:101DB000C5FE002300930323019331480021002234
:101DC0000E23FEF773FE0F2300930F2301932C487D
:101DD0000E2108220023FEF7B1FE00230093032307
:101DE00001932748002100220D23FEF75FFE0F23F9
:101DF00000930F23019322480D2108220023FEF7B0
:101E00009DFE00230093032301931D48002100221F
:101E10000C23FEF74BFE0F2300930F23019318486A
:101E20000C2108220023FEF789FE002300930323E0
:101E300001931348002100220B23FEF737FE0F23E6
:101E400000930F2301930E480B2108220023FEF775
:101E500075FE00230093032301930948002100220B
:101E60000A23FEF723FE0F2300930F230193044858
:101E70000A2108220023FEF761FEBD4680BD00BF97
:101E8000000C024080B500AF4FF4004006F04EF960
:101E90000346002B08D04FF4004006F061F90348D8
:101EA00008F00CFAFFF738FE80BD00BF8C0B01086C
:101EB00080B500AF4FF4804006F038F90346002BA0
:101EC00008D04FF4804006F04BF9034808F0F6F9CB
:101ED000FFF75CFE80BD00BF9C0B010880B500AF22
:101EE0004FF4005006F022F90346002B06D04FF4C1
:101EF000005006F035F9024808F0E0F980BD00BF57
:101F0000B00B010880B500AF4FF4805006F00EF919
:101F10000346002B06D04FF4805006F021F902480A
:101F200008F0CCF980BD00BFC40B010880B500AF3C
:101F30004FF4006006F0FAF80346002B08D04FF487
:101F4000006006F00DF9034808F0B8F9FFF7EAFD64
:101F500080BD00BFD80B010880B500AF4FF4806092
:101F600006F0E4F80346002B08D04FF4806006F03A
:101F7000F7F8034808F0A2F9FFF7DAFD80BD00BFCB
:101F8000EC0B010880B582B000AF78600B46FB70A7
:101F90007B68394A934205D1FB780120194606F047
:101FA000F5FA65E07B68354A934205D1FB7802205B
:101FB000194606F0EBFA5BE07B68314A934205D1A3
:101FC000FB780420194606F0E1FA51E07B682D4ABF
:101FD000934205D1FB780820194606F0D7FA47E06E
:101FE0007B68294A934205D1FB781020194606F0F8
:101FF000CDFA3DE07B68254A934205D1FB7820204D
:10200000194606F0C3FA33E07B68214A934205D1B2
:10201000FB784020194606F0B9FA29E07B681D4A92
:10202000934205D1FB788020194606F0AFFA1FE0F5
:102030007B68194A934206D1FB784FF480701946A9
:1020400006F0A4FA14E07B68144A934206D1FB78A8
:102050004FF40070194606F099FA09E07B68104ABF
:10206000934205D1FB784FF48060194606F08EFA52
:102070000837BD4680BD00BF00000240000402409A
:1020800000080240000C0240001002400014024010
:1020900000180240001C02400020024000240240C0
:1020A0000028024080B582B000AF78600B46FB701C
:1020B0007B682B4A934205D1FB781020194606F025
:1020C000BFFA4AE07B68274A934206D1FB784FF477
:1020D0000030194606F096FA3FE07B68224A9342A8
:1020E00006D1FB784FF48020194606F08BFA34E0D5
:1020F0007B681E4A934206D1FB784FF400201946B4
:1021000006F080FA29E07B68194A934206D1FB78F1
:102110004FF48010194606F075FA1EE07B68154AE8
:10212000934205D1FB782020194606F089FA14E085
:102130007B68114A934206D1FB784FF080401946E4
:1021400006F060FA09E07B680C4A934205D1FB78FF
:102150004FF00040194606F055FA0837BD4680BDDD
:10216000001001400044004000480040004C004086
:10217000005000400014014000780040007C004006
:1021800080B582B000AF78600B46FB707B68B3F11E
:10219000804F05D1FB780120194606F033FA84E020
:1021A0007B68434A934205D1FB780220194606F02A
:1021B00029FA7AE07B683F4A934205D1FB780420F4
:1021C000194606F01FFA70E07B683B4A934205D13E
:1021D000FB780820194606F015FA66E07B68374A56
:1021E000934205D1FB781020194606F00BFA5CE00B
:1021F0007B68334A934205D1FB782020194606F0CC
:1022000001FA52E07B682F4A934205D1FB784020C7
:10221000194606F0F7F948E07B682B4A934205D14E
:10222000FB788020194606F0EDF93EE07B68274AEE
:10223000934206D1FB784FF48070194606F0E2F91C
:1022400033E07B68224A934205D1FB78012019468E
:1022500006F0F6F929E07B681E4A934205D1FB7827
:102260000220194606F0ECF91FE07B681A4A9342F7
:1022700006D1FB784FF48030194606F0E1F914E0FE
:102280007B68164A934206D1FB784FF4003019461A
:1022900006F0D6F909E07B68114A934205D1FB7834
:1022A0004FF48020194606F0CBF90837BD4680BDB3
:1022B0000004004000080040000C004000100040F6
:1022C0000014004000180040001C004000200040A6
:1022D0000000014000040140004001400044014072
:1022E0000048014080B582B000AF78600B46FB70BB
:1022F0007B68214A934206D1FB784FF4804019460F
:1023000006F080F935E07B681C4A934206D1FB78E1
:102310004FF40040194606F075F92AE07B68184A28
:10232000934206D1FB784FF48050194606F088F9A5
:102330001FE07B68134A934206D1FB784FF480502C
:10234000194606F07DF914E07B680F4A934206D1E6
:10235000FB784FF48010194606F072F909E07B68AB
:102360000A4A934205D1FB784FF40010194606F053
:1023700067F90837BD4680BD00380040003C00408A
:102380000030014000340140005001400054014041
:1023900080B582B000AF78600B46FB707B68274A3F
:1023A00093421BD07B68264A934217D07B68254A0C
:1023B000934213D07B68244A93420FD07B68234A10
:1023C00093420BD07B68224A934207D07B68214A14
:1023D000934203D07B68204A934205D1FB784FF4A7
:1023E0000010194606F0D2F87B681C4A93421BD0B5
:1023F0007B681B4A934217D07B681A4A934213D0DA
:102400007B68194A93420FD07B68184A93420BD0DD
:102410007B68174A934207D07B68164A934203D0E1
:102420007B68154A934205D1FB784FF4800019462A
:1024300006F0ACF80837BD4680BD00BF1060024012
:1024400028600240406002405860024070600240D4
:1024500088600240A0600240B86002401064024000
:1024600028640240406402405864024070640240A4
:1024700088640240A0640240B864024080B500AFA6
:102480004020012106F0A0F8012006F06DF980BD82
:1024900080B584B000AF0023FB604FF08050012175
:1024A00006F0B0F8012005F069FF012005F076FF85
:1024B00000BF612006F01EF90346002BF9D04FF44F
:1024C000007006F025F81D4BFF221A601C4B7F227E
:1024D0001A60012006F04AF806F0E6F9184B1B686E
:1024E0007B60164B1B68BB6000233B603B46184675
:1024F00006F056F9134B1522DA70124B04225A706B
:10250000104B18229A700F4B06221A7001200D49A9
:1025100006F0DEFA0C4B4022DA700B4B16221A70D2
:10252000094B10225A70084B00229A70012006496C
:1025300006F0F6F91037BD4680BD00BF180A00202E
:10254000140A0020200A00201C0A0020B0B586B022
:1025500002AF00F085FA03463B80224B5B78FB73A9
:10256000204B1B78DB00DBB20733BB7300201E4916
:1025700006F060FA1C4B1B781D461B4B5B781C4613
:10258000194B9B781A463B1D0092184617492A465C
:10259000234607F029FF3A78BB7BD31ADBB2013B15
:1025A000D8B27A78FB7BD31AD9B23B78013BDAB246
:1025B0007B7801F0E3F83A78BB7BD31ADBB2013BBE
:1025C000D8B27A78FB7BD31ADBB2013BD9B23C1D7F
:1025D000044B5A6800921B68224600F045FC1037F5
:1025E000BD46B0BDC40201081C0A0020000C010851
:1025F00080B500AF312001210022FFF7A9FB0F4871
:1026000000214FF40C7207F0C5FD00200B4905F0C6
:1026100017F903461A460A4B1A70094B1B78002B10
:1026200005D0074B1B780748194607F005FE0648FA
:1026300000214FF4097207F0ADFD80BD3015002078
:102640001C180020100C01082018002080B500AFD5
:102650004FF4807006F024FB0346002B0AD02B4B6E
:1026600000221A704FF4807006F034FB284B0122D0
:102670001A6041E0022006F013FB0346002B06D04F
:10268000022006F027FB214B02221A7034E00820BA
:1026900006F006FB0346002B06D0082006F01AFBC6
:1026A0001A4B04221A7027E0202006F0F9FA03469C
:1026B000002B06D0202006F00DFB144B06221A70CA
:1026C0001AE0102006F0ECFA0346002B06D010208A
:1026D00006F000FB0D4B05221A700DE04FF4007060
:1026E00006F0DEFA0346002B06D04FF4007006F029
:1026F000F1FA064B07221A704CF23A30002106F02C
:10270000B1FA024B1B78DBB2184680BD240A0020C8
:10271000280A002080B500AF064B1A68064B13400C
:10272000002B06D0054B01221A600548054905F02B
:102730009DFB80BD00640240000020202C0A002088
:10274000A06402400000212080B58AB000AFF8608C
:10275000084611461A4603467B810B463B811346C9
:10276000FB80F86806F0C4FAF8680121FFF7BAFDAB
:102770007B89BB823B89FB82FB883B833B8E7B83CF
:10278000BB8EBB833B8FFB83BB8F3B84B7F8403052
:102790007B84B7F84430BB8407F11403F86819460A
:1027A00006F012FB00BFF868022106F0A3FB034607
:1027B000002BF8D02837BD4680BD00BF80B586B05D
:1027C00006AF4A4B40225A70484B80221A70474B42
:1027D0004FF480625A60454B01221A72434B032228
:1027E0005A72424B00221A74404B5B68184607F03D
:1027F00099F903461A463D4BDA603C4BDB68002BE7
:102800000AD13A4BDB68184607F094F9384807F0CC
:1028100013FD012007F076F90023009303230193B1
:102820003448012100220623FEF740F931484021B7
:10283000002205F031FD00230093032301932D486E
:10284000012100220723FEF731F92A4880210022C6
:1028500005F022FD00230093032301932548012165
:1028600000220823FEF722F922484FF4807100224B
:1028700005F012FD02230093032301930623029324
:102880001C48022100220523FEF736F9022300939B
:1028900003230193062302931648022100220323F7
:1028A000FEF72AF914480121FFF71CFD00230093CD
:1028B000002301934FF4007302930023039300233A
:1028C0000493072305930C484FF440414FF4827260
:1028D0000023FFF739FF0848012106F0B9FA00F09C
:1028E000B1FF064B00221A70BD4680BD300A0020A1
:1028F000800D010800040240003C0040101500203B
:1029000080B500AF012001F051F8002001F05EF821
:102910001248002106F09CFA01F098F810480F497F
:102920000222FDF73FFF0D48012106F091FA00BF9A
:102930000B484FF0205105F05DFA0346002BF7D00D
:10294000074806490222FDF73FFF0548002105F030
:1029500035FA012001F03AF880BD00BF003C00408C
:10296000B860024080B500AF0B48012106F016FCAC
:102970000346002B0FD00848012106F039FC002047
:102980000121FEF791FDFFF733F8FFF7B9FF0020B3
:102990000021FEF789FD80BD001C004080B582B09B
:1029A00000AF0346FB71FB79002B0CD1A02001F096
:1029B0001FF8C02001F01CF8202001F019F80120B8
:1029C00001F016F82EE0FB79012B0CD1A12001F0CB
:1029D0000FF8C82001F00CF8202001F009F80120C0
:1029E00001F006F81EE0FB79022B0CD1A12000F0CB
:1029F000FFFFC02000F0FCFF202000F0F9FF0020C6
:102A000000F0F6FF0EE0FB79032B0BD1A02000F0C5
:102A1000EFFFC82000F0ECFF202000F0E9FF0020CD
:102A200000F0E6FF0837BD4680BD00BF80B582B02C
:102A300000AF0346FB71094AFB791372FB79012B46
:102A400003D1A62000F0D4FF05E0FB79002B02D1D2
:102A5000A72000F0CDFF0837BD4680BD300A00201A
:102A600080B483B000AF164B5B7A022B03D0144BBB
:102A70005B7A032B06D1124B1B783B70104B5B78B3
:102A80007B700DE00E4B5B7A002B03D00C4B5B7A16
:102A9000012B05D10A4B5B783B70094B1B787B708F
:102AA0003B88BB8000233A7962F307037A7962F3AB
:102AB0000F2318460C37BD465DF8047B704700BFF6
:102AC000300A002080B586B000AF78600846114615
:102AD0001A460346FB700B46BB7013467B70FA78B0
:102AE000BB781046194600F0E5FF0346BB817A78B3
:102AF00097F820301046194600F0DCFF03463B8172
:102B00003A7B3B7A934228BF1346DBB23B747A7A16
:102B10007B7B934238BF1346DBB27B743A7A3B7BB4
:102B2000934238BF1346DBB2BB747A7A7B7B934205
:102B300038BF1346DBB2FB743A7B3B7A934228BF23
:102B40001346DBB23B757A7B7B7A934228BF1346F0
:102B5000DBB27B753A7A3B7B934238BF1346DBB2DC
:102B6000BB757A7B7B7A934228BF1346DBB2FB7539
:102B70007B681A4607F1100303CB10605160786838
:102B80001837BD4680BD00BF90B585B000AF034685
:102B9000FB710B46BB7113467B71FFF761FF034668
:102BA000BB813B7BFA799A4280F0B1807B7BBA791A
:102BB0009A4280F0AC80574B5B7A022B03D0554B86
:102BC0005B7A032B4ED17B79002B24D0514BDB68F1
:102BD000F979BA79D208D4B220464E4A127802FB6B
:102BE00000F20A4413444B4AD268F87949490978FB
:102BF00001FB04F101440A441278D0B2BA7902F020
:102C00000702012101FA02F2D2B201460A43D2B20E
:102C1000D2B21A707BE03F4BDB68F979BA79D208FF
:102C2000D4B220463B4A127802FB00F20A44134415
:102C3000384AD268F8793749097801FB04F1014430
:102C40000A441278D0B2BA7902F00702012101FADF
:102C500002F2D2B2D243D2B201460A40D2B2D2B2CA
:102C60001A7054E02B4B5B7A002B03D0294B5B7A14
:102C7000012B4CD17B79002B23D0264BDA68FB79D2
:102C8000DB08D8B20446BB792249497801FB03F33B
:102C9000002B00DA0733DB10E1180A441D49C9682C
:102CA00003440B441B78D8B2FB7903F007030121DE
:102CB00001FA03F3DBB201460B43DBB2DBB2137064
:102CC00025E0144BDA68FB79DB08D8B20446BB79FF
:102CD0001049497801FB03F3002B00DA0733DB10BE
:102CE000E1180A440B49C96803440B441B78D8B265
:102CF000FB7903F00703012101FA03F3DBB2DB43A5
:102D0000DBB201460B40DBB2DBB21370FFE71437D6
:102D1000BD4690BD300A002082B02DE9F04389B055
:102D200000AF7B640346FB710B46BB7113467B719E
:102D30006B461E4697F844100B46013B7B61CAB2B6
:102D40004FF000034FEAC30949EA52794FEAC2083B
:102D5000CAB24FF00003DD0045EA5275D4000B46BD
:102D60000733DB08DB00ADEB030D6B4600333B6143
:102D700097F846307A799A421ED397F847307A7995
:102D80009A4219D80023FB7710E0FB7FBA6C79795F
:102D9000203997F8440000FB01F0F97F01440A4410
:102DA00011783A69D154FB7F0133FB7797F84430AF
:102DB000FA7F9A42E9D30EE00023FB7706E0FB7F1F
:102DC0003A69FF21D154FB7F0133FB7797F84430F8
:102DD000FA7F9A42F3D30023BB8338E000237B833E
:102DE0002CE00023FB73BB8B3A69D35C1A4697F83F
:102DF000453019467B8BDB430B4402FA03F3FB732C
:102E0000FB7BDB09FB73FB7B002B14D0BB8BDAB2A3
:102E1000FB791344D9B297F84520BB791344DAB251
:102E20007B8BDBB2D31ADAB297F84C3008461146E6
:102E30001A46FFF7A9FE7B8B01337B837A8B97F8C9
:102E4000453001339A42CCDBBB8B0133BB8397F80F
:102E500044309BB2BA8B9A42C0D3B5462437BD46A4
:102E6000BDE8F04302B0704782B080B584B002AFD5
:102E70003A607B610346FB710B46BB71F979BA7905
:102E800001230193BB6900937B69084611463A68A8
:102E900000F006F80837BD46BDE8804002B0704734
:102EA00082B090B587B002AF3A607B620346FB7197
:102EB0000B46BB710023FB731BE097F824300133F2
:102EC000DAB2FB7B12FB03F3DAB2FB791344D8B21C
:102ED000FB7B3A6813441B78DAB2B97997F82C3047
:102EE0000193BB6A00937B6AFFF716FFFB7B0133FC
:102EF000FB73FC7B386807F09DFA03469C42DCD3E9
:102F00001437BD46BDE8904002B0704782B090B51E
:102F100087B002AF3A607B620346FB710B46BB7120
:102F2000386807F087FA0346FB7397F824300133BB
:102F3000DAB2FB7B12FB03F3DBB2013BBB7397F806
:102F400025307B73FA7997F82C30D31AD8B2BA7936
:102F500097F82C30D31ADBB20133D9B2FA7997F84B
:102F60002C301344DAB2BB7B1344DCB2BA7997F845
:102F70002C301344DAB27B7B1344DBB2224600F0E0
:102F8000E1FBF979BA7900230193BB6A00937B6A6C
:102F9000084611463A68FFF783FF1437BD46BDE87F
:102FA000904002B0704700BF90B58DB002AF0446AC
:102FB000084611461A462346FB710346BB710B4671
:102FC0007B7113463B7107F10800F979BA797C7976
:102FD0003B7900932346FFF775FDBB7B1A463B7B8D
:102FE000D21A97F83C30013392FBF3F3BB617B7A42
:102FF0001A467B7BD21A97F83D30013392FBF3F3EC
:103000007B61B86B07F016FA3861387B797BBA7A46
:10301000FC7A00230093234600F0CCFB7B6CBA695A
:1030200002FB03F3FB6101233B62E3E000237B62CD
:10303000D8E0BA6BFB6913441B785BB20A2B05D14D
:10304000BB697B62FB690133FB61C8E0BA6BFB695A
:1030500013441B785BB2092B40F09180FB6901336C
:10306000FB613A7A97F83C300133D9B27B6ADBB224
:1030700011FB03F3DBB21344D8B27A7A97F83D30F0
:103080000133D9B23B6ADBB211FB03F3DBB2D31AD3
:10309000DAB2012301933B6C0093FB6B11462022B3
:1030A000FFF73AFE7B6A01337B623A7A97F83C304D
:1030B0000133D9B27B6ADBB211FB03F3DBB21344F9
:1030C000D8B27A7A97F83D300133D9B23B6ADBB295
:1030D00011FB03F3DBB2D31ADAB2012301933B6C89
:1030E0000093FB6B11462022FFF716FE7B6A01332B
:1030F0007B623A7A97F83C300133D9B27B6ADBB213
:1031000011FB03F3DBB21344D8B27A7A97F83D305F
:103110000133D9B23B6ADBB211FB03F3DBB2D31A42
:10312000DAB2012301933B6C0093FB6B1146202222
:10313000FFF7F2FD7B6A01337B623A7A97F83C3005
:103140000133D9B27B6ADBB211FB03F3DBB2134468
:10315000D8B27A7A97F83D300133D9B23B6ADBB204
:1031600011FB03F3DBB2D31ADAB2012301933B6CF8
:103170000093FB6B11462022FFF7CEFD2FE0BA6BC8
:10318000FB6913441B78002B31D0FA693B699A42E2
:103190002DD23A7A97F83C300133D9B27B6ADBB250
:1031A00011FB03F3DBB21344D8B27A7A97F83D30BF
:1031B0000133D9B23B6ADBB211FB03F3DBB2D31AA2
:1031C000D9B2FB695A1CFA61BA6B13441B78DAB2A4
:1031D000012301933B6C0093FB6BFFF79DFD7B6A22
:1031E00001337B627A6ABB699A42FFF422AF3B6A81
:1031F00001333B627B695A1C3B6A9A423FF616AF29
:103200002C37BD4690BD00BF82B090B585B002AFEF
:103210003A60FB610346FB710B46BB71BB7903331C
:10322000BB71FB790833DAB2BB790833DCB2F879C9
:10323000B97902230093234600F0DAF997F8243095
:10324000002B0DD0FB790233D8B2BB790233D9B24F
:10325000FB790633DAB2BB790733DBB200F072FADE
:103260003B7F0133DBB25B00DAB2FB791344D9B2A6
:10327000BB79013BDAB23B6A0093FB690846114611
:103280003A68FFF7F1FD0C37BD46BDE8904002B04B
:10329000704700BF90B585B002AF0446084611469E
:1032A0001A462346FB710346BB710B467B711346DE
:1032B0003B71F879B9797A793C79012300932346F7
:1032C00000F004F80C37BD4690BD00BF90B58BB040
:1032D00000AF0446084611461A462346FB710346D2
:1032E000BB710B467B7113463B71FA79BB79104673
:1032F000194600F0DFFB0346BB817A793B79104623
:10330000194600F0D7FB03463B813B7A1A463B7BCC
:10331000D31A002BB8BF5B423B623A7B3B7A9A429E
:1033200001D2012301E04FF0FF33FB617B7A1A46A3
:103330007B7BD31A002BB8BF5B42BB617A7B7B7A65
:103340009A4201D2012301E04FF0FF337B613A6AD8
:10335000BB699A4205DCBB695B42DA0F13445B1020
:1033600003E03B6ADA0F13445B107B62397B7A7BA4
:1033700097F83830084611461A46FFF705FC3A7BA5
:103380003B7A9A4204D17A7B7B7A9A4200D11FE041
:103390007B6A3B613B6A5A423B699A4209DA7A6A24
:1033A000BB69D31A7B623A7BFB69DBB21344DBB2A5
:1033B0003B733A69BB699A4209DA7A6A3B6A1344F9
:1033C0007B627A7B7B69DBB21344DBB27B73CDE734
:1033D0002C37BD4690BD00BF90B58BB002AF044600
:1033E000084611461A462346FB710346BB710B463D
:1033F0007B7113463B71FA797B799A4200F0F58034
:10340000BA793B799A4200F0F08007F10800F97927
:10341000BA797C793B7900932346FFF753FBFA791D
:103420007B799A428CBF01230023DBB2FB74BA790B
:103430003B799A428CBF01230023DBB2BB74FB7C37
:103440001B01DAB2BB7C1343DBB27B7497F83030DC
:10345000FB610023BB61FB69C3F101037B61BFE03A
:103460007B7C112B00F2A48001A252F823F000BF54
:10347000F734000835350008B1350008B1350008CB
:10348000B1350008B1350008B1350008B135000884
:10349000B1350008B1350008B1350008B135000874
:1034A000B1350008B1350008B1350008B135000864
:1034B000B9340008733500083A7BFB69DBB213446A
:1034C000D9B27A7BBB69DBB21344DBB2084619463A
:1034D0000122FFF759FB3A7BBB69DBB21344D9B237
:1034E0007A7BFB69DBB21344DBB208461946012242
:1034F000FFF74AFB5CE0BA7BFB69DBB2D31AD9B2B7
:10350000FA7BBB69DBB21344DBB2084619460122E1
:10351000FFF73AFBBA7BBB69DBB2D31AD9B2FA7BAD
:10352000FB69DBB21344DBB2084619460122FFF700
:103530002BFB3DE0BA7AFB69DBB2D31AD9B2FA7A37
:10354000BB69DBB2D31ADBB2084619460122FFF78A
:103550001BFBBA7ABB69DBB2D31AD9B2FA7AFB6920
:10356000DBB2D31ADBB2084619460122FFF70CFB87
:103570001EE03A7AFB69DBB21344D9B27A7ABB69AE
:10358000DBB2D31ADBB2084619460122FFF7FCFA78
:103590003A7ABB69DBB21344D9B27A7AFB69DBB2FF
:1035A000D31ADBB2084619460122FFF7EDFA00BF35
:1035B000BB690133BB617B69002B06DABB695B0029
:1035C00001337A6913447B610AE0FB69013BFB61CB
:1035D000BA69FB69D31A5B0001337A6913447B61D2
:1035E000FA69BB699A42BFF63BAF2437BD4690BD2E
:1035F000B0B586B002AF0446084611461A462346C7
:10360000FB710346BB710B467B7113463B7107F19F
:103610000800F979BA797C793B7900932346FFF762
:1036200051FA387B7A7B97F820301344D9B23D7A2F
:103630007A7A97F82030D31ADCB2012300932A4615
:103640002346FFF743FE387A7A7A97F82030D31A68
:10365000D9B23A7A97F820301344DAB27C7A97F8E4
:10366000203000932346FFF7B7FE3A7A97F82030D0
:103670001344D8B2797ABA7A97F82030D31ADAB2EA
:10368000FC7A012300932346FFF720FEB87AFA7AEA
:1036900097F82030D31AD9B2BA7A97F82030D31AD3
:1036A000DAB2FC7A97F8203000932346FFF794FEB5
:1036B000B87AFA7A97F82030D31AD9B2BD7BFA7B60
:1036C00097F820301344DCB2012300932A462346A6
:1036D000FFF7FCFDB87BFA7B97F820301344D9B292
:1036E000BA7B97F82030D31ADAB2FC7B97F82030F7
:1036F00000932346FFF770FE3A7B97F8203013447F
:10370000D8B2797BBA7B97F82030D31ADAB2FC7B37
:10371000012300932346FFF7D9FD387B7A7B97F886
:1037200020301344D9B23A7B97F820301344DAB2F0
:103730007C7B97F8203000932346FFF74DFE10372F
:10374000BD46B0BD90B585B002AF044608461146EF
:103750001A462346FB710346BB710B467B71134629
:103760003B71F879B9797A793C7901230093234642
:1037700000F020F80C37BD4690BD00BF90B585B075
:1037800002AF0446084611461A462346FB7103461B
:10379000BB710B467B7113463B71F879B9797A7925
:1037A0003C7900230093234600F004F80C37BD4613
:1037B00090BD00BF90B585B000AF044608461146E5
:1037C0001A462346FB710346BB710B467B711346B9
:1037D0003B71FA797B79934228BF13467B737A79E0
:1037E000FB79934238BF13463B73BA793B799342D6
:1037F00028BF1346FB723A79BB79934238BF134610
:10380000BB727B7BFB7315E0FB7ABB730BE0F97B30
:10381000BA7B97F82030084611461A46FFF7B4F9EC
:10382000BB7B0133BB73BA7BBB7A9A42EFD3FB7B82
:103830000133FB73FA7B3B7B9A42E5D91437BD46D3
:1038400090BD00BF80B584B000AF002000F09EF8AE
:103850000A20FCF7DBFE012000F098F80A20FCF7B4
:10386000D5FE012000F0A2F8012000F0AFF8AE2054
:1038700000F0BEF8D52000F0BBF8802000F0B8F8CA
:10388000A82000F0B5F83F2000F0B2F8D32000F0F7
:10389000AFF8002000F0ACF8402000F0A9F88D202F
:1038A00000F0A6F8374B1B7C012B03D1102000F051
:1038B0009FF802E0142000F09BF8324B5B7A184628
:1038C000FFF76CF8DA2000F093F8122000F090F87F
:1038D000812000F08DF82B4B1B7C012B03D19F2006
:1038E00000F086F802E0CF2000F082F8D92000F046
:1038F0007FF8244B1B7C012B03D1222000F078F8A9
:1039000002E0F12000F074F8DB2000F071F84020B4
:1039100000F06EF8A42000F06BF81A4B1B7A1846E2
:10392000FFF784F8174BDA68164B5B6810460021E6
:103930001A4606F02FFCAF2000F05AF82C200F2179
:103940000022FEF705FA10480121FEF719FC44F6A3
:103950001F63BB605323BB800023BB810023FB801C
:103960003B1D0948194605F023FB074801210122A8
:1039700005F0F0FB0448012105F0CCFB1037BD46F3
:1039800080BD00BF300A0020001C004080B582B01E
:1039900000AF0346FB71FB79034880211A4604F00F
:1039A0007BFC0837BD4680BD0004024080B582B074
:1039B00000AF0346FB71FB79034840211A4604F02F
:1039C0006BFC0837BD4680BD0004024080B582B064
:1039D00000AF0346FB71FB7904484FF480711A462F
:1039E00004F05AFC0837BD4680BD00BF0004024009
:1039F00080B582B000AF0346FB710020FFF7D6FF11
:103A0000FB79184600F004F80837BD4680BD00BFBA
:103A100080B582B000AF0346FB710020FFF7D6FFF0
:103A2000FB799BB20848194605F032FA00BF0648F8
:103A3000022105F05FFA0346002BF8D00120FFF7C2
:103A4000C5FF0837BD4680BD003C004090B58DB035
:103A50000CAF154804F08AF8144BDB681C46134B76
:103A60005B68402200920193002302934FF480632D
:103A700003930023049300230593002306934FF43C
:103A800000330793002308930023099300230A932C
:103A900000230B9304480021054A2346FCF748FE07
:103AA0000437BD4690BD00BFB8600240300A002018
:103AB0000C3C004080B485B000AF03460A46FB7161
:103AC0001346BB71244B5B7A022B03D0224B5B7AEB
:103AD000032B13D1204B1B78FA799A4203D31E4B48
:103AE0001B78013BFB711C4B5B78BA799A4204D37B
:103AF000194B5B78013BBB711AE019E0164B5B7AFE
:103B0000002B03D0144B5B7A012B11D1124B5B7845
:103B1000FA799A4203D3104B5B78013BFB710E4B51
:103B20001B78BA799A4203D30B4B1B78013BBB71CC
:103B3000FB793B72BB797B723B89BB8100233A7B6B
:103B400062F307037A7B62F30F2318461437BD46EE
:103B50005DF8047B704700BF300A002080B588B054
:103B600004AF0123009303230193072302932A4800
:103B7000022100220623FCF7BFFF01230093032349
:103B80000193072302932448022100220523FCF716
:103B9000B3FF22480121FEF785FA4FF461333B6001
:103BA0000023BB800023FB8000233B810023BB81DB
:103BB0000C237B813B461948194605F075FB1748D5
:103BC00040F22551012205F04BFC26200221002263
:103BD000FEF7BEF81148012105F022FC104B1B68CE
:103BE0005B68184600210222002306F081FB0C4B83
:103BF0001B689B68184600210222002306F078FB10
:103C0000074B1B68DB68184600210222002306F0E0
:103C10006FFB1037BD4680BD000C024000440040E1
:103C20007805002080B400AFBD465DF8047B704786
:103C300080B582B002AF054B009305480121054ACB
:103C4000054B02F0E1F8BD4680BD00BF1C0100201D
:103C5000AC0C0020E8000020A000002080B485B05B
:103C600000AF78600023FB607B68DB684FF0FF32B9
:103C70005A607B68DB684FF0FF325A61FB7B43F090
:103C80008003FB737B7B43F008037B737B68DB68FB
:103C9000FA689A611437BD465DF8047B704700BF2F
:103CA00080B586B000AF78600023FB7400237B6191
:103CB0000023FB60032003F08DFB7B68DB681B693E
:103CC000FB607B6901337B617B69174A934201D9B1
:103CD000002324E0FB68DB0FDBB2002BEAD00023DB
:103CE0007B61FB6843F00103FB607B68DB68FA687B
:103CF0001A617B68DB681B69FB607B6901337B6150
:103D00007B69094A934200D905E0FB6803F001038F
:103D1000DBB2012BEDD0032003F05CFBFB7C1846EB
:103D20001837BD4680BD00BF400D030080B489B088
:103D300000AFF860B96011461A460B46FB71134696
:103D4000BB800023FB76FB68DB78002B22D10023AD
:103D50007B610023FB61BB880333002B00DA033354
:103D60009B107B61FB79FA6832339B0013449B689C
:103D70003B610023FB6109E0BB681A683B691A607C
:103D8000FB690133FB61BB680433BB60FA697B6983
:103D90009A42F1D3FB7E18462437BD465DF8047B7A
:103DA000704700BF80B489B000AFF860B9601346B7
:103DB000FB800023FB61FB880333002B00DA033315
:103DC0009B10BB61FB68D3F8D0307B610023FB61A3
:103DD00009E07B691A68BB681A60FB690133FB6103
:103DE000BB680433BB60FA69BB699A42F1D3BB6814
:103DF00018462437BD465DF8047B704780B487B011
:103E000000AF78600B46FB7000233B610023FB731F
:103E10007B680022DA707B6801229A707B684022FE
:103E20009A80FB78012B13D14FF0A0433B617B6854
:103E30000122DA727B6808221A707B6804225A70A9
:103E40007B684FF4A072DA807B6802221A7211E05C
:103E5000FB78002B0ED1454B3B617B680022DA7268
:103E60007B680C221A707B6806225A707B684FF4BC
:103E7000A062DA803A697B68DA603B6903F5006327
:103E80001A467B681A6100237B611CE07B695A013A
:103E90003B69134403F5106319467A687B69043360
:103EA0009B00134499607B695A013B69134403F5F5
:103EB000306319467A687B6914339B001344596058
:103EC0007B6901337B617B685B781A467B699A4228
:103ED000DCD83B6903F580631A467B685A613B690D
:103EE00003F588631A467B68C3F8CC2000237B6106
:103EF0000FE07B695A013B69134403F5A06319463F
:103F00007A687B6922339B00134499607B69013393
:103F10007B617B681B781A467B699A42E9D800234B
:103F20007B610FE07B691A033B69134403F58053FF
:103F300019467A687B6932339B00134499607B6928
:103F400001337B617B681B781A467B699A42E9D80A
:103F50003B6903F560631A467B68C3F80C21FB7B61
:103F600018461C37BD465DF8047B704700000440CE
:103F700080B588B000AF78600023FB770023BB6179
:103F800000237B610023FB607B681B7A012B4FD1F0
:103F90007B68DB689B6B7B61BB7D6FF30003BB754C
:103FA0007B685B7A002B03D0BB7D43F01003BB75AD
:103FB0007B68DB687A699A630023BB617B68DB6896
:103FC000DB68BB613B7E6FF386133B76BB7E6FF392
:103FD0008613BB763B7E43F010033B763B7E6FF34C
:103FE000C3033B763B7E6FF3C7133B76BB7E6FF319
:103FF0004103BB76BB7E6FF3C303BB767B68DB6894
:10400000BA69DA607868FFF74BFE7B68DB78012BD2
:1040100040F082803B7B052262F344033B733B7B91
:1040200043F020033B737B68DB68FA689A6073E0B7
:104030007B68DB68DB68BB613B7E43F040033B761B
:104040007B68DB68BA69DA607868FFF729FE0023CD
:104050007B61BB7D43F00103BB757B681B7A032B3F
:1040600003D1BB7D43F00203BB75BB7D43F004036A
:10407000BB75BB7D43F00803BB75BB7D43F02003DC
:10408000BB757B685B7A002B03D0BB7D43F01003CC
:10409000BB757B68DB687A699A63142003F0BEF90C
:1040A0007B68DB68DB68BB617B681B7A032B03D111
:1040B000BB7E43F00103BB767B68DB68BA69DA60DC
:1040C0007B681B7A032B27D17B68DB681B6B3B610A
:1040D000FB7C012262F38303FB74BB7C6FF3C71389
:1040E000BB74FB7C43F01003FB74BB7C2D2262F39A
:1040F0000603BB747B68DB683A691A63C82003F067
:104100008DF9BB7C43F08003BB747B68DB683A6944
:104110001A63C82003F082F97B68DB78012B10D189
:104120007B68DB689B68FB603B7B052262F3440392
:104130003B733B7B43F020033B737B68DB68FA688F
:104140009A60FB7F18462037BD4680BD80B485B09D
:1041500000AF78600023FB730023BB603B7A43F021
:1041600001033B727B68DB687A68D2689168BA6841
:104170000A439A60FB7B18461437BD465DF8047B02
:10418000704700BF80B485B000AF78600023FB7338
:104190000023BB603B7A43F001033B727B68DB6822
:1041A0007A68D2689168BA68D2430A409A60FB7B09
:1041B00018461437BD465DF8047B704780B586B05D
:1041C00000AF786039600023FB7400237B6100231B
:1041D000FB60FB6843F02003FB603B68DBB203F04D
:1041E0001F03DBB203F01F039B01FA6822F4F8629D
:1041F0001343FB607B68DB68FA681A617B68DB68E5
:104200001B69FB607B6901337B617B69094A9342CF
:1042100000D906E0FB685B0903F00103DBB2012B68
:10422000ECD0032003F0D6F8FB7C18461837BD46C7
:1042300080BD00BF400D030080B586B000AF786040
:104240000023FB7400237B610023FB60FB6843F0C9
:104250001003FB607B68DB68FA681A617B68DB68C7
:104260001B69FB607B6901337B617B69094A93426F
:1042700000D906E0FB681B0903F00103DBB2012B48
:10428000ECD0032003F0A6F8FB7C18461837BD4697
:1042900080BD00BF400D030080B584B000AF7860E2
:1042A0000B46FB700023FB737B68DB68DB68BB603D
:1042B000FB7A6FF34513FB72FB7A6FF38613FB7285
:1042C000FB78012B04D1FB7A43F02003FB7206E05C
:1042D000FB78002B03D1FB7A43F04003FB727B6831
:1042E000DB68BA68DA60322003F098F8FB7B184686
:1042F0001037BD4680BD00BF80B483B000AF78608A
:104300007B68DB685B6903F0010318460C37BD4628
:104310005DF8047B704700BF80B582B000AF786065
:104320007868FFF7E9FF0346012B14BF0123002340
:10433000DBB218460837BD4680BD00BF80B485B0EB
:1043400000AF78600023FB607B68DB685B69FB6023
:104350007B68DB689B69FA681340FB60FB68184662
:104360001437BD465DF8047B704700BF80B485B04C
:1043700000AF78600B46FB707B681B691B68FB60B5
:10438000FB7803F00303DAB23B7B62F301033B7378
:104390007B681B69FA681A601437BD465DF8047BB8
:1043A000704700BF80B58CB000AF7860002387F8FD
:1043B0002B3000237B6200233B620023FB61002340
:1043C000BB6100237B617B68D3F80C3100221A604B
:1043D0007B681B691B683B6297F821306FF3C4034D
:1043E00087F821307B681B693A6A1A607B68DB7A40
:1043F000012B33D178680321FFF7B8FF7B68DB68B6
:1044000080225A624023FB838023BB837B68DB6866
:10441000FA699A62BA8BFB8B13449BB23B8380236D
:104420007B837B68DB68BA69C3F804213A8B7B8B9A
:1044300013449BB23B8300237B837B68DB68BA69B0
:10444000C3F808213A8B7B8B13449BB23B83002338
:104450007B837B68DB68BA69C3F80C21786810211C
:10446000FFF7ACFE7868FFF7E7FE7B681B69002268
:104470001A617B681B6900225A617B681B694FF0D7
:10448000FF329A617B681B690022DA610023FB62BC
:104490003AE07A68FB6A04339B0013449B681B680C
:1044A0007B6297F8273023F07F03DBB2002B0ED01E
:1044B00000237B6297F8273043F0400387F82730CA
:1044C00097F8273043F0080387F8273001E00023EE
:1044D0007B627A68FB6A04339B0013449B687A6AA8
:1044E0001A607A68FB6A04339B0013449B680022BD
:1044F0001A617A68FB6A04339B0013449B68FF22AD
:104500009A60FB6A0133FB627B685B781A46FB6A40
:104510009A42BED80023FB6235E07A68FB6A143306
:104520009B0013445B681B68FB60FB7B23F07F03ED
:10453000DBB2002B0AD00023FB60FB7B43F040037F
:10454000FB73FB7B43F00803FB7301E00023FB607C
:104550007A68FB6A14339B0013445B68FA681A603C
:104560007A68FB6A14339B0013445B6800221A616B
:104570007A68FB6A14339B0013445B68FF229A60DD
:10458000FB6A0133FB627B685B781A46FB6A9A42DE
:10459000C3D800237B617B7D43F001037B757B687F
:1045A0001B697A68126911697A69D24311407A6984
:1045B0000A431A617B68DB78012B1BD100233B6126
:1045C0003B7C43F001033B743B7C43F002033B74B0
:1045D0003B8A402262F38A033B82BB7C43F00103A7
:1045E000BB747B8A402262F349037B827B681B6930
:1045F0003A691A63786800F007F897F82B30184684
:104600003037BD4680BD00BF80B584B000AF786054
:104610000023FB730023BB607B68DB6800229A6188
:104620007B68DB684FF0FF325A617868FFF716FB52
:104630007B68DB78002B03D13B7A43F010033B729D
:104640007B7A43F008037B727B7A43F010037B7222
:104650007B7A43F020037B72BB7A43F00403BB7286
:10466000BB7A43F00803BB723B7A43F008033B720A
:10467000BB7A43F01003BB72BB7A43F02003BB72DA
:104680007B68DB687A68D2689169BA68D243114066
:10469000BA680A439A61FB7B18461037BD4680BD55
:1046A00080B485B000AF78600023FB737B681B6922
:1046B0009B68BB603B7AC3F34103DBB2022B09D09A
:1046C000032B04D0012B02D00323FB7305E002234C
:1046D000FB7302E00123FB7300BFFB7B184614371A
:1046E000BD465DF8047B704780B487B000AF78604A
:1046F0000023FB750023BB607B681B699B683B61E3
:104700007B689B691B68FB603B7CC3F34103DBB2A6
:10471000022B04D0BB896FF30A03BB8105E0BB8980
:10472000032262F30A03BB8100BF7B689B69FA68BE
:104730001A607B7A43F001037B727B681B697A689D
:1047400012695168BA68D2431140BA680A435A6084
:10475000FB7D18461C37BD465DF8047B704700BFE3
:1047600080B487B000AF786039600023FB74002309
:10477000FB600023BB603B685B78012B0FD13B687B
:104780001B787A6804339B0013449B687B613B6809
:104790001B781A46012393409BB23B810EE03B6895
:1047A0001B787A6814339B0013445B687B613B6819
:1047B0001B781A46012393409BB27B817B691B685F
:1047C000FB607B7B23F07F03DBB2002B27D13B68B0
:1047D0009B689BB2C3F30A039AB2BB8962F30A03D4
:1047E000BB813B68DB7803F00303DAB2BB7B62F387
:1047F0008303BB733B68DB88DBB203F00F03DAB2E1
:10480000FB8962F38913FB81FB7B43F01003FB738D
:104810007B7B43F080037B73FA687B691A607B685B
:104820001B697A681269D169BA680A43DA61FB7C4C
:1048300018461C37BD465DF8047B704780B487B0CE
:1048400000AF786039600023FB740023FB60002315
:10485000BB603B685B78012B0FD13B681B787A68A3
:1048600004339B0013449B687B613B681B781A46AA
:10487000012393409BB23B810EE03B681B787A6832
:1048800014339B0013445B687B613B681B781A46BA
:10489000012393409BB27B817B7B6FF3C7137B73B8
:1048A000FA687B691A607B681B697A681269D1694A
:1048B000BA68D2430A40DA61FB7C18461C37BD4611
:1048C0005DF8047B704700BF80B588B000AF7860AA
:1048D00039600023FB770023BB6100237B61002349
:1048E0003B613B685B78012B40F0AB803B681B78F9
:1048F0007A6804339B0013449B681B687B613B68A8
:104900001B787A6804339B0013449B681B693B61E6
:104910003B685B69002B09D13B696FF312033B6174
:104920007B8A012262F3CC037B8222E03B685B69D5
:10493000C3F312023B6962F312033B613B685A699D
:104940003B689B6813445A1E3B689B68B2FBF3F3B9
:104950009BB2C3F309039AB27B8A62F3CC037B82D6
:104960003B68DB78012B04D1FB7C012262F3461308
:10497000FB743B681B787A6804339B0013449B6884
:104980003A691A617B68DB78012B0AD13B681B7896
:104990007A6804339B0013449B683A6812695A6131
:1049A00015E03B68DB78012B11D03B685B69002B7D
:1049B0000DD03B681B781A4601239340BB617B688E
:1049C0001B697A681269516BBA690A435A633B687A
:1049D000DB78012B14D17B681B699B68FB60FB684B
:1049E000C3F30D239BB203F00103002B04D1FB7D25
:1049F00043F02003FB7503E0FB7D43F01003FB75E0
:104A0000FB7D43F00403FB75FB7D43F08003FB75E6
:104A10003B681B787A6804339B0013449B687A696F
:104A20001A603B68DB78012B40F089803B68D968CD
:104A30003B681A783B685B699BB27868FFF776F948
:104A40007DE03B681B787A6814339B0013445B68F5
:104A50001B687B613B681B787A6814339B001344A6
:104A60005B681B693B613B685B69002B0DD13B6850
:104A70009B68C3F312023B6962F312033B617B8ABA
:104A8000012262F3CC037B8220E03B685A693B68D9
:104A90009B6813445A1E3B689B68B2FBF3F39BB2BE
:104AA000C3F309039AB27B8A62F3CC037B827B8ACD
:104AB000C3F3C9039BB21A463B689B6803FB02F32E
:104AC000C3F312023B6962F312033B613B681B783C
:104AD0007A6814339B0013445B683A691A617B68F7
:104AE000DB78012B09D13B681B787A6814339B0073
:104AF00013445B683A6812695A613B68DB78012BA2
:104B00000CD13B685B79002B04D0FB7D43F0200384
:104B1000FB7503E0FB7D43F01003FB75FB7D43F069
:104B20000403FB75FB7D43F08003FB753B681B783A
:104B30007A6814339B0013445B687A691A60FB7FC0
:104B400018462037BD4680BD80B489B000AF78607C
:104B500039600023FB770023BB6100233B61002306
:104B6000BB603B685B78012B70D17B689B697B6184
:104B70007B691B683B617B691B69BB603B685B6948
:104B8000002B09D13B7A6FF306033B72BB7A0122FB
:104B900062F3C403BB7223E03B685A693B689B68BD
:104BA0009A420ED93B689A683B685A613B689B6899
:104BB000DBB203F07F03DAB23B7A62F306033B72A7
:104BC00009E03B685B69DBB203F07F03DAB23B7A52
:104BD00062F306033B72BB7A012262F3C403BB7229
:104BE000BA687B691A617B68DB78012B09D13B6865
:104BF0001B787A6804339B0013449B683A681269F7
:104C00005A61FB7C43F00403FB74FB7C43F080039C
:104C1000FB743A697B691A607B68DB78002B76D17C
:104C20003B685B69002B72D03B681B781A460123F6
:104C300093401A46BB691343BB617B681B697A6862
:104C40001269516BBA690A435A6360E03B681B788A
:104C50007A6814339B0013445B681B683B613B68B4
:104C60001B787A6814339B0013445B681B69BB6034
:104C70003B685B69002B0FD13B689B68DBB203F09C
:104C80007F03DAB23B7A62F306033B72BB7A0122FE
:104C900062F3C403BB7212E03B689A683B685A61D6
:104CA0003B689B68DBB203F07F03DAB23B7A62F3C6
:104CB00006033B72BB7A012262F3C403BB723B68FA
:104CC0001B787A6814339B0013445B68BA681A61D6
:104CD0007B68DB78012B09D13B681B787A68143339
:104CE0009B0013445B683A6812695A61FB7C43F08D
:104CF0000403FB74FB7C43F08003FB743B681B786C
:104D00007A6814339B0013445B683A691A60FB7F2E
:104D100018462437BD465DF8047B704780B487B0E1
:104D200000AF786039600023FB750023FB603B68AF
:104D30005B78012B1CD13B681B787A6804339B009D
:104D400013449B683B613B691B68FB60FB7B23F062
:104D50007F03DBB2002B03D0FB7B43F04003FB73EC
:104D6000BB7B43F02003BB73FA683B691A6011E018
:104D70003B681B787A6814339B0013445B683B6183
:104D80003B691B68FB60BB7B43F02003BB73FA6885
:104D90003B691A60FB7D18461C37BD465DF8047BF5
:104DA000704700BF80B487B000AF786039600023DF
:104DB000FB740023FB603B685B78012B08D13B68E8
:104DC0001B787A6804339B0013449B687B6107E07F
:104DD0003B681B787A6814339B0013445B687B61E3
:104DE0007B691B68FB60BB7B6FF34513BB733B6840
:104DF000DB78032B03D03B68DB78022B03D1FB7BF2
:104E000043F01003FB73FA687B691A60FB7C184659
:104E10001C37BD465DF8047B704700BF80B485B089
:104E200000AF78607B681B699B69FB607B681B69CE
:104E3000DB69FA681340FB60FB681B0C18461437EB
:104E4000BD465DF8047B704780B485B000AF7860E4
:104E50000B46FB70FB787A6814339B0013445B6845
:104E60009B68FB607B681B695B69FA681340FB60A9
:104E7000FB6818461437BD465DF8047B704700BFD9
:104E800080B485B000AF78607B681B699B69FB606C
:104E90007B681B69DB69FA681340FB60FB689BB2A7
:104EA00018461437BD465DF8047B704780B487B060
:104EB00000AF786000233B61FB7C43F0C003FB74D0
:104EC000BB7C012262F3C403BB743B7C182262F3F7
:104ED00006033B747B685B6D3A691A617B68DB781B
:104EE000012B16D10023FB607B685B6D7A6802F5AD
:104EF000B9625A617B685B6D1B68FB60FB7B43F0AA
:104F00008003FB734FF08023FB607B685B6DFA6866
:104F10001A601C37BD465DF8047B704780B485B0CD
:104F200000AF78607B689B7A002B1BD07B681B6985
:104F30009B68FB603B7B03F00103DBB2002B11D0CD
:104F40007B6803F586731B68BB603B7A6FF3410394
:104F50003B723B7A6FF300033B727B68D3F80C31F2
:104F6000BA681A601437BD465DF8047B704700BF0D
:104F700080B584B000AF78600B46FB70FB78786832
:104F80001946FEF73BFF7B68012283F812217B68FC
:104F9000002283F813210023FB6023E0FA68134604
:104FA0009B001344DB0003F58C737A681344BB60E9
:104FB000BB6801225A70FB68DAB2BB681A70FB68E2
:104FC0009AB2BB68DA80BB680022DA70BB68402204
:104FD0009A60BB680022DA60BB6800225A61FB68F5
:104FE0000133FB607B685B781A46FB689A42D5D830
:104FF0000023FB6023E0FA6813469B001344DB00A8
:1050000003F55C737A681344BB60BB6800225A7076
:10501000FB68DAB2BB681A70FB689AB2BB68DA80C8
:10502000BB680022DA70BB6840229A60BB6800222D
:10503000DA60BB6800225A61FB680133FB607B6861
:105040005B781A46FB689A42D5D87868FFF79AF8D9
:105050007868FEF78DFF78680021FFF71DF9786802
:10506000FFF7A0F97868FFF771F81037BD4680BDEB
:1050700080B584B000AF7860084611461A460346F2
:10508000FB700B463B801346BB70FB785BB2002B7A
:105090000CDAFB7803F07F0213469B001344DB001D
:1050A00003F58C737A681344FB600BE0FB7803F024
:1050B0007F0213469B001344DB0003F55C737A68A0
:1050C0001344FB60FB7803F07F03DAB2FB681A70CD
:1050D000FB78DB09DBB21A46FB685A703A88FB683A
:1050E0009A60FB68BA78DA70FB685B78002B04D0B2
:1050F000FB681B789AB2FB68DA80BB78022B02D17E
:10510000FB6800221A717868F968FFF729FB002311
:1051100018461037BD4680BD80B584B000AF7860BA
:105120000B46FB70FB785BB2002B0CDAFB7803F0CC
:105130007F0213469B001344DB0003F58C737A68EF
:105140001344FB600BE0FB7803F07F0213469B00E7
:105150001344DB0003F55C737A681344FB60FB784F
:1051600003F07F03DAB2FB681A70FB78DB09DBB26D
:105170001A46FB685A707868F968FFF75FFB0023EE
:1051800018461037BD4680BD80B586B000AFF860C8
:105190007A601A460B46FB7213463B81FB7A03F09A
:1051A0007F0213469B001344DB0003F55C73FA682F
:1051B00013447B617B697A68DA603A897B695A615A
:1051C0007B6900229A617B6900225A70FB7A03F0A6
:1051D0007F03DAB27B691A70FB68DB78012B02D19E
:1051E0007A687B691A617B691B78002B04D1F868A7
:1051F0007969FFF7A9FC03E0F8687969FFF764FBB8
:10520000002318461837BD4680BD00BF80B586B064
:1052100000AFF8607A603B600B46FB72FB7A03F0EC
:105220007F0213469B001344DB0003F58C73FA687E
:1052300013447B617B6901225A70FB7A03F07F0380
:10524000DAB27B691A707B697A68DA607A687B699E
:105250001A617B6900229A617B693A685A617B69AD
:105260001B78002B04D1F8687969FFF76DFC03E027
:10527000F8687969FFF728FB002318461837BD4600
:1052800080BD00BF80B584B000AF78600B46FB7076
:10529000FB785BB2002B0CDAFB7803F07F0213463D
:1052A0009B001344DB0003F58C737A681344FB60A6
:1052B00009E0FA7813469B001344DB0003F55C73A6
:1052C0007A681344FB60FB6801229A70FB7803F054
:1052D0007F03DAB2FB681A70FB78DB09DBB21A468F
:1052E000FB685A707868F968FFF718FD00231846C4
:1052F0001037BD4680BD00BF80B584B000AF786078
:105300000B46FB70FB785BB2002B0CDAFB7803F0EA
:105310007F0213469B001344DB0003F58C737A680D
:105320001344FB6009E0FA7813469B001344DB004A
:1053300003F55C737A681344FB60FB6800229A7083
:10534000FB7803F07F03DAB2FB681A70FB78DB09A5
:10535000DBB21A46FB685A707868F968FFF722FDDD
:10536000002318461037BD4680BD00BF80B485B00D
:1053700000AF78600B46FB700023FB60FB7803F006
:105380007F03DAB2BB8962F30A13BB817B681B69B6
:105390007A6812691168FA680A431A601437BD46C0
:1053A0005DF8047B704700BF80B586B000AF7860C1
:1053B00000237B617868FEF7AFFF0346002B00F007
:1053C0009C807868FEF7BAFF03463B613B69002B7F
:1053D00001D1002392E0BB7C03F00803DBB2002B79
:1053E00006D0786800F012FA02467B6913437B61AD
:1053F000BB7C03F00403DBB2002B06D0786800F01E
:105400000FF902467B6913437B613B7C03F0020387
:10541000DBB2002B09D00023FB603B7B43F002038F
:105420003B737B68DB68FA685A61FB7C23F07F037F
:10543000DBB2002B06D0786800F064F802467B6986
:1054400013437B617B7C03F00803DBB2002B06D0A7
:10545000786800F097F802467B6913437B613B7CD8
:1054600003F00803DBB2002B06D0786800F08AFA5C
:1054700002467B6913437B613B7C03F01003DBB284
:10548000002B06D0786800F097FA02467B69134338
:105490007B617B7C03F01003DBB2002B06D07868C5
:1054A00000F07EFB02467B6913437B617B7C03F04B
:1054B0002003DBB2002B06D0786800F00DFC02461A
:1054C0007B6913437B61BB7C03F01003DBB2002BD1
:1054D00006D0786800F03CFC02467B6913437B6190
:1054E000BB7C03F02003DBB2002B06D0786800F011
:1054F00049FC02467B6913437B617B691846183778
:10550000BD4680BD80B586B000AF78607B689B7A71
:10551000002B11D07B6803F586731B68FB603B7B17
:105520006FF341033B733B7B6FF300033B737B687B
:10553000D3F80C31FA681A6000233B613B7C43F0DE
:1055400001033B747B681B697A68126951683A6988
:10555000D2430A405A600A4B1B689B697868984797
:1055600000237B61FB7D43F08003FB757B68DB6878
:105570007A695A61012318461837BD4680BD00BFBD
:105580005400002080B586B000AF7860224B1B68C5
:105590005B69786898477B681B699B68FB600023A0
:1055A0007B617B7D43F008037B757B68DB687A69F0
:1055B0005A617B689B7A002B29D03B7B03F0010367
:1055C000DBB2002B23D000233B613B7C43F0010383
:1055D0003B747B68D3F80C317A68D2F80C211168DF
:1055E0003A690A431A603B7C43F002033B747B68D0
:1055F000D3F80C317A68D2F80C2111683A690A4361
:105600001A60064A054B1B6943F006031361012328
:1056100018461837BD4680BD5400002000ED00E05C
:1056200080B586B000AF786000233B610023BB608B
:105630007868FFF725FC7861DCE07B6903F0010303
:10564000002B00F0D1803B69DBB27868194600F08E
:10565000B3FB0346BB603B7A03F00103DBB2002BD4
:1056600032D03B69012202FA03F3FB607B681B69BD
:105670007A681269516BFA68D2430A405A63002370
:10568000BB603B7A43F001033B727A683B690433A9
:105690009B0013449B68BA689A605B4B1B685B680D
:1056A0003A69D2B27868114698477B68DB78012B5B
:1056B0000AD13B69002B07D17B6893F81131042B89
:1056C00002D17868FFF7F2FB3B7A03F00403DBB208
:1056D000002B0DD00023BB603B7A43F004033B72E8
:1056E0007A683B6904339B0013449B68BA689A60EC
:1056F0003B7A03F00803DBB2002B0DD00023BB6024
:105700003B7A43F008033B727A683B6904339B00A1
:1057100013449B68BA689A603B7A03F01003DBB2CB
:10572000002B0DD00023BB603B7A43F010033B728B
:105730007A683B6904339B0013449B68BA689A609B
:105740003B7A03F02003DBB2002B0DD00023BB60BB
:105750003B7A43F020033B727A683B6904339B0039
:1057600013449B68BA689A603B7A03F04003DBB24B
:10577000002B0DD00023BB603B7A43F040033B720B
:105780007A683B6904339B0013449B68BA689A604B
:105790003B7A03F00203DBB2002B0DD00023BB6089
:1057A0003B7A43F002033B727A683B6904339B0007
:1057B00013449B68BA689A603B7A23F07F03DBB29C
:1057C000002B11D07868396900F078F90023BB60AC
:1057D0003B7A43F080033B727A683B6904339B0059
:1057E00013449B68BA689A603B6901333B617B69EB
:1057F0005B087B617B69002B7FF41FAF0123184698
:105800001837BD4680BD00BF5400002080B586B06B
:1058100000AF786000233B610023FB607868FFF7EE
:10582000FDFA7861A3E07B6903F00103002B00F02F
:1058300098803B69DBB278681946FFF705FB0346A1
:10584000FB603B7B03F00103DBB2002B48D000235D
:10585000FB603B7B43F001033B737A683B69143385
:105860009B0013445B68FA689A607B68DB78012BC5
:105870001FD17A683B6914339B0013445B681B6932
:10588000BB6079683A6913469B001344DB000B4404
:1058900003F55E731B68BA68C2F31202991A78683E
:1058A0003A6913469B001344DB00034403F562731B
:1058B0001960334B1B681B683A69D2B2786811468D
:1058C00098477B68DB78012B0AD13B69002B07D115
:1058D0007B6893F81131052B02D17868FFF7E6FA5F
:1058E0003B7B03F00203DBB2002B0DD00023FB60F7
:1058F0003B7B43F002033B737A683B6914339B00A4
:1059000013445B68FA689A603B7B03F00403DBB2E4
:10591000002B0DD00023FB603B7B43F004033B7363
:105920007A683B6914339B0013445B68FA689A6099
:105930003B7B03F00803DBB2002B12D0104B1B683B
:105940009B68786898470023FB603B7B43F0080323
:105950003B737A683B6914339B0013445B68FA68B5
:105960009A603B6901333B617B695B087B617B69C2
:10597000002B7FF458AF012318461837BD4680BD71
:105980005400002080B584B000AF7860094B1B68DC
:10599000DB68786898470023FB603B7B43F0080393
:1059A0003B737B68DB68FA685A610123184610373D
:1059B000BD4680BD5400002080B586B000AF786041
:1059C00000233B613B7C43F010033B747B68DB6846
:1059D0007A68D26891693A69D2430A409A617B68D1
:1059E000DB681B6AFB603B7BC3F30303DBB21A4635
:1059F00013469B001344DB0003F55C737A68134481
:105A00007B61BB7BC3F34303DBB2013B052B47D870
:105A100001A252F823F000BFA15A0008315A000831
:105A2000A15A0008A15A0008A15A00087D5A00088E
:105A3000BA8947F6F07313409BB2002B1DD07B69E7
:105A4000DA68BB89C3F30A139BB2786811461A4619
:105A5000FEF7A8F97B69DB68BA89C2F30A1292B231
:105A60001A447B69DA607B699B69BA89C2F30A12BE
:105A700092B21A447B699A6113E012E07B6803F5E5
:105A8000B963786819460822FEF78CF97B699B692F
:105A9000BA89C2F30A1292B21A447B699A6100E091
:105AA00000BF7B68DB687A68D26891693A690A430B
:105AB0009A61012318461837BD4680BD80B586B06F
:105AC00000AF7860396000237B610023BB603A68D7
:105AD00013469B001344DB0003F58C737A68134470
