:020000040800F2
:100000000000022089010008D90C0008E50C000856
:10001000F50C0008050D0008150D00080000000093
:10002000000000000000000000000000250D000896
:10003000350D000800000000450D0008550D0008B2
:100040001502000815020008150200081502000834
:100050001502000815020008150200081502000824
:100060001502000815020008150200081502000814
:100070001502000815020008150200081502000804
:1000800015020008150200081502000815020008F4
:1000900015020008150200081502000815020008E4
:1000A00015020008150200081502000815020008D4
:1000B00015020008150200081502000815020008C4
:1000C00015020008150200081502000815020008B4
:1000D0001502000815020008890D00081502000825
:1000E000690D000815020008150200081502000835
:1000F000950D0008150200081502000815020008F9
:1001000015020008A10D00081502000815020008DC
:100110001502000815020008150200081502000863
:10012000150200081502000815020008AD0D0008B0
:100130001502000815020008150200081502000843
:100140001502000815020008150200081502000833
:100150001502000815020008150200081502000823
:100160001502000815020008150200081502000813
:100170001502000815020008150200081502000803
:10018000150200081502000880B584B000AF0D4BC1
:10019000BB600D4B7B60BB683B6004E03B681A1D95
:1001A0003A6000221A607A683B689A42F6D806F0F4
:1001B0003BFF00F095FEF86006F06CFFF86804F075
:1001C0002FFB00BFE0080020E036002080B584B09F
:1001D00000AF0D4BFB600D4BBB600D4B7B60BB68F4
:1001E0003B6007E03B681A1D3A60FA68111DF96030
:1001F00012681A607A683B689A42F3D806F068FF82
:100200001037BD4680BD00BF740501080000002006
:10021000DC08002080B400AFFEE700BF80B400AF70
:10022000FEE700BF80B400AFFEE700BF80B400AFC0
:10023000FEE700BF80B400AFFEE700BF80B400AFB0
:10024000FEE700BF80B400AFFEE700BF80B400AFA0
:10025000FEE700BF80B400AFFEE700BF80B400AF90
:04026000FEE700BFF6
:08026400CD010008DDC7000810
:1002700090B58FB00CAF0023009303230193B848CF
:1002800001210022042300F0E5FBB54810210122E2
:1002900007F060FB0123009303230193B148012180
:1002A0000022042300F0D6FBAE481021012207F003
:1002B00051FB0023009303230193AA48012100224C
:1002C000052300F0C7FBA7482021002207F042FBCE
:1002D0000023009303230193A3480021002200235D
:1002E00000F0B8FB00230093032301939E480021F4
:1002F0000022012300F0AEFB0023009303230193AF
:100300009A4800210022072300F0A4FB0223009357
:10031000032301930523029391480221002206231F
:1003200000F0BEFB022300930323019305230293F5
:100330008B4802210022072300F0B2FB0223009326
:1003400003230193052302938548022100220523FC
:1003500000F0A6FB00230093002301934FF40073E9
:1003600002930023039300230493072305938048FB
:1003700000214FF48272002303F0EEFA7D4C4023FB
:1003800000934FF4A0530193002302934FF4806332
:1003900003930023049300230593002306934FF453
:1003A00000330793002308930123099300230A9342
:1003B00000230B9370484FF0C061704A234600F051
:1003C000A1F96F4C002300934FF4A0530193002335
:1003D00002934FF480630393002304930023059357
:1003E000002306934FF4003307930023089301235F
:1003F000099300230A9300230B9362484FF0C061D6
:100400005E4A234600F07EF955480421002207F099
:10041000A1FA54480421002207F09CFA5148052112
:10042000012207F097FA5448012107F091F8554846
:10043000012107F08DF84E480221012208F0DAF977
:100440004B480121012208F0D5F900237B6009E027
:100450007B68D9B2474A7B6813440A461A707B68A6
:1004600001337B607B68B3F5A05FF1D34048012185
:1004700008F092F900BF4348434907F09FF803464C
:10048000002BF8D037480521002207F063FA3F48D7
:1004900009F080FB00BF38483D4907F08FF803465C
:1004A000002BF8D000BF37483A4907F087F80346D9
:1004B000002BF8D02A480421012207F04BFA2948E2
:1004C0000421012207F046FA334809F063FB2A4869
:1004D000002107F03DF82B48002107F039F82448A7
:1004E0000221002208F086F921480121002208F0AB
:1004F00081F91F48002108F04FF9284809F04AFB0C
:1005000000233B6022E03B68002B02D0244809F026
:10051000FFFA3B68591C1A4A3B6813441B78DBB24C
:1005200020481A4609F0F4FA3A681F4BA3FB02135D
:100530009B094FF47A7101FB03F3D31A002B02D10C
:100540001A4809F027FB3B6801333B603B68B3F571
:10055000A05FD8D3154809F01DFB0C37BD4690BDF0
:100560000000024000080240000402400010024067
:1005700000300140AC090020886402400C3001408A
:10058000AC1D00201064024010000010ACFE0008FA
:100590000008002020000010C8FE0008E0FE00084F
:1005A000F0FE0008F4FE0008D34D621000FF0008C2
:1005B00080B483B000AF03463960FB7197F9073010
:1005C000002B0BDA0D49FB7903F00F03043B3A686B
:1005D000D2B21201D2B20B441A7609E0084997F957
:1005E00007303A68D2B21201D2B20B4483F800232A
:1005F0000C37BD465DF8047B704700BF00ED00E09E
:1006000000E100E080B582B000AF78607B68013B1C
:10061000B3F1807F01D301230FE00A4A7B68013BDD
:1006200053604FF0FF300F21FFF7C2FF054B002250
:100630009A60044B07221A60002318460837BD460B
:1006400080BD00BF10E000E080B485B000AF7860EE
:100650000F4B1B68FB600E4B1A687B689A420AD9E5
:100660007B68FA68D31AFB6000BF094B1A68FB6805
:100670009A42FAD807E07B68054A136000BF044B32
:100680001B68002BFBD11437BD465DF8047B704717
:10069000E008002080B500AF044B1B68044AA2FBB1
:1006A00003239B091846FFF7ADFF80BD28000020FB
:1006B000D34D621080B500AF104BD3E90023013257
:1006C00043F100030D49C1E900230D4B1B68002BCA
:1006D00004D00B4B1B68013B094A1360074BD3E95D
:1006E0000023104619464FF47A724FF0000308F0C9
:1006F000A3FB134301D101F097F880BDE808002067
:10070000E008002080B594B000AFF860B9607A606E
:100710003B60F86806F0F4FDF868012100F072FF14
:10072000FB6D7B62BB6F3B64FB6F7B64D7F88030F3
:10073000BB64FB6E7B637B6EFB623B6FBB637B6862
:10074000BB61D7F88430FB64BB6E3B63FB6E7B639D
:100750003B6EBB627B6FFB63BB687B61BB6D3B62C7
:100760003B68FB6107F11403F868194606F09AFE2E
:10077000F868012106F0ECFE5037BD4680BD00BF91
:1007800080B584B000AFF860B9601346FB80FB8889
:10079000F868B9681A46012300F016F81037BD460C
:1007A00080BD00BF80B584B000AFF860B96013466B
:1007B000FB80FB88F868B9681A46002300F004F84B
:1007C0001037BD4680BD00BF80B584B000AFF86073
:1007D000B96011461A460B46FB8013467B717B7944
:1007E000F868194606F0B4FEFA887B79B8681146B5
:1007F0001A4607F0FFFF1037BD4680BD80B584B0B4
:1008000004AF1D48012100F0F7FC002300930323EF
:10081000019303230293184802210022062300F0CB
:100820003FF91548012100F0E7FC00230093032362
:10083000019303230293104802210022072300F0B2
:100840002FF90E48012100F0D5FD0C4801210222AC
:10085000022308F081F90948012108F0DFF8074870
:100860004FF6FF7108F0C0F80448012108F0F6F8CF
:1008700000F048F8BD4680BD000802400004014079
:1008800080B584B004AF1D48012100F0B5FC002301
:1008900000930323019302230293184802210022AC
:1008A000002300F0FDF81548012100F0A5FC00230D
:1008B0000093032301930223029310480221002294
:1008C000012300F0EDF80E48012100F093FD0C48E3
:1008D00001210222022308F03FF90948012108F012
:1008E0009DF807484FF6FF7108F07EF80448012193
:1008F00008F0B4F800F026F8BD4680BD00000240C4
:10090000000C004080B500AF72B6094B00221A807F
:10091000084B00221A80084B00221A80074B002245
:100920001A800748002108F051F862B680BD00BF68
:10093000FA080020F8080020F4080020F008002041
:100940000004014080B500AF72B6094B00221A8046
:10095000084B00221A80084B00221A80074B002205
:100960001A800748002108F031F862B680BD00BF48
:10097000FE080020FC080020F6080020F2080020F5
:10098000000C004080B500AF134B1B889AB2134B8C
:100990001A80134808F036F803469AB20E4B1A80B4
:1009A0000D4B1B889BB29AB20C4B1B889BB29BB21F
:1009B000D31A9BB29AB20B4B1A800A4B1B889BB27C
:1009C0009AB2094B1B889BB29BB213449BB29AB25A
:1009D000054B1A8080BD00BFF8080020FA080020EF
:1009E00000040140F4080020F008002080B500AFAA
:1009F000134B1B889AB2134B1A80134808F002F865
:100A000003469AB20E4B1A800D4B1B889BB29AB2CA
:100A10000C4B1B889BB29BB2D31A9BB29AB20B4B66
:100A20001A800A4B1B889BB29AB2094B1B889BB257
:100A30009BB213449BB29AB2054B1A8080BD00BF93
:100A4000FC080020FE080020000C0040F6080020F2
:100A5000F208002080B586B000AFF8607B600B46DE
:100A6000FB721346BB72F868012100F0C5FBFB7AEC
:100A70003B75BB7ABB757B68012202FA03F33B61CD
:100A800097F82030FB7597F824307B7507F1100339
:100A9000F868194606F0D0FE1837BD4680BD00BF85
:100AA00080B586B002AFF8607B600B46FB721346E0
:100AB000BB727B689BB203F00F039AB297F82030A9
:100AC000F86811461A4606F06FFFF97ABA7A3B7E4B
:100AD00000933B7F0193F8687B68FFF7BBFF1037FB
:100AE000BD4680BD80B588B000AFF860B9601146E2
:100AF0001A460B46FB711346BB71F868012100F0E2
:100B00007BFB4FF48040012107F018F9F86800F0F2
:100B100065F803461A46BB68DBB203F00F03DBB28D
:100B20001046194607F0A6FEBB68012202FA03F33D
:100B30007B61BB793B76FB797B760123BB7607F142
:100B40001403184606F0DEFDBB6803F00F030F2BFD
:100B500037D801A252F823F0990B00089F0B000828
:100B6000A50B0008AB0B0008B10B0008B70B000881
:100B7000B70B0008B70B0008B70B0008B70B00084D
:100B8000BD0B0008BD0B0008BD0B0008BD0B000825
:100B9000BD0B0008BD0B00080623FB7711E00723FF
:100BA000FB770EE00823FB770BE00923FB7708E0D7
:100BB0000A23FB7705E01723FB7702E02823FB7766
:100BC00000BFF97F97F8282097F82C300846114687
:100BD0001A4600F0FFF92037BD4680BD80B483B0CF
:100BE00000AF78607B68244A934201D100233CE047
:100BF0007B68224A934201D1012336E07B68204A78
:100C0000934201D1022330E07B681E4A934201D116
:100C100003232AE07B681C4A934201D1042324E089
:100C20007B681A4A934201D105231EE07B68184A6B
:100C3000934201D1062318E07B68164A934201D102
:100C4000072312E07B68144A934201D108230CE089
:100C50007B68124A934201D1092306E07B68104A5F
:100C6000934201D10A2300E0002318460C37BD4609
:100C70005DF8047B704700BF0000024000040240A2
:100C800000080240000C0240001002400014024024
:100C900000180240001C02400020024000240240D4
:100CA0000028024080B500AF03F016FD00F084F884
:100CB00000F0AAF9FFF7A2FDFFF7E2FDFFF7EAFC5B
:100CC00000F020FD00F014FD00F03CFEFFF7D0FA2C
:100CD00002F07CFE80BD00BF80B400AFBD465DF871
:100CE000047B704780B500AF014808F011FFFEE7B4
:100CF00004FF000880B500AF014808F009FFFEE7D7
:100D000010FF000880B500AF014808F001FFFEE7C2
:100D10002CFF000880B500AF014808F0F9FEFEE79F
:100D200038FF000880B500AF014808F0F1FE80BD33
:100D300048FF000880B500AF014808F0E9FE80BD1B
:100D400058FF000880B500AF014808F0E1FE80BD03
:100D500068FF000880B500AFFFF7ACFCFFF712FE9C
:100D6000FFF744FE80BD00BF80B500AF00F0CCF9B6
:100D700000F012FA00F0DAF900F0FCF900F0E8F9FE
:100D800000F01CFA80BD00BF80B500AF03F00EFD7F
:100D900080BD00BF80B500AF02F0E8FE80BD00BF9F
:100DA00080B500AF02F0A2F980BD00BF80B500AFF2
:100DB00002F000FA80BD00BF80B582B002AF002310
:100DC0000093032301932448012100220223FFF70B
:100DD00041FE21480421002206F0BCFD00230093BF
:100DE000032301931C48012100220323FFF732FE55
:100DF00019480821002206F0ADFD002300930323CB
:100E000001931548012100220423FFF723FE124815
:100E10001021002206F09EFD00230093032301937E
:100E20000D48012100220523FFF714FE0A48202166
:100E3000002206F08FFD0023009303230193064850
:100E4000012100220623FFF705FE0348402100226E
:100E500006F080FDBD4680BD0010024080B582B026
:100E600000AF03460A46FB711346BB71FB790C4A7F
:100E700052F82310FB790B4A52F823301A4601230B
:100E800093409AB2BB79002B14BF01230023DBB23D
:100E9000084611461A4606F05DFD0837BD4680BD7E
:100EA000000000201400002080B582B000AF03468F
:100EB000FB71FB79084A52F82310FB79074A52F874
:100EC00023301A46012393409BB20846194606F088
:100ED00059FD0837BD4680BD0000002014000020E9
:100EE00090B58FB004AFFFF7DDFE354B0093354A68
:100EF00001AB92E8030083E8030000230393002082
:100F000000217F22322303F0A1F840F6B830FFF72A
:100F10009BFB2D4B00932B4A01AB92E8030083E827
:100F2000030000230393002000217F22322303F0DB
:100F30008DF800237B627B6A01337B6202F092FEB4
:100F400003463B821F4B5B7887F823301D4B1B7891
:100F50001A46920013445B00DBB2093387F8223053
:100F600007F11403184619497A6A08F0A9FE7A7C39
:100F700097F82330D31AD9B27B7C97F8222000202F
:100F800003F0BCF97A7C97F82330D31ADBB2013B2B
:100F9000D9B207F114040B4B5A6800921B68002069
:100FA000224603F001F87B6A5A1C7A620848194607
:100FB00008F0AEFD4FF47A70FFF746FBBBE700BFC9
:100FC00074FF0008BCFC0008A4FF0008F8FF00083C
:100FD0000000010880B584B000AF0346FB710B46EA
:100FE000BB7113467B71FB793B73BB797B737B7958
:100FF000BB730123FB7307F10C03184606F020F9BD
:101000001037BD4680BD00BF80B582B002AF00235F
:101010000093032301933B48002100220F23FFF795
:1010200019FD0F2300930F23019336480F21082247
:101030000023FFF757FD002300930323019331485A
:10104000002100220E23FFF705FD0F2300930F233D
:1010500001932C480E2108220023FFF743FD0023B3
:101060000093032301932748002100220D23FFF75B
:10107000F1FC0F2300930F23019322480D21082236
:101080000023FFF72FFD00230093032301931D4846
:10109000002100220C23FFF7DDFC0F2300930F2318
:1010A000019318480C2108220023FFF71BFD0023A1
:1010B0000093032301931348002100220B23FFF721
:1010C000C9FC0F2300930F2301930E480B21082224
:1010D0000023FFF707FD0023009303230193094832
:1010E000002100220A23FFF7B5FC0F2300930F23F2
:1010F000019304480A2108220023FFF7F3FCBD46B0
:1011000080BD00BF000C024080B500AF4FF400402E
:1011100006F06AFB0346002B06D00020FFF7C4FE52
:101120004FF4004006F07AFB80BD00BF80B500AFF1
:101130004FF4804006F058FB0346002B06D00120F8
:10114000FFF7B2FE4FF4804006F068FB80BD00BFA1
:1011500080B500AF4FF4005006F046FB0346002B6D
:1011600006D00220FFF7A0FE4FF4005006F056FB19
:1011700080BD00BF80B500AF4FF4805006F034FB57
:101180000346002B06D00320FFF78EFE4FF480505D
:1011900006F044FB80BD00BF80B500AF4FF4006097
:1011A00006F022FB0346002B06D00420FFF77CFE4E
:1011B0004FF4006006F032FB80BD00BF80B500AF89
:1011C0004FF4806006F010FB0346002B12D0002085
:1011D000FFF76AFE0120FFF767FE0220FFF764FEBB
:1011E0000320FFF761FE0420FFF75EFE4FF48060EE
:1011F00006F014FB80BD00BF80B582B000AF786000
:101200000B46FB707B68394A934205D1FB7801207D
:10121000194606F039FD65E07B68354A934205D1F1
:10122000FB780220194606F02FFD5BE07B68314A0F
:10123000934205D1FB780420194606F025FD51E0C4
:101240007B682D4A934205D1FB780820194606F0A9
:101250001BFD47E07B68294A934205D1FB781020AB
:10126000194606F011FD3DE07B68254A934205D101
:10127000FB782020194606F007FD33E07B68214A01
:10128000934205D1FB784020194606F0FDFC29E089
:101290007B681D4A934205D1FB788020194606F0F1
:1012A000F3FC1FE07B68194A934206D1FB784FF4A8
:1012B0008070194606F0E8FC14E07B68144A9342FB
:1012C00006D1FB784FF40070194606F0DDFC09E00A
:1012D0007B68104A934205D1FB784FF48060194631
:1012E00006F0D2FC0837BD4680BD00BF00000240BA
:1012F0000004024000080240000C024000100240BE
:101300000014024000180240001C0240002002406D
:10131000002402400028024080B582B000AF78600F
:101320000B46FB707B682B4A934205D1FB7810205B
:10133000194606F003FD4AE07B68274A934206D12E
:10134000FB784FF40030194606F0DAFC3FE07B688A
:10135000224A934206D1FB784FF48020194606F0CA
:10136000CFFC34E07B681E4A934206D1FB784FF4F1
:101370000020194606F0C4FC29E07B68194A934214
:1013800006D1FB784FF48010194606F0B9FC1EE038
:101390007B68154A934205D1FB782020194606F058
:1013A000CDFC14E07B68114A934206D1FB784FF0E4
:1013B0008040194606F0A4FC09E07B680C4A934281
:1013C00005D1FB784FF00040194606F099FC08372C
:1013D000BD4680BD00100140004400400048004070
:1013E000004C0040005000400014014000780040D4
:1013F000007C004080B582B000AF78600B46FB7087
:101400007B68B3F1804F05D1FB780120194606F0C7
:1014100077FC84E07B68434A934205D1FB78022045
:10142000194606F06DFC7AE07B683F4A934205D18D
:10143000FB780420194606F063FC70E07B683B4AA9
:10144000934205D1FB780820194606F059FC66E066
:101450007B68374A934205D1FB781020194606F085
:101460004FFC5CE07B68334A934205D1FB78202037
:10147000194606F045FC52E07B682F4A934205D19D
:10148000FB784020194606F03BFC48E07B682B4A7D
:10149000934205D1FB788020194606F031FC3EE0EE
:1014A0007B68274A934206D1FB784FF48070194637
:1014B00006F026FC33E07B68224A934205D1FB7894
:1014C0000120194606F03AFC29E07B681E4A934247
:1014D00005D1FB780220194606F030FC1FE07B683E
:1014E0001A4A934206D1FB784FF48030194606F031
:1014F00025FC14E07B68164A934206D1FB784FF432
:101500000030194606F01AFC09E07B68114A934244
:1015100005D1FB784FF48020194606F00FFC083700
:10152000BD4680BD0004004000080040000C0040A3
:10153000001000400014004000180040001C004053
:101540000020004000000140000401400040014034
:10155000004401400048014080B582B000AF78608F
:101560000B46FB707B68214A934206D1FB784FF40F
:101570008040194606F0C4FB35E07B681C4A934264
:1015800006D1FB784FF40040194606F0B9FB2AE07B
:101590007B68184A934206D1FB784FF48050194675
:1015A00006F0CCFB1FE07B68134A934206D1FB7820
:1015B0004FF48050194606F0C1FB14E07B680F4AD7
:1015C000934206D1FB784FF48010194606F0B6FB23
:1015D00009E07B680A4A934205D1FB784FF400107A
:1015E000194606F0ABFB0837BD4680BD0038004009
:1015F000003C0040003001400034014000500140F8
:101600000054014080B582B000AF78600B46FB709B
:101610007B68274A93421BD07B68264A934217D0A7
:101620007B68254A934213D07B68244A93420FD0AB
:101630007B68234A93420BD07B68224A934207D0AF
:101640007B68214A934203D07B68204A934205D1AC
:10165000FB784FF40010194606F016FB7B681C4A15
:1016600093421BD07B681B4A934217D07B681A4A6F
:10167000934213D07B68194A93420FD07B68184A73
:1016800093420BD07B68174A934207D07B68164A77
:10169000934203D07B68154A934205D1FB784FF4FF
:1016A0008000194606F0F0FA0837BD4680BD00BF3D
:1016B00010600240286002404060024058600240D2
:1016C0007060024088600240A0600240B860024042
:1016D00010640240286402404064024058640240A2
:1016E0007064024088640240A0640240B864024012
:1016F00080B500AF4020012106F0E4FA012006F099
:10170000B1FB80BD80B584B000AF0023FB604FF01B
:101710008050012106F0F4FA012006F08DF9012035
:1017200006F09AF9394808F035FA2BE03220FEF736
:101730008BFFFB680133FB603548F96808F0E8F976
:10174000FB68052B1ED1002006F086F9012006F06B
:10175000A3F900BF612006F04BFB0346002BF9D034
:101760004FF4007006F052FA2A4BFF221A602A4BFF
:101770007F221A60294808F00DFA4FF47A70FEF7BC
:1017800063FF0FE0412006F033FB0346002BCDD072
:101790004FF4807006F03AFA1E4BFF221A601E4B7F
:1017A0007F221A60012006F05FFA06F0FBFB1A4B5D
:1017B0001B687B60174B1B68BB6000233B603B468C
:1017C000184606F06BFB164B1522DA70144B0422F8
:1017D0005A70134B18229A70114B06221A7001206E
:1017E0000F4906F0F3FC0F4B4022DA700D4B162226
:1017F0001A700C4B10225A700A4B00229A7001206A
:10180000084906F00BFC1037BD4680BD14000108E6
:101810001800010804090020000900204C000108FC
:101820000C09002008090020B0B586B002AF02F014
:1018300019FA03463B80254B5B78FB73234B1B78DF
:10184000DB00DBB20733BB730020214906F070FCDC
:101850001F4B1B781D461E4B5B781C461C4B9B7810
:101860001A463B1D009218461A492A46234608F09C
:1018700027FA3B1D1848194608F04AF93A78BB7B0D
:10188000D31ADBB2013BD8B27A78FB7BD31AD9B238
:101890003B78013BDAB27B7802F030FD3A78BB7BD3
:1018A000D31ADBB2013BD8B27A78FB7BD31ADBB216
:1018B000013BD9B23C1D054B5A6800921B68224679
:1018C00002F072FB1037BD46B0BD00BFBCFC000883
:1018D00008090020740001088400010880B485B064
:1018E00000AF7860154BFB60FB68013BFB60FB6859
:1018F00000221A70FB68013BFB607968104BA3FB68
:101900000123DA0813469B0013445B00CA1AD3B2C2
:101910003033DBB2DAB2FB681A707B68084AA2FB8C
:101920000323DB087B607B68002BE3D1FB68184650
:101930001437BD465DF8047B704700BF580900208E
:10194000CDCCCCCC90B5ADF50B7D02AF4FF4C060E3
:1019500005F064FC312000210022FFF73BFBB64874
:1019600000214FF40C7208F081F80020B24904F015
:1019700057FD03461A46B14B1A70B04B1B78002B2B
:1019800005D0AE4B1B78AE48194608F0C1F8AD48FB
:1019900000214FF4097208F069F8AA48AA49012207
:1019A00004F068FD03461A46A44B1A70A34B1B783B
:1019B000002B05D0A14B1B78A448194608F0A8F8C5
:1019C0009E4B1B78002B40F09D800023C7F81C32F3
:1019D0003A4607F503739B4811464FF4007204F032
:1019E000B9FE03461A46954B1A70944B1B78002B90
:1019F00005D0924B1B789648194608F089F88F4B12
:101A00001B78002B00D00DE0D7F80C32D7F81C2241
:101A10001344C7F81C32D7F80C32B3F5007F00D25C
:101A200000E0D5E7874805F03DFA03461A46834BA8
:101A30001A70824B1B78002B05D0804B1B78854891
:101A4000194608F065F88448D7F81C1208F060F8C9
:101A50007C4882490A2204F00DFD03461A46774B62
:101A60001A70764B1B78002B05D0744B1B787C4882
:101A7000194608F04DF8714B1B78002B42D1794A7A
:101A800007F501731268114619800233120C1A709F
:101A9000D7F81C02FFF722FFC7F81802D7F8180280
:101AA00008F092F9024607F502736648D7F8181253
:101AB00004F0ACFF03461A46604B1A7007F5017339
:101AC000184608F081F9044607F5017207F502731C
:101AD0005C481146224604F099FF03461A46574BCC
:101AE0001A70584805F0DEF903461A46534B1A702F
:101AF000524B1B78002B05D0504B1B785A48194687
:101B000008F006F84F4859490A2204F0B3FC03468E
:101B10001A464A4B1A70494B1B78002B05D0474B8D
:101B20001B785348194607F0F3FF444B1B78002BF2
:101B300040F066814F4B504A1A604E4B1B684F482D
:101B4000194605F0C3F903461A463C4B1A703B4B45
:101B50001B78002B05D0394B1B784948194607F0F4
:101B6000D7FF364B1B78002B40F039813B46C7F836
:101B700014324248434905F00FFA03461A462F4BE8
:101B80001A702E4B1B78002B05D02C4B1B783E482F
:101B9000194607F0BDFF294B1B78002B40F01F8131
:101BA000384B5B7A002B00F01A81384BC7F81032A3
:101BB000344B1B7A03F01003002B01D0442100E0CA
:101BC0002D21304B1B7A03F00103002B01D0522250
:101BD00000E02D222B4B1B7A03F00403002B01D0D5
:101BE000532400E02D24274B1B7A03F00203002B23
:101BF00001D0482300E02D2300932548234607F019
:101C000087FF204B1B682348194607F081FF194BBB
:101C10001B6821481946D7F8102207F079FFD7F83A
:101C200014325A1CC7F81422164A127A02F0100213
:101C3000002A33D0442232E0C8310020B4340020DE
:101C40008C000108B8340020A0000108AC00010895
:101C5000CC000108EC0001080C0101081C0101087E
:101C600028010108F801010848010108680101087C
:101C700070010108C43100208C0101089834002053
:101C800090010108F8330020A80101080134002068
:101C9000C0010108CC010108D40101082D221A70ED
:101CA000D7F814325A1CC7F81422574A127A02F095
:101CB0000102002A01D0522200E02D221A70D7F82A
:101CC00014325A1CC7F814224F4A127A02F0040246
:101CD000002A01D0532200E02D221A70D7F81432C6
:101CE0005A1CC7F81422484A127A02F00202002A4B
:101CF00001D0482200E02D221A70D7F814325A1C65
:101D0000C7F8142220221A703F4B1B681846FFF7B1
:101D1000E5FD0346D7F81402194607F0F7FFD7F898
:101D2000140208F051F80246D7F814321344C7F8E9
:101D30001432D7F814325A1CC7F8142220221A7011
:101D4000324B1B68D7F81402194607F0DFFFD7F8AB
:101D5000140208F039F80246D7F814321344C7F8D1
:101D60001432D7F814325A1CC7F814222F221A70D2
:101D7000D7F81402D7F8101207F0C8FFD7F81402EA
:101D800008F022F80246D7F814321344C7F8143288
:101D9000D7F814325A1CC7F814220D221A70D7F83B
:101DA00014325A1CC7F814220A221A70D7F81432B7
:101DB0005A1CC7F8142200221A703B46184608F035
:101DC00003F804463A4607F50073114811462246C7
:101DD00004F01CFE03461A460E4B1A70C6E60C4869
:101DE00005F060F803461A460A4B1A70094B1B7837
:101DF000002B05D0074B1B780748194607F088FED3
:101E000007F50977BD4690BDF8330020C4310020A6
:101E1000B8340020B4340020DC01010880B584B05F
:101E200004AF00230093032301930C23029326485D
:101E3000022100220C23FEF733FE0123009303232B
:101E400001930C2302932148022100220223FEF772
:101E500027FE01230093032301930C2302931A48C6
:101E6000022100220823FEF71BFE01230093032317
:101E700001930C2302931448022100220923FEF748
:101E80000FFE01230093032301930C2302930E48BA
:101E9000022100220A23FEF703FE012300930323FD
:101EA00001930C2302930848022100220B23FEF722
:101EB000F7FD4FF40060012105F040FF04480121C7
:101EC000FFF7A0FBBD4680BD00080240000C0240A9
:101ED0005864024080B592B000AF78603960234802
:101EE0004FF0FA5105F0A6FB2048002105F030FB29
:101EF0001E4805F005FA4FF00063FB601C4B3B6188
:101F00007B687B614023BB610023FB6100233B6254
:101F10004FF480637B624FF48053BB624FF4804385
:101F2000FB6200233B634FF440337B630423BB63BA
:101F30000323FB634FF400033B644FF400137B6403
:101F400007F10C030948194605F0ACFA07481021BF
:101F5000012205F09DFB0548202105F015FB0348F3
:101F6000012105F0F5FA4837BD4680BD58640240AE
:101F7000802C014080B592B000AF78603960234872
:101F80004FF0FA5105F056FB2048002105F0E0FA29
:101F90001E4805F0B5F94FF00063FB601C4B3B6138
:101FA0007B687B610023BB610023FB6100233B62F4
:101FB0004FF480637B624FF48053BB624FF48043E5
:101FC000FB6200233B634FF440337B630423BB631A
:101FD0000323FB634FF400033B644FF400137B6463
:101FE00007F10C030948194605F05CFA074810216F
:101FF000012205F04DFB0548202105F0C5FA0348F4
:10200000012105F0A5FA4837BD4680BD586402405D
:10201000802C014080B582B000AF0023FB71FFF738
:10202000FDFE06F09DF900F091F80346FB71FB7987
:10203000DBB2002B02D0FB79DBB23DE000F09CF973
:102040000346FB71FB79DBB2002B02D0FB79DBB2DC
:1020500032E01B4B02221A75194B00221A60184BF2
:1020600000225A60164B00229A60154B0022DA605B
:10207000134B00221A61124806F080F9114800F053
:1020800041FA0346FB71FB79DBB2002B08D10D4B03
:10209000B3F854301B04184600F07CFD0346FB7176
:1020A000FB79DBB2002B05D14FF4006000F006FD98
:1020B0000346FB71FB79DBB218460837BD4680BD8D
:1020C000683400201034002080B582B000AF0423B3
:1020D000FB7100F011F80346FB71FB79042B01D171
:1020E000002305E0FB79FF2B01D1022300E001234F
:1020F00018460837BD4680BD80B582B000AF0023CA
:102100007B6000F019F80346012B0FD13B1D1846E8
:1021100000F0B0FF0346002B01D0FF2307E07B68EF
:102120005B0ADBB203F00F03DBB200E0FF231846CB
:102130000837BD4680BD00BF80B483B000AF012327
:1021400018460C37BD465DF8047B704780B586B0F5
:1021500000AF0023FB7100237B6100233B61002360
:10216000FB600023BB60814B76221A757F4B0022F7
:102170001A607E4B00225A607C4B00229A607B4B97
:102180000022DA60794B00221A61784806F0F6F8EE
:10219000032006F031F9012006F01EF9744B0022ED
:1021A0001A60734B00225A60714B00229A60704B88
:1021B0000022DA606E4B4FF480621A616C4806F0C0
:1021C00037F901F00FF80346FB71FB79DBB2002B06
:1021D00002D0FB79DBB2C5E0654B4FF4D5721A60D3
:1021E000634B08225A60624B40229A60604B002287
:1021F000DA605F4B4FF480621A615D4806F018F9AF
:1022000001F016F80346FB71FB79DBB2002B06D117
:10221000584B01221A604FF08043BB6017E0544BCB
:1022200000221A60524B37225A60514B40229A606A
:102230004F4B0022DA604E4B4FF480621A614C48DB
:1022400006F0F6F8372001F02FF80346FB71484BF3
:1022500000221A60464B37225A60454B40229A6052
:10226000434B0022DA60424B4FF480621A614048CF
:1022700006F0DEF8372001F017F80346FB71FB7912
:10228000DBB2002B6CD14FE0394B00221A60384B87
:1022900037225A60364B40229A60354B0022DA6072
:1022A000334B4FF480621A61314806F0C1F8372091
:1022B00000F0FAFF0346FB71FB79DBB2002B02D082
:1022C000FB79DBB24EE0BB6843F0004343F480137C
:1022D000274A1360264B29225A60254B40229A60D8
:1022E000234B0022DA60224B4FF480621A612048AF
:1022F00006F09EF801F0AAF80346FB71FB79DBB209
:10230000002B02D0FB79DBB22CE0002006F0C8F8ED
:1023100078617B69DB0F012B0CBF01230023DBB24B
:10232000FB603B6901333B61FB68002B04D13B69D7
:102330004FF6FE729342A7D93B694FF6FE72934265
:1023400004D91B23FB71FB79DBB20BE07B6903F043
:1023500080437B617B69002B02D0064B02221A600E
:10236000FB79DBB218461837BD4680BD68340020C3
:10237000B03100201009002080B582B000AF0023EA
:10238000FB710123BB8006F045F80346002B03D107
:102390002523FB71FB79A7E0554B1B68042B33D039
:1023A000544B00221A60534B02225A60514BC022F8
:1023B0009A60504B0022DA604E4B4FF480621A61F3
:1023C0004C4806F035F801F069F80346FB71FB79DB
:1023D000002B01D0FB7987E0002006F061F802466F
:1023E000454B1A60042006F05BF80246424B5A60E7
:1023F000082006F055F802463F4B9A600C2006F084
:102400004FF802463C4BDA60394B1B68002B0BD06F
:10241000374B1B68012B07D0354B1B68062B03D0AD
:10242000334B1B68022B1ED1324B00221A60314BFA
:1024300003225A602F4B40229A602E4B0022DA6012
:102440002C4B4FF480621A612A4805F0F1FF3B1DC6
:102450000320194601F056F80346FB71FB79002B67
:1024600001D0FB7940E0224B1B68042B39D0BB889C
:102470001A46224B1A60BB881B041A461D4B1A6071
:102480001C4B09225A601B4BC0229A60194B002238
:10249000DA60184B4FF480621A61164805F0C8FFE5
:1024A00000F0FCFF0346FB71FB79002B01D0FB79A8
:1024B0001AE0002005F0F4FF0246114B1A600420D8
:1024C00005F0EEFF02460E4B5A60082005F0E8FFCB
:1024D00002460B4B9A600C2005F0E2FF0246084BC7
:1024E000DA600023FB71FB7918460837BD4680BDD2
:1024F00010090020B03100202409002034090020F8
:1025000014090020B0B485B000AF78600021B97321
:102510000021F9738D490968C8B2796881F85600BD
:102520008B49096888B27968A1F85400894909681B
:10253000090EF973F97B8909C8B279680870F97BCB
:1025400001F03C018910C8B279684870F97B01F04C
:102550000301C8B2796888707E49096801F47F0177
:10256000090CF9737968F87BC8707A49096801F435
:102570007F41090AF9737968F87B08717549096820
:10258000F9737968F87B487172494968090EF973E3
:10259000F97B89B2090188B27968C8806D494968B8
:1025A00001F47F01090CF9737968C98888B2F97B55
:1025B0000909C9B289B2014388B27968C880F97B38
:1025C00001F00F01C8B2796808726249496801F4E4
:1025D0007F41090AF973F97BC909C8B27968487261
:1025E000F97B01F040018911C8B279688872F97BE2
:1025F00001F020014911C8B27968C872F97B01F075
:1026000010010911C8B2796808737968002048730D
:102610004E490968002904D04C490968012940F055
:102620009B80FB7B03F003039B021A467B681A61C5
:10263000484B5B68FB737B681B69FA7B92001A430B
:102640007B681A61434B9B681B0EFB737B681B699D
:10265000FA7B9209D2B21A437B681A61FB7B03F0C2
:102660003803DB10DAB27B681A75FB7B03F00703D3
:10267000DAB27B685A75374B9B6803F47F031B0CF7
:10268000FB73FB7B5B09DAB27B689A75FB7B03F01B
:102690001C039B10DAB27B68DA75FB7B03F0030343
:1026A000DBB25B00DAB27B681A762A4B9B6803F4D4
:1026B0007F431B0AFB737B681B7EDAB2FB7BDB0963
:1026C000DBB21343DAB27B681A767B681B6901338D
:1026D0001A464FF000037968C1E912237B681B7E1C
:1026E000DBB20233012202FA03F37A68D2E9120163
:1026F0001A464FEAE27302FB01F500FB03F42C4497
:10270000A0FB0223E1180B467968C1E912237B681C
:102710001B7ADBB21A46012393401A467B681A657E
:102720007B68D3E912017B681B6D1A464FF00003EA
:1027300002FB01F500FB03F42C44A0FB0223E1188B
:102740000B467968C1E9122342E000BF100900205E
:102750003409002014090020AB490968022937D147
:10276000AA494968F973F97B01F03F010904084659
:1027700079680861A5498968090EF973796809695A
:10278000F87B0002084379680861A049896801F470
:102790007F01090CF97379680869F97B0843796846
:1027A00008619A49896801F47F41090AF9737968D7
:1027B0000969013108464FF00001CB0443EA503368
:1027C000C2047968C1E912237B684FF400721A656C
:1027D000FB7B03F040039B11DAB27B685A76FB7BEC
:1027E00003F03F03DBB25B00DAB27B689A76874B7B
:1027F0009B68FB737B689B7EDAB2FB7BDB09DBB2F9
:102800001343DAB27B689A76FB7B03F07F03DAB27C
:102810007B68DA767D4BDB681B0EFB73FB7BDB0989
:10282000DAB27B681A77FB7B03F060035B11DAB2E4
:102830007B685A77FB7B03F01C039B10DAB27B6842
:102840009A77FB7B03F00303DBB29B00DAB27B6871
:10285000DA776E4BDB6803F47F031B0CFB737B683A
:10286000DB7FDAB2FB7B9B09DBB21343DAB27B6816
:10287000DA77FB7B03F020035B11DAB27B6883F825
:1028800020207B68002283F82120FB7B03F00103DA
:10289000DAB27B6883F822205C4BDB6803F47F4369
:1028A0001B0AFB73FB7BDB09DAB27B6883F823200E
:1028B000FB7B03F040039B11DAB27B6883F8242092
:1028C000FB7B03F020035B11DAB27B6883F82520E1
:1028D000FB7B03F010031B11DAB27B6883F8262020
:1028E000FB7B03F00C039B10DAB27B6883F8272094
:1028F000FB7B03F00303DAB27B6883F82820434BA9
:10290000DB68FB73FB7B5B08DAB27B6883F829200A
:102910007B68012283F82A203D4B1B681B0EFB734A
:102920007B68FA7B83F82C20394B1B6803F47F0308
:102930001B0CFB73FB7B9BB21B029AB27B68DA8594
:10294000334B1B6803F47F431B0AFB737B68DB8DEF
:102950009AB2FB7B9BB213439AB27B68DA852C4B0D
:102960001B68FB73FB7B1B061A467B681A63284BAC
:102970005B681B0EFB737B681B6BFA7B12041A43AC
:102980007B681A63224B5B6803F47F031B0CFB73A9
:102990007B681B6BFA7B12021A437B681A631C4B21
:1029A0005B6803F47F431B0AFB737B681A6BFB7B3A
:1029B0001A437B681A63164B5B68FB737B68FA7B70
:1029C00083F83420124B9B681B0EFB737B68FA7BE9
:1029D00083F835200E4B9B6803F47F031B0CFB73BD
:1029E000FB7B1B061A467B689A63094B9B6803F4C2
:1029F0007F431B0AFB737B689B6BFA7B12041A43B1
:102A00007B689A6306E000BF1009002014090020CB
:102A100024090020284B9B68FB737B689B6BFA7B27
:102A200012021A437B689A63234BDB681B0EFB730D
:102A30007B689A6BFB7B1A437B689A631E4BDB684F
:102A400003F47F031B0CFB737B6893F83C30DAB212
:102A5000FB7B1B09DBB21343DAB27B6883F83C20B3
:102A6000FB7B9BB203F00F039BB21B029AB27B6805
:102A7000DA87114BDB6803F47F431B0AFB737B6827
:102A8000DB8F9AB2FB7B9BB213439AB27B68DA87E7
:102A9000094BDB68FB73FB7B5B08DAB27B6883F86E
:102AA00040207B68012283F84120BB7B1846143705
:102AB000BD46B0BC704700BF2409002080B584B07B
:102AC00000AF78600023FB73304B1B68032B03D1EE
:102AD0002723FB73FB7B54E02C4B1B68002B07D098
:102AE0002A4B1B68012B03D0284B1B68022B47D1B4
:102AF0007B68B3F5805F03D12723FB73FB7B40E04A
:102B00007B68B3F5006F1ED1012000F063FD034622
:102B1000FB73FB7B002B33D11D4B02221A751C4B20
:102B200000221A601A4B00225A60194B00229A6048
:102B3000174B4FF40062DA60154B00221A611448FB
:102B400005F01CFC1CE0002000F044FD0346FB7374
:102B5000FB7B002B14D10E4B02221A750C4B00226A
:102B60001A600B4B00225A60094B00229A60084BF6
:102B70000022DA60064B00221A61054805F0FEFBD0
:102B8000FB7B18461037BD4680BD00BF10090020F2
:102B90006834002080B584B000AF78600023FB73F8
:102BA0000E4A7B6813600D4B07225A600B4B402284
:102BB0009A600A4B0022DA60084B4FF480621A6177
:102BC000064805F035FC072000F06EFB0346FB735A
:102BD000FB7B18461037BD4680BD00BFB0310020DA
:102BE00080B586B000AFF860B9607A603B600023C2
:102BF000FB75404B00221A703F4B00221A603F4B7E
:102C000001221A603E4B0022DA623E4B1B68022B07
:102C100003D14FF400737B6004E0BB687A6802FB69
:102C200003F3BB60384A7B681360374B10225A604D
:102C3000354B40229A60344B0022DA60324B4FF41D
:102C400080621A61304805F0F3FB102000F02CFB85
:102C50000346FB75FB7D002B01D0FB7D46E02B4B33
:102C60004FF0FF321A603B687A6802FB03F3274A91
:102C70005360264B90229A60244B0222DA60234B49
:102C800000221A61214B01225A61204805F01CFCE8
:102C90001D4ABB6813601C4B12225A601A4B40221B
:102CA0009A60194B0022DA60174B4FF480621A6168
:102CB000154805F0BDFB122000F0F6FA0346FB753F
:102CC000FB7D002B01D0FB7D10E040F22A3001217A
:102CD00005F044FC012005F031FC3B687A6802FBFA
:102CE00003F3F8681946FFF745F9FB7D18461837D6
:102CF000BD4680BD3C090020400900203809002065
:102D0000002C014010090020B03100208034002048
:102D100080B582B000AF0023FB714FF0FF333B6002
:102D200002E03B68013B3B60224B1B68002B0BD150
:102D3000214B1B68002B07D1204B1B78DBB2002BEB
:102D400002D13B68002BECD11A4B00221A604FF0E5
:102D5000FF333B6002E03B68013B3B60184B5B6B21
:102D600003F40053002B02D03B68002BF3D1154B2A
:102D70001B68012B03D100F059F90346FB713B6836
:102D8000002B04D1FB79002B01D10423FB7140F20D
:102D9000FF5005F01BFC094B1B78DBB2002B03D066
:102DA000064B1B78DBB200E0FB7918460837BD46BE
:102DB00080BD00BF44090020400900203C090020DC
:102DC000002C01403809002080B586B000AFF860C3
:102DD000B9607A603B600023FB755E4B00221A707D
:102DE0005D4B00221A605D4B01221A605C4B002291
:102DF000DA625C4B1B68022B03D14FF400737B60DB
:102E000004E0BB687A6802FB03F3BB60564A7B6848
:102E10001360554B10225A60534B40229A60524B1C
:102E20000022DA60504B4FF480621A614E4805F080
:102E3000FFFA102000F038FA0346FB75FB7D002BEB
:102E400001D0FB7D82E0494B1B681B04464A13609E
:102E5000454B37225A60444B40229A60424B002235
:102E6000DA60414B4FF480621A613F4805F0E0FAA6
:102E7000372000F019FA0346FB75FB7D002B01D0CB
:102E8000FB7D63E0384A3B681360374B17225A607A
:102E9000354B40229A60344B0022DA60324B4FF4BB
:102EA00080621A61304805F0C3FA172000F0FCF97F
:102EB0000346FB75FB7D002B01D0FB7D46E02A4AD3
:102EC000BB681360284B19225A60274B40229A6036
:102ED000254B0022DA60244B4FF480621A612248AD
:102EE00005F0A6FA192000F0DFF90346FB75FB7D1B
:102EF000002B01D0FB7D29E01D4B4FF0FF321A6003
:102F00003B687A6802FB03F3194A5360184B90221E
:102F10009A60174B0022DA60154B00221A61144B9D
:102F200001225A61124805F0CFFA40F22A300121FD
:102F300005F014FB012005F001FB3B687A6802FBF9
:102F400003F3F8681946FEF7C5FFFB7D18461837EE
:102F5000BD4680BD3C090020400900203809002002
:102F6000002C014010090020B0310020340900205D
:102F70008034002080B582B000AF0023FB714FF099
:102F8000FF333B6002E03B68013B3B60224B1B6828
:102F9000002B0BD1214B1B68002B07D1204B1B783A
:102FA000DBB2002B02D13B68002BECD11A4B002284
:102FB0001A604FF0FF333B6002E03B68013B3B602F
:102FC000184B5B6B03F48053002B02D03B68002B43
:102FD000F3D1154B1B68012B03D100F027F80346F2
:102FE000FB713B68002B04D1FB79002B01D104233A
:102FF000FB7140F2FF5005F0E9FA094B1B78DBB298
:10300000002B03D0064B1B78DBB200E0FB7918469F
:103010000837BD4680BD00BF44090020400900209C
:103020003C090020002C01403809002080B582B006
:1030300000AF0023FB710E4B00221A600C4B0C22D8
:103040005A600B4B40229A60094B0022DA60084B11
:103050004FF480621A61064805F0EAF90C2000F08E
:1030600023F90346FB71FB7918460837BD4680BD3E
:10307000B031002080B584B000AF78600023FB73CE
:103080007B68002B03D12623FB73FB7B25E0154BCC
:103090001B681B04144A1360134B0D225A60124B19
:1030A00040229A60104B0022DA600F4B4FF480628E
:1030B0001A610D4805F0BCF90D2000F0F5F8034643
:1030C000FB73FB7B002B01D0FB7B06E0002005F0AF
:1030D000E7F902467B681A60FB7B18461037BD464D
:1030E00080BD00BF34090020B031002080B500AFA2
:1030F0004FF4807005F078FA0346002B0AD02B4B72
:1031000000221A704FF4807005F088FA284B0122D3
:103110001A6041E0022005F067FA0346002B06D052
:10312000022005F07BFA214B02221A7034E00820BD
:1031300005F05AFA0346002B06D0082005F06EFA77
:103140001A4B04221A7027E0202005F04DFA03469E
:10315000002B06D0202005F061FA144B06221A70CD
:103160001AE0102005F040FA0346002B06D010208C
:1031700005F054FA0D4B05221A700DE04FF4007063
:1031800005F032FA0346002B06D04FF4007005F02C
:1031900045FA064B07221A704CF23A30002105F02E
:1031A000DDF9024B1B78DBB2184680BD3C090020DC
:1031B0004009002080B500AF074B1B6803F0C053E7
:1031C000002B07D0054B01221A6005484FF0C25171
:1031D00004F030FA80BD00BF0064024044090020C2
:1031E0005864024080B582B000AF0023FB704FF4FA
:1031F00080337B6002E07B68013B7B607B68002B57
:1032000005D0802005F0C8F90346002BF3D07B6879
:10321000002B03D10323FB70FB7804E040F2FF5046
:1032200005F0D4F9FB7818460837BD4680BD00BFCD
:1032300080B584B000AF0023FB714FF48033BB60D6
:10324000184B5B6BFB6005E0BB68013BBB60154B3B
:103250005B6BFB60FB6803F04503002B02D1BB688E
:10326000002BF1D1BB68002B04D0FB6803F00403F2
:10327000002B06D00323FB71042005F0A7F9FB798E
:103280000CE0FB6803F04003002B06D00023FB7129
:10329000402005F09BF9FB7900E0FB7918461037D8
:1032A000BD4680BD002C014080B586B000AF03460E
:1032B000FB710023FB74634B5B6B7B6102E0614B32
:1032C0005B6B7B617B6903F04503002BF7D07B6967
:1032D00003F00403002B06D00323FB74042005F045
:1032E00075F9FB7CA9E07B6903F00103002B06D094
:1032F0000123FB74012005F069F9FB7C9DE005F0DA
:10330000C3F803461A46FB79934203D01023FB749B
:10331000FB7C92E040F2FF5005F058F9002005F0E8
:10332000BFF8F860FA68484B1340002B01D1FB7CD2
:1033300083E0FB68002B01DA1C237EE0FB6803F0CE
:103340008043002B01D0092377E0FB6803F0005392
:10335000002B01D00A2370E0FB6803F08053002BA0
:1033600001D00B2369E0FB6803F00063002B01D060
:103370000C2362E0FB6803F08063002B01D00D2377
:103380005BE0FB6803F08073002B01D00E2354E058
:10339000FB6803F40003002B01D00F234DE0FB6812
:1033A00003F48003002B01D0102346E0FB6803F4F4
:1033B0000013002B01D011233FE0FB6803F48013BE
:1033C000002B01D0122338E0FB6803F40023002B0C
:1033D00001D0132331E0FB6803F48023002B01D0DC
:1033E00014232AE0FB6803F40033002B01D01523DB
:1033F00023E0FB6803F48033002B01D016231CE08C
:10340000FB6803F40043002B01D0172315E0FB6891
:1034100003F48043002B01D018230EE0FB6803F473
:103420000053002B01D0192307E0FB6803F00803C9
:10343000002B01D01A2300E0FB7C18461837BD464C
:1034400080BD00BF002C014008E0FFFD80B582B0C8
:1034500000AF0023FB70104B5B6B7B6002E00E4BF8
:103460005B6B7B607B6803F04503002BF7D07B68C8
:1034700003F00403002B06D00323FB70042005F0A7
:10348000A5F8FB7804E040F2FF5005F09FF8FB78C8
:1034900018460837BD4680BD002C014080B582B07B
:1034A00000AF0023FB70164B5B6B7B6002E0144B9C
:1034B0005B6B7B607B6803F04503002BF7D07B6878
:1034C00003F00403002B06D00323FB70042005F057
:1034D0007DF8FB7810E07B6803F00103002B06D039
:1034E0000123FB70012005F071F8FB7804E040F245
:1034F000FF5005F06BF8FB7818460837BD4680BDD5
:10350000002C014080B586B000AF03463960FB71E6
:103510000023FB742E4B5B6B7B6102E02C4B5B6BDF
:103520007B617B6903F04503002BF7D07B6903F0D7
:103530000403002B06D00323FB74042005F046F897
:10354000FB7C40E07B6903F00103002B06D00123E4
:10355000FB74012005F03AF8FB7C34E004F094FFA2
:1035600003461A46FB79934203D01023FB74FB7C7D
:1035700029E040F2FF5005F029F8002004F090FF08
:10358000F860FB6803F46043002B06D1FB681B0C5A
:103590009AB23B681A80FB7C15E0FB6803F4005389
:1035A000002B01D013230EE0FB6803F48043002BB3
:1035B00001D0102307E0FB6803F40043002B01D087
:1035C0000F2300E0FB7C18461837BD4680BD00BFC6
:1035D000002C014080B586B000AF0346FB7100238C
:1035E000FB750023FB6000233B61002004F058FFC3
:1035F000034603F00073002B03D00E23FB75FB7D05
:103600009FE0524B1B689AB207F10C031046194613
:1036100000F0A0F80346FB75FB7D002B01D0FB7D7D
:103620008FE0FB79012B46D13B6903F48023002B0B
:103630003DD0464B1B681B04454A1360444B372260
:103640005A60434B40229A60414B0022DA60404B63
:103650004FF480621A613E4804F0EAFE3720FFF71B
:1036600023FE0346FB75FB7D002B01D0FB7D68E04C
:10367000374B02221A60364B06225A60344B4022E6
:103680009A60334B0022DA60314B4FF480621A614A
:103690002F4804F0CDFE0620FFF706FE0346FB751B
:1036A000FB7D002B01D0FB7D4BE0FB7D49E025231A
:1036B000FB75FB7D45E03B6903F48033002B3DD077
:1036C000224B1B681B04224A1360214B37225A608D
:1036D0001F4B40229A601E4B0022DA601C4B4FF4B5
:1036E00080621A611A4804F0A3FE3720FFF7DCFD60
:1036F0000346FB75FB7D002B01D0FB7D21E0144BC5
:1037000000221A60124B06225A60114B40229A6026
:103710000F4B0022DA600E4B4FF480621A610C48A6
:1037200004F086FE0620FFF7BFFD0346FB75FB7D18
:10373000002B01D0FB7D04E0FB7D02E02523FB751F
:10374000FB7D18461837BD4680BD00BF34090020F8
:10375000B031002090B587B000AF03463960FB80E0
:1037600000237B610023FB740023BB600023FB600C
:10377000754B08221A60744B10225A60724B40221B
:103780009A60714B0022DA606F4B4FF480621A61CD
:103790006D4804F04DFE1020FFF786FD0346FB74D4
:1037A000FB7C002B01D0FB7CCAE0684B1B681B0430
:1037B000654A1360644B37225A60634B40229A601B
:1037C000614B0022DA60604B4FF480621A615E4800
:1037D00004F02EFE3720FFF767FD0346FB74FB7CE9
:1037E000002B01D0FB7CABE0594B4FF0FF321A604D
:1037F000574B08225A60564B30229A60544B022293
:10380000DA60534B00221A61514B01225A61504831
:1038100004F05AFE4C4B00221A604B4B33225A6084
:10382000494B40229A60484B0022DA60464B4FF4E5
:1038300080621A61444804F0FBFD3320FFF734FD39
:103840000346FB74FB7C002B01D0FB7C78E012E08C
:103850004FF4001004F0A0FE0346002B0BD07B6950
:103860009B0007F10802D41804F05CFE03462360B5
:103870007B6901337B61374B5A6B40F22A631340FB
:10388000002BE5D0082004F087FE0346002B06D06D
:10389000082004F09BFE0423FB74FB7C50E0022014
:1038A00004F07AFE0346002B06D0022004F08EFEC0
:1038B0000223FB74FB7C43E0202004F06DFE0346F2
:1038C000002B06D0202004F081FE0623FB74FB7C35
:1038D00036E04FF4007004F05FFE0346002B07D083
:1038E0004FF4007004F072FE0723FB74FB7C27E0AA
:1038F00040F2FF5004F06AFE3B680433BA681106D8
:10390000BA6802F47F4212021143BA6802F47F02DD
:10391000120A1143BA68120E0A431A60FB681A06AB
:10392000FB6803F47F431B021A43FB6803F47F0325
:103930001B0A1A43FB681B0E1A433B681A60FB7C88
:1039400018461C37BD4690BDB03100203409002018
:1039500080340020002C014080B58AB000AFF860B0
:10396000084611461A4603467B810B463B811346A7
:10397000FB80F86804F060FEF8680121FDF7ECFDBB
:103980007B89BB823B89FB82FB883B833B8E7B83AD
:10399000BB8EBB833B8FFB83BB8F3B84B7F8403030
:1039A0007B84B7F84430BB8407F11403F8681946E8
:1039B00004F0AEFE00BFF868022104F03FFF0346AA
:1039C000002BF8D02837BD4680BD00BF80B586B03B
:1039D00006AF494B40225A70474B80221A70464B23
:1039E0004FF480625A60444B01221A72424B032208
:1039F0005A72414B00221A743F4B5B68184605F01F
:103A0000FDFC03461A463C4BDA603B4BDB68002B5F
:103A10000AD1394BDB68184605F0F8FC374806F048
:103A200077F8012005F0DAFC0023009303230193CB
:103A30003348012100220623FDF70CF830484021CD
:103A4000002203F087FF00230093032301932C48F7
:103A5000012100220723FCF7FDFF294880210022D5
:103A600003F078FF002300930323019324480121EE
:103A700000220823FCF7EEFF21484FF4807100225A
:103A800003F068FF022300930323019306230293AC
:103A90001B48022100220523FDF702F802230093B0
:103AA00003230193062302931548022100220323D6
:103AB000FCF7F6FF13480121FDF74EFD00230093AC
:103AC000002301934FF40073029300230393002318
:103AD0000493072305930B484FF440414FF482723F
:103AE0000023FFF739FF0748012104F055FE00F0DD
:103AF00067FCBD4680BD00BF58090020FC010108DD
:103B000000040240003C004080B500AF012000F0FE
:103B10000BFD002000F018FD1248002104F03CFECF
:103B200000F052FD10480F490222FCF729FE0D4813
:103B3000012104F031FE00BF0B484FF0205103F08B
:103B40003DFD0346002BF7D0074806490222FCF74B
:103B500029FE0548002103F0FBFC012000F0F4FCE5
:103B600080BD00BF003C0040B860024080B500AF9F
:103B70000A48012104F0B6FF0346002B0DD0074888
:103B8000012104F0D9FF00200121FDF767F9FFF7BB
:103B9000BBFF00200021FDF761F980BD001C004043
:103BA00080B582B000AF0346FB71FB79002B0CD1CE
:103BB000A02000F0DBFCC02000F0D8FC202000F0AA
:103BC000D5FC012000F0D2FC2EE0FB79012B0CD1BA
:103BD000A12000F0CBFCC82000F0C8FC202000F0A1
:103BE000C5FC012000F0C2FC1EE0FB79022B0CD1C9
:103BF000A12000F0BBFCC02000F0B8FC202000F0A9
:103C0000B5FC002000F0B2FC0EE0FB79032B0BD1D9
:103C1000A02000F0ABFCC82000F0A8FC202000F0A1
:103C2000A5FC002000F0A2FC0837BD4680BD00BF07
:103C300080B582B000AF0346FB71094AFB7913726D
:103C4000FB79012B03D1A62000F090FC05E0FB7965
:103C5000002B02D1A72000F089FC0837BD4680BDAB
:103C60005809002080B483B000AF164B5B7A022B5A
:103C700003D0144B5B7A032B06D1124B1B783B709D
:103C8000104B5B787B700DE00E4B5B7A002B03D002
:103C90000C4B5B7A012B05D10A4B5B783B70094BCF
:103CA0001B787B703B88BB8000233A7962F3070363
:103CB0007A7962F30F2318460C37BD465DF8047B12
:103CC000704700BF5809002090B585B000AF03468B
:103CD000FB710B46BB7113467B71FFF7C3FF0346B5
:103CE000BB813B7BFA799A4280F0B1807B7BBA79C9
:103CF0009A4280F0AC80574B5B7A022B03D0554B35
:103D00005B7A032B4ED17B79002B24D0514BDB689F
:103D1000F979BA79D208D4B220464E4A127802FB19
:103D200000F20A4413444B4AD268F87949490978A9
:103D300001FB04F101440A441278D0B2BA7902F0CE
:103D40000702012101FA02F2D2B201460A43D2B2BD
:103D5000D2B21A707BE03F4BDB68F979BA79D208AE
:103D6000D4B220463B4A127802FB00F20A441344C4
:103D7000384AD268F8793749097801FB04F10144DF
:103D80000A441278D0B2BA7902F00702012101FA8E
:103D900002F2D2B2D243D2B201460A40D2B2D2B279
:103DA0001A7054E02B4B5B7A002B03D0294B5B7AC3
:103DB000012B4CD17B79002B23D0264BDA68FB7981
:103DC000DB08D8B20446BB792249497801FB03F3EA
:103DD000002B00DA0733DB10E1180A441D49C968DB
:103DE00003440B441B78D8B2FB7903F0070301218D
:103DF00001FA03F3DBB201460B43DBB2DBB2137013
:103E000025E0144BDA68FB79DB08D8B20446BB79AD
:103E10001049497801FB03F3002B00DA0733DB106C
:103E2000E1180A440B49C96803440B441B78D8B213
:103E3000FB7903F00703012101FA03F3DBB2DB4353
:103E4000DBB201460B40DBB2DBB21370FFE7143785
:103E5000BD4690BD5809002082B02DE9F04389B0DD
:103E600000AF7B640346FB710B46BB7113467B714D
:103E70006B461E4697F844100B46013B7B61CAB265
:103E80004FF000034FEAC30949EA52794FEAC208EA
:103E9000CAB24FF00003DD0045EA5275D4000B466C
:103EA0000733DB08DB00ADEB030D6B4600333B61F2
:103EB00097F846307A799A421ED397F847307A7944
:103EC0009A4219D80023FB7710E0FB7FBA6C79790E
:103ED000203997F8440000FB01F0F97F01440A44BF
:103EE00011783A69D154FB7F0133FB7797F844305E
:103EF000FA7F9A42E9D30EE00023FB7706E0FB7FCE
:103F00003A69FF21D154FB7F0133FB7797F84430A6
:103F1000FA7F9A42F3D30023BB8338E000237B83EC
:103F20002CE00023FB73BB8B3A69D35C1A4697F8ED
:103F3000453019467B8BDB430B4402FA03F3FB73DA
:103F4000FB7BDB09FB73FB7B002B14D0BB8BDAB252
:103F5000FB791344D9B297F84520BB791344DAB200
:103F60007B8BDBB2D31ADAB297F84C300846114695
:103F70001A46FFF7A9FE7B8B01337B837A8B97F878
:103F8000453001339A42CCDBBB8B0133BB8397F8BE
:103F900044309BB2BA8B9A42C0D3B5462437BD4653
:103FA000BDE8F04302B0704782B080B584B002AF84
:103FB0003A607B610346FB710B46BB71F979BA79B4
:103FC00001230193BB6900937B69084611463A6857
:103FD00000F006F80837BD46BDE8804002B07047E3
:103FE00082B090B587B002AF3A607B620346FB7146
:103FF0000B46BB710023FB731BE097F824300133A1
:10400000DAB2FB7B12FB03F3DAB2FB791344D8B2CA
:10401000FB7B3A6813441B78DAB2B97997F82C30F5
:104020000193BB6A00937B6AFFF716FFFB7B0133AA
:10403000FB73FC7B386805F0C7FE03469C42DCD36B
:104040001437BD46BDE8904002B0704790B591B0BE
:1040500002AF0446084611461A462346FB71034642
:10406000BB710B467B7113463B71FA79BB791046E5
:10407000194600F0DDFA0346BB837A793B79104696
:10408000194600F0D5FA03463B833A7E3B7F9342C4
:1040900028BF1346DBB23B757A7E7B7F934238BFE5
:1040A0001346DBB27B753A7E3B7F934238BF1346A3
:1040B000DBB23B747A7E7B7F934238BF1346DBB220
:1040C0007B743A7E3B7F934228BF1346DBB23B733F
:1040D0007A7E7B7F934228BF1346DBB27B733A7EA6
:1040E0003B7F934238BF1346DBB23B727A7E7B7FC5
:1040F000934238BF1346DBB27B723B7A1A463B7B56
:10410000D21A97F84C30013392FBF3F3BB627B7DFC
:104110001A467B7BD21A97F84D30013392FBF3F3AA
:104120007B62B86C05F050FE3862387B797B3A7C54
:104130007C7C00230093234600F0FCF87B6DBA6A78
:1041400002FB03F3FB6201233B6349E000237B6333
:104150003FE0BA6CFB6A13441B78002B2AD0FA6A42
:104160003B6A9A4226D23A7D97F84C300133D9B255
:104170007B6BDBB211FB03F3DBB21344D8B27A7D65
:1041800097F84D300133D9B23B6BDBB211FB03F32F
:10419000DBB2D31AD9B2FB6A5A1CFA62BA6C134466
:1041A0001B78DAB2012301933B6D0093FB6CFFF7A0
:1041B00053FE0BE0BA6CFB6A13441B785BB20A2B0C
:1041C00003D13B6B01333B6300E006E07B6B0133C3
:1041D0007B637A6BBB6A9A42BBD33B6B01333B6315
:1041E0007B6A5A1C3B6B9A42B0D83C37BD4690BDA7
:1041F00090B58BB000AF0446084611461A462346D8
:10420000FB710346BB710B467B7113463B71FA7918
:10421000BB791046194600F00BFA0346BB817A7948
:104220003B791046194600F003FA03463B813B7A7E
:104230001A463B7BD31A002BB8BF5B423B623A7BEA
:104240003B7A9A4201D2012301E04FF0FF33FB6138
:104250007B7A1A467B7BD31A002BB8BF5B42BB61CB
:104260007A7B7B7A9A4201D2012301E04FF0FF333F
:104270007B613A6ABB699A4205DCBB695B42DA0F33
:1042800013445B1003E03B6ADA0F13445B107B625C
:10429000397B7A7B97F83830084611461A46FFF783
:1042A00013FD3A7B3B7A9A4204D17A7B7B7A9A421D
:1042B00000D11FE07B6A3B613B6A5A423B699A42EC
:1042C00009DA7A6ABB69D31A7B623A7BFB69DBB293
:1042D0001344DBB23B733A69BB699A4209DA7A6AE2
:1042E0003B6A13447B627A7B7B69DBB21344DBB2AB
:1042F0007B73CDE72C37BD4690BD00BF90B585B030
:1043000002AF0446084611461A462346FB7103468F
:10431000BB710B467B7113463B71F879B9797A7999
:104320003C7900230093234600F004F80C37BD4687
:1043300090BD00BF90B587B002AF04460846114655
:104340001A462346FB710346BB710B467B7113462D
:104350003B717A79FB79934228BF1346BB737A7914
:10436000FB79934238BF13467B733A79BB7993420A
:1043700028BF13463B733A79BB79934238BF134643
:10438000FB720023FB7312E03A7BFB7B1344D9B230
:104390003A7BFB7B1344DCB2B87B7A7B97F8203006
:1043A00000932346FFF724FFFB7B0133FB73FA7B6B
:1043B000F97A3B7BCB1A9A42E6DB1437BD4690BDB7
:1043C00080B584B000AF002000F09EF80A20FCF712
:1043D0003BF9012000F098F80A20FCF735F901209C
:1043E00000F0A2F8012000F0AFF8AE2000F0BEF817
:1043F000D52000F0BBF8802000F0B8F8A82000F02D
:10440000B5F83F2000F0B2F8D32000F0AFF800205C
:1044100000F0ACF8402000F0A9F88D2000F0A6F8DC
:10442000374B1B7C012B03D1102000F09FF802E0DA
:10443000142000F09BF8324B5B7A1846FFF7B0FB74
:10444000DA2000F093F8122000F090F8812000F0BC
:104450008DF82B4B1B7C012B03D19F2000F086F89D
:1044600002E0CF2000F082F8D92000F07FF8244B42
:104470001B7C012B03D1222000F078F802E0F12010
:1044800000F074F8DB2000F071F8402000F06EF8C6
:10449000A42000F06BF81A4B1B7A1846FFF7C8FBF4
:1044A000174BDA68164B5B68104600211A4605F078
:1044B000DDFAAF2000F05AF82C2000210122FCF791
:1044C00089FD10480121FCF795FF44F61F63BB608E
:1044D0005323BB800023BB810023FB803B1D094885
:1044E000194604F009FA07480121012204F0D6FA1E
:1044F0000448012104F0B2FA1037BD4680BD00BF68
:1045000058090020001C004080B582B000AF03466F
:10451000FB71FB79034880211A4603F01BFA083728
:10452000BD4680BD0004024080B582B000AF0346A6
:10453000FB71FB79034840211A4603F00BFA083758
:10454000BD4680BD0004024080B582B000AF034686
:10455000FB71FB7904484FF480711A4603F0FAF9B5
:104560000837BD4680BD00BF0004024080B582B060
:1045700000AF0346FB710020FFF7D6FFFB7918461A
:1045800000F004F80837BD4680BD00BF80B582B09A
:1045900000AF0346FB710020FFF7D6FFFB799BB20B
:1045A0000848194604F018F900BF0648022104F033
:1045B00045F90346002BF8D00120FFF7C5FF083767
:1045C000BD4680BD003C004090B58DB00CAF154895
:1045D00002F096FE144BDB681C46134B5B684022CE
:1045E00000920193002302934FF48063039300230E
:1045F000049300230593002306934FF4003307939D
:10460000002308930023099300230A9300230B93AC
:1046100004480021054A2346FCF774F80437BD46D8
:1046200090BD00BFB8600240580900200C3C00401B
:1046300080B485B000AF03460A46FB711346BB71D8
:10464000244B5B7A022B03D0224B5B7A032B13D1D2
:10465000204B1B78FA799A4203D31E4B1B78013BFF
:10466000FB711C4B5B78BA799A4204D3194B5B7887
:10467000013BBB711AE019E0164B5B7A002B03D0AB
:10468000144B5B7A012B11D1124B5B78FA799A4269
:1046900003D3104B5B78013BFB710E4B1B78BA794F
:1046A0009A4203D30B4B1B78013BBB71FB793B72E6
:1046B000BB797B723B89BB8100233A7B62F30703A2
:1046C0007A7B62F30F2318461437BD465DF8047BEE
:1046D000704700BF5809002080B588B004AF01239F
:1046E000009303230193072302932C480221002205
:1046F0000623FCF7D5F90123009303230193072335
:1047000002932648022100220523FCF7C9F9244818
:104710000121FCF701FE4FF461333B600023BB80B5
:104720000023FB8000233B810023BB810C237B8182
:104730003B461B48194604F05BFA194840F22551E4
:10474000012204F031FB262000210022FCF742FC6C
:104750001348012104F008FB124B1B685B681846E4
:1047600000210222002305F02FFA0E4B1B689B68E4
:10477000184600210222002305F026FA094B1B6887
:10478000DB68184600210222002305F01DFA0648C6
:1047900005F000FA1037BD4680BD00BF000C024096
:1047A00000440040680400208003010880B400AF8A
:1047B000BD465DF8047B704780B584B000AF78607B
:1047C000144B1B68002B02D1124B134A1A60114B79
:1047D0001B68FB607B68033323F003037B600D4B96
:1047E0001A687B6813440D4A934207D904F0F0FD20
:1047F00002460C2313604FF0FF3306E0054B1A68A6
:104800007B681344034A1360FB6818461037BD46A3
:1048100080BD00BF6C090020E036002000FC0120B4
:1048200080B582B000AF786001200249042200F018
:104830007FF8FEE7A803010880B483B000AF78607A
:104840004FF0FF3318460C37BD465DF8047B7047C8
:1048500080B483B000AF786039603B684FF4005299
:104860005A60002318460C37BD465DF8047B70473C
:1048700080B483B000AF78607B680033022B01D82E
:10488000012303E0044B09221A60002318460C3769
:10489000BD465DF8047B7047DC36002080B485B0EF
:1048A00000AFF860B9607A60002318461437BD463F
:1048B0005DF8047B704700BF80B489B000AFF8603A
:1048C000B9607A600023BB61FB68002B20D1002314
:1048D000FB6116E000BF144B1B889BB203F0200362
:1048E000002BF8D0104B9B889BB2FB75BB685A1C01
:1048F000BA60FA7D1A70BB690133BB61FB69013391
:10490000FB61FA697B689A42E4DB00BFBB6904E0A3
:10491000064B09221A604FF0FF3318462437BD4674
:104920005DF8047B704700BF00440040DC36002087
:1049300080B487B000AFF860B9607A60FB68012B83
:1049400002D0022B1ED03BE000237B6115E000BFAC
:10495000224B1B889BB203F04003002BF8D01F4969
:10496000BB685A1CBA601B785BB29BB2C3F30803E6
:104970009BB28B807B6901337B617A697B689A4249
:10498000E5DB23E000237B6115E000BF134B1B88B0
:104990009BB203F04003002BF8D01049BB685A1CAF
:1049A000BA601B785BB29BB2C3F308039BB28B80E7
:1049B0007B6901337B617A697B689A42E5DB05E0BC
:1049C000074B09221A604FF0FF3300E07B6818465E
:1049D0001C37BD465DF8047B704700BF00440040B3
:1049E000DC36002080B584B000AF0346FB710023A5
:1049F000FB73FB79002B03D0FB7B43F00103FB73BC
:104A0000FDF708FB0346002B03D0FB7B43F00103BB
:104A1000FB73FB7B18461037BD4680BD80B584B064
:104A200000AF0346FB710023FB73FDF785FB0346D4
:104A3000012B03D0FB7B43F00203FB73FB7B184687
:104A40001037BD4680BD00BF90B5ADF5077D00AF06
:104A5000044607F108000160391D0A60194607F194
:104A60000F0322461A7007F10E030A461A70FDF76B
:104A700063FB0346012B01D003236FE007F108031A
:104A80001B6803F00303002B39D0002387F817328B
:104A900029E03B1D1B683A1D591C116007F10F02EC
:104AA000117807F11402084611461A460123FFF750
:104AB000CBFF034687F8173297F81732002B00D048
:104AC0001AE007F1080307F11402186811464FF4C1
:104AD000007204F031FF07F1080307F108021268C1
:104AE00002F500721A6007F10E031B7807F10E023F
:104AF000591E1170002BCCD197F817322EE007F118
:104B00000E031C7807F108023B1D106819684FF46A
:104B100000722346FEF764F8034687F8163297F8CA
:104B20001632002B19D1FEF7F3F8034687F8163238
:104B3000FDF7CAFA034687F8153297F81532012BAC
:104B4000F6D097F81532022B03D097F81632002BC7
:104B500001D0012302E0002300E00123184607F5FD
:104B60000777BD4690BD00BF90B5ADF5077D00AF9E
:104B7000044607F108000160391D0A60194607F173
:104B80000F0322461A7007F10E030A461A70FDF74A
:104B9000D3FA0346012B01D003236FE007F108038A
:104BA0001B6803F00303002B39D0002387F817326A
:104BB00029E007F1140207F10803104619684FF4C1
:104BC000007204F0B9FE3B1D1B683A1D591C1160B0
:104BD00007F10F02117807F11402084611461A4630
:104BE0000123FFF7C1FF034687F8173297F8173202
:104BF000002B00D010E007F1080307F1080212684B
:104C000002F500721A6007F10E031B7807F10E021D
:104C1000591E1170002BCCD197F817322EE007F1F6
:104C20000E031C7807F108023B1D106819684FF449
:104C300000722346FEF7C8F8034687F8163297F845
:104C40001632002B19D1FEF795F9034687F8163274
:104C5000FDF73AFA034687F8153297F81532012B1B
:104C6000F6D097F81532022B03D097F81632002BA6
:104C700001D0012302E0002300E00123184607F5DC
:104C80000777BD4690BD00BF80B483B000AF034638
:104C90003A60FB710B46BB71002318460C37BD46CA
:104CA0005DF8047B704700BF80B400AF0023184656
:104CB000BD465DF8047B704780B487B000AFF860F4
:104CC000B9607A60FB687B61BB683B6107E07B6928
:104CD0005A1C7A613A69511C396112781A707B68E2
:104CE0005A1E7A60002BF2D11C37BD465DF8047B5A
:104CF000704700BF80B487B000AFF860B9607A60D9
:104D0000FB687B6105E07B695A1C7A61BA68D2B2A4
:104D10001A707B685A1E7A60002BF4D11C37BD468E
:104D20005DF8047B704700BF80B489B000AFF860C5
:104D3000B9607A60FB68FB61BB68BB6100237B6183
:104D400000BF7B685A1E7A60002B0DD0FB695A1C8D
:104D5000FA611B781946BB695A1CBA611B78CB1AD9
:104D60007B617B69002BECD07B6918462437BD46FC
:104D70005DF8047B704700BF80B483B000AF7860FB
:104D8000396002E07B6801337B607B681B78002B15
:104D900005D07B681B785AB23B689A42F2D17B6897
:104DA0001B785BB218460C37BD465DF8047B704734
:104DB00080B584B000AF786039607B68DB6AFB60E7
:104DC000FA683B689A424BD07B681B79002B32D043
:104DD0007B685A787B68303310461946FA6801239D
:104DE000FFF7C2FE0346002B01D0012339E07B68A8
:104DF00000221A717B681A6A7B68DB691A44FB68B7
:104E00009A4218D97B68DB78FB7211E07B68DB691A
:104E1000FA681344FB607B685A787B68303310462D
:104E20001946FA680123FFF79FFEFB7A013BFB72EC
:104E3000FB7A012BEAD83B68002B11D07B685A78AB
:104E40007B683033104619463A680123FFF7FCFDB2
:104E50000346002B01D0012303E07B683A68DA6245
:104E6000002318461037BD4680BD00BF80B584B012
:104E700000AF786078680021FFF79AFF0346FB7364
:104E8000FB7B002B40F092807B681B78032B40F06B
:104E900081807B685B79002B7CD07B680022DA62A2
:104EA0007B683033184600214FF40072FFF722FF71
:104EB0007B68552283F82E227B68AA2283F82F2252
:104EC0007B68522283F830207B68522283F831209D
:104ED0007B68612283F832207B68412283F833208B
:104EE0007B68722283F814227B68722283F8152271
:104EF0007B68412283F816227B68612283F817229F
:104F00007B681B69DAB27B6883F818227B681B69AF
:104F10009BB21B0A9BB2DAB27B6883F819227B68CA
:104F20001B691B0CDAB27B6883F81A227B681B6949
:104F30001B0EDAB27B6883F81B227B68DB68DAB26F
:104F40007B6883F81C227B68DB689BB21B0A9BB2E0
:104F5000DAB27B6883F81D227B68DB681B0CDAB24F
:104F60007B6883F81E227B68DB681B0EDAB27B68E5
:104F700083F81F227B6859787B6803F130027B68D5
:104F80005B69084611461A460123FFF7EDFD7B6871
:104F900000225A717B685B78184600210022FFF7D7
:104FA00073FE0346002B01D00123FB73FB7B1846E5
:104FB0001037BD4680BD00BF80B483B000AF7860BD
:104FC00039603B68023B3B607B689B699A1E3B688B
:104FD0009A4201D8002308E07B689B781A463B6818
:104FE00003FB02F27B689B6A134418460C37BD46EC
:104FF0005DF8047B704700BF80B586B000AF786075
:1050000039603B68012B04D97B689A693B689A42F6
:1050100001D8012398E07B681B78022B48D0032B32
:1050200067D0012B40F08E803B687B617B695B0819
:105030007A6913447B617B681A6A7B695B0A134453
:1050400078681946FFF7B4FE0346002B00D079E0DC
:105050007B69C3F308037A68134493F830303B61EB
:105060007B6901337B617B681A6A7B695B0A134445
:1050700078681946FFF79CFE0346002B00D061E0DC
:105080007B69C3F308037A68134493F830301B023A
:105090001A463B6913433B613B6803F00103002B55
:1050A00002D03B691B094FE03B69C3F30B034BE0A4
:1050B0007B681A6A3B681B0A134478681946FFF735
:1050C00077FE0346002B00D03CE03B685B0003F416
:1050D000FF7330337A681344FB60FB6801331B783D
:1050E0001B029AB2FB681B789BB213439BB29BB224
:1050F0002AE07B681A6A3B68DB0913447868194622
:10510000FFF756FE0346002B00D01BE03B689B00D8
:1051100003F4FE7330337A681344FB60FB68033397
:105120001B781A06FB6802331B781B041343FA68CA
:105130000132127812021343FA681278134323F0F3
:10514000704301E04FF0FF3318461837BD4680BD6D
:1051500080B588B000AFF860B9607A60BB68012B99
:1051600004D9FB689A69BB689A4202D80223FB778C
:10517000E3E0FB681B78022B70D0032B00F09280D9
:10518000012B40F0D580BB68BB61BB695B08BA6985
:105190001344BB61FB681A6ABB695B0A1344F86875
:1051A0001946FFF705FE0346FB77FB7F002B00D077
:1051B000C0E0BB69C3F308033033FA6813447B6172
:1051C000BB6803F00103002B0DD07B691B78DBB2B9
:1051D00003F00F03DAB27B68DBB21B01DBB21343CF
:1051E000DBB2DBB201E07B68DBB27A691370BB69CA
:1051F0000133BB61FB6801221A71FB681A6ABB6943
:105200005B0A1344F8681946FFF7D2FD0346FB77A3
:10521000FB7F002B00D08DE0BB69C3F30803303364
:10522000FA6813447B61BB6803F00103002B03D0D1
:105230007B681B09DBB20EE07B691B78DBB223F0D5
:105240000F03DAB27B681B0ADBB203F00F03DBB299
:105250001343DBB2DBB27A6913706BE0FB681A6A46
:10526000BB681B0A1344F8681946FFF7A1FD034603
:10527000FB77FB7F002B00D05CE0BB685B0003F496
:10528000FF733033FA6813447B617B68DAB27B6961
:105290001A707B6901337A6892B2120A92B2D2B262
:1052A0001A7047E0FB681A6ABB68DB091344F868A8
:1052B0001946FFF77DFD0346FB77FB7F002B00D0EF
:1052C00038E0BB689B0003F4FE733033FA68134484
:1052D0007B617B6903331B781A067B6902331B7879
:1052E0001B0413437A6901321278120213437A695C
:1052F0001278134303F070437A6813437B607B6832
:10530000DAB27B691A707B6901337A6892B2120A49
:1053100092B2D2B21A707B6902337A68120CD2B29E
:105320001A707B6903337A68120ED2B21A7001E0E8
:105330000223FB77FB6801221A71FB7F1846203796
:10534000BD4680BD80B584B000AF786039603B68F1
:10535000012B04D97B689A693B689A4202D80223E0
:10536000FB7337E00023FB732FE078683968FFF7A1
:1053700043FEB860BB68002B00D12BE0BB68012B5B
:1053800002D10223FB7325E0BB68B3F1FF3F02D1DA
:105390000123FB731EE0786839680022FFF7D8FE0E
:1053A0000346FB73FB7B002B00D013E07B681B697B
:1053B000B3F1FF3F07D07B681B695A1C7B681A61F9
:1053C0007B6801225A71BB683B607B689A693B68C5
:1053D0009A42CAD8FB7B18461037BD4680BD00BF35
:1053E00080B586B000AF786039603B68002B0DD186
:1053F0007B68DB683B613B69002B04D07B689A6962
:105400003B699A4215D801233B6112E078683968FC
:10541000FFF7F2FDB860BB68012B01D8012366E0FD
:105420007B689A69BB689A4201D9BB685FE03B68B8
:105430003B613B697B617B6901337B617B689A6976
:105440007B699A4207D802237B617A693B699A4259
:1054500001D900234BE078687969FFF7CDFDB8608A
:10546000BB68002B0CD100BF786879696FF070427F
:10547000FFF76EFE0346FB73FB7B002B1AD10FE098
:10548000BB68B3F1FF3F02D0BB68012B01D1BB6801
:105490002DE07A693B699A4201D1002327E0CAE7EF
:1054A0003B68002B06D0786839687A69FFF750FEB0
:1054B0000346FB73FB7B002B10D17B687A69DA60B3
:1054C0007B681B69B3F1FF3F10D07B681B695A1ED4
:1054D0007B681A617B6801225A7107E0FB7B012B14
:1054E00002D14FF0FF3300E001237B617B69184656
:1054F0001837BD4680BD00BF80B584B000AF78606E
:105500000B467B807B687A88DA807B689B68FB60CF
:10551000FB68012B05D07B681B689A69FB689A427F
:1055200001D8022365E0FB68002B08D17B681B686B
:105530001B78032B03D17B681B685B6AFB60FB68ED
:10554000002B14D17B68FA68DA607B681B681B89C2
:105550007A889A4201D302234BE07B681B685B6A1E
:105560007A88120992B21A447B681A6136E07B6825
:105570001B689B789BB21B017B811BE07B681B68CF
:105580001846F968FFF738FDF860FB68B3F1FF3F94
:1055900001D101232DE0FB68012B05D97B681B6835
:1055A0009A69FB689A4201D8022322E07A887B89B3
:1055B000D31A7B807A887B899A42DFD27B68FA682B
:1055C000DA607B681B681846F968FFF7F5FC02464D
:1055D0007B881B099BB21A447B681A617B681A6836
:1055E0007B8803F00F035B0130331A447B685A61F8
:1055F000002318461037BD4680BD00BF90B585B06A
:1056000000AF786039607B68DB8801333B813B8980
:10561000002B03D07B681B69002B01D10423BCE065
:105620003B8903F00F039BB2002B40F0A8807B68FE
:105630001B695A1C7B681A617B68DB68002B08D1E8
:105640007B681B681B893A899A42C0F098800423C2
:10565000A3E03B891B099BB21A467B681B689B78B9
:10566000013B1340002B40F08A807B681A687B68FE
:10567000DB6810461946FFF7BFFCF860FB68012B9A
:1056800001D8022389E0FB68B3F1FF3F01D1012378
:1056900083E07B681B689A69FB689A4263D83B6821
:1056A000002B01D1042378E07B681A687B68DB68F3
:1056B00010461946FFF794FEF860FB68002B01D1F5
:1056C00007236AE0FB68012B01D1022365E0FB6838
:1056D000B3F1FF3F01D101235FE07B681B681846EF
:1056E0000021FFF765FB0346002B01D0012354E0A6
:1056F0007B681B683033184600214FF40072FFF7B7
:10570000F9FA7B681C687B681B681846F968FFF724
:1057100053FC0346E3620023FB7216E07B681B68C0
:1057200001221A717B681B6818460021FFF740FBB5
:105730000346002B01D001232FE07B681B68DA6A47
:105740000132DA62FB7A0133FB727B681B689B785B
:10575000FA7A9A42E2D37B681B687A681268D16A47
:10576000FA7A8A1ADA627B68FA68DA607B681B6800
:105770001846F968FFF720FC02467B681A617B68CF
:105780003A89DA807B681A683B8903F00F035B0172
:1057900030331A447B685A61002318461437BD46DB
:1057A00090BD00BF80B586B000AF786078680021FA
:1057B000FFF7A2FE0346FB75FB7D002B01D0FB7DAE
:1057C00035E07B681A687B681B6910461946FFF74D
:1057D000EFFA0346FB75FB7D002B00D026E07B68CB
:1057E0005B693B613B691B78FB73FB7B002B02D140
:1057F0000423FB751AE03B690B331B7803F00803A5
:10580000002B0AD17B689B69386919460B22FFF788
:105810008BFA0346002B00D108E078680021FFF7DF
:10582000EDFE0346FB75FB7D002BCAD0FB7D1846C1
:105830001837BD4680BD00BF80B586B000AF786028
:105840000423FB7531E07B681A687B681B6910468E
:105850001946FFF7ADFA0346FB75FB7D002B00D020
:1058600027E07B685B693B613B691B78FB73FB7BD3
:10587000002B02D10423FB751BE0FB7BE52B0AD038
:10588000FB7B2E2B07D03B690B331B7803F00803FF
:10589000002B00D10DE078680021FFF7AFFE034632
:1058A000FB75FB7D002B00D003E07B681B69002BA0
:1058B000C9D1FB7D002B02D07B6800221A61FB7DE1
:1058C00018461837BD4680BD80B584B000AF7860FB
:1058D00078680021FFF710FE0346FB73FB7B002B6B
:1058E00020D17B681A687B681B6910461946FFF750
:1058F0005FFA0346FB73FB7B002B00D012E07B6852
:105900005B691B78BB73BB7BE52B0BD0BB7B002B90
:1059100008D078680121FFF771FE0346FB73FB7B1B
:10592000002BDED0FB7B002B1FD17B681A687B68C5
:105930001B6910461946FFF73BFA0346FB73FB7BD6
:10594000002B12D17B685B69BB60B8680021202204
:10595000FFF7D0F97B689B69B86819460B22FFF7FF
:10596000ABF97B681B6801221A71FB7B1846103764
:10597000BD4680BD80B58AB000AF786039603B68B5
:105980001B687B6102E07B6901337B617B691B786B
:105990005BB22F2BF7D07B691B785BB25C2BF2D00C
:1059A0007B689B693B61386920210B22FFF7A2F9D4
:1059B000002387F827300023BB61BB69FB61082304
:1059C0003B62FB695A1CFA617A6913441B7887F8B9
:1059D000263097F82630202B40F2A18097F8263009
:1059E0002F2B00F09C8097F826305C2B00F09780DE
:1059F00097F826302E2B03D0BA693B6A9A4212D30D
:105A00003B6A082B03D197F826302E2B01D00623B2
:105A1000C5E00823BB610B233B6297F827309B004E
:105A200087F827307AE097F826305BB2002B05DA4A
:105A300097F8273043F0030387F8273097F826308C
:105A4000802B03D997F826309F2B07D997F826305B
:105A5000DF2B2ED997F82630FC2B2AD8FB695A1C4D
:105A6000FA617A6913441B78FB73FB7B3F2B02D9E5
:105A7000FB7B7E2B06D9FB7B5BB2002B07DAFB7B23
:105A8000FC2B04D83B6A5A1EBB699A4201D80623F4
:105A900085E0BB695A1CBA613A69134497F826201D
:105AA0001A70BB695A1CBA613A691344FA7B1A70BE
:105AB00034E097F826303C481946FFF75DF9034675
:105AC000002B01D006236AE097F82630402B0AD934
:105AD00097F826305A2B06D897F8273043F0020360
