:020000040800F2
:100000000000022089010008551100086111000854
:100010007111000881110008911100080000000012
:10002000000000000000000000000000A111000816
:10003000B111000800000000C1110008D111000832
:100040001502000815020008150200081502000834
:100050001502000815020008150200081502000824
:100060001502000815020008150200081502000814
:100070001502000815020008150200081502000804
:1000800015020008150200081502000815020008F4
:1000900015020008150200081502000815020008E4
:1000A00015020008150200081502000815020008D4
:1000B00015020008150200081502000815020008C4
:1000C00015020008150200081502000815020008B4
:1000D00015020008150200080512000815020008A4
:1000E000E5110008150200088D130008150200082C
:1000F0001912000815020008150200081502000870
:100100001502000825120008150200081502000853
:100110001502000815020008150200081502000863
:1001200015020008150200083D120008BD12000863
:100130001502000815020008150200081502000843
:1001400015020008150200081502000871130008C6
:1001500015020008311200081502000815020008F7
:100160001502000815020008150200081502000813
:100170001502000815020008150200081502000803
:10018000150200081502000880B584B000AF0D4BC1
:10019000BB600D4B7B60BB683B6004E03B681A1D95
:1001A0003A6000221A607A683B689A42F6D805F0F5
:1001B0000BFE01F09FF9F86005F03CFEF86805F0D1
:1001C000F7FC00BF100900204019002080B584B062
:1001D00000AF0D4BFB600D4BBB600D4B7B60BB68F4
:1001E0003B6007E03B681A1D3A60FA68111DF96030
:1001F00012681A607A683B689A42F3D805F038FEB4
:100200001037BD4680BD00BF24F500080000002067
:100210000C09002080B400AFFEE700BF80B400AF3F
:10022000FEE700BF80B400AFFEE700BF80B400AFC0
:10023000FEE700BF80B400AFFEE700BF80B400AFB0
:10024000FEE700BF80B400AFFEE700BF80B400AFA0
:10025000FEE700BF80B400AFFEE700BF80B400AF90
:04026000FEE700BFF6
:08026400CD01000829B30008D8
:1002700080B483B000AF0346FB71084997F907309B
:100280005B09FA7902F01F02012000FA02F241F83C
:1002900023200C37BD465DF8047B704700E100E089
:1002A00080B588B006AF554800214FF4007208F0C1
:1002B000E1F900237B6009E07B68D9B2504A7B6892
:1002C00013440A461A707B6801337B607B68B3F580
:1002D000007FF1D34B48012101F0DAFD4A480121AA
:1002E00001F0D6FD3B20FFF7C3FF3A20FFF7C0FF28
:1002F0003A200021012201F0B3FA3B200021002224
:1003000001F0AEFA02230093032301930523029325
:100310003E4802210022062300F0EEFB0223009358
:100320000323019305230293384802210022072367
:1003300000F0E2FB022300930323019305230293C1
:10034000324802210022052300F0D6FB012300934E
:10035000032301932D4801210122042300F0A6FB71
:100360000123009303230193294801210022042340
:1003700000F09CFB002300930323019324480121F8
:100380000022052300F092FB21482021002206F0E4
:100390000BFA00230093032301931E48002100223F
:1003A000002300F083FB00230093032301931948EB
:1003B00000210022012300F079FB00230093032396
:1003C0000193154800210022072300F06FFB002352
:1003D0000093002301934FF40073029318230393B7
:1003E00000230493072305930C48002100220023D7
:1003F00001F050FF0837BD4680BD00BFA0110020AE
:10040000B0090020406402405864024000000240ED
:100410000008024000040240001002400030014089
:1004200080B590B000AF4B4805F028FE4A4805F073
:1004300025FE4FF400737B6100233B6303237B6342
:100440000023BB6300237B624FF48063FB610023C6
:10045000BB62424BBB600023FB6300233B62002373
:100460007B620023BB614FF40033FB624FF0C0633B
:100470007B6040233B613A4BFB6000BF354B1B6800
:1004800003F00103002BF9D13B1D3248194605F05A
:10049000C7FE4FF400737B6100233B6303237B6340
:1004A0000023BB6300237B624FF48063FB61002366
:1004B000BB622A4BBB600023FB6300233B6200232B
:1004C0007B620023BB614FF40033FB624FF0C063DB
:1004D0007B6000233B61234BFB6000BF1E4B1B680E
:1004E00003F00103002BF9D13B1D1B48194605F011
:1004F00097FE1D480221012206F080FF1A480121C3
:10050000012206F07BFF13481821012205F064FF49
:1005100011481821012205F05FFF0E48012105F066
:10052000D5FE0D48012105F0D1FE0F48012106F04E
:1005300037FF012000F06AF80C480421002206F081
:1005400033F90B4A0A4B5B6983F010035361403760
:10055000BD4680BD58640240406402400C300140FA
:10056000B0090020A011002000300140000002402E
:100570000008024080B483B000AF03463960FB71CD
:1005800097F90730002B0BDA0D49FB7903F00F03C5
:10059000043B3A68D2B21201D2B20B441A7609E097
:1005A000084997F907303A68D2B21201D2B20B4427
:1005B00083F800230C37BD465DF8047B704700BF0D
:1005C00000ED00E000E100E080B582B000AF7860AF
:1005D0007B68013BB3F1807F01D301230FE00A4A1E
:1005E0007B68013B53604FF0FF300F21FFF7C2FFE4
:1005F000054B00229A60044B07221A60002318461C
:100600000837BD4680BD00BF10E000E080B485B073
:1006100000AF78600F4B1B68FB600E4B1A687B685D
:100620009A420AD97B68FA68D31AFB6000BF094B6B
:100630001A68FB689A42FAD807E07B68054A13609B
:1006400000BF044B1B68002BFBD11437BD465DF87F
:10065000047B70471009002080B500AF044B1B6875
:10066000044AA2FB03239B091846FFF7ADFF80BD98
:1006700058000020D34D621080B500AF124BD3E973
:100680000023013243F100030F49C1E900230F4B5E
:100690001B68002B04D00D4B1B68013B0B4A1360F9
:1006A000094BD3E90023104619464FF064024FF07E
:1006B000000307F0C5F9134304D101F0EDFC03205A
:1006C00000F0FCFE80BD00BF1809002010090020CA
:1006D00080B400AF044BD3E9002313461846BD464F
:1006E0005DF8047B704700BF1809002080B483B018
:1006F00000AF786039603A687B68D31A18460C37C7
:10070000BD465DF8047B704780B582B000AF78606D
:10071000064BD3E90023134678681946FFF7E6FF36
:10072000034618460837BD4680BD00BF18090020A3
:1007300080B594B000AFF860B9607A603B60F8684B
:1007400005F09CFCF868012101F0A2FBFB6D7B62C7
:10075000BB6F3B64FB6F7B64D7F88030BB64FB6E80
:100760007B637B6EFB623B6FBB637B68BB61D7F8CF
:100770008430FB64BB6E3B63FB6E7B633B6EBB6292
:100780007B6FFB63BB687B61BB6D3B623B68FB615E
:1007900007F11403F868194605F042FD5037BD46CD
:1007A00080BD00BF80B584B000AFF860B96013466B
:1007B000FB80FB88F868B9681A46012300F016F838
:1007C0001037BD4680BD00BF80B584B000AFF86073
:1007D000B9601346FB80FB88F868B9681A460023A5
:1007E00000F004F81037BD4680BD00BF80B584B06E
:1007F00000AFF860B96011461A460B46FB801346FD
:100800007B717B79F868194605F060FDFA887B7981
:10081000B86811461A4606F0F1FD1037BD4680BD96
:1008200080B584B004AF1D48012101F02BF90023ED
:10083000009303230193032302931848022100220B
:10084000062300F059F91548012101F01BF9002396
:1008500000930323019303230293104802210022F3
:10086000072300F049F90E48012101F009FA0C486C
:1008700001210222022306F073FF0948012106F03C
:10088000D1FE07484FF6FF7106F0B2FE0448012181
:1008900006F0E8FE00F048F8BD4680BD00080240C2
:1008A0000004014080B584B004AF1D48012101F06F
:1008B000E9F80023009303230193022302931848CD
:1008C00002210022002300F017F91548012101F050
:1008D000D9F80023009303230193022302931048C5
:1008E00002210022012300F007F90E48012101F046
:1008F000C7F90C4801210222022306F031FF094802
:10090000012106F08FFE07484FF6FF7106F070FEDA
:100910000448012106F0A6FE00F026F8BD4680BD81
:1009200000000240000C004080B500AF72B6094BD9
:1009300000221A80084B00221A80084B00221A80DD
:10094000074B00221A800748002106F043FE62B6DA
:1009500080BD00BF2A0900202809002024090020AA
:10096000200900200004014080B500AF72B6094B99
:1009700000221A80084B00221A80084B00221A809D
:10098000074B00221A800748002106F023FE62B6BA
:1009900080BD00BF2E0900202C0900202609002060
:1009A00022090020000C004080B500AF174B1B88C7
:1009B0009AB2174B1A80174806F028FE03469AB2DF
:1009C000124B1A80114B1B889BB29AB2104B1B889A
:1009D0009BB29BB2D31A9BB29AB20F4B1A800E4BAA
:1009E0001B889BB29AB20D4B1B889BB29BB21344DF
:1009F0009BB29AB2094B1A80074B1B889BB2002B03
:100A000002D0012000F05AFD80BD00BF280900205F
:100A10002A090020000401402409002020090020A8
:100A200080B500AF1C4B1B889AB21C4B1A801C4827
:100A300006F0ECFD03469AB2174B1A80164B1B8842
:100A40009BB29AB2154B1B889BB29BB2D31A9BB236
:100A50009AB2144B1A80134B1B889BB29AB2124B5A
:100A60001B889BB29BB213449BB29AB20E4B1A8066
:100A70000C4B1B889BB2002B0DD0012000F01EFDFB
:100A8000084B1B889BB21BB2002B02DD00F0ACFEB2
:100A900001E000F0A3FE80BD2C0900202E090020FB
:100AA000000C0040260900202209002080B586B0F5
:100AB00000AFF8607B600B46FB721346BB72F868B0
:100AC000012100F0DFFFFB7A3B75BB7ABB757B68C9
:100AD000012202FA03F33B6197F82030FB7597F887
:100AE00024307B7507F11003F868194605F0CEFD38
:100AF0001837BD4680BD00BF80B586B002AFF86034
:100B00007B600B46FB721346BB727B689BB203F0A3
:100B10000F039AB297F82030F86811461A4605F08C
:100B20006DFEF97ABA7A3B7E00933B7F0193F868B9
:100B30007B68FFF7BBFF1037BD4680BD80B588B02E
:100B400000AFF860B96011461A460B46FB711346B8
:100B5000BB71F868012100F095FF4FF4804001213E
:100B600006F016F8F86800F065F803461A46BB6808
:100B7000DBB203F00F03DBB21046194606F07EFC31
:100B8000BB68012202FA03F37B61BB793B76FB79F8
:100B90007B760123BB7607F11403184605F0DCFCD5
:100BA000BB6803F00F030F2B37D801A252F823F0D4
:100BB000F10B0008F70B0008FD0B0008030C000800
:100BC000090C00080F0C00080F0C00080F0C00089F
:100BD0000F0C00080F0C0008150C0008150C00087D
:100BE000150C0008150C0008150C0008150C000861
:100BF0000623FB7711E00723FB770EE00823FB7742
:100C00000BE00923FB7708E00A23FB7705E01723B5
:100C1000FB7702E02823FB7700BFF97F97F82820B5
:100C200097F82C30084611461A4600F019FE203776
:100C3000BD4680BD80B483B000AF78607B68244A35
:100C4000934201D100233CE07B68224A934201D1C8
:100C5000012336E07B68204A934201D1022330E031
:100C60007B681E4A934201D103232AE07B681C4A19
:100C7000934201D1042324E07B681A4A934201D1B4
:100C800005231EE07B68184A934201D1062318E031
:100C90007B68164A934201D1072312E07B68144A0D
:100CA000934201D108230CE07B68124A934201D1A0
:100CB000092306E07B68104A934201D10A2300E031
:100CC000002318460C37BD465DF8047B704700BF13
:100CD000000002400004024000080240000C0240F4
:100CE000001002400014024000180240001C0240A4
:100CF00000200240002402400028024090B589B044
:100D000004AF00F0A3F8002000F0FCF902F078FC3A
:100D1000002000F00BFA012000F0F4F900F056FB7F
:100D2000012000F003FA022000F0ECF900F0B2FD1F
:100D3000022000F0FBF9032000F0E4F9FFF770FD5A
:100D4000FFF7B0FD032000F0F1F9042000F0DAF91C
:100D5000FFF782FC042000F0E9F9052000F0D2F949
:100D600001F016F9052000F0E1F9062000F0CAF9BB
:100D7000FFF796FA062000F0D9F9072000F0C2F933
:100D800001F0FCF8072000F0D1F9082000F0BAF9D2
:100D900001F0D4F9082000F0C9F9092000F0B2F9F7
:100DA00001F0B2FA092000F0C1F900F0EFFB0020D9
:100DB00037217F22372301F0C1FF1E4BFB601E4B02
:100DC000BB601E4B7B60B86807F0A4FD0446F86862
:100DD00007F0A0FD03461C44786807F09BFD03461E
:100DE00023440733184607F00DF903463B60144BC4
:100DF00000937B68019338681249BA68FB6807F072
:100E000063FD3B680093104A01AB92E8030083E85E
:100E1000030000230393002000217F22352301F0EB
:100E200017FE4FF4FA60FFF7F1FB00F073F8143788
:100E3000BD4690BD0CED000814ED000834ED00082F
:100E400058ED00084CED000804E8000880B500AF3C
:100E50000020184900F046F80120174900F042F838
:100E60000220164900F03EF80320154900F03AF838
:100E70000420144900F036F80520134900F032F838
:100E80000620124900F02EF80720114900F02AF838
:100E90000820104900F026F809200F4900F022F838
:100EA0000A200E4900F01EF80B200D4900F01AF838
:100EB00080BD00BF60ED000868ED000870ED00081F
:100EC0007CED000888ED000890ED000894ED000826
:100ED00098ED00089CED0008A0ED0008A8ED0008C2
:100EE000ACED000880B483B000AF03463960FB71FD
:100EF000FB7906493A6841F82320FB79044A00212E
:100F0000D1540C37BD465DF8047B7047AC1300200C
:100F1000A013002090B585B004AF002000217F22EF
:100F2000352302F07FF9714B0093714A01AB92E8CF
:100F3000030083E8030000230393002000217F22A5
:100F4000352301F085FD6B4B1C686B4B1A786B4B9E
:100F500001925A6800921B6800201E21224601F06F
:100F6000A7FE644B5C68644B5A78644B01925A68E4
:100F700000921B6800201421224601F099FE5D4B6F
:100F80009C685D4B9A785D4B01925A6800921B6891
:100F900000200A21224601F08BFE564BDC68564B9E
:100FA000DA78564B01925A6800921B6800200021A3
:100FB000224601F07DFE4F4B1C694F4B1A794F4B77
:100FC00001925A6800921B6846201E21224601F0B9
:100FD0006FFE484B5C69484B5A79484B01925A68FE
:100FE00000921B6846201421224601F061FE414B0D
:100FF0009C69414B9A79414B01925A6800921B6857
:1010000046200A21224601F053FE3A4BDC693A4B56
:10101000DA793A4B01925A6800921B684620002107
:10102000224601F045FE4FF4FA60FFF7EFFA002088
:1010300000217F22352302F0F5F82C4B00932C4A37
:1010400001AB92E8030083E8030000230393002030
:1010500000217F22352301F0FBFC264B1C6A264B26
:101060001A7A264B01925A6800921B6800201E21B2
:10107000224601F01DFE1F4B5C6A1F4B5A7A1F4B24
:1010800001925A6800921B6800201421224601F048
:101090000FFE184B9C6A184B9A7A184B01925A68AB
:1010A00000921B6800200A21224601F001FE114B2C
:1010B000DC6A114BDA7A114B01925A6800921B6874
:1010C00000200021224601F0F3FD4FF4FA60FFF703
:1010D0009DFA002000217F22352302F0A3F8084B5F
:1010E00001221A700437BD4690BD00BFB8ED00085C
:1010F0000CE80008AC130020A013002004E800084E
:101100000C14002080B582B000AF0346FB71FB7960
:10111000044A52F823300448194607F0FDFA08370C
:10112000BD4680BDAC130020C8ED000880B582B07C
:1011300000AF0346FB71FB79044A0121D1540448F6
:1011400007F02CFB0837BD4680BD00BFA013002070
:10115000DCED000880B400AFBD465DF8047B70474D
:1011600080B500AF014807F0D7FAFEE7E8ED0008C8
:1011700080B500AF014807F0CFFAFEE7F4ED0008B4
:1011800080B500AF014807F0C7FAFEE710EE00088F
:1011900080B500AF014807F0BFFAFEE71CEE00087B
:1011A00080B500AF014807F0B7FA80BD2CEE00080B
:1011B00080B500AF014807F0AFFA80BD3CEE0008F3
:1011C00080B500AF014807F0A7FA80BD4CEE0008DB
:1011D00080B500AFFFF750FAFFF7E6FBFFF720FC02
:1011E00080BD00BF80B500AF00F0D4FB00F01AFC5A
:1011F00000F0E2FB00F004FC00F0F0FB00F024FC47
:1012000080BD00BF80B500AF024807F0C7FA02F00A
:101210005BFA80BD58EE000880B500AF01F044F9DC
:1012200080BD00BF80B500AF00F0B6FF80BD00BF3D
:1012300080B500AF01F014F880BD00BF80B500AFED
:1012400019481A4905F002F90346012B0CD116483A
:10125000174905F093F81448144905F04FF912485E
:101260000821002205F0B8F80F48124905F0EEF801
:101270000346012B16D10C484FF0815105F07EF842
:1012800009480C4905F03AF907481021002205F0F9
:10129000A3F80548002105F019F8074801210022AC
:1012A00006F0ACF880BD00BF406402400040101062
:1012B00000001010008020100030014080B500AF09
:1012C0002548264905F0C2F80346012B0DD12248D6
:1012D0004FF0A05105F052F81F48204905F00EF9D3
:1012E0001D480821002205F077F81B481C4905F02D
:1012F000ADF80346012B2DD117484FF0C05105F032
:101300003DF81548164905F0F9F813481021002258
:1013100005F062F81048002104F0D8FF11480221BE
:10132000002206F06BF800BF0F4B1B6803F00103AF
:10133000002BF9D100BF084B1B6803F00103002B01
:10134000F9D10848002106F02BF8084804210122B1
:1013500005F02AFA80BD00BF586402400040001426
:10136000008000180030014040640240000002404C
:1013700080B500AF034807F011FA034803F010F8F6
:1013800080BD00BF6CEE0008B00B002080B500AF40
:101390000B4807F003FA0B4B9B7A002B0AD00A4A42
:1013A000094B1B6823F00603136004F061FD054838
:1013B00002F068FE4FF4802005F05AF980BD00BFAE
:1013C00080EE0008B00B002010ED00E080B582B088
:1013D00002AF00230093032301932448012100223C
:1013E0000223FFF763FB21480421002205F0DCF90A
:1013F00000230093032301931C48012100220323AF
:10140000FFF754FB19480821002205F0CDF900230D
:101410000093032301931548012100220423FFF7C1
:1014200045FB12481021002205F0BEF9002300936D
:10143000032301930D48012100220523FFF736FB0A
:101440000A482021002205F0AFF90023009303236E
:1014500001930648012100220623FFF727FB0348DA
:101460004021002205F0A0F9BD4680BD00100240D9
:1014700080B582B000AF03460A46FB711346BB71CC
:10148000FB790C4A52F82310FB790B4A52F82330AF
:101490001A46012393409AB2BB79002B14BF012353
:1014A0000023DBB2084611461A4605F07DF90837DD
:1014B000BD4680BD000000201400002080B582B031
:1014C00000AF0346FB71FB79084A52F82310FB7901
:1014D000074A52F823301A46012393409BB208462C
:1014E000194605F079F90837BD4680BD0000002097
:1014F0001400002090B58BB002AFFFF7FFFB002374
:10150000FB61FB690133FB6101F04CF803463B8151
:101510001B4B5B78FB761A4B1B781A4692001344E0
:101520005B00DBB20933BB7607F10C0318461549A3
:10153000FA6907F0C9F97A7AFB7ED31AD9B27B7AB5
:10154000BA7E002001F06EFE7A7AFB7ED31ADBB2FF
:10155000013BD9B207F10C04094B5A6800921B6891
:101560000020224601F022FAFEF75AFF0648F969E8
:1015700007F0D2F84FF47A70FFF748F8C1E700BFE0
:1015800004E8000898EE0008A0EE000880B584B0DA
:1015900000AF2D4B00221A602B4B1B6801332A4AE7
:1015A0001360294B1B68294A1362294B00221A70C9
:1015B00026482849002200F07BF8F8602348264995
:1015C000002200F075F8B86020482449002200F09D
:1015D0006FF878601D482249002200F069F83860F1
:1015E000B8682049204A00F063F8B8681F49204ACB
:1015F00000F05EF8B8681F491F4A00F059F8F86813
:101600001E491F4A00F054F8F8681E491E4A00F0AF
:101610004FF8F8681D491E4A00F04AF878681D49DD
:101620001D4A00F045F838681C491D4A00F040F892
:1016300038681C491C4A00F03BF8044B9B681B4A65
:1016400013601037BD4680BD08140020DC13002055
:101650000C140020B4EE0008B8EE0008C0EE00083C
:10166000C4EE0008C8EE0008F5170008D8EE000820
:1016700001180008E8EE00080D180008F4EE000854
:101680001918000800EF0008251800080CEF0008E2
:10169000311800081CEF00083D18000828EF00086A
:1016A0004918000834EF00085518000804140020F9
:1016B00080B586B000AFF860B9607A60282006F087
:1016C000A1FC03467B6178690021282206F0D2FF45
:1016D0007B69002B1BD07B69FA685A607B69BA680A
:1016E0009A617B697A685A62FB681B780133DAB2C7
:1016F0007B691A70084B1B680133074A1360064B5D
:101700001A687B691A62F868796900F007F87B69E2
:1017100018461837BD4680BD0814002080B485B037
:1017200000AF786039603B687A685A607B689B6874
:10173000002B06D17B683A689A603B6801221A77D1
:1017400010E07B689B68FB6002E0FB685B69FB6004
:10175000FB685B69002BF8D1FB683A685A613B680B
:10176000FA68DA601437BD465DF8047B704700BF45
:1017700080B400AF044B1B78002B00D100BFBD46E6
:101780005DF8047B704700BF0C14002080B582B068
:1017900000AF0346FB710E4B1B681846FEF7B4FF03
:1017A0000346322B0CD9FB79002B03D1094806F0F4
:1017B000F5FF05E0FB79012B02D1074806F0EEFFAB
:1017C000FEF786FF0246024B1A600837BD4680BD11
:1017D0003009002030F0000840F0000880B500AF6C
:1017E0000020FFF7D3FF80BD80B500AF0120FFF7D9
:1017F000CDFF80BD80B400AFBD465DF8047B70476F
:1018000080B400AFBD465DF8047B704780B400AF84
:10181000BD465DF8047B704780B400AFBD465DF8FF
:10182000047B704780B400AFBD465DF8047B704711
:1018300080B400AFBD465DF8047B704780B400AF54
:10184000BD465DF8047B704780B400AFBD465DF8CF
:10185000047B704780B400AFBD465DF8047B7047E1
:1018600080B584B000AF0346FB710B46BB711346D5
:101870007B71FB793B73BB797B737B79BB730123F2
:10188000FB7307F10C03184604F098FB1037BD46B4
:1018900080BD00BF80B582B002AF00230093032358
:1018A00001933B48002100220F23FFF7FFF80F238D
:1018B00000930F23019336480F2108220023FFF7DE
:1018C0003DF90023009303230193314800210022B6
:1018D0000E23FFF7EBF80F2300930F2301932C48FF
:1018E0000E2108220023FFF729F900230093032388
:1018F00001932748002100220D23FFF7D7F80F237B
:1019000000930F23019322480D2108220023FFF7A3
:1019100015F900230093032301931D4800210022A1
:101920000C23FFF7C3F80F2300930F2301931848EC
:101930000C2108220023FFF701F900230093032361
:1019400001931348002100220B23FFF7AFF80F2368
:1019500000930F2301930E480B2108220023FFF769
:10196000EDF800230093032301930948002100228E
:101970000A23FFF79BF80F2300930F2301930448DA
:101980000A2108220023FFF7D9F8BD4680BD00BF19
:10199000000C024080B500AF4FF4004004F04EFE52
:1019A0000346002B06D00020FFF788FD4FF40040CF
:1019B00004F05EFE80BD00BF80B500AF4FF48040F4
:1019C00004F03CFE0346002B06D00120FFF776FD15
:1019D0004FF4804004F04CFE80BD00BF80B500AFE6
:1019E0004FF4005004F02AFE0346002B06D00220DC
:1019F000FFF764FD4FF4005004F03AFE80BD00BFD5
:101A000080B500AF4FF4805004F018FE0346002B61
:101A100006D00320FFF752FD4FF4805004F028FE5B
:101A200080BD00BF80B500AF4FF4006004F006FE3B
:101A30000346002B06D00420FFF740FD4FF4006062
:101A400004F016FE80BD00BF80B500AF4FF480608B
:101A500004F0F4FD0346002B12D00020FFF72EFD0A
:101A60000120FFF72BFD0220FFF728FD0320FFF7E1
:101A700025FD0420FFF722FD4FF4806004F0F8FDFF
:101A800080BD00BF80B582B000AF78600B46FB70B0
:101A90007B68394A934205D1FB780120194605F04D
:101AA0001DF865E07B68354A934205D1FB7802203A
:101AB000194605F013F85BE07B68314A934205D183
:101AC000FB780420194605F009F851E07B682D4A9F
:101AD000934205D1FB780820194604F0FFFF47E048
:101AE0007B68294A934205D1FB781020194604F0FF
:101AF000F5FF3DE07B68254A934205D1FB78202025
:101B0000194604F0EBFF33E07B68214A934205D18C
:101B1000FB784020194604F0E1FF29E07B681D4A6C
:101B2000934205D1FB788020194604F0D7FF1FE0CF
:101B30007B68194A934206D1FB784FF480701946AE
:101B400004F0CCFF14E07B68144A934206D1FB7882
:101B50004FF40070194604F0C1FF09E07B68104A99
:101B6000934205D1FB784FF48060194604F0B6FF2C
:101B70000837BD4680BD00BF00000240000402409F
:101B800000080240000C0240001002400014024015
:101B900000180240001C02400020024000240240C5
:101BA0000028024080B582B000AF78600B46FB7021
:101BB0007B682B4A934205D1FB781020194604F02C
:101BC000E7FF4AE07B68274A934206D1FB784FF44F
:101BD0000030194604F0BEFF3FE07B68224A934282
:101BE00006D1FB784FF48020194604F0B3FF34E0AF
:101BF0007B681E4A934206D1FB784FF400201946B9
:101C000004F0A8FF29E07B68194A934206D1FB78CB
:101C10004FF48010194604F09DFF1EE07B68154AC2
:101C2000934205D1FB782020194604F0B1FF14E05F
:101C30007B68114A934206D1FB784FF080401946E9
:101C400004F088FF09E07B680C4A934205D1FB78D9
:101C50004FF00040194604F07DFF0837BD4680BDB7
:101C6000001001400044004000480040004C00408B
:101C7000005000400014014000780040007C00400B
:101C800080B582B000AF78600B46FB707B68B3F123
:101C9000804F05D1FB780120194604F05BFF84E0FA
:101CA0007B68434A934205D1FB780220194604F031
:101CB00051FF7AE07B683F4A934205D1FB780420CC
:101CC000194604F047FF70E07B683B4A934205D118
:101CD000FB780820194604F03DFF66E07B68374A30
:101CE000934205D1FB781020194604F033FF5CE0E5
:101CF0007B68334A934205D1FB782020194604F0D3
:101D000029FF52E07B682F4A934205D1FB7840209F
:101D1000194604F01FFF48E07B682B4A934205D127
:101D2000FB788020194604F015FF3EE07B68274AC7
:101D3000934206D1FB784FF48070194604F00AFFF5
:101D400033E07B68224A934205D1FB780120194693
:101D500004F01EFF29E07B681E4A934205D1FB7800
:101D60000220194604F014FF1FE07B681A4A9342D0
:101D700006D1FB784FF48030194604F009FF14E0D7
:101D80007B68164A934206D1FB784FF4003019461F
:101D900004F0FEFE09E07B68114A934205D1FB780E
:101DA0004FF48020194604F0F3FE0837BD4680BD8D
:101DB0000004004000080040000C004000100040FB
:101DC0000014004000180040001C004000200040AB
:101DD0000000014000040140004001400044014077
:101DE0000048014080B582B000AF78600B46FB70C0
:101DF0007B68214A934206D1FB784FF48040194614
:101E000004F0A8FE35E07B681C4A934206D1FB78BB
:101E10004FF40040194604F09DFE2AE07B68184A02
:101E2000934206D1FB784FF48050194604F0B0FE7F
:101E30001FE07B68134A934206D1FB784FF4805031
:101E4000194604F0A5FE14E07B680F4A934206D1C0
:101E5000FB784FF48010194604F09AFE09E07B6885
:101E60000A4A934205D1FB784FF40010194604F05A
:101E70008FFE0837BD4680BD00380040003C004062
:101E80000030014000340140005001400054014046
:101E900080B582B000AF78600B46FB707B68274A44
:101EA00093421BD07B68264A934217D07B68254A11
:101EB000934213D07B68244A93420FD07B68234A15
:101EC00093420BD07B68224A934207D07B68214A19
:101ED000934203D07B68204A934205D1FB784FF4AC
:101EE0000010194604F0FAFD7B681C4A93421BD08F
:101EF0007B681B4A934217D07B681A4A934213D0DF
:101F00007B68194A93420FD07B68184A93420BD0E2
:101F10007B68174A934207D07B68164A934203D0E6
:101F20007B68154A934205D1FB784FF4800019462F
:101F300004F0D4FD0837BD4680BD00BF10600240EC
:101F400028600240406002405860024070600240D9
:101F500088600240A0600240B86002401064024005
:101F600028640240406402405864024070640240A9
:101F700088640240A0640240B864024080B500AFAB
:101F80004020012104F0C8FD012004F095FE80BD31
:101F900080B584B000AF0023FB604FF0805001217A
:101FA00004F0D8FD012004F071FC012004F07EFC57
:101FB00024E03220FEF72AFBFB68052B1ED100200F
:101FC00004F074FC012004F091FC00BF612004F0D7
:101FD00039FE0346002BF9D04FF4007004F040FDA9
:101FE000284BFF221A60284B7F221A60274806F0F0
:101FF00093FB4FF47A70FEF709FB0FE0412004F0E9
:1020000021FE0346002BD4D04FF4807004F028FD4D
:102010001C4BFF221A601C4B7F221A60012004F027
:102020004DFD04F0E9FE184B1B687B60154B1B68E7
:10203000BB6000233B603B46184604F059FE144B3E
:102040001522DA70124B04225A70114B18229A7022
:102050000F4B06221A7001200D4904F0E1FF0D4BD1
:102060004022DA700B4B16221A700A4B10225A705B
:10207000084B00229A700120064904F0F9FE10373F
:10208000BD4680BD380900203409002054F0000806
:10209000400900203C090020B0B586B002AF00F036
:1020A00081FA03463B80224B5B78FB73204B1B7805
:1020B000DB00DBB20733BB7300201E4904F062FF74
:1020C0001C4B1B781D461B4B5B781C46194B9B78A1
:1020D0001A463B1D0092184617492A46234606F029
:1020E000F3FB3A78BB7BD31ADBB2013BD8B27A78E8
:1020F000FB7BD31AD9B23B78013BDAB27B7801F093
:1021000091F83A78BB7BD31ADBB2013BD8B27A782C
:10211000FB7BD31ADBB2013BD9B23C1D044B5A689E
:1021200000921B68224600F041FC1037BD46B0BD4E
:1021300004E800083C09002064F0000880B500AF06
:10214000312001210022FFF78BFB0F4800214FF4C3
:102150000C7206F08FFA00200B4903F00BFE0346C9
:102160001A460A4B1A70094B1B78002B05D0074BF7
:102170001B780748194606F0CFFA064800214FF4AD
:10218000097206F077FA80BD281400201417002089
:1021900074F000081817002080B500AF4FF480706D
:1021A00005F026F80346002B0AD02B4B00221A70AC
:1021B0004FF4807005F036F8284B01221A6041E098
:1021C000022005F015F80346002B06D0022005F08A
:1021D00029F8214B02221A7034E0082005F008F893
:1021E0000346002B06D0082005F01CF81A4B0422E9
:1021F0001A7027E0202004F0FBFF0346002B06D0D6
:10220000202005F00FF8144B06221A701AE0102057
:1022100004F0EEFF0346002B06D0102005F002F874
:102220000D4B05221A700DE04FF4007004F0E0FF32
:102230000346002B06D04FF4007004F0F3FF064B6A
:1022400007221A704CF23A30002104F0B3FF024B1F
:102250001B78DBB2184680BD4409002048090020E5
:1022600080B500AF064B1A68064B1340002B06D012
:10227000054B01221A600548054904F07FF880BD2E
:1022800000640240000020204C090020A0640240AD
:102290000000212080B58AB000AFF86008461146E2
:1022A0001A4603467B810B463B811346FB80F86848
:1022B00004F0C6FFF8680121FFF794FD7B89BB821B
:1022C0003B89FB82FB883B833B8E7B83BB8EBB833E
:1022D0003B8FFB83BB8F3B84B7F840307B84B7F8E0
:1022E0004430BB8407F11403F868194605F014F86C
:1022F00000BFF868022105F0A5F80346002BF8D0CE
:102300002837BD4680BD00BF80B586B006AF494BBB
:1023100040225A70474B80221A70464B4FF480621D
:102320005A60444B01221A72424B03225A72414BAB
:1023300000221A743F4B5B68184605F063FE0346A3
:102340001A463C4BDA603B4BDB68002B0AD1394B19
:10235000DB68184605F05EFE374806F0DDF901201F
:1023600005F040FE0023009303230193334801212D
:1023700000220623FEF79AFB30484021002204F099
:1023800013FA00230093032301932C480121002218
:102390000723FEF78BFB29488021002204F004FA72
:1023A00000230093032301932448012100220823E2
:1023B000FEF77CFB21484FF48071002204F0F4F911
:1023C0000223009303230193062302931B48022157
:1023D00000220523FEF790FB0223009303230193C1
:1023E000062302931548022100220323FEF784FBF3
:1023F00013480121FFF7F6FC00230093002301930B
:102400004FF40073029300230393002304930723E4
:1024100005930B484FF440414FF482720023FFF7BD
:1024200039FF0748012104F0BBFF00F05DFFBD4606
:1024300080BD00BF50090020E4F100080004024004
:10244000003C004080B500AF012001F001F8002001
:1024500001F00EF81248002104F0A2FF01F048F844
:1024600010480F490222FEF79DF90D48012104F0A2
:1024700097FF00BF0B484FF0205103F043FF034686
:10248000002BF7D0074806490222FEF79DF90548C0
:10249000002103F01BFF012000F0EAFF80BD00BF18
:1024A000003C0040B860024080B500AF0B480121FD
:1024B00005F01CF90346002B0FD00848012105F058
:1024C0003FF900200121FEF7D3FFFFF751F9FFF795
:1024D000B9FF00200021FEF7CBFF80BD001C0040AB
:1024E00080B582B000AF0346FB71FB79002B0CD1A5
:1024F000A02000F0CFFFC02000F0CCFF202000F093
:10250000C9FF012000F0C6FF2EE0FB79012B0CD1A2
:10251000A12000F0BFFFC82000F0BCFF202000F089
:10252000B9FF012000F0B6FF1EE0FB79022B0CD1B1
:10253000A12000F0AFFFC02000F0ACFF202000F091
:10254000A9FF002000F0A6FF0EE0FB79032B0BD1C2
:10255000A02000F09FFFC82000F09CFF202000F08A
:1025600099FF002000F096FF0837BD4680BD00BFF0
:1025700080B582B000AF0346FB71094AFB79137244
:10258000FB79012B03D1A62000F084FF05E0FB7945
:10259000002B02D1A72000F07DFF0837BD4680BD8B
:1025A0005009002080B483B000AF164B5B7A022B39
:1025B00003D0144B5B7A032B06D1124B1B783B7074
:1025C000104B5B787B700DE00E4B5B7A002B03D0D9
:1025D0000C4B5B7A012B05D10A4B5B783B70094BA6
:1025E0001B787B703B88BB8000233A7962F307033A
:1025F0007A7962F30F2318460C37BD465DF8047BE9
:10260000704700BF5009002080B586B000AF7860E9
:10261000084611461A460346FB700B46BB7013462C
:102620007B70FA78BB781046194600F095FF034698
:10263000BB817A7897F820301046194600F08CFF5D
:1026400003463B813A7B3B7A934228BF1346DBB279
:102650003B747A7A7B7B934238BF1346DBB27B7440
:102660003A7A3B7B934238BF1346DBB2BB747A7A2B
:102670007B7B934238BF1346DBB2FB743A7B3B7AD9
:10268000934228BF1346DBB23B757A7B7B7A934239
:1026900028BF1346DBB27B753A7A3B7B934238BF47
:1026A0001346DBB2BB757A7B7B7A934228BF134615
:1026B000DBB2FB757B681A4607F1100303CB106091
:1026C000516078681837BD4680BD00BF90B585B0B1
:1026D00000AF0346FB710B46BB7113467B71FFF7DE
:1026E00061FF0346BB813B7BFA799A4280F0B1805F
:1026F0007B7BBA799A4280F0AC80574B5B7A022B95
:1027000003D0554B5B7A032B4ED17B79002B24D021
:10271000514BDB68F979BA79D208D4B220464E4AD7
:10272000127802FB00F20A4413444B4AD268F8794B
:102730004949097801FB04F101440A441278D0B2F6
:10274000BA7902F00702012101FA02F2D2B201467F
:102750000A43D2B2D2B21A707BE03F4BDB68F97900
:10276000BA79D208D4B220463B4A127802FB00F272
:102770000A441344384AD268F8793749097801FB8A
:1027800004F101440A441278D0B2BA7902F0070287
:10279000012101FA02F2D2B2D243D2B201460A407A
:1027A000D2B2D2B21A7054E02B4B5B7A002B03D01A
:1027B000294B5B7A012B4CD17B79002B23D0264B04
:1027C000DA68FB79DB08D8B20446BB79224949783C
:1027D00001FB03F3002B00DA0733DB10E1180A4496
:1027E0001D49C96803440B441B78D8B2FB7903F038
:1027F0000703012101FA03F3DBB201460B43DBB20D
:10280000DBB2137025E0144BDA68FB79DB08D8B231
:102810000446BB791049497801FB03F3002B00DA29
:102820000733DB10E1180A440B49C96803440B4421
:102830001B78D8B2FB7903F00703012101FA03F3F7
:10284000DBB2DB43DBB201460B40DBB2DBB2137021
:10285000FFE71437BD4690BD5009002082B02DE936
:10286000F04389B000AF7B640346FB710B46BB713C
:1028700013467B716B461E4697F844100B46013B8E
:102880007B61CAB24FF000034FEAC30949EA5279AB
:102890004FEAC208CAB24FF00003DD0045EA5275A4
:1028A000D4000B460733DB08DB00ADEB030D6B46B2
:1028B00000333B6197F846307A799A421ED397F8F5
:1028C00047307A799A4219D80023FB7710E0FB7FD2
:1028D000BA6C7979203997F8440000FB01F0F97F50
:1028E00001440A4411783A69D154FB7F0133FB77E4
:1028F00097F84430FA7F9A42E9D30EE00023FB7741
:1029000006E0FB7F3A69FF21D154FB7F0133FB775F
:1029100097F84430FA7F9A42F3D30023BB8338E020
:1029200000237B832CE00023FB73BB8B3A69D35CD1
:102930001A4697F8453019467B8BDB430B4402FA65
:1029400003F3FB73FB7BDB09FB73FB7B002B14D0D6
:10295000BB8BDAB2FB791344D9B297F84520BB7927
:102960001344DAB27B8BDBB2D31ADAB297F84C306D
:10297000084611461A46FFF7A9FE7B8B01337B837D
:102980007A8B97F8453001339A42CCDBBB8B01330D
:10299000BB8397F844309BB2BA8B9A42C0D3B546FA
:1029A0002437BD46BDE8F04302B0704782B080B521
:1029B00084B002AF3A607B610346FB710B46BB718A
:1029C000F979BA7901230193BB6900937B690846C1
:1029D00011463A6800F006F80837BD46BDE8804069
:1029E00002B0704782B090B587B002AF3A607B62A8
:1029F0000346FB710B46BB710023FB731BE097F88A
:102A000024300133DAB2FB7B12FB03F3DAB2FB7939
:102A10001344D8B2FB7B3A6813441B78DAB2B97915
:102A200097F82C300193BB6A00937B6AFFF716FF7F
:102A3000FB7B0133FB73FC7B386805F06BFF0346BF
:102A40009C42DCD31437BD46BDE8904002B07047CD
:102A500090B58DB002AF0446084611461A4623468B
:102A6000FB710346BB710B467B7113463B7107F14B
:102A70000800F979BA797C793B7900932346FFF70E
:102A8000C3FDBB7B1A463B7BD21A97F83C3001331F
:102A900092FBF3F3BB617B7A1A467B7BD21A97F8E1
:102AA0003D30013392FBF3F37B61B86B05F032FFED
:102AB0003861387B797BBA7AFC7A0023009323460D
:102AC00000F0CCFB7B6CBA6902FB03F3FB610123D2
:102AD0003B62E3E000237B62D8E0BA6BFB691344FE
:102AE0001B785BB20A2B05D1BB697B62FB690133A2
:102AF000FB61C8E0BA6BFB6913441B785BB2092B1E
:102B000040F09180FB690133FB613A7A97F83C30E1
:102B10000133D9B27B6ADBB211FB03F3DBB213449E
:102B2000D8B27A7A97F83D300133D9B23B6ADBB23A
:102B300011FB03F3DBB2D31ADAB2012301933B6C2E
:102B40000093FB6B11462022FFF788FE7B6A01335E
:102B50007B623A7A97F83C300133D9B27B6ADBB2B8
:102B600011FB03F3DBB21344D8B27A7A97F83D3005
:102B70000133D9B23B6ADBB211FB03F3DBB2D31AE8
:102B8000DAB2012301933B6C0093FB6B11462022C8
:102B9000FFF764FE7B6A01337B623A7A97F83C3038
:102BA0000133D9B27B6ADBB211FB03F3DBB213440E
:102BB000D8B27A7A97F83D300133D9B23B6ADBB2AA
:102BC00011FB03F3DBB2D31ADAB2012301933B6C9E
:102BD0000093FB6B11462022FFF740FE7B6A013316
:102BE0007B623A7A97F83C300133D9B27B6ADBB228
:102BF00011FB03F3DBB21344D8B27A7A97F83D3075
:102C00000133D9B23B6ADBB211FB03F3DBB2D31A57
:102C1000DAB2012301933B6C0093FB6B1146202237
:102C2000FFF71CFE2FE0BA6BFB6913441B78002BE7
:102C300031D0FA693B699A422DD23A7A97F83C3002
:102C40000133D9B27B6ADBB211FB03F3DBB213446D
:102C5000D8B27A7A97F83D300133D9B23B6ADBB209
:102C600011FB03F3DBB2D31AD9B2FB695A1CFA6128
:102C7000BA6B13441B78DAB2012301933B6C0093C7
:102C8000FB6BFFF7EBFD7B6A01337B627A6ABB6902
:102C90009A42FFF422AF3B6A01333B627B695A1CC4
:102CA0003B6A9A423FF616AF2C37BD4690BD00BF37
:102CB00082B090B585B002AF3A60FB610346FB710C
:102CC0000B46BB71BB790333BB71FB790833DAB2B6
:102CD000BB790833DCB2F879B97902230093234633
:102CE00000F0DAF997F82430002B0DD0FB7902338D
:102CF000D8B2BB790233D9B2FB790633DAB2BB79E9
:102D00000733DBB200F072FA3B7F0133DBB25B00CA
:102D1000DAB2FB791344D9B2BB79013BDAB23B6A30
:102D20000093FB69084611463A68FFF73FFE0C37EF
:102D3000BD46BDE8904002B0704700BF90B585B079
:102D400002AF0446084611461A462346FB71034665
:102D5000BB710B467B7113463B71F879B9797A796F
:102D60003C7901230093234600F004F80C37BD465C
:102D700090BD00BF90B58BB000AF04460846114629
:102D80001A462346FB710346BB710B467B71134603
:102D90003B71FA79BB791046194600F0DDFB03461A
:102DA000BB817A793B791046194600F0D5FB034682
:102DB0003B813B7A1A463B7BD31A002BB8BF5B4260
:102DC0003B623A7B3B7A9A4201D2012301E04FF009
:102DD000FF33FB617B7A1A467B7BD31A002BB8BF8B
:102DE0005B42BB617A7B7B7A9A4201D2012301E08C
:102DF0004FF0FF337B613A6ABB699A4205DCBB69DD
:102E00005B42DA0F13445B1003E03B6ADA0F1344B2
:102E10005B107B62397B7A7B97F838300846114625
:102E20001A46FFF753FC3A7B3B7A9A4204D17A7BED
:102E30007B7A9A4200D11FE07B6A3B613B6A5A422F
:102E40003B699A4209DA7A6ABB69D31A7B623A7B98
:102E5000FB69DBB21344DBB23B733A69BB699A424C
:102E600009DA7A6A3B6A13447B627A7B7B69DBB25C
:102E70001344DBB27B73CDE72C37BD4690BD00BF5A
:102E800090B58BB002AF0446084611461A46234659
:102E9000FB710346BB710B467B7113463B71FA799C
:102EA0007B799A4200F0F580BA793B799A4200F03A
:102EB000F08007F10800F979BA797C793B790093C1
:102EC0002346FFF7A1FBFA797B799A428CBF012355
:102ED0000023DBB2FB74BA793B799A428CBF0123A1
:102EE0000023DBB2BB74FB7C1B01DAB2BB7C134357
:102EF000DBB27B7497F83030FB610023BB61FB6968
:102F0000C3F101037B61BFE07B7C112B00F2A48045
:102F100001A252F823F000BF9F2F0008DD2F000808
:102F2000593000085930000859300008593000085D
:102F3000593000085930000859300008593000084D
:102F4000593000085930000859300008593000083D
:102F50005930000859300008612F00081B30000864
:102F60003A7BFB69DBB21344D9B27A7BBB69DBB233
:102F70001344DBB2084619460122FFF7A7FB3A7B50
:102F8000BB69DBB21344D9B27A7BFB69DBB2134471
:102F9000DBB2084619460122FFF798FB5CE0BA7BDA
:102FA000FB69DBB2D31AD9B2FA7BBB69DBB213443B
:102FB000DBB2084619460122FFF788FBBA7BBB69E2
:102FC000DBB2D31AD9B2FA7BFB69DBB21344DBB2B2
:102FD000084619460122FFF779FB3DE0BA7AFB6902
:102FE000DBB2D31AD9B2FA7ABB69DBB2D31ADBB23D
:102FF000084619460122FFF769FBBA7ABB69DBB2C2
:10300000D31AD9B2FA7AFB69DBB2D31ADBB208461B
:1030100019460122FFF75AFB1EE03A7AFB69DBB240
:103020001344D9B27A7ABB69DBB2D31ADBB2084651
:1030300019460122FFF74AFB3A7ABB69DBB2134417
:10304000D9B27A7AFB69DBB2D31ADBB208461946E9
:103050000122FFF73BFB00BFBB690133BB617B690A
:10306000002B06DABB695B0001337A6913447B618C
:103070000AE0FB69013BFB61BA69FB69D31A5B009B
:1030800001337A6913447B61FA69BB699A42BFF6DE
:103090003BAF2437BD4690BDB0B586B002AF044605
:1030A000084611461A462346FB710346BB710B4680
:1030B0007B7113463B7107F10800F979BA797C7985
:1030C0003B7900932346FFF79FFA387B7A7B97F88A
:1030D00020301344D9B23D7A7A7A97F82030D31A47
:1030E000DCB2012300932A462346FFF743FE387AD9
:1030F0007A7A97F82030D31AD9B23A7A97F82030F2
:103100001344DAB27C7A97F8203000932346FFF715
:10311000B7FE3A7A97F820301344D8B2797ABA7A5F
:1031200097F82030D31ADAB2FC7A012300932346B1
:10313000FFF720FEB87AFA7A97F82030D31AD9B27E
:10314000BA7A97F82030D31ADAB2FC7A97F820309E
:1031500000932346FFF794FEB87AFA7A97F8203066
:10316000D31AD9B2BD7BFA7B97F820301344DCB276
:10317000012300932A462346FFF7FCFDB87BFA7B28
:1031800097F820301344D9B2BA7B97F82030D31A7D
:10319000DAB2FC7B97F8203000932346FFF770FEED
:1031A0003A7B97F820301344D8B2797BBA7B97F8F2
:1031B0002030D31ADAB2FC7B012300932346FFF7B9
:1031C000D9FD387B7A7B97F820301344D9B23A7B0B
:1031D00097F820301344DAB27C7B97F820300093C4
:1031E0002346FFF74DFE1037BD46B0BD90B585B004
:1031F00002AF0446084611461A462346FB710346B1
:10320000BB710B467B7113463B71F879B9797A79BA
:103210003C7901230093234600F020F80C37BD468B
:1032200090BD00BF90B585B002AF04460846114678
:103230001A462346FB710346BB710B467B7113464E
:103240003B71F879B9797A793C7900230093234668
:1032500000F004F80C37BD4690BD00BF90B587B0B4
:1032600002AF0446084611461A462346FB71034640
:10327000BB710B467B7113463B71FA797B799342A4
:1032800028BF1346BB737A79FB79934238BF134644
:103290007B73BA793B79934228BF13463B733A79E3
:1032A000BB79934238BF1346FB720023FB7312E0D5
:1032B0003A7BFB7B1344D9B23A7BFB7B1344DCB2F1
:1032C000B87B7A7B97F8203000932346FFF752FDB6
:1032D000FB7B0133FB73FA7BF97A3B7BCB1A9A4277
:1032E000E6DB1437BD4690BD80B584B000AF00204A
:1032F00000F09EF80A20FDF789F9012000F098F807
:103300000A20FDF783F9012000F0A2F8012000F067
:10331000AFF8AE2000F0BEF8D52000F0BBF880205A
:1033200000F0B8F8A82000F0B5F83F2000F0B2F89F
:10333000D32000F0AFF8002000F0ACF8402000F0FF
:10334000A9F88D2000F0A6F8374B1B7C012B03D188
:10335000102000F09FF802E0142000F09BF8324BA0
:103360005B7A1846FFF7BCF8DA2000F093F81220D9
:1033700000F090F8812000F08DF82B4B1B7C012B86
:1033800003D19F2000F086F802E0CF2000F082F801
:10339000D92000F07FF8244B1B7C012B03D1222085
:1033A00000F078F802E0F12000F074F8DB2000F083
:1033B00071F8402000F06EF8A42000F06BF81A4B72
:1033C0001B7A1846FFF7D4F8174BDA68164B5B6880
:1033D000104600211A4605F04DF9AF2000F05AF8CA
:1033E0002C200F210022FEF73BFA10480121FEF7A6
:1033F00047FC44F61F63BB605323BB800023BB81A3
:103400000023FB803B1D0948194604F079F8074862
:103410000121012204F046F90448012104F022F9B7
:103420001037BD4680BD00BF50090020001C004081
:1034300080B582B000AF0346FB71FB790348802161
:103440001A4603F0B1F90837BD4680BD00040240BA
:1034500080B582B000AF0346FB71FB790348402181
:103460001A4603F0A1F90837BD4680BD00040240AA
:1034700080B582B000AF0346FB71FB7904484FF47E
:1034800080711A4603F090F90837BD4680BD00BF31
:103490000004024080B582B000AF0346FB710020FB
:1034A000FFF7D6FFFB79184600F004F80837BD4651
:1034B00080BD00BF80B582B000AF0346FB71002025
:1034C000FFF7D6FFFB799BB20848194603F088FF47
:1034D00000BF0648022103F0B5FF0346002BF8D0D9
:1034E0000120FFF7C5FF0837BD4680BD003C004006
:1034F00090B58DB00CAF154802F0C0FD144BDB68E1
:103500001C46134B5B6840220092019300230293F8
:103510004FF4806303930023049300230593002357
:1035200006934FF400330793002308930023099375
:1035300000230A9300230B9304480021054A2346E5
:10354000FDF7F6F80437BD4690BD00BFB8600240F5
:10355000500900200C3C004080B485B000AF034609
:103560000A46FB711346BB71244B5B7A022B03D0D6
:10357000224B5B7A032B13D1204B1B78FA799A42AA
:1035800003D31E4B1B78013BFB711C4B5B78BA7954
:103590009A4204D3194B5B78013BBB711AE019E0E6
:1035A000164B5B7A002B03D0144B5B7A012B11D1A5
:1035B000124B5B78FA799A4203D3104B5B78013B4C
:1035C000FB710E4B1B78BA799A4203D30B4B1B78D5
:1035D000013BBB71FB793B72BB797B723B89BB8141
:1035E00000233A7B62F307037A7B62F30F231846CA
:1035F0001437BD465DF8047B704700BF50090020BA
:1036000080B588B004AF01230093032301930723FF
:1036100002932A48022100220623FDF76DFA0123B6
:1036200000930323019307230293244802210022DD
:103630000523FDF761FA22480121FEF7B3FA4FF4A2
:1036400061333B600023BB800023FB8000233B8170
:103650000023BB810C237B813B461948194604F0AB
:10366000CBF8174840F22551012204F0A1F9262099
:1036700002210022FEF7F4F81148012104F078F944
:10368000104B1B685B68184600210222002305F0DE
:103690009FF80C4B1B689B681846002102220023F0
:1036A00005F096F8074B1B68DB68184600210222DC
:1036B000002305F08DF81037BD4680BD000C024098
:1036C000004400409804002080B400AFBD465DF87F
:1036D000047B704780B489B000AFF860B9601146D0
:1036E0001A460B46FB711346BB800023FB76FB6832
:1036F000DB78002B22D100237B610023FB61BB8898
:103700000333002B00DA03339B107B61FB79FA68EB
:1037100032339B0013449B683B610023FB6109E04B
:10372000BB681A683B691A60FB690133FB61BB68BF
:103730000433BB60FA697B699A42F1D3FB7E184679
:103740002437BD465DF8047B704700BF80B489B064
:1037500000AFF860B9601346FB800023FB61FB8873
:103760000333002B00DA03339B10BB61FB68D3F8F3
:10377000D0307B610023FB6109E07B691A68BB687C
:103780001A60FB690133FB61BB680433BB60FA69F3
:10379000BB699A42F1D3BB6818462437BD465DF831
:1037A000047B704780B586B000AF78603960002335
:1037B000FB7400237B610023FB60FB6843F0200364
:1037C000FB603B68DBB203F01F03DBB203F01F03B7
:1037D0009B01FA6822F4F8621343FB607B68DB68A4
:1037E000FA681A617B68DB681B69FB607B690133DF
:1037F0007B617B69094A934200D906E0FB685B095B
:1038000003F00103DBB2012BECD0032002F078F9C6
:10381000FB7C18461837BD4680BD00BF400D030035
:1038200080B483B000AF78607B68DB685B6903F0CD
:10383000010318460C37BD465DF8047B704700BF96
:1038400080B582B000AF78607868FFF7E9FF034683
:10385000012B14BF01230023DBB218460837BD46F5
:1038600080BD00BF80B485B000AF78600023FB60EE
:103870007B68DB685B69FB607B68DB689B69FA6877
:103880001340FB60FB6818461437BD465DF8047BA7
:10389000704700BF80B485B000AF78600023FB7331
:1038A0007B681B699B68BB603B7AC3F34103DBB257
:1038B000022B09D0032B04D0012B02D00323FB736E
:1038C00005E00223FB7302E00123FB7300BFFB7BD7
:1038D00018461437BD465DF8047B704780B487B046
:1038E00000AF78600023FB750023BB607B681B6919
:1038F0009B683B617B689B691B68FB603B7CC3F3F7
:103900004103DBB2022B04D0BB896FF30A03BB81F6
:1039100005E0BB89032262F30A03BB8100BF7B6819
:103920009B69FA681A607B7A43F001037B727B68BB
:103930001B697A6812695168BA68D2431140BA6843
:103940000A435A60FB7D18461C37BD465DF8047B70
:10395000704700BF80B487B000AF78603960002343
:10396000FB740023FB600023BB603B685B78012B8A
:103970000FD13B681B787A6804339B0013449B6823
:103980007B613B681B781A46012393409BB23B81C5
:103990000EE03B681B787A6814339B0013445B6825
:1039A0007B613B681B781A46012393409BB27B8165
:1039B0007B691B68FB607B7B23F07F03DBB2002B02
:1039C00027D13B689B689BB2C3F30A039AB2BB89B9
:1039D00062F30A03BB813B68DB7803F00303DAB2CE
:1039E000BB7B62F38303BB733B68DB88DBB203F012
:1039F0000F03DAB2FB8962F38913FB81FB7B43F08F
:103A00001003FB737B7B43F080037B73FA687B6955
:103A10001A607B681B697A681269D169BA680A43BF
:103A2000DA61FB7C18461C37BD465DF8047B7047A5
:103A300080B588B000AF786039600023FB77002341
:103A4000BB6100237B6100233B613B685B78012BFA
:103A500040F0AB803B681B787A6804339B001344CA
:103A60009B681B687B613B681B787A6804339B000A
:103A700013449B681B693B613B685B69002B09D160
:103A80003B696FF312033B617B8A012262F3CC0333
:103A90007B8222E03B685B69C3F312023B6962F3FD
:103AA00012033B613B685A693B689B6813445A1E8A
:103AB0003B689B68B2FBF3F39BB2C3F309039AB272
:103AC0007B8A62F3CC037B823B68DB78012B04D1D9
:103AD000FB7C012262F34613FB743B681B787A6817
:103AE00004339B0013449B683A691A617B68DB7856
:103AF000012B0AD13B681B787A6804339B0013447E
:103B00009B683A6812695A6115E03B68DB78012BC3
:103B100011D03B685B69002B0DD03B681B781A46BF
:103B200001239340BB617B681B697A681269516B02
:103B3000BA690A435A633B68DB78012B14D17B686E
:103B40001B699B68FB60FB68C3F30D239BB203F00A
:103B50000103002B04D1FB7D43F02003FB7503E040
:103B6000FB7D43F01003FB75FB7D43F00403FB7505
:103B7000FB7D43F08003FB753B681B787A68043358
:103B80009B0013449B687A691A603B68DB78012BC1
:103B900040F089803B68D9683B681A783B685B696C
:103BA0009BB27868FFF796FD7DE03B681B787A68EA
:103BB00014339B0013445B681B687B613B681B7874
:103BC0007A6814339B0013445B681B693B613B6854
:103BD0005B69002B0DD13B689B68C3F312023B6904
:103BE00062F312033B617B8A012262F3CC037B8286
:103BF00020E03B685A693B689B6813445A1E3B6847
:103C00009B68B2FBF3F39BB2C3F309039AB27B8ABE
:103C100062F3CC037B827B8AC3F3C9039BB21A464F
:103C20003B689B6803FB02F3C3F312023B6962F338
:103C300012033B613B681B787A6814339B00134482
:103C40005B683A691A617B68DB78012B09D13B68B4
:103C50001B787A6814339B0013445B683A681269D6
:103C60005A613B68DB78012B0CD13B685B79002BF8
:103C700004D0FB7D43F02003FB7503E0FB7D43F0A4
:103C80001003FB75FB7D43F00403FB75FB7D43F0E4
:103C90008003FB753B681B787A6814339B001344E0
:103CA0005B687A691A60FB7F18462037BD4680BD85
:103CB00080B489B000AF786039600023FB770023BF
:103CC000BB6100233B610023BB603B685B78012B39
:103CD00070D17B689B697B617B691B683B617B69F9
:103CE0001B69BB603B685B69002B09D13B7A6FF3B2
:103CF00006033B72BB7A012262F3C403BB7223E06A
:103D00003B685A693B689B689A420ED93B689A683F
:103D10003B685A613B689B68DBB203F07F03DAB211
:103D20003B7A62F306033B7209E03B685B69DBB2F6
:103D300003F07F03DAB23B7A62F306033B72BB7A8D
:103D4000012262F3C403BB72BA687B691A617B68A3
:103D5000DB78012B09D13B681B787A6804339B0020
:103D600013449B683A6812695A61FB7C43F0040370
:103D7000FB74FB7C43F08003FB743A697B691A6037
:103D80007B68DB78002B76D13B685B69002B72D0B7
:103D90003B681B781A46012393401A46BB691343BC
:103DA000BB617B681B697A681269516BBA690A4307
:103DB0005A6360E03B681B787A6814339B001344B5
:103DC0005B681B683B613B681B787A6814339B0017
:103DD00013445B681B69BB603B685B69002B0FD1B8
:103DE0003B689B68DBB203F07F03DAB23B7A62F395
:103DF00006033B72BB7A012262F3C403BB7212E07A
:103E00003B689A683B685A613B689B68DBB203F089
:103E10007F03DAB23B7A62F306033B72BB7A01227C
:103E200062F3C403BB723B681B787A6814339B004F
:103E300013445B68BA681A617B68DB78012B09D18F
:103E40003B681B787A6814339B0013445B683A68BC
:103E500012695A61FB7C43F00403FB74FB7C43F062
:103E60008003FB743B681B787A6814339B0013440F
:103E70005B683A691A60FB7F18462437BD465DF8D7
:103E8000047B704780B487B000AF7860396000234E
:103E9000FB750023FB603B685B78012B1CD13B6802
:103EA0001B787A6804339B0013449B683B613B6931
:103EB0001B68FB60FB7B23F07F03DBB2002B03D08E
:103EC000FB7B43F04003FB73BB7B43F02003BB73DE
:103ED000FA683B691A6011E03B681B787A68143312
:103EE0009B0013445B683B613B691B68FB60BB7BC9
:103EF00043F02003BB73FA683B691A60FB7D1846E8
:103F00001C37BD465DF8047B704700BF80B487B0A6
:103F100000AF786039600023FB740023FB603B68CE
:103F20005B78012B08D13B681B787A6804339B00CF
:103F300013449B687B6107E03B681B787A68143305
:103F40009B0013445B687B617B691B68FB60BB7BE8
:103F50006FF34513BB733B68DB78032B03D03B68DF
:103F6000DB78022B03D1FB7B43F01003FB73FA6871
:103F70007B691A60FB7C18461C37BD465DF8047BE4
:103F8000704700BF80B485B000AF78607B681B6964
:103F90009B69FB607B681B69DB69FA681340FB6007
:103FA000FB681B0C18461437BD465DF8047B704750
:103FB00080B485B000AF78600B46FB70FB787A6800
:103FC00014339B0013445B689B68FB607B681B6930
:103FD0005B69FA681340FB60FB6818461437BD46FE
:103FE0005DF8047B704700BF80B485B000AF786097
:103FF0007B681B699B69FB607B681B69DB69FA68EE
:104000001340FB60FB689BB218461437BD465DF851
:10401000047B704780B487B000AF786000233B61B9
:10402000FB7C43F0C003FB74BB7C012262F3C4033E
:10403000BB743B7C182262F306033B747B685B6DA8
:104040003A691A617B68DB78012B16D10023FB608B
:104050007B685B6D7A6802F5B9625A617B685B6D5B
:104060001B68FB60FB7B43F08003FB734FF08023F6
:10407000FB607B685B6DFA681A601C37BD465DF8B3
:10408000047B704780B485B000AF78607B689B7A12
:10409000002B1BD07B681B699B68FB603B7B03F09C
:1040A0000103DBB2002B11D07B6803F586731B681C
:1040B000BB603B7A6FF341033B723B7A6FF30003C3
:1040C0003B727B68D3F80C31BA681A601437BD466E
:1040D0005DF8047B704700BF80B584B000AF7860A6
:1040E000084611461A460346FB700B463B801346B2
:1040F000BB70FB785BB2002B0CDAFB7803F07F021D
:1041000013469B001344DB0003F58C737A68134459
:10411000FB600BE0FB7803F07F0213469B00134427
:10412000DB0003F55C737A681344FB60FB7803F0F3
:104130007F03DAB2FB681A70FB78DB09DBB21A4640
:10414000FB685A703A88FB689A60FB68BA78DA7044
:10415000FB685B78002B04D0FB681B789AB2FB6885
:10416000DA80BB78022B02D1FB6800221A717868D2
:10417000F968FFF7EFFB002318461037BD4680BDF6
:1041800080B586B000AFF8607A601A460B46FB72C5
:1041900013463B81FB7A03F07F0213469B001344D6
:1041A000DB0003F55C73FA6813447B617B697A6812
:1041B000DA603A897B695A617B6900229A617B697E
:1041C00000225A70FB7A03F07F03DAB27B691A701F
:1041D000FB68DB78012B02D17A687B691A617B6905
:1041E0001B78002B04D1F8687969FFF761FD03E0C3
:1041F000F8687969FFF71CFC002318461837BD469C
:1042000080BD00BF80B586B000AFF8607A603B60CB
:104210000B46FB72FB7A03F07F0213469B001344AC
:10422000DB0003F58C73FA6813447B617B69012220
:104230005A70FB7A03F07F03DAB27B691A707B69EC
:104240007A68DA607A687B691A617B6900229A6110
:104250007B693A685A617B691B78002B04D1F86846
:104260007969FFF725FD03E0F8687969FFF7E0FB5E
:10427000002318461837BD4680BD00BF80B584B006
:1042800000AF78600B46FB70FB785BB2002B0CDA5A
:10429000FB7803F07F0213469B001344DB0003F519
:1042A0008C737A681344FB6009E0FA7813469B002C
:1042B0001344DB0003F55C737A681344FB60FB680E
:1042C00001229A70FB7803F07F03DAB2FB681A7060
:1042D000FB78DB09DBB21A46FB685A707868F9682C
:1042E000FFF7D0FD002318461037BD4680BD00BF44
:1042F00080B584B000AF78600B46FB70FB785BB292
:10430000002B0CDAFB7803F07F0213469B0013446A
:10431000DB0003F58C737A681344FB6009E0FA78DC
:1043200013469B001344DB0003F55C737A68134467
:10433000FB60FB6800229A70FB7803F07F03DAB21F
:10434000FB681A70FB78DB09DBB21A46FB685A700F
:104350007868F968FFF7DAFD002318461037BD4684
:1043600080BD00BF80B485B000AF78600B46FB70A5
:104370000023FB60FB7803F07F03DAB2BB8962F3B2
:104380000A13BB817B681B697A6812691168FA6835
:104390000A431A601437BD465DF8047B704700BFBE
:1043A00080B586B000AF786000237B617868FFF746
:1043B00047FA0346002B00F09C807868FFF752FA1A
:1043C00003463B613B69002B01D1002392E0BB7C9B
:1043D00003F00803DBB2002B06D0786800F012FA75
:1043E00002467B6913437B61BB7C03F00403DBB2B1
:1043F000002B06D0786800F00FF902467B69134362
:104400007B613B7C03F00203DBB2002B09D000236D
:10441000FB603B7B43F002033B737B68DB68FA681D
:104420005A61FB7C23F07F03DBB2002B06D0786857
:1044300000F064F802467B6913437B617B7C03F0E8
:104440000803DBB2002B06D0786800F097F802462C
:104450007B6913437B613B7C03F00803DBB2002BD9
:1044600006D0786800F08AFA02467B6913437B61C4
:104470003B7C03F01003DBB2002B06D0786800F021
:1044800097FA02467B6913437B617B7C03F0100340
:10449000DBB2002B06D0786800F07EFB02467B6919
:1044A00013437B617B7C03F02003DBB2002B06D03F
:1044B000786800F00DFC02467B6913437B61BB7C8E
:1044C00003F01003DBB2002B06D0786800F03CFC50
:1044D00002467B6913437B61BB7C03F02003DBB2A4
:1044E000002B06D0786800F049FC02467B69134334
:1044F0007B617B6918461837BD4680BD80B586B0A4
:1045000000AF78607B689B7A002B11D07B6803F545
:1045100086731B68FB603B7B6FF341033B733B7B04
:104520006FF300033B737B68D3F80C31FA681A60B1
:1045300000233B613B7C43F001033B747B681B69B8
:104540007A68126951683A69D2430A405A600A4B44
:104550001B689B697868984700237B61FB7D43F06B
:104560008003FB757B68DB687A695A610123184612
:104570001837BD4680BD00BF5400002080B586B00E
:1045800000AF7860224B1B685B69786898477B684E
:104590001B699B68FB6000237B617B7D43F0080304
:1045A0007B757B68DB687A695A617B689B7A002B34
:1045B00029D03B7B03F00103DBB2002B23D0002387
:1045C0003B613B7C43F001033B747B68D3F80C31C7
:1045D0007A68D2F80C2111683A690A431A603B7C68
:1045E00043F002033B747B68D3F80C317A68D2F84D
:1045F0000C2111683A690A431A60064A054B1B6987
:1046000043F006031361012318461837BD4680BDE9
:104610005400002000ED00E080B586B000AF786067
:1046200000233B610023BB607868FFF7DDFC786105
:10463000DCE07B6903F00103002B00F0D1803B69D3
:10464000DBB27868194600F0B3FB0346BB603B7AE7
:1046500003F00103DBB2002B32D03B69012202FAE6
:1046600003F3FB607B681B697A681269516BFA6817
:10467000D2430A405A630023BB603B7A43F00103F4
:104680003B727A683B6904339B0013449B68BA68A9
:104690009A605B4B1B685B683A69D2B278681146D6
:1046A00098477B68DB78012B0AD13B69002B07D147
:1046B0007B6893F81131042B02D17868FFF7AAFCCC
:1046C0003B7A03F00403DBB2002B0DD00023BB6068
:1046D0003B7A43F004033B727A683B6904339B00E6
:1046E00013449B68BA689A603B7A03F00803DBB214
:1046F000002B0DD00023BB603B7A43F008033B72D4
:104700007A683B6904339B0013449B68BA689A60DB
:104710003B7A03F01003DBB2002B0DD00023BB600B
:104720003B7A43F010033B727A683B6904339B0089
:1047300013449B68BA689A603B7A03F02003DBB2AB
:10474000002B0DD00023BB603B7A43F020033B726B
:104750007A683B6904339B0013449B68BA689A608B
:104760003B7A03F04003DBB2002B0DD00023BB608B
:104770003B7A43F040033B727A683B6904339B0009
:1047800013449B68BA689A603B7A03F00203DBB279
:10479000002B0DD00023BB603B7A43F002033B7239
:1047A0007A683B6904339B0013449B68BA689A603B
:1047B0003B7A23F07F03DBB2002B11D07868396994
:1047C00000F078F90023BB603B7A43F080033B7232
:1047D0007A683B6904339B0013449B68BA689A600B
:1047E0003B6901333B617B695B087B617B69002B23
:1047F0007FF41FAF012318461837BD4680BD00BFA8
:104800005400002080B586B000AF786000233B6183
:104810000023FB607868FFF7B5FB7861A3E07B6954
:1048200003F00103002B00F098803B69DBB278684D
:104830001946FFF7BDFB0346FB603B7B03F001031A
:10484000DBB2002B48D00023FB603B7B43F001032D
:104850003B737A683B6914339B0013445B68FA68C6
:104860009A607B68DB78012B1FD17A683B6914332F
:104870009B0013445B681B69BB6079683A69134607
:104880009B001344DB000B4403F55E731B68BA689E
:10489000C2F31202991A78683A6913469B001344CE
:1048A000DB00034403F562731960334B1B681B681C
:1048B0003A69D2B27868114698477B68DB78012B59
:1048C0000AD13B69002B07D17B6893F81131052B86
:1048D00002D17868FFF79EFB3B7B03F00203DBB25B
:1048E000002B0DD00023FB603B7B43F002033B73A6
:1048F0007A683B6914339B0013445B68FA689A60DA
:104900003B7B03F00403DBB2002B0DD00023FB60E4
:104910003B7B43F004033B737A683B6914339B0091
:1049200013445B68FA689A603B7B03F00803DBB2D0
:10493000002B12D0104B1B689B68786898470023A7
:10494000FB603B7B43F008033B737A683B6914339D
:104950009B0013445B68FA689A603B6901333B61D2
:104960007B695B087B617B69002B7FF458AF012377
:1049700018461837BD4680BD5400002080B584B06D
:1049800000AF7860094B1B68DB68786898470023A4
:10499000FB603B7B43F008033B737B68DB68FA6892
:1049A0005A61012318461037BD4680BD54000020CF
:1049B00080B586B000AF786000233B613B7C43F05C
:1049C00010033B747B68DB687A68D26891693A6946
:1049D000D2430A409A617B68DB681B6AFB603B7BC1
:1049E000C3F30303DBB21A4613469B001344DB00F8
:1049F00003F55C737A6813447B61BB7BC3F34303A9
:104A0000DBB2013B052B47D801A252F823F000BFCF
:104A1000994A0008294A0008994A0008994A00085A
:104A2000994A0008754A0008BA8947F6F07313409E
:104A30009BB2002B1DD07B69DA68BB89C3F30A13D4
:104A40009BB2786811461A46FEF780FE7B69DB68E8
:104A5000BA89C2F30A1292B21A447B69DA607B699E
:104A60009B69BA89C2F30A1292B21A447B699A61AD
:104A700013E012E07B6803F5B963786819460822F1
:104A8000FEF764FE7B699B69BA89C2F30A1292B28F
:104A90001A447B699A6100E000BF7B68DB687A6832
:104AA000D26891693A690A439A6101231846183716
:104AB000BD4680BD80B586B000AF78603960002308
:104AC0007B610023BB603A6813469B001344DB0004
:104AD00003F58C737A681344FB60FB685A69FB68C2
:104AE0009B69D31A7B61FB689A687B699A4202D200
:104AF000FB689B687B617B6903339B083B617A6839
:104B00003B6804339B0013449B689B69BB602EE0A9
:104B1000FB685A69FB689B69D31A7B61FB689A68DA
:104B20007B699A4202D2FB689B687B617B69033395
:104B30009B083B61FB68D9683B68DAB27B699BB232
:104B40007868FEF7C7FDFB68DA687B691A44FB6882
:104B5000DA60FB689A697B691A44FB689A617A6833
:104B60003B6804339B0013449B689B69BB603B8993
:104B70001A463B699A4209D9FB689A69FB685B69E6
:104B80009A4203D2FB685B69002BC1D1012318460E
:104B90001837BD4680BD00BF80B58AB000AF7860D1
:104BA00000233B6100233B620023FB610023BB61C8
:104BB00000237B610023FB603B7C43F001033B74DB
:104BC0007B681B697A68126951683A69D2430A4066
:104BD0005A6078680021FEF7E5FD00237B6212E051
:104BE0007A687B6A04339B0013449B68FF229A60B7
:104BF0007A687B6A14339B0013445B68FF229A60D7
:104C00007B6A01337B627B685B781A467B6A9A42D7
:104C1000E6D87B681B694FF0FF329A6101233B8421
:104C200001237B847B681B693A6ADA613B7F43F02E
:104C300008033B773B7F43F001033B773B7F43F027
:104C400004033B773B7F43F002033B777B681B69A0
:104C5000FA695A613B7E43F001033B763B7E43F0A9
:104C600008033B763B7E43F002033B763B7E43F0FA
:104C700004033B763B7E43F020033B767B681B6955
:104C8000BA691A617B681B691B687B61BB8A6FF319
:104C90000A13BB827B681B697A691A607868FFF720
:104CA000B9F90023FB607B7B43F010037B737B68C7
:104CB000DB68FA685A61054B1B681B69786898477E
:104CC000012318462837BD4680BD00BF5400002090
:104CD00080B584B000AF78607868FEF7FFFD7B6830
:104CE000DB68DB68BB607868FEF7D4FD0346032B06
:104CF0000CD17B6800229A707B684FF400729A8016
:104D00007B7A092262F385037B720AE07B680122C9
:104D10009A707B6840229A807B7A052262F3850331
:104D20007B727B68DB68BA68DA600023FB607B7BA0
:104D300043F020037B737B68DB68FA685A610123C8
:104D400018461037BD4680BD80B584B000AF78608E
:104D50000023FB60084B1B68DB6978689847BB7BC6
:104D600043F01003BB737B68DB68FA685A61012368
:104D700018461037BD4680BD5400002080B584B071
:104D800000AF78600023FB60084B1B681B6A7868E3
:104D90009847BB7B43F02003BB737B68DB68FA68F2
:104DA0005A61012318461037BD4680BD54000020CB
:104DB00080B487B000AF78600B46FB707B681B69DE
:104DC0001B697B617B681B695B6B3B61FB783A69A4
:104DD00022FA03F3DB01DBB27A6913437B61FB78D0
:104DE0007A6804339B0013449B689A687B6913407C
:104DF000FB60FB6818461C37BD465DF8047B7047B6
:104E000080B584B000AF786007F108037868194670
:104E100000F00AFE3B7A03F01F03012B0AD0022B9D
:104E20000FD0002B14D107F108037868194600F061
:104E300025FA16E007F108037868194600F06EFAC3
:104E40000FE007F108037868194600F09BFA08E0C4
:104E50003B7A23F07F03DBB278681946FFF70EFA3E
:104E600000BF002318461037BD4680BD80B584B012
:104E700000AF78600B46FB70FB78002B44D17B6859
:104E800003F55C73FB607B6893F81131032B4ED103
:104E9000FB68DA69FB689B689A4220D9FB68DA698B
:104EA000FB689B68D21AFB68DA617B68DB78012BB0
:104EB00006D1FB68DA68FB689B681A44FB68DA6015
:104EC000FB68D968FB68DA69FB689B68934228BF76
:104ED00013469BB278681A4600F08CF927E07B688D
:104EE000D3F8E0351B69002B0AD07B6893F81231A8
:104EF000032B05D17B68D3F8E0351B6978689847A8
:104F0000786800F08BF912E07B68D3F8E0359B6994
:104F1000002B0CD07B6893F81231032B07D17B68F0
:104F2000D3F8E0359B69FA787868114698470023F2
:104F300018461037BD4680BD80B584B000AF78609C
:104F40000B46FB70FB78002B60D17B6803F58C73FC
:104F5000FB607B6893F81131022B6AD1FB68DA6938
:104F6000FB689B689A421CD9FB68DA69FB689B68FE
:104F7000D21AFB68DA617B68DB78012B06D1FB680B
:104F8000DA68FB689B681A44FB68DA60FB68DA68D9
:104F9000FB68DB699BB2786811461A4600F016F987
:104FA00047E0FB681B6AFA689268B3FBF2F102FB08
:104FB00001F29B1A002B14D1FB681A6AFB689B68EC
:104FC0009A420ED3FB681A6AFB685B6A9A4208D25F
:104FD00078680021002200F0F9F8FB6800225A628C
:104FE00027E07B68D3F8E035DB68002B0AD07B68CC
:104FF00093F81231032B05D17B68D3F8E035DB68D9
:1050000078689847786800F021F912E07B68D3F857
:10501000E0355B69002B0CD07B6893F81231032BD1
:1050200007D17B68D3F8E0355B69FA787868114678
:105030009847002318461037BD4680BD80B582B022
:1050400000AF78607868002140220023FFF744F821
:105050007868802140220023FFF73EF87B68012218
:1050600083F812217B68D3F8E4355B687A6892781C
:1050700010469847002318460837BD4680BD00BF3C
:1050800080B582B000AF78607B68D3F8E4351B69E7
:1050900098477B68032283F81221002318460837BB
:1050A000BD4680BD80B582B000AF78607B680422C9
:1050B00083F812217B68D3F8E435DB689847002336
:1050C00018460837BD4680BD80B582B000AF786015
:1050D0007B68D3F8E035DB69002B05D07B68D3F81B
:1050E000E035DB6978689847002318460837BD46E5
:1050F00080BD00BF80B582B000AF78600B46FB700A
:105100007B68D3F8E0351B68FA78786811469847D1
:105110007B68D3F8E4359B68984700231846083726
:10512000BD4680BD80B582B000AF78600B46FB7095
:105130007B68D3F8E0355B68FA7878681146984761
:10514000002318460837BD4680BD00BF80B582B039
:1051500000AF78607B68D3F8E0351B6A78689847C1
:10516000002318460837BD4680BD00BF80B582B019
:1051700000AF78607B68D3F8E0355B6A7868984761
:10518000002318460837BD4680BD00BF80B586B0F5
:1051900000AFF860B9601346FB800023FB75FA8806
:1051A000FB68C3F83821FA88FB68C3F83421FB6830
:1051B000022283F81121FB88F8680021BA68FFF702
:1051C00021F8FB7D18461837BD4680BD80B586B0F6
:1051D00000AFF860B9601346FB800023FB75FB88C5
:1051E000F8680021BA68FFF70DF8FB7D18461837FC
:1051F000BD4680BD80B586B000AFF860B96013468B
:10520000FB800023FB75FB88F8680021BA68FEF775
:10521000B7FFFB7D18461837BD4680BD80B584B00A
:1052200000AF78600023FB737B68042283F81121B0
:105230007868002100220023FEF7E4FF7868FEF77B
:10524000E9FEFB7B18461037BD4680BD80B584B0B3
:1052500000AF78600023FB737B68052283F811217F
:105260007868002100220023FEF78AFF7868FEF7A5
:10527000D1FEFB7B18461037BD4680BD80B584B09B
:1052800000AF786039600023FB733B685B78092BC3
:1052900039D801A252F823F0E9520008FD52000863
:1052A00007530008F352000807530008CB520008C8
:1052B000C152000807530008DF520008D552000809
:1052C0007868396800F036F922E07868396800F0CB
:1052D0000DFA1DE07868396800F046FA18E0786841
:1052E000396800F0BBFA13E07868396800F0E6FA34
:1052F0000EE07868396800F009FB09E078683968E1
:1053000000F06AFB04E07868396800F0D5FB00BF64
:10531000FB7B18461037BD4680BD00BF80B584B00A
:1053200000AF786039600023FB737B6893F812311B
:10533000032B1CD13B689B88DBB2012B11D87B6807
:10534000D3F8E0359B687868396898473B68DB8814
:10535000002B0BD1FB7B002B08D17868FFF75EFF99
:105360000AE07868396800F0A7FB05E004E0786897
:10537000396800F0A1FB00BFFB7B18461037BD4623
:1053800080BD00BF80B584B000AF78603960002375
:10539000FB733B689B88BB733B685B78012B39D000
:1053A000032B02D0002B6BD0BCE07B6893F812314A
:1053B000022B02D0032B0DD026E0BB7B002B08D0A4
:1053C000BB7B802B05D0BB7B78681946FEF756FF68
:1053D0001FE01EE03B685B88002B0AD1BB7B002BE3
:1053E00007D0BB7B802B04D0BB7B78681946FEF7C7
:1053F00045FF7B68D3F8E0359B6878683968984743
:105400007868FFF70BFF04E07868396800F054FB18
:1054100000BF87E07B6893F81231022B02D0032B88
:105420000DD027E0BB7B002B08D0BB7B802B05D0A9
:10543000BB7B78681946FEF721FF20E01FE03B6840
:105440005B88002B15D1BB7B002B0ED0BB7B802B48
:105450000BD0BB7B78681946FEF74AFF7B68D3F810
:10546000E0359B687868396898477868FFF7D6FE1A
:1054700005E004E07868396800F01EFB00BF51E0E9
:105480007B6893F81231022B02D0032B0DD043E03E
:10549000BB7B002B08D0BB7B802B05D0BB7B786807
:1054A0001946FEF7EBFE3CE03BE0BB7B5BB2002B1A
:1054B00015DABB7B03F07F02796813469B00134427
:1054C000DB000B4403F58C739B78002B03D0184B47
:1054D00001221A601AE0164B00221A6016E0BB7B0C
:1054E0005BB2002B12DBBA7B796813469B00134436
:1054F000DB000B4403F55C739B78002B03D00C4B53
:1055000001221A6002E00A4B00221A6078680849FA
:105510000222FFF73BFE04E07868396800F0CCFA1D
:1055200000BF00BFFB7B18461037BD4680BD00BFE3
:105530006409002080B584B000AF786039603B68B2
:105540005B881B0A9BB2013B062B00F2B18001A2D3
:1055500052F823F071550008A3550008CD550008F6
:10556000B1560008B15600089D560008A75600081D
:105570007B68D3F8E8351B687A68917807F10A02EE
:10558000084611469847F8603B68DB88402B04D0FA
:105590007B6893F81231012B02D108237B818CE0C8
:1055A0008BE07B68D3F8E0359B6A7A68917807F1E5
:1055B0000A02084611469847F860FB680133022248
:1055C0001A707B68FA68C3F8EC2576E03B685B8864
:1055D000DBB2052B5CD801A252F823F0F555000888
:1055E0000F56000829560008435600085D5600086B
:1055F000775600087B68D3F8E8355B687A6891785D
:1056000007F10A02084611469847F86045E07B68B2
:10561000D3F8E8359B687A68917807F10A02084662
:1056200011469847F86038E07B68D3F8E835DB68C6
:105630007A68917807F10A02084611469847F8609F
:105640002BE07B68D3F8E8351B697A68917807F11D
:105650000A02084611469847F8601EE07B68D3F8B6
:10566000E8355B697A68917807F10A0208461146C5
:105670009847F86011E07B68D3F8E8359B697A6851
:10568000917807F10A02084611469847F86004E04D
:105690007868396800F010FA24E00EE0786839681C
:1056A00000F00AFA1EE07868396800F005FA19E09F
:1056B0007868396800F000FA14E07B89002B11D07B
:1056C0003B68DB88002B0DD03B68DA887B899342EE
:1056D00028BF13469BB27B817B897868F9681A469C
:1056E000FFF754FD1037BD4680BD00BF80B584B0C4
:1056F00000AF786039603B689B88002B2DD13B68F8
:10570000DB88002B29D13B685B88DBB203F07F0389
:10571000FB737B6893F81231032B04D178683968E6
:1057200000F0CAF918E07B68FA7B83F81321FB7B51
:1057300078681946FEF716FE7868FFF76FFDFB7B69
:10574000002B04D07B68022283F8122104E07B68DE
:10575000012283F8122104E003E07868396800F040
:10576000ABF91037BD4680BD80B582B000AF786020
:1057700039603B685B88DAB2374B1A70364B1B785E
:10578000012B04D97868396800F096F960E07B68ED
:1057900093F81231022B02D0032B1BD053E02E4B77
:1057A0001B78002B12D02C4B1A787B6883F81021C1
:1057B0007B68032283F81221274B1B7878681946EF
:1057C000FFF798FC7868FFF729FD41E07868FFF75C
:1057D00025FD3DE0204B1B78002B12D17B68022277
:1057E00083F812211C4B1A787B6883F810211A4B1E
:1057F0001B7878681946FFF795FC7868FFF70EFD6F
:1058000020E07B6893F81021134B1B789A4215D047
:105810007B6893F8103178681946FFF783FC0E4BCC
:105820001A787B6883F810210B4B1B78786819462F
:10583000FFF760FC7868FFF7F1FC03E07868FFF79A
:10584000EDFC05E004E07868396800F035F900BF48
:105850000837BD4680BD00BF7009002080B582B00A
:1058600000AF786039603B68DB88012B04D0786832
:10587000396800F021F91BE07B6893F81231022BA4
:1058800002D0032B06D00EE078680B490122FFF707
:105890007DFC0DE07B6803F588737868194601226A
:1058A000FFF774FC04E07868396800F005F900BF80
:1058B0000837BD4680BD00BF6809002080B582B0B2
:1058C00000AF786039607B6893F81231023B012B9E
:1058D00011D87B68D3F81431002B03D00A4B032274
:1058E0001A6002E0084B01221A607868064901221A
:1058F000FFF74CFC04E07868396800F0DDF800BF81
:105900000837BD4680BD00BF6C09002080B584B05B
:1059100000AF786039600023FB733B685B88012B24
:105920000ED17B680122C3F814217B68D3F8E035DF
:105930009B687868396898477868FFF76FFC48E09B
:105940003B685B88022B44D13B689B88DBB2002B11
:105950003FD17B681B695B68BB603B689B881B0A07
:105960009BB2FB73FB7B013B042B2BD801A252F8AB
:1059700023F000BF8959000895590008A159000873
:10598000AD590008B95900083B7A012262F30613A9
:105990003B7217E03B7A022262F306133B7211E07E
:1059A0003B7A032262F306133B720BE03B7A04223C
:1059B00062F306133B7205E03B7A052262F306139D
:1059C0003B7200BF7B681B69BA685A607868FFF752
:1059D00025FC1037BD4680BD80B582B000AF786031
:1059E00039607B6893F81231023B012B13D83B6876
:1059F0005B88012B0ED17B680022C3F814217B68E1
:105A0000D3F8E0359B687868396898477868FFF77D
:105A100005FC05E004E07868396800F04DF800BF47
:105A20000837BD4680BD00BF80B483B000AF78604A
:105A300039607B6893F8C8253B681A707B6893F8D7
:105A4000C9253B685A707B6893F8CA359AB27B685F
:105A500093F8CB359BB21B029BB213449AB23B68BE
:105A60005A807B6893F8CC359AB27B6893F8CD3531
:105A70009BB21B029BB213449AB23B689A807B682C
:105A800093F8CE359AB27B6893F8CF359BB21B0260
:105A90009BB213449AB23B68DA803B68DB881A46B3
:105AA0007B68C3F83C217B68012283F811210C3705
:105AB000BD465DF8047B704780B582B000AF78606A
:105AC00039603B681B78DBB25BB2002B04DA786884
:105AD0008021FEF7D3FB0CE03B68DB88002B04D170
