:020000040800F2
:100000000000022089010008CD100008D910000866
:10001000E9100008F91000080911000800000000AC
:10002000000000000000000000000000191100089E
:1000300029110008000000003911000849110008CA
:100040001502000815020008150200081502000834
:100050001502000815020008150200081502000824
:100060001502000815020008150200081502000814
:100070001502000815020008150200081502000804
:1000800015020008150200081502000815020008F4
:1000900015020008150200081502000815020008E4
:1000A00015020008150200081502000815020008D4
:1000B00015020008150200081502000815020008C4
:1000C00015020008150200081502000815020008B4
:1000D00015020008150200087D110008150200082D
:1000E0005D11000815020008111300081502000830
:1000F00091110008150200081502000815020008F9
:10010000150200089D1100081502000815020008DC
:100110001502000815020008150200081502000863
:100120001502000815020008B51100083512000874
:100130001502000815020008150200081502000843
:10014000150200081502000815020008F512000843
:1001500015020008A9110008150200081502000880
:100160001502000815020008150200081502000813
:100170001502000815020008150200081502000803
:10018000150200081502000880B584B000AF0D4BC1
:10019000BB600D4B7B60BB683B6004E03B681A1D95
:1001A0003A6000221A607A683B689A42F6D80CF0EE
:1001B000E7FE01F061F9F8600CF018FFF8680AF04A
:1001C00037FC00BFF0090020B4C4012080B584B022
:1001D00000AF0D4BFB600D4BBB600D4B7B60BB68F4
:1001E0003B6007E03B681A1D3A60FA68111DF96030
:1001F00012681A607A683B689A42F3D80CF014FFD0
:100200001037BD4680BD00BF1C73010800000020F0
:10021000EC09002080B400AFFEE700BF80B400AF5F
:10022000FEE700BF80B400AFFEE700BF80B400AFC0
:10023000FEE700BF80B400AFFEE700BF80B400AFB0
:10024000FEE700BF80B400AFFEE700BF80B400AFA0
:10025000FEE700BF80B400AFFEE700BF80B400AF90
:04026000FEE700BFF6
:08026400CD010008712801081A
:1002700080B483B000AF0346FB71084997F907309B
:100280005B09FA7902F01F02012000FA02F241F83C
:1002900023200C37BD465DF8047B704700E100E089
:1002A00080B588B006AF694800214FF4C8320FF01E
:1002B00027FC00237B600AE0654B3B603A687B6863
:1002C00013447A68D2B21A707B6801337B607B6812
:1002D00041F207329342EFD95E48012103F01EF844
:1002E0005D48012103F01AF83B20FFF7C1FF3A20D7
:1002F000FFF7BEFF3A200021012202F0EDFC3B2077
:100300000021002202F0E8FC022300930323019362
:1003100005230293514802210022062300F090FB9E
:100320000223009303230193052302934B480221E8
:100330000022072300F084FB022300930323019390
:1003400005230293454802210022052300F078FB93
:10035000002300930323019340480021002204233B
:1003600000F048FB02230093032301933C48012142
:100370000022042300F03EFB394A394B5B6923F02D
:100380001003536100230093032301933448002199
:100390000022052300F02EFB00230093032301938A
:1003A000304800210022002300F024FB00230093AA
:1003B000032301932B4800210022012300F01AFBA4
:1003C00000230093032301932748002100220723E1
:1003D00000F010FB00230093002301934FF40073FF
:1003E00002931823039300230493072305931F48C4
:1003F00000210022002305F03FFA1D4B0022DA62A3
:100400001B4B03221A631A4B00225A63184B00221B
:100410001A62174B4FF480629A61154B00225A62A0
:10042000134B144A5A60124B00229A63104B00225D
:10043000DA610F4B00221A620D4B00225A610C4BFD
:100440004FF400329A620837BD4680BD1C2500205B
:10045000F00A00204064024058640240000002405C
:100460000008024000040240001002400030014039
:10047000F01E00200C30014080B483B000AF034672
:100480003960FB7197F90730002B0BDA0D49FB79C6
:1004900003F00F03043B3A68D2B21201D2B20B440C
:1004A0001A7609E0084997F907303A68D2B2120182
:1004B000D2B20B4483F800230C37BD465DF8047BB1
:1004C000704700BF00ED00E000E100E080B582B0C1
:1004D00000AF78607B68013BB3F1807F01D30123DB
:1004E0000FE00A4A7B68013B53604FF0FF300F2159
:1004F000FFF7C2FF054B00229A60044B07221A60E7
:10050000002318460837BD4680BD00BF10E000E05C
:1005100080B485B000AF78600F4B1B68FB600E4B5A
:100520001A687B689A420AD97B68FA68D31AFB601A
:1005300000BF094B1A68FB689A42FAD807E07B684B
:10054000054A136000BF044B1B68002BFBD1143716
:10055000BD465DF8047B7047F009002080B500AF10
:10056000044B1B68044AA2FB03239B091846FFF7B0
:10057000ADFF80BD38010020D34D621080B500AFC3
:10058000204BD3E90023013243F100031D49C1E9A7
:1005900000231D4B1B68002B04D01B4B1B68013B29
:1005A000194A1360174BD3E90023104619464FF43C
:1005B0007A724FF000030EF051FC134304D102F0A5
:1005C0008BFF032000F03CFF0E4BD3E900231046C5
:1005D00019464FF064024FF000030EF03FFC134346
:1005E0000ED10A4B1B78DBB2002B09D0074B1B78CE
:1005F000DBB2013BDAB2054B1A70054B01221A70CF
:1006000080BD00BFF8090020F009002054BB012084
:10061000C4B5012080B400AF044BD3E900231346D6
:100620001846BD465DF8047B704700BFF8090020FE
:1006300080B483B000AF786039603A687B68D31AC1
:1006400018460C37BD465DF8047B704780B582B014
:1006500000AF7860064BD3E900231346786819464B
:10066000FFF7E6FF034618460837BD4680BD00BFCA
:10067000F809002080B594B000AFF860B9607A60E6
:100680003B60F8680CF0E8FDF868012102F046FED6
:10069000FB6D7B62BB6F3B64FB6F7B64D7F8803084
:1006A000BB64FB6E7B637B6EFB623B6FBB637B68F3
:1006B000BB61D7F88430FB64BB6E3B63FB6E7B632E
:1006C0003B6EBB627B6FFB63BB687B61BB6D3B6258
:1006D0003B68FB6107F11403F86819460CF08EFEC5
:1006E0005037BD4680BD00BF80B584B000AFF86014
:1006F000B9601346FB80FB88F868B9681A46012385
:1007000000F016F81037BD4680BD00BF80B584B03C
:1007100000AFF860B9601346FB80FB88F868B968E1
:100720001A46002300F004F81037BD4680BD00BF14
:1007300080B584B000AFF860B96011461A460B4628
:10074000FB8013467B717B79F86819460CF0ACFE90
:10075000FA887B79B86811461A460EF05DF81037B2
:10076000BD4680BD80B584B004AF1D48012102F0B4
:10077000CFFB002300930323019303230293184824
:1007800002210022062300F05BF91548012102F046
:10079000BFFB00230093032301930323029310481C
:1007A00002210022072300F04BF90E48012102F03C
:1007B000ADFC0C480121022202230EF0DFF90948AA
:1007C00001210EF03DF907484FF6FF710EF01EF9BA
:1007D000044801210EF054F900F048F8BD4680BDF0
:1007E000000802400004014080B584B004AF1D48F9
:1007F000012102F08DFB00230093032301930223C8
:100800000293184802210022002300F019F915482C
:10081000012102F07DFB00230093032301930223B7
:100820000293104802210022012300F009F90E482A
:10083000012102F06BFC0C480121022202230EF080
:100840009DF9094801210EF0FBF807484FF6FF71AA
:100850000EF0DCF8044801210EF012F900F026F841
:10086000BD4680BD00000240000C004080B500AFD6
:1008700072B6094B00221A80084B00221A80084BDE
:1008800000221A80074B00221A80074800210EF030
:10089000AFF862B680BD00BF0A0A0020080A002037
:1008A000040A0020000A00200004014080B500AFC7
:1008B00072B6094B00221A80084B00221A80084B9E
:1008C00000221A80074B00221A80074800210EF0F0
:1008D0008FF862B680BD00BF0E0A00200C0A00200F
:1008E000060A0020020A0020000C004080B500AF7C
:1008F000174B1B889AB2174B1A8017480EF094F8C2
:1009000003469AB2124B1A80114B1B889BB29AB2C3
:10091000104B1B889BB29BB2D31A9BB29AB20F4B5F
:100920001A800E4B1B889BB29AB20D4B1B889BB250
:100930009BB213449BB29AB2094B1A80074B1B8897
:100940009BB2002B02D0012000F07AFD80BD00BFD9
:10095000080A00200A0A002000040140040A0020BE
:10096000000A002080B500AF1D4B1B889AB21D4BBA
:100970001A801D480EF058F803469AB2184B1A8098
:10098000174B1B889BB29AB2164B1B889BB29BB22B
:10099000D31A9BB29AB2154B1A80144B1B889BB288
:1009A0009AB2134B1B889BB29BB213449BB29AB270
:1009B0000F4B1A800D4B1B889BB2002B0FD00120D0
:1009C00000F03EFD094B1B889BB21BB2002B03DDE0
:1009D000012000F0EFFF02E0002000F0EBFF80BDFF
:1009E0000C0A00200E0A0020000C0040060A00201D
:1009F000020A002080B586B000AFF8607B600B462D
:100A0000FB721346BB72F868012102F081FAFB7A8F
:100A10003B75BB7ABB757B68012202FA03F33B612D
:100A200097F82030FB7597F824307B7507F1100399
:100A3000F86819460CF032FF1837BD4680BD00BF7C
:100A400080B586B002AFF8607B600B46FB72134640
:100A5000BB727B689BB203F00F039AB297F8203009
:100A6000F86811461A460CF0D1FFF97ABA7A3B7E43
:100A700000933B7F0193F8687B68FFF7BBFF10375B
:100A8000BD4680BD80B588B000AFF860B960114642
:100A90001A460B46FB711346BB71F868012102F040
:100AA00037FA4FF4804001210DF05AF9F86800F050
:100AB00065F803461A46BB68DBB203F00F03DBB2EE
:100AC000104619460DF0E8FEBB68012202FA03F356
:100AD0007B61BB793B76FB797B760123BB7607F1A3
:100AE000140318460CF040FEBB6803F00F030F2BF5
:100AF00037D801A252F823F0390B00083F0B000849
:100B0000450B00084B0B0008510B0008570B000861
:100B1000570B0008570B0008570B0008570B00082D
:100B20005D0B00085D0B00085D0B00085D0B000805
:100B30005D0B00085D0B00080623FB7711E007231F
:100B4000FB770EE00823FB770BE00923FB7708E037
:100B50000A23FB7705E01723FB7702E02823FB77C6
:100B600000BFF97F97F8282097F82C3008461146E7
:100B70001A4602F0B1F82037BD4680BD80B483B07C
:100B800000AF78607B68244A934201D100233CE0A7
:100B90007B68224A934201D1012336E07B68204AD8
:100BA000934201D1022330E07B681E4A934201D177
:100BB00003232AE07B681C4A934201D1042324E0EA
:100BC0007B681A4A934201D105231EE07B68184ACC
:100BD000934201D1062318E07B68164A934201D163
:100BE000072312E07B68144A934201D108230CE0EA
:100BF0007B68124A934201D1092306E07B68104AC0
:100C0000934201D10A2300E0002318460C37BD4669
:100C10005DF8047B704700BF000002400004024002
:100C200000080240000C0240001002400014024084
:100C300000180240001C0240002002400024024034
:100C40000028024090B589B004AF00F0BDF8002044
:100C500000F014FA06F05CF9002000F023FA0120FD
:100C600000F00CFA00F074FB012000F01BFA0220E7
:100C700000F004FA02F04AF8022000F013FA032010
:100C800000F0FCF9FFF76EFDFFF7AEFD032000F06A
:100C900009FA042000F0F2F9FFF760FC042000F0EC
:100CA00001FA052000F0EAF902F0B8FB052000F097
:100CB000F9F9062000F0E2F9FFF7F2FA062000F059
:100CC000F1F9072000F0DAF902F09EFB072000F0AE
:100CD000E9F9082000F0D2F902F084FC082000F0C5
:100CE000E1F9092000F0CAF904F000FE092000F043
:100CF000D9F90A2000F0C2F906F074F90A2000F0D0
:100D0000D1F90B2000F0BAF901F074FF0B2000F0CC
:100D1000C9F900F005FC002037217F22372305F0B8
:100D200093FC224BFB60224BBB60224B7B60B8687C
:100D30000FF094F80446F8680FF090F803461C444E
:100D400078680FF08BF803462344063318460EF0FC
:100D50009FFB03463B60184B00937B680193386808
:100D60001649BA68FB680EF0F5FF3B680093144A19
:100D700001AB92E8030083E8030000230393002003
:100D800000217F22352305F0E5FAC820FFF7C0FBDC
:100D900000F084F80B4B01221A700C2000F06EF961
:100DA0000C2000F07FF91437BD4690BDC0620108E9
:100DB000C8620108E86201080C63010800630108C9
:100DC000F45C0108C4B5012080B500AF00201A49C9
:100DD00000F04CF80120194900F048F802201849A9
:100DE00000F044F80320174900F040F804201649A9
:100DF00000F03CF80520154900F038F806201449A9
:100E000000F034F80720134900F030F808201249A8
:100E100000F02CF80920114900F028F80A201049A8
:100E200000F024F80B200F4900F020F80C200E49A8
:100E300000F01CF880BD00BF146301081C630108AA
:100E400024630108306301083C630108446301081E
:100E5000486301084C6301085063010854630108AA
:100E60005C630108606301086C63010880B483B0AF
:100E700000AF03463960FB71FB7906493A6841F8D7
:100E80002320FB79044A0021D1540C37BD465DF87C
:100E9000047B704730B5012020B5012090B585B0A6
:100EA00004AF002000217F22352305F041FE6E4B68
:100EB00000936E4A01AB92E8030083E8030000232D
:100EC0000393002000217F22352305F043FA684B6D
:100ED0001C68684B1A78684B01925A6800921B682C
:100EE00000201E21224605F069FB614B5C68614BC6
:100EF0005A78614B01925A6800921B6800201421B5
:100F0000224605F05BFB5A4B9C685A4B9A785A4B29
:100F100001925A6800921B6800200A21224605F0BF
:100F20004DFB534BDC68534BDA78534B01925A68B4
:100F300000921B6800200021224605F03FFB4C4B2D
:100F40001C694C4B1A794C4B01925A6800921B68F1
:100F500046201E21224605F031FB454B5C69454B7E
:100F60005A79454B01925A6800921B684620142119
:100F7000224605F023FB3E4B9C693E4B9A793E4B43
:100F800001925A6800921B6846200A21224605F009
:100F900015FB374BDC69374BDA79374B01925A68CE
:100FA00000921B6846200021224605F007FBC8205E
:100FB000FFF7AEFA002000217F22352305F0B8FDAF
:100FC000294B0093294A01AB92E8030083E8030010
:100FD00000230393002000217F22352305F0BAF976
:100FE000234B1C6A234B1A7A234B01925A680092B6
:100FF0001B6800201E21224605F0E0FA1C4B5C6AAB
:101000001C4B5A7A1C4B01925A6800921B680020B4
:101010001421224605F0D2FA154B9C6A154B9A7A98
:10102000154B01925A6800921B6800200A21224643
:1010300005F0C4FA0E4BDC6A0E4BDA7A0E4B0192C5
:101040005A6800921B6800200021224605F0B6FA7B
:10105000C820FFF75DFA002000217F22352305F02C
:1010600067FD0437BD4690BD80630108FC5C010844
:1010700030B5012020B50120F45C010880B582B0B4
:1010800000AF0346FB71FB79044A52F82330044851
:1010900019460EF087FD0837BD4680BD30B50120EA
:1010A0009063010880B582B000AF0346FB71FB7905
:1010B000044A0121D15404480EF0B6FD0837BD465C
:1010C00080BD00BF20B50120A463010880B400AF3B
:1010D000BD465DF8047B704780B500AF01480EF057
:1010E00061FDFEE7B063010880B500AF01480EF076
:1010F00059FDFEE7BC63010880B500AF01480EF062
:1011000051FDFEE7D863010880B500AF01480EF03D
:1011100049FDFEE7E463010880B500AF01480EF029
:1011200041FD80BDF463010880B500AF01480EF0B9
:1011300039FD80BD0464010880B500AF01480EF0A0
:1011400031FD80BD1464010880B500AFFFF716FAC9
:10115000FFF7CCFBFFF706FC80BD00BF80B500AFFA
:1011600001F054FE01F0A8FE01F066FE01F08EFED3
:1011700001F078FE01F0B6FE80BD00BF80B500AF83
:1011800002480EF051FD05F027FF80BD20640108E4
:1011900080B500AF04F07EFC80BD00BF80B500AF1D
:1011A00003F032FF80BD00BF80B500AF03F090FFB9
:1011B00080BD00BF80B500AF19481A490CF04EFA47
:1011C0000346012B0CD1164817490CF0DFF91448DF
:1011D00014490CF09BFA1248082100220CF004FA82
:1011E0000F4812490CF03AFA0346012B16D10C486D
:1011F0004FF081510CF0CAF909480C490CF086FAFD
:101200000748102100220CF0EFF9054800210CF0EE
:101210004BF90748012100220DF0FEFA80BD00BF06
:1012200040640240004010100000101000802010A8
:101230000030014080B500AF274828490CF00EFA75
:101240000346012B13D124484FF0A0510CF09EF916
:10125000214822490CF05AFA1F48082100220CF0BC
:10126000C3F91F4A1E4B5B6923F0100353611A48F0
:101270001C490CF0F3F90346012B2BD116484FF013
:10128000C0510CF083F9144816490CF03FFA12488B
:10129000102100220CF0A8F90F4800210CF004F9ED
:1012A0001148022100220DF0B7FA00BF0F4B1B6856
:1012B00003F00103002BF9D100BF074B1B6803F0BB
:1012C0000103002BF9D1084800210DF077FA084BF3
:1012D00000221A7080BD00BF586402400040001414
:1012E00000080240008000180030014040640240C5
:1012F0001CB5012080B500AF03480EF095FC0348F3
:1013000007F02CFA80BD00BF346401082C1F0020B8
:1013100080B500AF0B480EF087FC0B4B9B7A002B7F
:101320000AD00A4A094B1B6823F0060313600BF02E
:101330007BFE054806F0CCFF4FF480200CF0A0FAAD
:1013400080BD00BF486401082C1F002010ED00E0A4
:1013500080B582B002AF0023009303230193244899
:10136000012100220223FFF745FB2148042100222E
:101370000CF022FB00230093032301931C4801215E
:1013800000220323FFF736FB1948082100220CF046
:1013900013FB00230093032301931548012100222E
:1013A0000423FFF727FB1248102100220CF004FB56
:1013B00000230093032301930D48012100220523FC
:1013C000FFF718FB0A48202100220CF0F5FA002351
:1013D0000093032301930648012100220623FFF70F
:1013E00009FB0348402100220CF0E6FABD4680BD0F
:1013F0000010024080B582B000AF03460A46FB7180
:101400001346BB71FB790C4A52F82310FB790B4A47
:1014100052F823301A46012393409AB2BB79002B2D
:1014200014BF01230023DBB2084611461A460CF014
:10143000C3FA0837BD4680BD00000020140000201C
:1014400080B582B000AF0346FB71FB79084A52F8C1
:101450002310FB79074A52F823301A4601239340A0
:101460009BB2084619460CF0BFFA0837BD4680BD4E
:10147000000000201400002090B58BB002AFFFF7F1
:10148000E1FB0023FB61FB690133FB6104F080FB9E
:101490000346BB801F4B5B78FB751E4B1B781A46BF
:1014A000920013445B00DBB20933BB7507F10803FC
:1014B00018461949FA690EF04DFC7A79FB7DD31A6A
:1014C000D9B27B79BA7D002005F032FB7A79FB7DB9
:1014D000D31ADBB2013BD9B207F108040D4B5A68AD
:1014E00000921B680020224604F068FD0023BB61C7
:1014F00004E002F0C1F8BB690133BB61BB69072B93
:10150000F7DD0648F9690EF04DFB40F2DC50FEF7BE
:10151000FFFFB8E7F45C0108606401086864010833
:1015200080B586B000AF454B00221A60434B1B6864
:101530000133424A1360414B1B68414AD361404B1F
:1015400001221A763F4B00221A703D483E49002284
:1015500000F0CAF878613A483C49002200F0C4F82B
:10156000386137483A49002200F0BEF8F860344844
:101570003849002200F0B8F8B860314836490022F6
:1015800000F0B2F87860F8683449354A00F0ACF8F9
:10159000F8683449344A00F0A7F8F8683349344A07
:1015A00000F0A2F8F8683349334A00F09DF8386932
:1015B0003249334A00F098F838693249324A00F02B
:1015C00093F838693149324A00F08EF8B8683149E9
:1015D000314A00F089F8B8683049314A00F084F89F
:1015E000B8683049304A00F07FF878682F49304AAF
:1015F00000F07AF878682F492F4A00F075F878687B
:101600002E492F4A00F070F878692E492E4A00F0D2
:101610006BF878692D492E4A00F066F878692D49F3
:101620002D4A00F061F878692C492D4A00F05CF8E9
:101630002C4B034A1A601837BD4680BD8CB501207B
:1016400064B50120C4B501207C64010888640108E8
:101650008C64010894640108986401089C64010882
:10166000E9220008AC64010869270008BC6401088D
:10167000A5220008CC6401083D280008E0640108A8
:1016800081280008EC640108C5280008F8640108F6
:101690000929000808650108D52900081465010812
:1016A0004D290008206501089129000830650108CE
:1016B0005D2A00083C650108A12A00084865010868
:1016C000192A000858650108E52A0008686501081C
:1016D000292B0008786501086D2B00088865010832
:1016E000B12B000888B5012080B586B000AFF86046
:1016F000B9607A60012024210DF07CFE03467B61F5
:101700007B69002B1BD07B69FA685A607B69BA68D9
:101710005A617B697A681A62FB681B780133DAB216
:101720007B691A70084B1B680133074A1360064B2C
:101730001A687B69DA61F868796900F007F87B69F3
:1017400018461837BD4680BD8CB5012080B485B0E1
:1017500000AF786039603B687A685A607B689B6844
:10176000002B06D17B683A689A603B6801221A76A2
:1017700010E07B689B68FB6002E0FB681B69FB6014
:10178000FB681B69002BF8D1FB683A681A613B685B
:10179000FA68DA601437BD465DF8047B704700BF15
:1017A000F0B593B004AF78607B689B68002B00F0C5
:1017B000D58000233B7635237B767F233B75002342
:1017C0007B756B4A07F1080392E8030083E8030086
:1017D0003B7A0133162202FB03F3FB617A7E7B7AAC
:1017E000B2FBF3F3DBB27B637B7A01337A6B02FBF0
:1017F00003F3013B7A7E934202D87B6B01337B6318
:101800007B689B683B630023FB620023BB62002371
:101810007B6228E0FB6A0133FB623B6B1B7E012B82
:1018200008D1BB6A002B03D03B6B00221A7601E083
:10183000FB6ABB62FA6A7B6B9A4211D83B6B5B69AD
:1018400018460EF00BFB02467B6A9A4206D33B6BAE
:101850005B6918460EF002FB034600E07B6A7B6280
:101860003B6B1B693B633B6B002BD3D13B7A013352
:101870001A467B6A02FB03F37B627A6AFB69934236
:1018800038BF13467B62002035217F22002305F0FC
:101890004FF97B689B683B623B7E3B747B7E023BDF
:1018A000DBB27B7453E07B7C1A467B7D19467B7AE6
:1018B0000B44013B9A4247DB3B6A1B7E002B28D03E
:1018C000387C7B7C0233D9B23A7C7B6ADBB213442E
:1018D000DCB27A7C7B7AD31ADBB20133DBB22246EC
:1018E00005F00AF97A7C7B7AD31ADEB23D7E3A7D26
:1018F0003B6A5C69EE4607F1080393E803008EE853
:1019000003000023029330462946234604F0B8FC26
:1019100013E07A7C7B7AD31ADEB23D7E3A7D3B6A55
:101920005C69EE4607F1080393E803008EE80300C4
:1019300030462946234604F067FB7A7C7B7AD31A2B
:10194000DBB2023BDBB27B743B6A1B693B623B6AE6
:10195000002BA8D1074B01221A7006E07B681B6A96
:10196000002B02D07B681B6A98473C37BD46F0BD10
:10197000F45C0108C4B5012080B500AF0A4B1B78A8
:10198000002B0FD0094B5B7A002B0BD0074B1B7B36
:10199000002B07D0064B1B681846FFF701FF024BD0
:1019A00000221A7080BD00BFC4B5012020B50120FF
:1019B00088B5012080B586B000AF0346FB71854B2A
:1019C0001B681846FEF742FE0346322B40F2F980B0
:1019D000FB79002B33D1804B1B689B68002B18D000
:1019E0007D4B1B689B687B6102E07B691B697B61A7
:1019F0007B691B7E002BF8D07B69DB68002B07D04E
:101A00007B6900221A767B69DB6801221A760FE077
:101A10000EE0714B1B681B6A002B09D06E4B1B68D4
:101A20001B6A6E4A934203D1FB79184600F0E4F832
:101A30006B480EF0F9F86B4B01221A70C1E0FB798C
:101A4000012B33D1644B1B689B68002B18D0624B71
:101A50001B689B683B6102E03B691B693B613B691A
:101A60001B7E002BF8D03B691B69002B07D03B691C
:101A700000221A763B691B6901221A760FE00EE0FC
:101A8000554B1B681B6A002B09D0534B1B681B6A04
:101A9000524A934203D1FB79184600F0ADF8524800
:101AA0000EF0C2F84F4B01221A708AE0FB79022B2C
:101AB00054D1494B1B68FB60FB68002B1FD0FB68AF
:101AC0001B6A002B1BD102E0FB68DB68FB60FB6834
:101AD000DB68002BF8D102E0FB681B69FB60FB6848
:101AE0001B7E002BF8D0FB685B68002B03D0FB68E3
:101AF0005B68394A13603B4B01221A702AE0364B6F
:101B00001B681B6A002B25D0334B1B681B6A334AAA
:101B1000934204D1FB79184600F06EF81AE002E017
:101B2000FB68DB68FB60FB68DB68002BF8D102E038
:101B3000FB681B69FB60FB681B7E002BF8D0FB6811
:101B40005B68002B03D0FB685B68234A1360254B5E
:101B500001221A7025480EF067F832E0FB79032B5A
:101B60002FD11D4B1B689B68BB60BB68002B16D038
:101B700002E0BB681B69BB60BB681B7E002BF8D012
:101B8000154ABB681360BB681B6A144A934202D1B2
:101B9000174B01221A70134B01221A700EE00E4BE4
:101BA0001B681B6A002B09D00B4B1B681B6A0B4A76
:101BB000934203D1FB79184600F01EF80D480EF051
:101BC00033F8FEF727FD0246024B1A601837BD4670
:101BD00080BD00BF100A002088B5012069270008D9
:101BE0006C660108C4B501207C6601089066010896
:101BF000C5B50120A466010880B485B000AF0346D6
:101C0000FB713A4B1B68FB60FB79002B1AD1FB6818
:101C10009B68002B61D0FB689B68FB6002E0FB685F
:101C20001B69FB60FB681B7E002BF8D0FB68DB6840
:101C3000002B52D0FB68DB6801221A76FB68002279
:101C40001A764AE0FB79012B1AD1FB689B68002BBE
:101C500043D0FB689B68FB6002E0FB681B69FB608C
:101C6000FB681B7E002BF8D0FB681B69002B34D06F
:101C7000FB681B6901221A76FB6800221A762CE0A9
:101C8000FB79022B13D1FB685B68002B04D0FB6847
:101C90005B68164A136020E0154B1B685B68002BDD
:101CA0001BD0134B1B685B68114A136015E0FB796E
:101CB000032B12D1FB689B68002B0ED0FB689B683E
:101CC000FB6002E0FB681B69FB60FB681B7E002B6E
:101CD000F8D1FB685B68054A1360064B01221A7055
:101CE0001437BD465DF8047B704700BFBCB50120CA
:101CF00088B50120C4B5012080B586B000AFF8607A
:101D0000B9607A60FB7001202C210DF073FB034653
:101D10007B617B69002B48D07B69BA685A617B691B
:101D20007A685A6297F8203003F01003002B01D034
:101D3000442200E02D227B6983F8202097F8203090
:101D400003F00103002B01D0522200E02D227B6919
:101D500083F8212097F8203003F00403002B01D0F2
:101D6000532200E02D227B6983F8222097F820304F
:101D700003F00203002B01D0482200E02D227B69F2
:101D800083F82320FB681B780133DAB27B691A7071
:101D9000084B1B680133074A1360064B1A687B69BE
:101DA000DA61F868796900F079F97B6918461837C3
:101DB000BD4680BDC0B5012082B0F0B591B002AF84
:101DC000F8603981BA807B65397A7A7A3C797B7997
:101DD00007F114000093234603F00CFF7B7D1A46A5
:101DE0007B7ED31A97F8552013440133FB6197F893
:101DF000553001331A46FB69B3FBF2F3FB61FB6814
:101E00007B6301233B637B7D023BDBB27B757B6B9A
:101E10009B68002B65D07B6B9B687B6305E07B6BCD
:101E20001B697B633B6B01333B637B6B002B03D0F4
:101E30007B6B1B7E002BF2D03B6BFB6205E07B6B68
:101E40001B697B63FB6A0133FB627B6B1B69002BA5
:101E5000F5D1FB689B687B633B6BBB62BA6AFB692D
:101E60009A4202D80123BB6204E0BA6AFB69D31A22
:101E70000133BB6201237B6209E07B6B1B69002B92
:101E800002D07B6B1B697B637B6A01337B627A6A5E
:101E9000BB6A9A42F1D300233B621AE07D7D3A7D12
:101EA000BC7D6E4607F1540393E8030086E8030007
:101EB000786B2946234600F01BF803467B757B6B45
:101EC0001B69002B02D07B6B1B697B633B6A013370
:101ED0003B62FA69FB6A9A4228BF1A463B6A9A42F9
:101EE000DCD83C37BD46BDE8F04002B0704700BFCB
:101EF000B0B58AB002AF7860084611461A4603466C
:101F0000FB700B46BB7013467B70BB783B777B68DE
:101F10001B7E002B54D107F1140318460021052223
:101F20000DF0EEFD7B6893F820303B757B6893F8ED
:101F300021307B757B6893F82230BB757B6893F802
:101F40002330FB753B7F0333DBB23B77387FF97877
:101F500007F114027B6B00933B6B04F02FF80346F0
:101F6000BB833B7F0633DBB23B77387F7B685A69A4
:101F7000F9787B6B00933B6B04F020F80346BB833E
:101F80003B7F0333DBB23B773C7F7B685B6A184661
:101F900001F0F4FA0546FA787B6B00933B6B204620
:101FA00011462A4604F00AF80346BB837B7FFB7088
:101FB00097F83130FA78D31ADBB2013BFB7067E057
:101FC00007F10C031846002105220DF099FD7B68EE
:101FD00093F820303B737B6893F821307B737B68E8
:101FE00093F82230BB737B6893F82330FB73387F00
:101FF000FB780133D9B297F83120FB781344DBB278
:102000000233DBB27F2204F077FD3B7F0333DBB288
:102010003B77387FF97807F10C02002301937B6B43
:1020200000933B6B04F0D4F80346BB833B7F06333D
:10203000DBB23B77387F7B685A69F97800230193DC
:102040007B6B00933B6B04F0C3F80346BB833B7F81
:102050000333DBB23B773C7F7B685B6A184601F059
:102060008DFA0546FA78002301937B6B00933B6B56
:10207000204611462A4604F0ABF80346BB837B7F1B
:10208000FB7097F83130FA78D31ADBB2013BFB7062
:10209000FB7818462037BD46B0BD00BF80B485B080
:1020A00000AF786039603B687A685A607B689B68EB
:1020B000002B06D17B683A689A603B6801221A7649
:1020C00010E07B689B68FB6002E0FB681B69FB60BB
:1020D000FB681B69002BF8D1FB683A681A613B6802
:1020E000FA68DA601437BD465DF8047B704700BFBC
:1020F00090B585B002AF464B464A1A60444B1B6808
:10210000454819460AF08EFE03461A46434B1A709C
:10211000424B1B78002B05D0404B1B78404819469A
:102120000DF040FD3D4B1B78002B6DD13A483D49E9
:102130000AF0DEFE03461A46384B1A70374B1B78FE
:10214000002B05D0354B1B78374819460DF02AFD7A
:10215000324B1B78002B57D1324B5B7A002B53D07C
:10216000324B7B602F4B1B7A03F01003002B01D006
:10217000442100E02D212B4B1B7A03F00103002B9F
:1021800001D0522200E02D22264B1B7A03F00403DB
:10219000002B01D0532400E02D24224B1B7A03F0A6
:1021A0000203002B01D0482300E02D230093204898
:1021B00023460DF0F7FC1B4B1B681E4819460DF01B
:1021C000F1FC134B1B681C4819467A680DF0EAFCB9
:1021D00078680DF043FE0346184601210DF00AF918
:1021E00003463B603B68002B0DD0386879680DF0E2
:1021F000D7FD0C4B1A680B4B1B7A00930F483968BC
:102200000023FFF779FD91E70C37BD4690BD00BF75
:10221000DCB50120B866010810B901202CB90120F5
:10222000BC66010810B80120D466010819B8012065
:10223000EC660108F86601080067010890B5012006
:1022400080B582B000AF164B9B687B607B68002B2B
:1022500020D002E07B681B697B607B681B69002BD8
:10226000F8D107E07B68DB687B607B681B691846F8
:102270000DF016F97B68DB68002BF3D1084B9B68E7
:102280007B6078680DF00CF9054B00229A60FFF72F
:102290002FFF01E0FFF72CFF0837BD4680BD00BFD0
:1022A00090B5012080B584B002AF002035217F2297
:1022B000002304F03DFC0A4B5B78C3F13403DBB22E
:1022C00007496A4603C982E80300184600217F22B5
:1022D000044B03F099FE0346BB800837BD4680BD22
:1022E000FC5C010808670108F0B58DB004AFA84B8D
:1022F0001B78002B40F02182002035217F22002313
:1023000004F016FCA24B01221A70A24800215822A8
:102310000DF0F6FB01F0BEFF0346BB759D4802F0D1
:102320007FF80346BB759A4B00221A70994801F05A
:102330002FFB994B5B78C3F13403DBB296496A46B5
:1023400003C982E80300184600217F22934B03F063
:102350005BFE0346BB81BB7D002B40F0DC8100238C
:102360003B738F4B5A6800921B68F86802218D4AB4
:1023700003F094FE0346BB81864B1A69854B1B6DA7
:102380004FF48061B1FBF3F3B2FBF3F31A464FF065
:102390000003C7E906230123FB7510E0D7E90623F4
:1023A000104619464FF47A724FF000030CF056FDB8
:1023B00002460B46C7E90623FB7D0133FB75D7E9CF
:1023C00006234FF47A704FF00001994208BF904203
:1023D000E4D3BB693B61744A07F1080312681146F4
:1023E00019800233120C1A70704A3B1D1268114694
:1023F00019800233120C1A703D7B7C7B386901F026
:10240000BDF80646664B5A6800921B68284621466E
:10241000324603F0D3FD0346BB81FB7D012B02D086
:10242000022B0ED01AE0387B797B07F108045C4B55
:102430005A6800921B68224603F0C0FD0346BB8128
:102440000CE0387B797B3C1D554B5A6800921B6829
:10245000224603F0B3FD0346BB8100BF00233B735C
:102460004F4B5A6800921B68F8680221504A03F0EB
:1024700015FE0346BB813D7B7C7B464B1B6D18469E
:1024800001F07CF80646464B5A6800921B682846C5
:102490002146324603F092FD0346BB8100233B7385
:1024A0003F4B5A6800921B68F8680221414A03F0CA
:1024B000F5FD0346BB81374B93F85630072B00F2EE
:1024C000958001A252F823F0E924000801250008B4
:1024D0001925000831250008492500086125000854
:1024E00079250008D5250008387B797B2C4B5A6864
:1024F00000921B68304A03F061FD0346BB8175E022
:10250000387B797B264B5A6800921B682B4A03F074
:1025100055FD0346BB8169E0387B797B204B5A68C7
:1025200000921B68264A03F049FD0346BB815DE02B
:10253000387B797B1A4B5A6800921B68214A03F05A
:102540003DFD0346BB8151E0387B797B144B5A68D3
:1025500000921B681C4A03F031FD0346BB8145E035
:10256000387B797B0E4B5A6800921B68174A03F040
:1025700025FD0346BB8139E0387B797B084B5A68DF
:1025800000921B68124A03F019FD0346BB812DE03F
:1025900028B80120B8B80120FC5C010814670108C4
:1025A000EC5C010820670108F8670108FC67010876
:1025B0002C6701083C670108486701085867010853
:1025C000686701087067010874670108806701087F
:1025D00088670108387B797B594B5A6800921B68E1
:1025E000584A03F0EBFC0346BB8100BF00233B735A
:1025F000534B5A6800921B68F8680221524A03F054
:102600004DFD0346BB813D7B7C7B504B9B6B18464D
:1026100000F0B4FF06464A4B5A6800921B682846F1
:102620002146324603F0CAFC0346BB8100233B73BC
:10263000434B5A6800921B68F8680221444A03F031
:102640002DFD0346BB813D7B7C7B404B5B79DBB240
:10265000184600F093FF0646394B5A6800921B68F3
:1026600028462146324603F0A9FC0346BB81387B4D
:10267000797B334B5A6800921B68364A03F09EFC04
:102680000346BB8142233B73334B5B78C3F1340376
:10269000DBB27B732A4B5A6800921B68F8680221F0
:1026A0002E4A03F0FBFC0346BB813D7B7C7B274B22
:1026B000DB7FDBB2184600F061FF0646204B5A680C
:1026C00000921B6828462146324603F077FC0346F9
:1026D000BB8142233B731A4B5A6800921B68F8680F
:1026E00002211F4A03F0DAFC0346BB813D7B7C7B61
:1026F000164B1B7ADBB2184600F040FF0646104B23
:102700005A6800921B6828462146324603F056FC60
:102710000346BB8111E000233B730F4B084901AA1C
:1027200003C982E803005A6800921B68F868012117
:102730000C4A03F0DFFC0346BB812437BD46F0BDE5
:10274000EC5C0108946701089C670108B8B8012097
:10275000A8670108B4670108FC5C0108BC670108B0
:10276000CC670108DC67010880B584B002AF2A4B52
:102770001B78002B03D0294B01221A7049E000205E
:1027800035217F22002304F0D3F9234B01221A7054
:10279000234B5B78C3F13403DBB221496A4603C99A
:1027A00082E80300184600217F221E4B03F02CFC18
:1027B0000346BB8000233B717A79194B5B78D31AAF
:1027C000DBB20133DBB27B717F233B7000237B7074
:1027D000154B1B78012B03D0144B9B68002B07D1A2
:1027E000134B124A1A60FFF72BFD0F4B00221A7091
:1027F0000F4B19680F4B5A6800921B68084679689E
:102800003A68FFF7D9FA0C4B01221A70024B0022EA
:102810001A700837BD4680BD28B8012054BB01207E
:10282000FC5C010800680108C5B5012090B50120D5
:10283000BCB50120F45C0108C4B5012080B584B0AA
:1028400002AF002035217F22002304F071F90A4BEA
:102850005B78C3F13403DBB207496A4603C982E8F7
:102860000300184600217F22044B03F0CDFB0346F2
:10287000BB800837BD4680BDFC5C010810680108BC
:1028800080B584B002AF002035217F22002304F000
:102890004FF90A4B5B78C3F13403DBB207496A4650
:1028A00003C982E80300184600217F22044B03F08D
:1028B000ABFB0346BB800837BD4680BDFC5C01080E
:1028C0002068010880B584B002AF002035217F2246
:1028D000002304F02DF90A4B5B78C3F13403DBB21B
:1028E00007496A4603C982E80300184600217F228F
:1028F000044B03F089FB0346BB800837BD4680BD0F
:10290000FC5C01082C68010880B584B002AF00208F
:1029100035217F22002304F00BF90A4B5B78C3F1C9
:102920003403DBB207496A4603C982E8030018464C
:1029300000217F22044B03F067FB0346BB8008376E
:10294000BD4680BDFC5C01083868010880B584B0D4
:1029500002AF002035217F22002304F0E9F80A4B62
:102960005B78C3F13403DBB207496A4603C982E8E6
:102970000300184600217F22044B03F045FB034669
:10298000BB800837BD4680BDFC5C01084868010873
:1029900080B584B002AF002035217F22002304F0EF
:1029A000C7F80A4B5B78C3F13403DBB207496A46C8
:1029B00003C982E80300184600217F22044B03F07C
:1029C00023FB0346BB800837BD4680BDFC5C010885
:1029D0005468010880B584B002AF002035217F2201
:1029E000002304F0A5F80A4B5B78C3F13403DBB293
:1029F00007496A4603C982E80300184600217F227E
:102A0000044B03F001FB0346BB800837BD4680BD85
:102A1000FC5C01086468010880B584B002AF002046
:102A200035217F22002304F083F80A4B5B78C3F141
:102A30003403DBB207496A4603C982E8030018463B
:102A400000217F22044B03F0DFFA0346BB800837E6
:102A5000BD4680BDFC5C01087068010880B584B08B
:102A600002AF002035217F22002304F061F80A4BD9
:102A70005B78C3F13403DBB207496A4603C982E8D5
:102A80000300184600217F22044B03F0BDFA0346E1
:102A9000BB800837BD4680BDFC5C0108806801082A
:102AA00080B584B002AF002035217F22002304F0DE
:102AB0003FF80A4B5B78C3F13403DBB207496A463F
:102AC00003C982E80300184600217F22044B03F06B
:102AD0009BFA0346BB800837BD4680BDFC5C0108FD
:102AE0008C68010880B584B002AF002035217F22B8
:102AF000002304F01DF80A4B5B78C3F13403DBB20A
:102B000007496A4603C982E80300184600217F226C
:102B1000044B03F079FA0346BB800837BD4680BDFD
:102B2000FC5C01089C68010880B584B002AF0020FD
:102B300035217F22002303F0FBFF0A4B5B78C3F1B2
:102B40003403DBB207496A4603C982E8030018462A
:102B500000217F22044B03F057FA0346BB8008375D
:102B6000BD4680BDFC5C0108A868010880B584B042
:102B700002AF002035217F22002303F0D9FF0A4B4A
:102B80005B78C3F13403DBB207496A4603C982E8C4
:102B90000300184600217F22044B03F035FA034658
:102BA000BB800837BD4680BDFC5C0108B4680108E5
:102BB00080B584B002AF002035217F22002303F0CE
:102BC000B7FF0A4B5B78C3F13403DBB207496A46AF
:102BD00003C982E80300184600217F22044B03F05A
:102BE00013FA0346BB800837BD4680BDFC5C010874
:102BF000C068010880B586B006AF002300930323A8
:102C000001933248012100220923FDF7F3FE2F48EA
:102C10004FF4007100220AF0CFFE0023009303233B
:102C200001932A48002100220823FDF7E3FE172024
:102C3000FF21002200F050F80023009303230193AA
:102C4000052302932248022100220E23FDF7F8FEFD
:102C50000023009303230193052302931C480221C0
:102C600000220E23FDF7ECFE0023009303230193C3
:102C7000052302931648022100220F23FDF7E0FEF0
:102C8000002300930323019305230293104802219C
:102C900000220D23FDF7D4FE0023009300230193AF
:102CA0004FF4007302930823039300230493072334
:102CB0000593084800214FF48272002302F0DCFDE6
:102CC000044801210BF07AFDBD4680BD000C024096
:102CD000000402400038004080B584B000AF0346D5
:102CE000FB710B46BB7113467B71FB793B73BB7960
:102CF0007B737B79BB730123FB7307F10C031846CD
:102D00000AF04AFA1037BD4680BD00BF80B582B0D8
:102D100002AF00230093032301933B4800210022CC
:102D20000F23FDF767FE0F2300930F23019336480F
:102D30000F2108220023FDF7A5FE002300930323A3
:102D400001933148002100220E23FDF753FE0F238B
:102D500000930F2301932C480E2108220023FDF736
:102D600091FE0023009303230193274800210022B2
:102D70000D23FDF73FFE0F2300930F2301932248FD
:102D80000D2108220023FDF77DFE0023009303237D
:102D900001931D48002100220C23FDF72BFE0F2379
:102DA00000930F23019318480C2108220023FDF7FC
:102DB00069FE00230093032301931348002100229E
:102DC0000B23FDF717FE0F2300930F2301930E48EB
:102DD0000B2108220023FDF755FE00230093032357
:102DE00001930948002100220A23FDF703FE0F2367
:102DF00000930F23019304480A2108220023FDF7C2
:102E000041FEBD4680BD00BF000C024080B500AF52
:102E10004FF400400AF01AFD0346002B09D04FF48E
:102E200000400AF02DFD03480CF0FEFE0020FEF7E6
:102E3000C1FD80BDD068010880B500AF4FF480406F
:102E40000AF004FD0346002B09D04FF480400AF03D
:102E500017FD03480CF0E8FE0220FEF7ABFD80BD35
:102E6000E068010880B500AF4FF400500AF0EEFCB6
:102E70000346002B06D04FF400500AF001FD024833
:102E80000CF0D2FE80BD00BFF468010880B500AF31
:102E90004FF480500AF0DAFC0346002B09D04FF4BF
:102EA00080500AF0EDFC03480CF0BEFE0320FEF754
:102EB00081FD80BD0869010880B500AF4FF4006056
:102EC0000AF0C4FC0346002B09D04FF400600AF05E
:102ED000D7FC03480CF0A8FE0120FEF76BFD80BD77
:102EE0001C69010880B500AF4FF480600AF0AEFCA9
:102EF0000346002B09D04FF480600AF0C1FC034860
:102F00000CF092FE0320FEF755FD80BD30690108EC
:102F100080B582B000AF78600B46FB707B68394AA1
:102F2000934205D1FB78012019460AF0BFFE65E007
:102F30007B68354A934205D1FB78022019460AF096
:102F4000B5FE5BE07B68314A934205D1FB780420F3
:102F500019460AF0ABFE51E07B682D4A934205D139
:102F6000FB78082019460AF0A1FE47E07B68294A51
:102F7000934205D1FB78102019460AF097FE3DE0F8
:102F80007B68254A934205D1FB78202019460AF038
:102F90008DFE33E07B68214A934205D1FB784020C7
:102FA00019460AF083FE29E07B681D4A934205D149
:102FB000FB78802019460AF079FE1FE07B68194AE9
:102FC000934206D1FB784FF4807019460AF06EFEEA
:102FD00014E07B68144A934206D1FB784FF40070EA
:102FE00019460AF063FE09E07B68104A934205D156
:102FF000FB784FF4806019460AF058FE0837BD464A
:1030000080BD00BF000002400004024000080240F2
:10301000000C024000100240001402400018024060
:10302000001C024000200240002402400028024010
:1030300080B582B000AF78600B46FB707B682B4A8E
:10304000934205D1FB78102019460AF089FE4AE028
:103050007B68274A934206D1FB784FF4003019462B
:103060000AF060FE3FE07B68224A934206D1FB787B
:103070004FF4802019460AF055FE34E07B681E4A62
:10308000934206D1FB784FF4002019460AF04AFE1D
:1030900029E07B68194A934206D1FB784FF48010EF
:1030A00019460AF03FFE1EE07B68154A934205D19F
:1030B000FB78202019460AF053FE14E07B68114A81
:1030C000934206D1FB784FF0804019460AF02AFE61
:1030D00009E07B680C4A934205D1FB784FF0004031
:1030E00019460AF01FFE0837BD4680BD001001409A
:1030F0000044004000480040004C004000500040A8
:103100000014014000780040007C004080B582B08F
:1031100000AF78600B46FB707B68B3F1804F05D140
:10312000FB78012019460AF0FDFD84E07B68434AE4
:10313000934205D1FB78022019460AF0F3FD7AE0AC
:103140007B683F4A934205D1FB78042019460AF078
:10315000E9FD70E07B683B4A934205D1FB7808208B
:1031600019460AF0DFFD66E07B68374A934205D1D5
:10317000FB78102019460AF0D5FD5CE07B68334AE5
:10318000934205D1FB78202019460AF0CBFD52E08E
:103190007B682F4A934205D1FB78402019460AF0FC
:1031A000C1FD48E07B682B4A934205D1FB78802023
:1031B00019460AF0B7FD3EE07B68274A934206D1E4
:1031C000FB784FF4807019460AF0ACFD33E07B6861
:1031D000224A934205D1FB78012019460AF0C0FD2E
:1031E00029E07B681E4A934205D1FB7802201946EC
:1031F0000AF0B6FD1FE07B681A4A934206D1FB78BD
:103200004FF4803019460AF0ABFD14E07B68164A93
:10321000934206D1FB784FF4003019460AF0A0FD26
:1032200009E07B68114A934205D1FB784FF4802076
:1032300019460AF095FD0837BD4680BD00040040E0
:1032400000080040000C0040001000400014004046
:1032500000180040001C0040002000400000014019
:10326000000401400040014000440140004801408A
:1032700080B582B000AF78600B46FB707B68214A56
:10328000934206D1FB784FF4804019460AF04AFD7C
:1032900035E07B681C4A934206D1FB784FF400402E
:1032A00019460AF03FFD2AE07B68184A934206D18E
:1032B000FB784FF4805019460AF052FD1FE07B68FE
:1032C000134A934206D1FB784FF4805019460AF016
:1032D00047FD14E07B680F4A934206D1FB784FF418
:1032E000801019460AF03CFD09E07B680A4A9342C7
:1032F00005D1FB784FF4001019460AF031FD08376C
:10330000BD4680BD00380040003C00400030014018
:1033100000340140005001400054014080B582B0AB
:1033200000AF78600B46FB707B68274A93421BD046
:103330007B68264A934217D07B68254A934213D074
:103340007B68244A93420FD07B68234A93420BD078
:103350007B68224A934207D07B68214A934203D07C
:103360007B68204A934205D1FB784FF40010194640
:103370000AF09CFC7B681C4A93421BD07B681B4A6A
:10338000934217D07B681A4A934213D07B68194A3C
:1033900093420FD07B68184A93420BD07B68174A40
:1033A000934207D07B68164A934203D07B68154A44
:1033B000934205D1FB784FF4800019460AF076FC61
:1033C0000837BD4680BD00BF106002402860024043
:1033D00040600240586002407060024088600240D5
:1033E000A0600240B86002401064024028640240BD
:1033F00040640240586402407064024088640240A5
:10340000A0640240B864024080B500AF40200121B2
:103410000AF06AFC01200AF037FD80BD80B584B057
:1034200000AF0023FB604FF0805001210AF07AFCCE
:1034300001200AF033FB01200AF040FB00BF6120AD
:103440000AF0E8FC0346002BF9D04FF400700AF0B4
:10345000EFFB1D4BFF221A601C4B7F221A600120DC
:103460000AF014FC0AF0B0FD184B1B687B60164B89
:103470001B68BB6000233B603B4618460AF020FDFA
:10348000134B1522DA70124B04225A70104B18227B
:103490009A700F4B06221A7001200D490AF0A8FEFF
:1034A0000C4B4022DA700B4B16221A70094B10227B
:1034B0005A70084B00229A70012006490AF0C0FD9C
:1034C0001037BD4680BD00BF180A0020140A002036
:1034D000200A00201C0A0020B0B586B002AF02F01E
:1034E00057FB03463B80224B5B78FB73204B1B78DA
:1034F000DB00DBB20733BB7300201E490AF02AFE53
:103500001C4B1B781D461B4B5B781C46194B9B784C
:103510001A463B1D0092184617492A4623460CF0CE
:1035200019FC3A78BB7BD31ADBB2013BD8B27A786C
:10353000FB7BD31AD9B23B78013BDAB27B7803F03C
:10354000F7FA3A78BB7BD31ADBB2013BD8B27A7870
:10355000FB7BD31ADBB2013BD9B23C1D044B5A684A
:1035600000921B68224602F029FD1037BD46B0BD0F
:10357000F45C01081C0A00204469010880B485B08D
:1035800000AF7860154BFB60FB68013BFB60FB689C
:1035900000221A70FB68013BFB607968104BA3FBAB
:1035A0000123DA0813469B0013445B00CA1AD3B206
:1035B0003033DBB2DAB2FB681A707B68084AA2FBD0
:1035C0000323DB087B607B68002BE3D1FB68184694
:1035D0001437BD465DF8047B704700BF6C0A0020BD
:1035E000CDCCCCCC80B582B000AF312001210022FF
:1035F000FFF772FB1C4800214FF40C720CF080FAAC
:103600000020194909F014F803461A46174B1A709E
:1036100000F040FE164800F003FF144B1B78002B0F
:1036200005D0114800214FF40C720CF069FA00200B
:103630000D4908F0FDFF03461A460C4B1A700B4B60
:103640001B780C4819460CF0ADFA00237B6004E0AF
:1036500000F012F87B6801337B607B68072BF7DD95
:103660000837BD4680BD00BFE0B501202CB9012060
:10367000B8B801205469010890B5C7B002AFB44B87
:103680001B78012B00D15EE1B14B01221A70B148C9
:1036900000214FF409720CF033FAAE48AE490A2209
:1036A00008F0F0FF03461A46AC4B1A70AB4B1B7880
:1036B000002B05D0A94B1B78A94819460CF072FACB
:1036C000A64B1B78002B40F03B81A64BA64A1A6004
:1036D000A44B1B68A548194609F0A4FB03461A46EB
:1036E0009E4B1A709D4B1B78002B05D09B4B1B7873
:1036F0009F4819460CF056FA984B1B78002B40F067
:103700000E813B1DC7F80C3198489A4909F0F0FB2F
:1037100003461A46914B1A70904B1B78002B05D02C
:103720008E4B1B78944819460CF03CFA8B4B1B7857
:10373000002B40F0F4808F4B5B7A002B00F0EF8081
:103740008E4BC7F808318B4B1B7A03F01003002B0C
:1037500001D0442100E02D21864B1B7A03F00103A8
:10376000002B01D0522200E02D22824B1B7A03F065
:103770000403002B01D0532400E02D247D4B1B7A41
:1037800003F00203002B01D0482300E02D23009317
:103790007B4823460CF006FA764B1B68794819469D
:1037A0000CF000FA6F4B1B6877481946D7F80821D0
:1037B0000CF0F8F9D7F80C315A1CC7F80C216D4AF7
:1037C000127A02F01002002A01D0442200E02D22D9
:1037D0001A70D7F80C315A1CC7F80C21654A127AB6
:1037E00002F00102002A01D0522200E02D221A70BC
:1037F000D7F80C315A1CC7F80C215E4A127A02F035
:103800000402002A01D0532200E02D221A70D7F8BA
:103810000C315A1CC7F80C21564A127A02F00202E7
:10382000002A01D0482200E02D221A70D7F80C316E
:103830005A1CC7F80C2120221A704E4B1B681846E0
:10384000FFF79CFE0346D7F80C0119460CF0A8FAC6
:10385000D7F80C010CF002FB0246D7F80C311344E8
:10386000C7F80C31D7F80C315A1CC7F80C212022AC
:103870001A703C4B1B68D7F80C0119460CF090FAF3
:10388000D7F80C010CF0EAFA0246D7F80C311344D1
:10389000C7F80C31D7F80C315A1CC7F80C212F226D
:1038A0001A70D7F80C01D7F808110CF079FAD7F88C
:1038B0000C010CF0D3FA0246D7F80C311344C7F8C8
:1038C0000C31D7F80C315A1CC7F80C210D221A7094
:1038D000D7F80C315A1CC7F80C210A221A70D7F8F5
:1038E0000C315A1CC7F80C2100221A703B1D1846D7
:1038F0000CF0B4FA04463A1D07F5827315481146D8
:10390000224609F02FF803461A46144B1A70114844
:1039100009F0B2F903461A46104B1A70F1E60D4849
:1039200009F06CFA03461A460C4B1A700B4B1B78C5
:10393000002B05D0094B1B78144819460CF032F9BE
:10394000034B00221A7007F58A77BD4690BD00BF71
:1039500028B8012030B90120686901082CB901207C
:1039600070690108DCB501208C69010810B90120DB
:103970009069010810B80120A869010819B8012050
:10398000C0690108CC690108D4690108DC69010833
:1039900080B582B000AF78607B681B6DB248194675
:1039A0000CF000F97B68D3E91223B0480CF0FAF868
:1039B0007B6893F85630AE4819460CF0F3F87B68F4
:1039C000B3F85430AB4819460CF0ECF87B6893F828
:1039D0004030DBB2A84819460CF0E4F87B68DB8F76
:1039E0009BB2A64819460CF0DDF87B68DB8D9BB2D4
:1039F000A34819460CF0D6F87B681B6BA148194602
:103A00000CF0D0F87B6893F83430DBB29E4819464E
:103A10000CF0C8F87B6893F83530DBB29B48194648
:103A20000CF0C0F87B689B6B994819460CF0BAF80B
:103A30007B6893F83C30DBB2964819460CF0B2F83C
:103A40007B6893F84130DBB2934819460CF0AAF832
:103A50007B681B78DBB2914819460CF0A3F87B68B1
:103A600093F82930DBB28E4819460CF09BF87B683E
:103A7000DB889BB28B4819460CF094F87B6893F86E
:103A80002230DBB2884819460CF08CF87B6893F83A
:103A90002430DBB2854819460CF084F87B681B7B28
:103AA000DBB2834819460CF07DF87B681B698148BE
:103AB00019460CF077F87B681B7EDBB27E4819460E
:103AC0000CF070F87B6893F82830DBB27B4819461D
:103AD0000CF068F87B689B7EDBB2794819460CF0E5
:103AE00061F87B685B7EDBB2764819460CF05AF8C9
:103AF0007B6893F82730DBB2734819460CF052F814
:103B00007B6893F82330DBB2704819460CF04AF812
:103B10007B685B7FDBB26E4819460CF043F87B682C
:103B20005B79DBB26B4819460CF03CF87B685B7D37
:103B3000DBB2694819460CF035F87B681B7DDBB2B7
:103B4000664819460CF02EF87B68DB7FDBB26448D0
:103B500019460CF027F87B68DB7DDBB2614819461B
:103B60000CF020F87B689B7DDBB25F4819460CF0B7
:103B700019F87B685B7ADBB25C4819460CF012F8E6
:103B80007B6893F82530DBB2594819460CF00AF8E7
:103B90007B681B7ADBB2574819460CF003F87B6848
:103BA000DB7ADBB2544819460BF0FCFF7B689B784C
:103BB000DBB2524819460BF0F5FF7B685B7BDBB24A
:103BC0004E4819460BF0EEFF7B6893F82130DBB2CC
:103BD0004A4819460BF0E6FF7B6893F82A30DBB2BF
:103BE000464819460BF0DEFF7B685B78DBB2444841
:103BF00019460BF0D7FF7B68DB78DBB241481946EA
:103C00000BF0D0FF7B681B79DBB23F4819460BF005
:103C1000C9FF7B6893F82630DBB23C4819460BF0AD
:103C2000C1FF7B689B7ADBB2394819460BF0BAFFBB
:103C30007B681B7FDBB2374819460BF0B3FF7B680C
:103C4000DB7EDBB2344819460BF0ACFF7B689B7F10
:103C5000DBB2324819460BF0A5FF7B6893F82030A1
:103C6000DBB22F4819465DE0F8690108106A0108C7
:103C7000286A0108386A0108446A0108546A010880
:103C8000706A01088C6A0108A86A0108C46A010800
:103C9000DC6A0108FC6A01080C6B01081C6B010856
:103CA000306B0108406B01085C6B0108846B0108F4
:103CB0009C6B0108B46B0108C86B0108E86B010834
:103CC000F86B01081C6C0108346C0108486C010891
:103CD000606C0108806C0108A06C0108C46C0108CC
:103CE000E86C01080C6D0108306D0108546D010885
:103CF0007C6D0108A06D0108C46D0108E46D010828
:103D0000F46D0108186E0108386E0108646E010830
:103D1000886E0108A86E0108CC6E0108EC6E0108DF
:103D2000086F01080BF03EFF0837BD4680BD00BF9D
:103D300080B584B004AF00230093032301930C23C8
:103D400002932648022100220C23FCF779FE01236E
:103D50000093032301930C230293214802210022A4
:103D60000223FCF76DFE01230093032301930C2330
:103D700002931A48022100220823FCF761FE012366
:103D80000093032301930C23029314480221002281
:103D90000923FCF755FE01230093032301930C2311
:103DA00002930E48022100220A23FCF749FE012358
:103DB0000093032301930C2302930848022100225D
:103DC0000B23FCF73DFE4FF40060012109F0C8FF12
:103DD00004480121FFF7A2FABD4680BD0008024059
:103DE000000C0240A064024080B592B000AF786041
:103DF00039602348234909F0C9FB2148002109F013
:103E000053FB1F4809F028FA4FF00063FB601E4B7C
:103E10003B617B687B614023BB610023FB61002326
:103E20003B624FF480637B624FF48053BB624FF47C
:103E30008043FB6200233B634FF440337B630423E6
:103E4000BB630323FB634FF400033B644FF4001395
:103E50007B6407F10C030A48194609F0CFFA0848B9
:103E60001021012209F0C0FB0548202109F038FB90
:103E70000348012109F018FB4837BD4680BD00BF4B
:103E8000A064024000003D20802C014080B592B02B
:103E900000AF786039602348234909F077FB214857
:103EA000002109F001FB1F4809F0D6F94FF000632B
:103EB000FB601E4B3B617B687B610023BB61002381
:103EC000FB6100233B624FF480637B624FF48053BD
:103ED000BB624FF48043FB6200233B634FF44033EB
:103EE0007B630423BB630323FB634FF400033B6446
:103EF0004FF400137B6407F10C030A48194609F0DC
:103F00007DFA08481021012209F06EFB05482021A6
:103F100009F0E6FA0348012109F0C6FA4837BD4620
:103F200080BD00BFA064024000003D20802C014005
:103F300080B582B000AF0023FB71FFF7F9FE0AF0F5
:103F400021FA00F091F80346FB71FB79DBB2002BFC
:103F500002D0FB79DBB23DE000F09CF90346FB7137
:103F6000FB79DBB2002B02D0FB79DBB232E01B4BDA
:103F700000221A75194B00221A60184B00225A6051
:103F8000164B00229A60154B0022DA60134B002278
:103F90001A6112480AF004FA114800F041FA034687
:103FA000FB71FB79DBB2002B08D10D4BB3F8543019
:103FB0001B04184600F07CFD0346FB71FB79DBB265
:103FC000002B05D14FF4006000F006FD0346FB71A5
:103FD000FB79DBB218460837BD4680BD88B80120A2
:103FE00030B8012080B582B000AF0423FB7100F02F
:103FF00011F80346FB71FB79042B01D1002305E086
:10400000FB79FF2B01D1022300E00123184608377A
:10401000BD4680BD80B582B000AF00237B6000F05C
:1040200019F80346012B0FD13B1D184600F0B0FFD5
:104030000346002B01D0FF2307E07B685B0ADBB25D
:1040400003F00F03DBB200E0FF2318460837BD463C
:1040500080BD00BF80B483B000AF012318460C3789
:10406000BD465DF8047B704780B586B000AF002385
:10407000FB7100237B6100233B610023FB60002375
:10408000BB60814B76221A757F4B00221A607E4BF3
:1040900000225A607C4B00229A607B4B0022DA603F
:1040A000794B00221A6178480AF07AF903200AF065
:1040B000B5F901200AF0A2F9744B00221A60734B83
:1040C00000225A60714B00229A60704B0022DA6025
:1040D0006E4B4FF480621A616C480AF0BBF901F034
:1040E00011F80346FB71FB79DBB2002B02D0FB79A0
:1040F000DBB2C5E0654B4FF4D5721A60634B082202
:104100005A60624B40229A60604B0022DA605F4B3B
:104110004FF480621A615D480AF09CF901F018F8CA
:104120000346FB71FB79DBB2002B06D1584B012211
:104130001A604FF08043BB6017E0544B00221A60B6
:10414000524B37225A60514B40229A604F4B00220B
:10415000DA604E4B4FF480621A614C480AF07AF9EB
:10416000372001F031F80346FB71484B00221A60FA
:10417000464B37225A60454B40229A60434B0022FF
:10418000DA60424B4FF480621A6140480AF062F9EB
:10419000372001F019F80346FB71FB79DBB2002BE5
:1041A0006CD14FE0394B00221A60384B37225A60ED
:1041B000364B40229A60354B0022DA60334B4FF485
:1041C00080621A6131480AF045F9372000F0FCFF9F
:1041D0000346FB71FB79DBB2002B02D0FB79DBB22B
:1041E0004EE0BB6843F0004343F48013274A13605A
:1041F000264B29225A60254B40229A60234B0022ED
:10420000DA60224B4FF480621A6120480AF022F9EA
:1042100001F0ACF80346FB71FB79DBB2002B02D056
:10422000FB79DBB22CE000200AF04CF978617B6965
:10423000DB0F012B0CBF01230023DBB2FB603B69CA
:1042400001333B61FB68002B04D13B694FF6FE72E2
:104250009342A7D93B694FF6FE72934204D91B23C0
:10426000FB71FB79DBB20BE07B6903F080437B6180
:104270007B69002B02D0064B02221A60FB79DBB26D
:1042800018461837BD4680BD88B80120C8B5012042
:10429000240A002080B582B000AF0023FB71012307
:1042A000BB800AF0C9F80346002B03D12523FB711C
:1042B000FB79A7E0554B1B68042B33D0544B0022ED
:1042C0001A60534B02225A60514BC0229A60504BE5
:1042D0000022DA604E4B4FF480621A614C480AF0BB
:1042E000B9F801F06BF80346FB71FB79002B01D0A4
:1042F000FB7987E000200AF0E5F80246454B1A609A
:1043000004200AF0DFF80246424B5A6008200AF007
:10431000D9F802463F4B9A600C200AF0D3F80246C7
:104320003C4BDA60394B1B68002B0BD0374B1B68BA
:10433000012B07D0354B1B68062B03D0334B1B6872
:10434000022B1ED1324B00221A60314B03225A60DD
:104350002F4B40229A602E4B0022DA602C4B4FF4F8
:1043600080621A612A480AF075F83B1D032019463D
:1043700001F058F80346FB71FB79002B01D0FB7963
:1043800040E0224B1B68042B39D0BB881A46224BD5
:104390001A60BB881B041A461D4B1A601C4B09226D
:1043A0005A601B4BC0229A60194B0022DA60184BEE
:1043B0004FF480621A6116480AF04CF800F0FEFFD4
:1043C0000346FB71FB79002B01D0FB791AE000203A
:1043D0000AF078F80246114B1A6004200AF072F8CD
:1043E00002460E4B5A6008200AF06CF802460B4B4E
:1043F0009A600C200AF066F80246084BDA60002347
:10440000FB71FB7918460837BD4680BD240A0020A1
:10441000C8B50120380A0020480A0020280A0020D8
:10442000B0B485B000AF78600021B9730021F97392
:104430008D490968C8B2796881F856008B490968C6
:1044400088B27968A1F8540089490968090EF9739E
:10445000F97B8909C8B279680870F97B01F03C01E1
:104460008910C8B279684870F97B01F00301C8B2BD
:10447000796888707E49096801F47F01090CF97335
:104480007968F87BC8707A49096801F47F41090AA4
:10449000F9737968F87B087175490968F973796867
:1044A000F87B487172494968090EF973F97B89B242
:1044B000090188B27968C8806D49496801F47F01B3
:1044C000090CF9737968C98888B2F97B0909C9B2FE
:1044D00089B2014388B27968C880F97B01F00F0185
:1044E000C8B2796808726249496801F47F41090AD3
:1044F000F973F97BC909C8B279684872F97B01F090
:1045000040018911C8B279688872F97B01F02001F5
:104510004911C8B27968C872F97B01F0100109111C
:10452000C8B2796808737968002048734E490968F1
:10453000002904D04C490968012940F09B80FB7B8D
:1045400003F003039B021A467B681A61484B5B68C1
:10455000FB737B681B69FA7B92001A437B681A61C4
:10456000434B9B681B0EFB737B681B69FA7B9209AC
:10457000D2B21A437B681A61FB7B03F03803DB106D
:10458000DAB27B681A75FB7B03F00703DAB27B684B
:104590005A75374B9B6803F47F031B0CFB73FB7B43
:1045A0005B09DAB27B689A75FB7B03F01C039B10F6
:1045B000DAB27B68DA75FB7B03F00303DBB25B00E6
:1045C000DAB27B681A762A4B9B6803F47F431B0A96
:1045D000FB737B681B7EDAB2FB7BDB09DBB2134328
:1045E000DAB27B681A767B681B6901331A464FF092
:1045F00000037968C1E912237B681B7EDBB20233BA
:10460000012202FA03F37A68D2E912011A464FEA4C
:10461000E27302FB01F500FB03F42C44A0FB022330
:10462000E1180B467968C1E912237B681B7ADBB27B
:104630001A46012393401A467B681A657B68D3E9C2
:1046400012017B681B6D1A464FF0000302FB01F557
:1046500000FB03F42C44A0FB0223E1180B4679680D
:10466000C1E9122342E000BF240A0020480A0020CA
:10467000280A0020AB490968022937D1AA494968AC
:10468000F973F97B01F03F01090408467968086174
:10469000A5498968090EF97379680969F87B0002F0
:1046A000084379680861A049896801F47F01090C11
:1046B000F97379680869F97B0843796808619A4950
:1046C000896801F47F41090AF97379680969013140
:1046D00008464FF00001CB0443EA5033C204796826
:1046E000C1E912237B684FF400721A65FB7B03F06B
:1046F00040039B11DAB27B685A76FB7B03F03F03E1
:10470000DBB25B00DAB27B689A76874B9B68FB73FF
:104710007B689B7EDAB2FB7BDB09DBB21343DAB248
:104720007B689A76FB7B03F07F03DAB27B68DA76EC
:104730007D4BDB681B0EFB73FB7BDB09DAB27B680E
:104740001A77FB7B03F060035B11DAB27B685A7760
:10475000FB7B03F01C039B10DAB27B689A77FB7B30
:1047600003F00303DBB29B00DAB27B68DA776E4BAF
:10477000DB6803F47F031B0CFB737B68DB7FDAB21F
:10478000FB7B9B09DBB21343DAB27B68DA77FB7BF6
:1047900003F020035B11DAB27B6883F820207B688A
:1047A000002283F82120FB7B03F00103DAB27B684F
:1047B00083F822205C4BDB6803F47F431B0AFB7306
:1047C000FB7BDB09DAB27B6883F82320FB7B03F0F9
:1047D00040039B11DAB27B6883F82420FB7B03F053
:1047E00020035B11DAB27B6883F82520FB7B03F0A2
:1047F00010031B11DAB27B6883F82620FB7B03F0E1
:104800000C039B10DAB27B6883F82720FB7B03F054
:104810000303DAB27B6883F82820434BDB68FB7321
:10482000FB7B5B08DAB27B6883F829207B68012276
:1048300083F82A203D4B1B681B0EFB737B68FA7BB9
:1048400083F82C20394B1B6803F47F031B0CFB738C
:10485000FB7B9BB21B029AB27B68DA85334B1B68E9
:1048600003F47F431B0AFB737B68DB8D9AB2FB7BEF
:104870009BB213439AB27B68DA852C4B1B68FB739F
:10488000FB7B1B061A467B681A63284B5B681B0E72
:10489000FB737B681B6BFA7B12041A437B681A63F9
:1048A000224B5B6803F47F031B0CFB737B681B6B61
:1048B000FA7B12021A437B681A631C4B5B6803F491
:1048C0007F431B0AFB737B681A6BFB7B1A437B6875
:1048D0001A63164B5B68FB737B68FA7B83F83420A2
:1048E000124B9B681B0EFB737B68FA7B83F83520A9
:1048F0000E4B9B6803F47F031B0CFB73FB7B1B06B7
:104900001A467B689A63094B9B6803F47F431B0A32
:10491000FB737B689B6BFA7B12041A437B689A6378
:1049200006E000BF240A0020280A0020380A0020E0
:10493000284B9B68FB737B689B6BFA7B12021A43C4
:104940007B689A63234BDB681B0EFB737B689A6B57
:10495000FB7B1A437B689A631E4BDB6803F47F037F
:104960001B0CFB737B6893F83C30DAB2FB7B1B09B2
:10497000DBB21343DAB27B6883F83C20FB7B9BB24B
:1049800003F00F039BB21B029AB27B68DA87114BCC
:10499000DB6803F47F431B0AFB737B68DB8F9AB2EF
:1049A000FB7B9BB213439AB27B68DA87094BDB68C7
:1049B000FB73FB7B5B08DAB27B6883F840207B6883
:1049C000012283F84120BB7B18461437BD46B0BC9A
:1049D000704700BF380A002080B584B000AF78600F
:1049E0000023FB73304B1B68032B03D12723FB737E
:1049F000FB7B54E02C4B1B68002B07D02A4B1B6819
:104A0000012B03D0284B1B68022B47D17B68B3F5E1
:104A1000805F03D12723FB73FB7B40E07B68B3F50A
:104A2000006F1ED1012000F065FD0346FB73FB7B88
:104A3000002B33D11D4B00221A751C4B00221A602B
:104A40001A4B00225A60194B00229A60174B4FF400
:104A50000062DA60154B00221A61144809F0A0FCCC
:104A60001CE0002000F046FD0346FB73FB7B002B9F
:104A700014D10E4B00221A750C4B00221A600B4BFE
:104A800000225A60094B00229A60084B0022DA602B
:104A9000064B00221A61054809F082FCFB7B184690
:104AA0001037BD4680BD00BF240A002088B8012011
:104AB00080B584B000AF78600023FB730E4A7B683A
:104AC00013600D4B07225A600B4B40229A600A4B31
:104AD0000022DA60084B4FF480621A61064809F040
:104AE000B9FC072000F070FB0346FB73FB7B184604
:104AF0001037BD4680BD00BFC8B5012080B586B067
:104B000000AFF860B9607A603B600023FB75404BF2
:104B100000221A703F4B00221A603F4B01221A609C
:104B20003E4B0022DA623E4B1B68022B03D14FF44E
:104B300000737B6004E0BB687A6802FB03F3BB6030
:104B4000384A7B681360374B10225A60354B40223D
:104B50009A60344B0022DA60324B4FF480621A6163
:104B6000304809F077FC102000F02EFB0346FB755F
:104B7000FB7D002B01D0FB7D46E02B4B4FF0FF323D
:104B80001A603B687A6802FB03F3274A5360264B9E
:104B900090229A60244B0222DA60234B00221A6191
:104BA000214B01225A61204809F0A0FC1D4ABB6834
:104BB00013601C4B12225A601A4B40229A60194B08
:104BC0000022DA60174B4FF480621A61154809F031
:104BD00041FC122000F0F8FA0346FB75FB7D002B28
:104BE00001D0FB7D10E040F22A30012109F0C8FC21
:104BF000012009F0B5FC3B687A6802FB03F3F86812
:104C00001946FFF743F9FB7D18461837BD4680BDAE
:104C1000500A0020540A00204C0A0020002C0140B9
:104C2000240A0020C8B50120A0B8012080B582B0B8
:104C300000AF0023FB714FF0FF333B6002E03B68A5
:104C4000013B3B60224B1B68002B0BD1214B1B68A7
:104C5000002B07D1204B1B78DBB2002B02D13B6825
:104C6000002BECD11A4B00221A604FF0FF333B604F
:104C700002E03B68013B3B60184B5B6B03F4005365
:104C8000002B02D03B68002BF3D1154B1B68012B86
:104C900003D100F059F90346FB713B68002B04D1A6
:104CA000FB79002B01D10423FB7140F2FF5009F086
:104CB0009FFC094B1B78DBB2002B03D0064B1B7803
:104CC000DBB200E0FB7918460837BD4680BD00BF67
:104CD000580A0020540A0020500A0020002C0140ED
:104CE0004C0A002080B586B000AFF860B9607A60E9
:104CF0003B600023FB755E4B00221A705D4B002267
:104D00001A605D4B01221A605C4B0022DA625C4B38
:104D10001B68022B03D14FF400737B6004E0BB6877
:104D20007A6802FB03F3BB60564A7B681360554BFD
:104D300010225A60534B40229A60524B0022DA6094
:104D4000504B4FF480621A614E4809F083FB1020EB
:104D500000F03AFA0346FB75FB7D002B01D0FB7D8A
:104D600082E0494B1B681B04464A1360454B3722BF
:104D70005A60444B40229A60424B0022DA60414B19
:104D80004FF480621A613F4809F064FB372000F05D
:104D90001BFA0346FB75FB7D002B01D0FB7D63E016
:104DA000384A3B681360374B17225A60354B402214
:104DB0009A60344B0022DA60324B4FF480621A6101
:104DC000304809F047FB172000F0FEF90346FB7559
:104DD000FB7D002B01D0FB7D46E02A4ABB681360B7
:104DE000284B19225A60274B40229A60254B0022FB
:104DF000DA60244B4FF480621A61224809F02AFBE2
:104E0000192000F0E1F90346FB75FB7D002B01D072
:104E1000FB7D29E01D4B4FF0FF321A603B687A683A
:104E200002FB03F3194A5360184B90229A60174B08
:104E30000022DA60154B00221A61144B01225A61DC
:104E4000124809F053FB40F22A30012109F098FB87
:104E5000012009F085FB3B687A6802FB03F3F868E0
:104E60001946FEF7C1FFFB7D18461837BD4680BDC9
:104E7000500A0020540A00204C0A0020002C014057
:104E8000240A0020C8B50120480A0020A0B801204B
:104E900080B582B000AF0023FB714FF0FF333B6061
:104EA00002E03B68013B3B60224B1B68002B0BD1AF
:104EB000214B1B68002B07D1204B1B78DBB2002B4A
:104EC00002D13B68002BECD11A4B00221A604FF044
:104ED000FF333B6002E03B68013B3B60184B5B6B80
:104EE00003F48053002B02D03B68002BF3D1154B09
:104EF0001B68012B03D100F027F80346FB713B68C8
:104F0000002B04D1FB79002B01D10423FB7140F26B
:104F1000FF5009F06DFB094B1B78DBB2002B03D06F
:104F2000064B1B78DBB200E0FB7918460837BD461C
:104F300080BD00BF580A0020540A0020500A0020FB
:104F4000002C01404C0A002080B582B000AF002345
:104F5000FB710E4B00221A600C4B0C225A600B4B5B
:104F600040229A60094B0022DA60084B4FF48062BD
:104F70001A61064809F06EFA0C2000F025F9034684
:104F8000FB71FB7918460837BD4680BDC8B50120C6
:104F900080B584B000AF78600023FB737B68002B82
:104FA00003D12623FB73FB7B25E0154B1B681B04F9
:104FB000144A1360134B0D225A60124B40229A6020
:104FC000104B0022DA600F4B4FF480621A610D48DB
:104FD00009F040FA0D2000F0F7F80346FB73FB7B65
:104FE000002B01D0FB7B06E0002009F06BFA0246A3
:104FF0007B681A60FB7B18461037BD4680BD00BF3A
:10500000480A0020C8B5012080B500AF4FF4807079
:1050100009F0FCFA0346002B0AD02B4B00221A7031
:105020004FF4807009F00CFB284B01221A6041E01C
:10503000022009F0EBFA0346002B06D0022009F00B
:10504000FFFA214B02221A7034E0082009F0DEFA40
:105050000346002B06D0082009F0F2FA1A4B04226E
:105060001A7027E0202009F0D1FA0346002B06D061
:10507000202009F0E5FA144B06221A701AE01020DD
:1050800009F0C4FA0346002B06D0102009F0D8FA24
:105090000D4B05221A700DE04FF4007009F0B6FABE
:1050A0000346002B06D04FF4007009F0C9FA064BF6
:1050B00007221A704CF23A30002109F061FA024BD3
:1050C0001B78DBB2184680BD500A0020540A00202D
:1050D00080B500AF064B1A68064B1340002B06D074
:1050E000054B01221A600548054908F04FFA80BDBA
:1050F0000064024000002020580A0020A064024002
:105100000000212080B582B000AF0023FB704FF477
:1051100080337B6002E07B68013B7B607B68002B17
:1051200005D0802009F04AFA0346002BF3D07B68B3
:10513000002B03D10323FB70FB7804E040F2FF5007
:1051400009F056FAFB7818460837BD4680BD00BF07
:1051500080B584B000AF0023FB714FF48033BB6097
:10516000184B5B6BFB6005E0BB68013BBB60154BFC
:105170005B6BFB60FB6803F04503002B02D1BB684F
:10518000002BF1D1BB68002B04D0FB6803F00403B3
:10519000002B06D00323FB71042009F029FAFB79C8
:1051A0000CE0FB6803F04003002B06D00023FB71EA
:1051B000402009F01DFAFB7900E0FB791846103712
:1051C000BD4680BD002C014080B586B000AF0346CF
:1051D000FB710023FB74634B5B6B7B6102E0614BF3
:1051E0005B6B7B617B6903F04503002BF7D07B6928
:1051F00003F00403002B06D00323FB74042009F002
:10520000F7F9FB7CA9E07B6903F00103002B06D0D2
:105210000123FB74012009F0EBF9FB7C9DE009F010
:1052200045F903461A46FB79934203D01023FB74D9
:10523000FB7C92E040F2FF5009F0DAF9002009F01F
:1052400041F9F860FA68484B1340002B01D1FB7C10
:1052500083E0FB68002B01DA1C237EE0FB6803F08F
:105260008043002B01D0092377E0FB6803F0005353
:10527000002B01D00A2370E0FB6803F08053002B61
:1052800001D00B2369E0FB6803F00063002B01D021
:105290000C2362E0FB6803F08063002B01D00D2338
:1052A0005BE0FB6803F08073002B01D00E2354E019
:1052B000FB6803F40003002B01D00F234DE0FB68D3
:1052C00003F48003002B01D0102346E0FB6803F4B5
:1052D0000013002B01D011233FE0FB6803F480137F
:1052E000002B01D0122338E0FB6803F40023002BCD
:1052F00001D0132331E0FB6803F48023002B01D09D
:1053000014232AE0FB6803F40033002B01D015239B
:1053100023E0FB6803F48033002B01D016231CE04C
:10532000FB6803F40043002B01D0172315E0FB6852
:1053300003F48043002B01D018230EE0FB6803F434
:105340000053002B01D0192307E0FB6803F008038A
:10535000002B01D01A2300E0FB7C18461837BD460D
:1053600080BD00BF002C014008E0FFFD80B582B089
:1053700000AF0023FB70104B5B6B7B6002E00E4BB9
:105380005B6B7B607B6803F04503002BF7D07B6889
:1053900003F00403002B06D00323FB70042009F064
:1053A00027F9FB7804E040F2FF5009F021F9FB787F
:1053B00018460837BD4680BD002C014080B582B03C
:1053C00000AF0023FB70164B5B6B7B6002E0144B5D
:1053D0005B6B7B607B6803F04503002BF7D07B6839
:1053E00003F00403002B06D00323FB70042009F014
:1053F000FFF8FB7810E07B6803F00103002B06D078
:105400000123FB70012009F0F3F8FB7804E040F27F
:10541000FF5009F0EDF8FB7818460837BD4680BD0F
:10542000002C014080B586B000AF03463960FB71A7
:105430000023FB742E4B5B6B7B6102E02C4B5B6BA0
:105440007B617B6903F04503002BF7D07B6903F098
:105450000403002B06D00323FB74042009F0C8F8D2
:10546000FB7C40E07B6903F00103002B06D00123A5
:10547000FB74012009F0BCF8FB7C34E009F016F85D
:1054800003461A46FB79934203D01023FB74FB7C3E
:1054900029E040F2FF5009F0ABF8002009F012F8C3
:1054A000F860FB6803F46043002B06D1FB681B0C1B
:1054B0009AB23B681A80FB7C15E0FB6803F400534A
:1054C000002B01D013230EE0FB6803F48043002B74
:1054D00001D0102307E0FB6803F40043002B01D048
:1054E0000F2300E0FB7C18461837BD4680BD00BF87
:1054F000002C014080B586B000AF0346FB7100234D
:10550000FB750023FB6000233B61002008F0DAFFFD
:10551000034603F00073002B03D00E23FB75FB7DC5
:105520009FE0524B1B689AB207F10C0310461946D4
:1055300000F0A0F80346FB75FB7D002B01D0FB7D3E
:105540008FE0FB79012B46D13B6903F48023002BCC
:105550003DD0464B1B681B04454A1360444B372221
:105560005A60434B40229A60414B0022DA60404B24
:105570004FF480621A613E4808F06CFF3720FFF755
:1055800023FE0346FB75FB7D002B01D0FB7D68E00D
:10559000374B02221A60364B06225A60344B4022A7
:1055A0009A60334B0022DA60314B4FF480621A610B
:1055B0002F4808F04FFF0620FFF706FE0346FB7555
:1055C000FB7D002B01D0FB7D4BE0FB7D49E02523DB
:1055D000FB75FB7D45E03B6903F48033002B3DD038
:1055E000224B1B681B04224A1360214B37225A604E
:1055F0001F4B40229A601E4B0022DA601C4B4FF476
:1056000080621A611A4808F025FF3720FFF7DCFD99
:105610000346FB75FB7D002B01D0FB7D21E0144B85
:1056200000221A60124B06225A60114B40229A60E7
:105630000F4B0022DA600E4B4FF480621A610C4867
:1056400008F008FF0620FFF7BFFD0346FB75FB7D52
:10565000002B01D0FB7D04E0FB7D02E02523FB75E0
:10566000FB7D18461837BD4680BD00BF480A0020A4
:10567000C8B5012090B587B000AF03463960FB8004
:1056800000237B610023FB740023BB600023FB60CD
:10569000754B08221A60744B10225A60724B4022DC
:1056A0009A60714B0022DA606F4B4FF480621A618E
:1056B0006D4808F0CFFE1020FFF786FD0346FB740F
:1056C000FB7C002B01D0FB7CCAE0684B1B681B04F1
:1056D000654A1360644B37225A60634B40229A60DC
:1056E000614B0022DA60604B4FF480621A615E48C1
:1056F00008F0B0FE3720FFF767FD0346FB74FB7C24
:10570000002B01D0FB7CABE0594B4FF0FF321A600D
:10571000574B08225A60564B30229A60544B022253
:10572000DA60534B00221A61514B01225A615048F2
:1057300008F0DCFE4C4B00221A604B4B33225A60BF
:10574000494B40229A60484B0022DA60464B4FF4A6
:1057500080621A61444808F07DFE3320FFF734FD73
:105760000346FB74FB7C002B01D0FB7C78E012E04D
:105770004FF4001008F022FF0346002B0BD07B698A
:105780009B0007F10802D41808F0DEFE03462360F0
:105790007B6901337B61374B5A6B40F22A631340BC
:1057A000002BE5D0082008F009FF0346002B06D0A7
:1057B000082008F01DFF0423FB74FB7C50E002204E
:1057C00008F0FCFE0346002B06D0022008F010FF74
:1057D0000223FB74FB7C43E0202008F0EFFE03462D
:1057E000002B06D0202008F003FF0623FB74FB7C6F
:1057F00036E04FF4007008F0E1FE0346002B07D0BE
:105800004FF4007008F0F4FE0723FB74FB7C27E0E4
:1058100040F2FF5008F0ECFE3B680433BA68110612
:10582000BA6802F47F4212021143BA6802F47F029E
:10583000120A1143BA68120E0A431A60FB681A066C
:10584000FB6803F47F431B021A43FB6803F47F03E6
:105850001B0A1A43FB681B0E1A433B681A60FB7C49
:1058600018461C37BD4690BDC8B50120480A002027
:10587000A0B80120002C014080B58AB000AFF860CC
:10588000084611461A4603467B810B463B81134668
:10589000FB80F86808F0E2FEF8680121FDF7E8FCFB
:1058A0007B89BB823B89FB82FB883B833B8E7B836E
:1058B000BB8EBB833B8FFB83BB8F3B84B7F84030F1
:1058C0007B84B7F84430BB8407F11403F8681946A9
:1058D00008F030FF00BFF868022108F0C1FF03465E
:1058E000002BF8D02837BD4680BD00BF80B586B0FC
:1058F00006AF4A4B40225A70484B80221A70474BE1
:105900004FF480625A60454B01221A72434B0322C6
:105910005A72424B00221A74404B5B68184609F0D9
:10592000B7FD03461A463D4BDA603C4BDB68002B63
:105930000AD13A4BDB68184609F0B2FD38480AF044
:1059400031F9012009F094FD002300930323019312
:105950003448012100220623FBF74CF8314840214E
:10596000002208F029F800230093032301932D4817
:10597000012100220723FBF73DF82A48802100225D
:1059800008F01AF80023009303230193254801210E
:1059900000220823FBF72EF822484FF480710022E2
:1059A00008F00AF8022300930323019306230293CD
:1059B0001C48022100220523FBF742F80223009332
:1059C0000323019306230293164802210022032396
:1059D000FBF736F814480121FDF74AFC0023009339
:1059E000002301934FF400730293002303930023D9
:1059F0000493072305930C484FF440414FF48272FF
:105A00000023FFF739FF0848012108F0D7FE01F015
:105A1000F3F8064B00221A70BD4680BD6C0A0020C8
:105A2000386F010800040240003C0040C4B501206A
:105A300080B500AF012001F093F9002001F0A0F93A
:105A40001248002108F0BAFE01F0DAF910480F49B7
:105A50000222FAF749FE0D48012108F0AFFE00BF0F
:105A60000B484FF0205107F055FD0346002BF7D0AF
:105A7000074806490222FAF749FE0548002107F0C7
:105A800013FD012001F07CF980BD00BF003C004007
:105A9000B860024080B500AF0B48012109F034F82E
:105AA0000346002B0FD00848012109F057F80020C9
:105AB0000121FBF79FFCFBF75FFFFFF7B9FF002019
:105AC0000021FBF797FC80BD001C004080B582B030
:105AD00000AF0346FB71FB79002B0CD1A02001F035
