:020000040800F2
:100000000000022089010008450D0008510D00087C
:10001000610D0008710D0008810D0008000000004E
:10002000000000000000000000000000910D00082A
:10003000A10D000800000000B10D0008C10D00086E
:100040001502000815020008150200081502000834
:100050001502000815020008150200081502000824
:100060001502000815020008150200081502000814
:100070001502000815020008150200081502000804
:1000800015020008150200081502000815020008F4
:1000900015020008150200081502000815020008E4
:1000A00015020008150200081502000815020008D4
:1000B00015020008150200081502000815020008C4
:1000C00015020008150200081502000815020008B4
:1000D0001502000815020008F50D000815020008B9
:1000E000D50D0008150200087D0F00081502000854
:1000F000090E000815020008150200081502000884
:1001000015020008150E0008150200081502000867
:100110001502000815020008150200081502000863
:1001200015020008150200082D0E0008AD0E00088B
:100130001502000815020008150200081502000843
:10014000150200081502000815020008610F0008DA
:1001500015020008210E000815020008150200080B
:100160001502000815020008150200081502000813
:100170001502000815020008150200081502000803
:10018000150200081502000880B584B000AF0D4BC1
:10019000BB600D4B7B60BB683B6004E03B681A1D95
:1001A0003A6000221A607A683B689A42F6D805F0F5
:1001B00057F800F097FFF86005F088F8F86804F049
:1001C00043FF00BF10090020D018002080B584B084
:1001D00000AF0D4BFB600D4BBB600D4B7B60BB68F4
:1001E0003B6007E03B681A1D3A60FA68111DF96030
:1001F00012681A607A683B689A42F3D805F084F86E
:100200001037BD4680BD00BFE4E4000800000020B8
:100210000C09002080B400AFFEE700BF80B400AF3F
:10022000FEE700BF80B400AFFEE700BF80B400AFC0
:10023000FEE700BF80B400AFFEE700BF80B400AFB0
:10024000FEE700BF80B400AFFEE700BF80B400AFA0
:10025000FEE700BF80B400AFFEE700BF80B400AF90
:04026000FEE700BFF6
:08026400CD010008C1A700084C
:1002700080B483B000AF0346FB71084997F907309B
:100280005B09FA7902F01F02012000FA02F241F83C
:1002900023200C37BD465DF8047B704700E100E089
:1002A00080B588B006AF554800214FF4007207F0C2
:1002B0002DFC00237B6009E07B68D9B2504A7B6843
:1002C00013440A461A707B6801337B607B68B3F580
:1002D000007FF1D34B48012101F07AFA4A4801210D
:1002E00001F076FA3B20FFF7C3FF3A20FFF7C0FF8B
:1002F0003A200021012200F053FF3B200021002280
:1003000000F04EFF02230093032301930523029381
:100310003E4802210022062300F0A4FB02230093A2
:100320000323019305230293384802210022072367
:1003300000F098FB0223009303230193052302930B
:10034000324802210022052300F08CFB0123009398
:10035000032301932D4801210122042300F05CFBBB
:100360000123009303230193294801210022042340
:1003700000F052FB00230093032301932448012142
:100380000022052300F048FB21482021002205F02F
:1003900057FC00230093032301931E4800210022F1
:1003A000002300F039FB0023009303230193194835
:1003B00000210022012300F02FFB002300930323E0
:1003C0000193154800210022072300F025FB00239C
:1003D0000093002301934FF40073029318230393B7
:1003E00000230493072305930C48002100220023D7
:1003F00001F0F0FB0837BD4680BD00BFAC0B00200C
:10040000AC090020406402405864024000000240F1
:100410000008024000040240001002400030014089
:1004200080B590B000AF4B4805F074F84A4805F02D
:1004300071F84FF400737B6100233B6303237B63FC
:100440000023BB6300237B624FF48063FB610023C6
:10045000BB62424BBB600023FB6300233B62002373
:100460007B620023BB614FF40033FB624FF0C0633B
:100470007B6040233B613A4BFB6000BF354B1B6800
:1004800003F00103002BF9D13B1D3248194605F05A
:1004900013F94FF400737B6100233B6303237B63F9
:1004A0000023BB6300237B624FF48063FB61002366
:1004B000BB622A4BBB600023FB6300233B6200232B
:1004C0007B620023BB614FF40033FB624FF0C063DB
:1004D0007B6000233B61234BFB6000BF1E4B1B680E
:1004E00003F00103002BF9D13B1D1B48194605F011
:1004F000E3F81D480221012206F0CCF91A48012137
:10050000012206F0C7F913481821012205F0B0F9BD
:1005100011481821012205F0ABF90E48012105F020
:1005200021F90D48012105F01DF90F48012106F0C0
:1005300083F9012000F06AF80C480421002205F03C
:100540007FFB0B4A0A4B5B6983F010035361403712
:10055000BD4680BD58640240406402400C300140FA
:10056000AC090020AC0B002000300140000002402C
:100570000008024080B483B000AF03463960FB71CD
:1005800097F90730002B0BDA0D49FB7903F00F03C5
:10059000043B3A68D2B21201D2B20B441A7609E097
:1005A000084997F907303A68D2B21201D2B20B4427
:1005B00083F800230C37BD465DF8047B704700BF0D
:1005C00000ED00E000E100E080B582B000AF7860AF
:1005D0007B68013BB3F1807F01D301230FE00A4A1E
:1005E0007B68013B53604FF0FF300F21FFF7C2FFE4
:1005F000054B00229A60044B07221A60002318461C
:100600000837BD4680BD00BF10E000E080B485B073
:1006100000AF78600F4B1B68FB600E4B1A687B685D
:100620009A420AD97B68FA68D31AFB6000BF094B6B
:100630001A68FB689A42FAD807E07B68054A13609B
:1006400000BF044B1B68002BFBD11437BD465DF87F
:10065000047B70471009002080B500AF044B1B6875
:10066000044AA2FB03239B091846FFF7ADFF80BD98
:1006700058000020D34D621080B500AF124BD3E973
:100680000023013243F100030F49C1E900230F4B5E
:100690001B68002B04D00D4B1B68013B0B4A1360F9
:1006A000094BD3E90023104619464FF064024FF07E
:1006B000000306F011FC134304D101F08DF903206F
:1006C00000F0F4FC80BD00BF1809002010090020D4
:1006D00080B594B000AFF860B9607A603B60F868AC
:1006E00004F018FFF868012101F072F8FB6D7B62DD
:1006F000BB6F3B64FB6F7B64D7F88030BB64FB6EE1
:100700007B637B6EFB623B6FBB637B68BB61D7F82F
:100710008430FB64BB6E3B63FB6E7B633B6EBB62F2
:100720007B6FFB63BB687B61BB6D3B623B68FB61BE
:1007300007F11403F868194604F0BEFF5037BD46B0
:1007400080BD00BF80B584B000AFF860B9601346CB
:10075000FB80FB88F868B9681A46012300F016F898
:100760001037BD4680BD00BF80B584B000AFF860D3
:10077000B9601346FB80FB88F868B9681A46002305
:1007800000F004F81037BD4680BD00BF80B584B0CE
:1007900000AFF860B96011461A460B46FB8013465D
:1007A0007B717B79F868194604F0DCFFFA887B7965
:1007B000B86811461A4606F06DF81037BD4680BD80
:1007C00080B584B004AF1D48012100F0FBFD00237B
:1007D000009303230193032302931848022100226C
:1007E000062300F03FF91548012100F0EBFD00233E
:1007F0000093032301930323029310480221002254
:10080000072300F02FF90E48012100F0D9FE0C4813
:1008100001210222022306F0EFF90948012106F026
:100820004DF907484FF6FF7106F02EF904480121F3
:1008300006F064F900F048F8BD4680BD00080240AB
:100840000004014080B584B004AF1D48012100F0D0
:10085000B9FD002300930323019302230293184858
:1008600002210022002300F0FDF81548012100F0CC
:10087000A9FD002300930323019302230293104850
:1008800002210022012300F0EDF80E48012100F0C2
:1008900097FE0C4801210222022306F0ADF9094817
:1008A000012106F00BF907484FF6FF7106F0ECF84E
:1008B0000448012106F022F900F026F8BD4680BD6B
:1008C00000000240000C004080B500AF72B6094B3A
:1008D00000221A80084B00221A80084B00221A803E
:1008E000074B00221A800748002106F0BFF862B6C5
:1008F00080BD00BF2A09002028090020240900200B
:10090000200900200004014080B500AF72B6094BF9
:1009100000221A80084B00221A80084B00221A80FD
:10092000074B00221A800748002106F09FF862B6A4
:1009300080BD00BF2E0900202C09002026090020C0
:1009400022090020000C004080B500AF134B1B882B
:100950009AB2134B1A80134806F0A4F803469AB2D1
:100960000E4B1A800D4B1B889BB29AB20C4B1B8806
:100970009BB29BB2D31A9BB29AB20B4B1A800A4B12
:100980001B889BB29AB2094B1B889BB29BB2134443
:100990009BB29AB2054B1A8080BD00BF2809002087
:1009A0002A09002000040140240900202009002019
:1009B00080B500AF134B1B889AB2134B1A801348B3
:1009C00006F070F803469AB20E4B1A800D4B1B8846
:1009D0009BB29AB20C4B1B889BB29BB2D31A9BB2B0
:1009E0009AB20B4B1A800A4B1B889BB29AB2094BE6
:1009F0001B889BB29BB213449BB29AB2054B1A80E0
:100A000080BD00BF2C0900202E090020000C0040F2
:100A1000260900202209002080B586B000AFF860CA
:100A20007B600B46FB721346BB72F868012100F035
:100A3000C9FCFB7A3B75BB7ABB757B68012202FA65
:100A400003F33B6197F82030FB7597F824307B75F2
:100A500007F11003F868194605F064F81837BD4629
:100A600080BD00BF80B586B002AFF8607B600B46EA
:100A7000FB721346BB727B689BB203F00F039AB202
:100A800097F82030F86811461A4605F003F9F97A0C
:100A9000BA7A3B7E00933B7F0193F8687B68FFF74F
:100AA000BBFF1037BD4680BD80B588B000AFF86091
:100AB000B96011461A460B46FB711346BB71F868C4
:100AC000012100F07FFC4FF48040012105F0ACFAD9
:100AD000F86800F065F803461A46BB68DBB203F01D
:100AE0000F03DBB21046194605F014FFBB68012264
:100AF00002FA03F37B61BB793B76FB797B760123BA
:100B0000BB7607F11403184604F072FFBB6803F0CC
:100B10000F030F2B37D801A252F823F05D0B00080A
:100B2000630B0008690B00086F0B0008750B0008C9
:100B30007B0B00087B0B00087B0B00087B0B00087D
:100B40007B0B0008810B0008810B0008810B00085B
:100B5000810B0008810B0008810B00080623FB773E
:100B600011E00723FB770EE00823FB770BE0092356
:100B7000FB7708E00A23FB7705E01723FB7702E009
:100B80002823FB7700BFF97F97F8282097F82C30AF
:100B9000084611461A4600F003FB2037BD4680BDCB
:100BA00080B483B000AF78607B68244A934201D15F
:100BB00000233CE07B68224A934201D1012336E0C6
:100BC0007B68204A934201D1022330E07B681E4AB1
:100BD000934201D103232AE07B681C4A934201D14E
:100BE000042324E07B681A4A934201D105231EE0C6
:100BF0007B68184A934201D1062318E07B68164AA5
:100C0000934201D1072312E07B68144A934201D139
:100C100008230CE07B68124A934201D1092306E0C5
:100C20007B68104A934201D10A2300E00023184652
:100C30000C37BD465DF8047B704700BF00000240E2
:100C40000004024000080240000C02400010024074
:100C50000014024000180240001C02400020024024
:100C6000002402400028024080B500AF01F00EFFD2
:100C7000204800F051F800F0A1F900F05BF81E48A0
:100C800000F04AF800F0A6FA00F054F81B4800F013
:100C900043F8FFF795FDFFF7D5FD00F04BF8184836
:100CA00000F03AF8FFF7D8FC00F044F8154800F0DF
:100CB00033F800F00DFE00F03DF8134800F02CF87A
:100CC000FFF7EEFA00F036F8104800F025F800F0D3
:100CD000F5FD00F02FF80E4800F01EF800F0CEFEF3
:100CE00000F028F80B4800F017F800F0ADFF00F016
:100CF00021F880BD8CDE000894DE0008A0DE00082C
:100D0000ACDE0008B4DE0008B8DE0008BCDE000877
:100D1000C0DE0008C4DE000880B582B000AF786095
:100D20000348796806F044FF0837BD4680BD00BF20
:100D3000CCDE000880B500AF014806F07BFF80BD27
:100D4000E0DE000880B400AFBD465DF8047B70476C
:100D500080B500AF014806F02BFFFEE7ECDE00088F
:100D600080B500AF014806F023FFFEE7F8DE00087B
:100D700080B500AF014806F01BFFFEE714DF000856
:100D800080B500AF014806F013FFFEE720DF000842
:100D900080B500AF014806F00BFF80BD30DF0008D2
:100DA00080B500AF014806F003FF80BD40DF0008BA
:100DB00080B500AF014806F0FBFE80BD50DF0008A3
:100DC00080B500AFFFF758FCFFF7BEFDFFF7F0FD61
:100DD00080BD00BF80B500AF00F07CFA00F0C2FA21
:100DE00000F08AFA00F0ACFA00F098FA00F0CCFAC1
:100DF00080BD00BF80B500AF024806F01BFF01F0C8
:100E0000AFFE80BD5CDF000880B500AF00F0ECFFF6
:100E100080BD00BF80B500AF00F05EFE80BD00BFAA
:100E200080B500AF00F0BCFE80BD00BF80B500AF54
:100E300019481A4904F056FD0346012B0CD11648F7
:100E4000174904F0E7FC1448144904F0A3FD1248C4
:100E50000821002204F00CFD0F48124904F042FD65
:100E60000346012B16D10C484FF0815104F0D2FCFF
:100E700009480C4904F08EFD07481021002204F0B7
:100E8000F7FC0548002104F06DFC07480121002211
:100E900005F000FD80BD00BF40640240004010101E
:100EA00000001010008020100030014080B500AF1D
:100EB0002548264904F016FD0346012B0DD1224892
:100EC0004FF0A05104F0A6FC1F48204904F062FD39
:100ED0001D480821002204F0CBFC1B481C4904F0EB
:100EE00001FD0346012B2DD117484FF0C05104F0EE
:100EF00091FC1548164904F04DFD134810210022BD
:100F000004F0B6FC1048002104F02CFC114802212A
:100F1000002205F0BFFC00BF0F4B1B6803F001036C
:100F2000002BF9D100BF084B1B6803F00103002B15
:100F3000F9D10848002105F07FFC0848042101226E
:100F400004F07EFE80BD00BF5864024000400014E3
:100F50000080001800300140406402400000024060
:100F600080B500AF034806F065FE034802F064FC5C
:100F700080BD00BF70DF0008AC0D002080B500AF61
:100F80000B4806F057FE0B4B9B7A002B0AD00A4AFF
:100F9000094B1B6823F00603136004F0B5F90548FC
:100FA00002F0BCFA4FF4802004F0AEFD80BD00BF1B
:100FB00084DF0008AC0D002010ED00E080B582B0A9
:100FC00002AF002300930323019324480121002250
:100FD0000223FFF721FD21480421002204F030FE06
:100FE00000230093032301931C48012100220323C3
:100FF000FFF712FD19480821002204F021FE00230A
:101000000093032301931548012100220423FFF7D5
:1010100003FD12481021002204F012FE0023009369
:10102000032301930D48012100220523FFF7F4FC5F
:101030000A482021002204F003FE0023009303232A
:1010400001930648012100220623FFF7E5FC03482F
:101050004021002204F0F4FDBD4680BD0010024096
:1010600080B582B000AF03460A46FB711346BB71E0
:10107000FB790C4A52F82310FB790B4A52F82330C3
:101080001A46012393409AB2BB79002B14BF012367
:101090000023DBB2084611461A4604F0D1FD08379A
:1010A000BD4680BD000000201400002080B582B045
:1010B00000AF0346FB71FB79084A52F82310FB7915
:1010C000074A52F823301A46012393409BB2084640
:1010D000194604F0CDFD0837BD4680BD0000002054
:1010E0001400002090B58DB004AFFFF7BDFD284B74
:1010F0000093284A01AB92E8030083E80300002331
:101100000393002000217F22322301F0DDF8002329
:10111000FB61FB690133FB6100F0E2FE03463B81AA
:101120001C4B5B78FB761B4B1B781A4692001344D2
:101130005B00DBB20933BB7607F10C031846164996
:10114000FA6906F00DFE7A7AFB7ED31AD9B27B7A61
:10115000BA7E002001F0ACFA7A7AFB7ED31ADBB2B9
:10116000013BD9B207F10C040A4B5A6800921B6884
:101170000020224601F056F8FFF752F90748F969B6
:1011800006F016FD40F6B830FFF740FAC1E700BFA1
:101190009CDF00089CDC0008D4DF0008DCDF0008CE
:1011A00080B584B000AF0346FB710B46BB7113469C
:1011B0007B71FB793B73BB797B737B79BB730123B9
:1011C000FB7307F10C03184604F044F91037BD46D1
:1011D00080BD00BF80B582B002AF0023009303231F
:1011E00001933B48002100220F23FFF715FC0F233A
:1011F00000930F23019336480F2108220023FFF7A5
:1012000053FC002300930323019331480021002263
:101210000E23FFF701FC0F2300930F2301932C48AB
:101220000E2108220023FFF73FFC00230093032335
:1012300001932748002100220D23FFF7EDFB0F2328
:1012400000930F23019322480D2108220023FFF76A
:101250002BFC00230093032301931D48002100224F
:101260000C23FFF7D9FB0F2300930F23019318489A
:101270000C2108220023FFF717FC0023009303230F
:1012800001931348002100220B23FFF7C5FB0F2316
:1012900000930F2301930E480B2108220023FFF730
:1012A00003FC00230093032301930948002100223B
:1012B0000A23FFF7B1FB0F2300930F230193044888
:1012C0000A2108220023FFF7EFFBBD4680BD00BFC7
:1012D000000C024080B500AF4FF4004004F0FAFB70
:1012E0000346002B06D00020FFF7E0FE4FF400403D
:1012F00004F00AFC80BD00BF80B500AF4FF4804011
:1013000004F0E8FB0346002B06D00120FFF7CEFED9
:101310004FF4804004F0F8FB80BD00BF80B500AF03
:101320004FF4005004F0D6FB0346002B06D00220F9
:10133000FFF7BCFE4FF4005004F0E6FB80BD00BF99
:1013400080B500AF4FF4805004F0C4FB0346002B7F
:1013500006D00320FFF7AAFE4FF4805004F0D4FB20
:1013600080BD00BF80B500AF4FF4006004F0B2FB59
:101370000346002B06D00420FFF798FE4FF40060D0
:1013800004F0C2FB80BD00BF80B500AF4FF48060A9
:1013900004F0A0FB0346002B12D00020FFF786FECE
:1013A0000120FFF783FE0220FFF780FE0320FFF7F6
:1013B0007DFE0420FFF77AFE4FF4806004F0A4FB6A
:1013C00080BD00BF80B582B000AF78600B46FB7077
:1013D0007B68394A934205D1FB780120194604F015
:1013E000C9FD65E07B68354A934205D1FB78022050
:1013F000194604F0BFFD5BE07B68314A934205D19A
:10140000FB780420194604F0B5FD51E07B682D4AB5
:10141000934205D1FB780820194604F0ABFD47E064
:101420007B68294A934205D1FB781020194604F0C5
:10143000A1FD3DE07B68254A934205D1FB78202041
:10144000194604F097FD33E07B68214A934205D1A9
:10145000FB784020194604F08DFD29E07B681D4A89
:10146000934205D1FB788020194604F083FD1FE0EC
:101470007B68194A934206D1FB784FF48070194675
:1014800004F078FD14E07B68144A934206D1FB789F
:101490004FF40070194604F06DFD09E07B68104AB6
:1014A000934205D1FB784FF48060194604F062FD49
:1014B0000837BD4680BD00BF000002400004024066
:1014C00000080240000C02400010024000140240DC
:1014D00000180240001C024000200240002402408C
:1014E0000028024080B582B000AF78600B46FB70E8
:1014F0007B682B4A934205D1FB781020194604F0F3
:1015000093FD4AE07B68274A934206D1FB784FF46B
:101510000030194604F06AFD3FE07B68224A93429E
:1015200006D1FB784FF48020194604F05FFD34E0CB
:101530007B681E4A934206D1FB784FF4002019467F
:1015400004F054FD29E07B68194A934206D1FB78E8
:101550004FF48010194604F049FD1EE07B68154ADF
:10156000934205D1FB782020194604F05DFD14E07C
:101570007B68114A934206D1FB784FF080401946B0
:1015800004F034FD09E07B680C4A934205D1FB78F6
:101590004FF00040194604F029FD0837BD4680BDD4
:1015A000001001400044004000480040004C004052
:1015B000005000400014014000780040007C0040D2
:1015C00080B582B000AF78600B46FB707B68B3F1EA
:1015D000804F05D1FB780120194604F007FD84E017
:1015E0007B68434A934205D1FB780220194604F0F8
:1015F000FDFC7AE07B683F4A934205D1FB780420EA
:10160000194604F0F3FC70E07B683B4A934205D135
:10161000FB780820194604F0E9FC66E07B68374A4D
:10162000934205D1FB781020194604F0DFFC5CE002
:101630007B68334A934205D1FB782020194604F099
:10164000D5FC52E07B682F4A934205D1FB784020BD
:10165000194604F0CBFC48E07B682B4A934205D145
:10166000FB788020194604F0C1FC3EE07B68274AE5
:10167000934206D1FB784FF48070194604F0B6FC13
:1016800033E07B68224A934205D1FB78012019465A
:1016900004F0CAFC29E07B681E4A934205D1FB781E
:1016A0000220194604F0C0FC1FE07B681A4A9342EE
:1016B00006D1FB784FF48030194604F0B5FC14E0F5
:1016C0007B68164A934206D1FB784FF400301946E6
:1016D00004F0AAFC09E07B68114A934205D1FB782B
:1016E0004FF48020194604F09FFC0837BD4680BDAA
:1016F0000004004000080040000C004000100040C2
:101700000014004000180040001C00400020004071
:10171000000001400004014000400140004401403D
:101720000048014080B582B000AF78600B46FB7086
:101730007B68214A934206D1FB784FF480401946DA
:1017400004F054FC35E07B681C4A934206D1FB78D8
:101750004FF40040194604F049FC2AE07B68184A1F
:10176000934206D1FB784FF48050194604F05CFC9C
:101770001FE07B68134A934206D1FB784FF48050F8
:10178000194604F051FC14E07B680F4A934206D1DD
:10179000FB784FF48010194604F046FC09E07B68A2
:1017A0000A4A934205D1FB784FF40010194604F021
:1017B0003BFC0837BD4680BD00380040003C00407F
:1017C000003001400034014000500140005401400D
:1017D00080B582B000AF78600B46FB707B68274A0B
:1017E00093421BD07B68264A934217D07B68254AD8
:1017F000934213D07B68244A93420FD07B68234ADC
:1018000093420BD07B68224A934207D07B68214ADF
:10181000934203D07B68204A934205D1FB784FF472
:101820000010194604F0A6FB7B681C4A93421BD0AB
:101830007B681B4A934217D07B681A4A934213D0A5
:101840007B68194A93420FD07B68184A93420BD0A9
:101850007B68174A934207D07B68164A934203D0AD
:101860007B68154A934205D1FB784FF480001946F6
:1018700004F080FB0837BD4680BD00BF1060024009
:1018800028600240406002405860024070600240A0
:1018900088600240A0600240B860024010640240CC
:1018A0002864024040640240586402407064024070
:1018B00088640240A0640240B864024080B500AF72
:1018C0004020012104F074FB012004F041FC80BDA4
:1018D00080B584B000AF0023FB604FF08050012141
:1018E00004F084FB012004F01DFA012004F02AFA20
:1018F00024E03220FEF78AFEFB68052B1ED1002073
:1019000004F020FA012004F03DFA00BF612004F049
:10191000E5FB0346002BF9D04FF4007004F0ECFA1D
:10192000284BFF221A60284B7F221A60274806F0B6
:101930003FF94FF47A70FEF769FE0FE0412004F0A2
:10194000CDFB0346002BD4D04FF4807004F0D4FAC2
:101950001C4BFF221A601C4B7F221A60012004F0EE
:10196000F9FA04F095FC184B1B687B60154B1B685B
:10197000BB6000233B603B46184604F005FC144B5B
:101980001522DA70124B04225A70114B18229A70E9
:101990000F4B06221A7001200D4904F08DFD0D4BEE
:1019A0004022DA700B4B16221A700A4B10225A7022
:1019B000084B00229A700120064904F0A5FC10375C
:1019C000BD4680BD3409002030090020F0DF00084A
:1019D0003C09002038090020B0B586B002AF00F005
:1019E0007FFA03463B80224B5B78FB73204B1B78CE
:1019F000DB00DBB20733BB7300201E4904F00EFD91
:101A00001C4B1B781D461B4B5B781C46194B9B7867
:101A10001A463B1D0092184617492A46234606F0EF
:101A20009FF93A78BB7BD31ADBB2013BD8B27A7804
:101A3000FB7BD31AD9B23B78013BDAB27B7800F05A
:101A400037FE3A78BB7BD31ADBB2013BD8B27A7847
:101A5000FB7BD31ADBB2013BD9B23C1D044B5A6865
:101A600000921B68224600F0DDFB1037BD46B0BD7A
:101A70009CDC00083809002000E0000880B500AFB9
:101A8000312001210022FFF78BFB0F4800214FF48A
:101A90000C7206F03BF800200B4903F0B7FB03463D
:101AA0001A460A4B1A70094B1B78002B05D0074BBE
:101AB0001B780748194606F07BF8064800214FF4CA
:101AC000097206F023F880BDB8130020A416002088
:101AD00010E00008A816002080B500AF4FF4807019
:101AE00004F0D2FD0346002B0AD02B4B00221A70C3
:101AF0004FF4807004F0E2FD284B01221A6041E0AF
:101B0000022004F0C1FD0346002B06D0022004F0A1
:101B1000D5FD214B02221A7034E0082004F0B4FDF8
:101B20000346002B06D0082004F0C8FD1A4B0422FF
:101B30001A7027E0202004F0A7FD0346002B06D0F2
:101B4000202004F0BBFD144B06221A701AE010206E
:101B500004F09AFD0346002B06D0102004F0AEFDE1
:101B60000D4B05221A700DE04FF4007004F08CFD4F
:101B70000346002B06D04FF4007004F09FFD064B87
:101B800007221A704CF23A30002104F05FFD024B3C
:101B90001B78DBB2184680BD4009002044090020B4
:101BA00080B500AF064B1A68064B1340002B06D0D9
:101BB000054B01221A600548054903F02BFE80BD44
:101BC000006402400000202048090020A064024078
:101BD0000000212080B58AB000AFF86008461146A9
:101BE0001A4603467B810B463B811346FB80F8680F
:101BF00004F072FDF8680121FFF794FD7B89BB8238
:101C00003B89FB82FB883B833B8E7B83BB8EBB8304
:101C10003B8FFB83BB8F3B84B7F840307B84B7F8A6
:101C20004430BB8407F11403F868194604F0C0FD82
:101C300000BFF868022104F051FE0346002BF8D0E3
:101C40002837BD4680BD00BF80B586B006AF494B82
:101C500040225A70474B80221A70464B4FF48062E4
:101C60005A60444B01221A72424B03225A72414B72
:101C700000221A743F4B5B68184605F00FFC0346C0
:101C80001A463C4BDA603B4BDB68002B0AD1394BE0
:101C9000DB68184605F00AFC374805F089FF01208B
:101CA00005F0ECFB0023009303230193334801214B
:101CB00000220623FEF7B0FE30484021002203F048
:101CC000BFFF00230093032301932C48012100222E
:101CD0000723FEF7A1FE29488021002203F0B0FF70
:101CE00000230093032301932448012100220823A9
:101CF000FEF792FE21484FF48071002203F0A0FF0E
:101D00000223009303230193062302931B4802211D
:101D100000220523FEF7A6FE02230093032301936E
:101D2000062302931548022100220323FEF79AFEA0
:101D300013480121FFF7F6FC0023009300230193D1
:101D40004FF40073029300230393002304930723AB
:101D500005930B484FF440414FF482720023FFF784
:101D600039FF0748012104F067FD00F003FDBD467F
:101D700080BD00BF4C09002080E100080004024043
:101D8000003C004080B500AF012000F0A7FD00201E
:101D900000F0B4FD1248002104F04EFD00F0EEFD0D
:101DA00010480F490222FEF7CDFC0D48012104F036
:101DB00043FD00BF0B484FF0205103F0EFFC0346FA
:101DC000002BF7D0074806490222FEF7CDFC054854
:101DD000002103F0C7FC012000F090FD80BD00BF92
:101DE000003C0040B860024080B500AF0A480121C5
:101DF00004F0C8FE0346002B0DD00748012104F073
:101E0000EBFE00200121FFF72BF9FFF7BBFF0020BD
:101E10000021FFF725F980BD001C004080B582B08D
:101E200000AF0346FB71FB79002B0CD1A02000F022
:101E300077FDC02000F074FD202000F071FD01202E
:101E400000F06EFD2EE0FB79012B0CD1A12000F0FB
:101E500067FDC82000F064FD202000F061FD012036
:101E600000F05EFD1EE0FB79022B0CD1A12000F0FA
:101E700057FDC02000F054FD202000F051FD00204F
:101E800000F04EFD0EE0FB79032B0BD1A02000F0FB
:101E900047FDC82000F044FD202000F041FD002057
:101EA00000F03EFD0837BD4680BD00BF80B582B062
:101EB00000AF0346FB71094AFB791372FB79012BD2
:101EC00003D1A62000F02CFD05E0FB79002B02D108
:101ED000A72000F025FD0837BD4680BD4C09002035
:101EE00080B483B000AF164B5B7A022B03D0144B47
:101EF0005B7A032B06D1124B1B783B70104B5B783F
:101F00007B700DE00E4B5B7A002B03D00C4B5B7AA1
:101F1000012B05D10A4B5B783B70094B1B787B701A
:101F20003B88BB8000233A7962F307037A7962F336
:101F30000F2318460C37BD465DF8047B704700BF81
:101F40004C09002090B585B000AF0346FB710B46ED
:101F5000BB7113467B71FFF7C3FF0346BB813B7B1D
:101F6000FA799A4280F0B1807B7BBA799A4280F00C
:101F7000AC80574B5B7A022B03D0554B5B7A032B1B
:101F80004ED17B79002B24D0514BDB68F979BA799B
:101F9000D208D4B220464E4A127802FB00F20A441C
:101FA00013444B4AD268F8794949097801FB04F196
:101FB00001440A441278D0B2BA7902F00702012132
:101FC00001FA02F2D2B201460A43D2B2D2B21A7078
:101FD0007BE03F4BDB68F979BA79D208D4B220466E
:101FE0003B4A127802FB00F20A441344384AD26892
:101FF000F8793749097801FB04F101440A44127861
:10200000D0B2BA7902F00702012101FA02F2D2B28B
:10201000D243D2B201460A40D2B2D2B21A7054E0D0
:102020002B4B5B7A002B03D0294B5B7A012B4CD1D5
:102030007B79002B23D0264BDA68FB79DB08D8B2FA
:102040000446BB792249497801FB03F3002B00DAEF
:102050000733DB10E1180A441D49C96803440B44E7
:102060001B78D8B2FB7903F00703012101FA03F3CF
:10207000DBB201460B43DBB2DBB2137025E0144B3D
:10208000DA68FB79DB08D8B20446BB791049497895
:1020900001FB03F3002B00DA0733DB10E1180A44DD
:1020A0000B49C96803440B441B78D8B2FB7903F091
:1020B0000703012101FA03F3DBB2DB43DBB2014684
:1020C0000B40DBB2DBB21370FFE71437BD4690BDA7
:1020D0004C09002082B02DE9F04389B000AF7B6449
:1020E0000346FB710B46BB7113467B716B461E4664
:1020F00097F844100B46013B7B61CAB24FF00003D6
:102100004FEAC30949EA52794FEAC208CAB24FF00E
:102110000003DD0045EA5275D4000B460733DB08A7
:10212000DB00ADEB030D6B4600333B6197F84630A7
:102130007A799A421ED397F847307A799A4219D819
:102140000023FB7710E0FB7FBA6C7979203997F890
:10215000440000FB01F0F97F01440A4411783A6918
:10216000D154FB7F0133FB7797F84430FA7F9A42D2
:10217000E9D30EE00023FB7706E0FB7F3A69FF21FD
:10218000D154FB7F0133FB7797F84430FA7F9A42B2
:10219000F3D30023BB8338E000237B832CE00023B0
:1021A000FB73BB8B3A69D35C1A4697F845301946E6
:1021B0007B8BDB430B4402FA03F3FB73FB7BDB09F2
:1021C000FB73FB7B002B14D0BB8BDAB2FB7913447F
:1021D000D9B297F84520BB791344DAB27B8BDBB2D6
:1021E000D31ADAB297F84C30084611461A46FFF770
:1021F000A9FE7B8B01337B837A8B97F845300133C3
:102200009A42CCDBBB8B0133BB8397F844309BB243
:10221000BA8B9A42C0D3B5462437BD46BDE8F043D9
:1022200002B0704782B080B584B002AF3A607B6183
:102230000346FB710B46BB71F979BA79012301930F
:10224000BB6900937B69084611463A6800F006F8BE
:102250000837BD46BDE8804002B0704782B090B5F7
:1022600087B002AF3A607B620346FB710B46BB71DD
:102270000023FB731BE097F824300133DAB2FB7BB9
:1022800012FB03F3DAB2FB791344D8B2FB7B3A6852
:1022900013441B78DAB2B97997F82C300193BB6AF2
:1022A00000937B6AFFF716FFFB7B0133FB73FC7B1C
:1022B000386805F07BFD03469C42DCD31437BD46ED
:1022C000BDE8904002B0704790B591B002AF0446AF
:1022D000084611461A462346FB710346BB710B465E
:1022E0007B7113463B71FA79BB791046194600F0B1
:1022F00079FB0346BB837A793B791046194600F097
:1023000071FB03463B833A7E3B7F934228BF1346D3
:10231000DBB23B757A7E7B7F934238BF1346DBB2DC
:102320007B753A7E3B7F934238BF1346DBB23B74EA
:102330007A7E7B7F934238BF1346DBB27B743A7E52
:102340003B7F934228BF1346DBB23B737A7E7B7F91
:10235000934228BF1346DBB27B733A7E3B7F9342A6
:1023600038BF1346DBB23B727A7E7B7F934238BF25
:102370001346DBB27B723B7A1A463B7BD21A97F844
:102380004C30013392FBF3F3BB627B7D1A467B7BBF
:10239000D21A97F84D30013392FBF3F37B62B86C9D
:1023A00005F004FD3862387B797B3A7C7C7C002325
:1023B0000093234600F098F97B6DBA6A02FB03F3A1
:1023C000FB6201233B63E3E000237B63D8E0BA6C4C
:1023D000FB6A13441B785BB20A2B05D1BB6A7B6393
:1023E000FB6A0133FB62C8E0BA6CFB6A13441B78DA
:1023F0005BB2092B40F09180FB6A0133FB623A7DAE
:1024000097F84C300133D9B27B6BDBB211FB03F38D
:10241000DBB21344D8B27A7D97F84D300133D9B28C
:102420003B6BDBB211FB03F3DBB2D31ADAB201234D
:1024300001933B6D0093FB6C11462022FFF74AFE8F
:102440007B6B01337B633A7D97F84C300133D9B213
:102450007B6BDBB211FB03F3DBB21344D8B27A7DA2
:1024600097F84D300133D9B23B6BDBB211FB03F36C
:10247000DBB2D31ADAB2012301933B6D0093FB6CFC
:1024800011462022FFF726FE7B6B01337B633A7DEA
:1024900097F84C300133D9B27B6BDBB211FB03F3FD
:1024A000DBB21344D8B27A7D97F84D300133D9B2FC
:1024B0003B6BDBB211FB03F3DBB2D31ADAB20123BD
:1024C00001933B6D0093FB6C11462022FFF702FE47
:1024D0007B6B01337B633A7D97F84C300133D9B283
:1024E0007B6BDBB211FB03F3DBB21344D8B27A7D12
:1024F00097F84D300133D9B23B6BDBB211FB03F3DC
:10250000DBB2D31ADAB2012301933B6D0093FB6C6B
:1025100011462022FFF7DEFD2FE0BA6CFB6A134460
:102520001B78002B31D0FA6A3B6A9A422DD23A7D51
:1025300097F84C300133D9B27B6BDBB211FB03F35C
:10254000DBB21344D8B27A7D97F84D300133D9B25B
:102550003B6BDBB211FB03F3DBB2D31AD9B2FB6ADC
:102560005A1CFA62BA6C13441B78DAB20123019345
:102570003B6D0093FB6CFFF7ADFD7B6B01337B6321
:102580007A6BBB6A9A42FFF422AF3B6B01333B6329
:102590007B6A5A1C3B6B9A423FF616AF3C37BD46EE
:1025A00090BD00BF90B58BB000AF04460846114601
:1025B0001A462346FB710346BB710B467B711346DB
:1025C0003B71FA79BB791046194600F00BFA0346C5
:1025D000BB817A793B791046194600F003FA03462D
:1025E0003B813B7A1A463B7BD31A002BB8BF5B4238
:1025F0003B623A7B3B7A9A4201D2012301E04FF0E1
:10260000FF33FB617B7A1A467B7BD31A002BB8BF62
:102610005B42BB617A7B7B7A9A4201D2012301E063
:102620004FF0FF337B613A6ABB699A4205DCBB69B4
:102630005B42DA0F13445B1003E03B6ADA0F13448A
:102640005B107B62397B7A7B97F8383008461146FD
:102650001A46FFF777FC3A7B3B7A9A4204D17A7BA1
:102660007B7A9A4200D11FE07B6A3B613B6A5A4207
:102670003B699A4209DA7A6ABB69D31A7B623A7B70
:10268000FB69DBB21344DBB23B733A69BB699A4224
:1026900009DA7A6A3B6A13447B627A7B7B69DBB234
:1026A0001344DBB27B73CDE72C37BD4690BD00BF32
:1026B00090B585B002AF0446084611461A46234637
:1026C000FB710346BB710B467B7113463B71F87976
:1026D000B9797A793C7900230093234600F004F815
:1026E0000C37BD4690BD00BF90B587B002AF044621
:1026F000084611461A462346FB710346BB710B463A
:102700007B7113463B717A79FB79934228BF13465C
:10271000BB737A79FB79934238BF13467B733A795E
:10272000BB79934228BF13463B733A79BB799342F6
:1027300038BF1346FB720023FB7312E03A7BFB7B2E
:102740001344D9B23A7BFB7B1344DCB2B87B7A7B6F
:1027500097F8203000932346FFF724FFFB7B0133DB
:10276000FB73FA7BF97A3B7BCB1A9A42E6DB143790
:10277000BD4690BD80B584B000AF002000F09EF84B
:102780000A20FDF743FF012000F098F80A20FDF72A
:102790003DFF012000F0A2F8012000F0AFF8AE20CC
:1027A00000F0BEF8D52000F0BBF8802000F0B8F8AB
:1027B000A82000F0B5F83F2000F0B2F8D32000F0D8
:1027C000AFF8002000F0ACF8402000F0A9F88D2010
:1027D00000F0A6F8374B1B7C012B03D1102000F032
:1027E0009FF802E0142000F09BF8324B5B7A184609
:1027F000FFF714FBDA2000F093F8122000F090F8B5
:10280000812000F08DF82B4B1B7C012B03D19F20E6
:1028100000F086F802E0CF2000F082F8D92000F026
:102820007FF8244B1B7C012B03D1222000F078F889
:1028300002E0F12000F074F8DB2000F071F8402095
:1028400000F06EF8A42000F06BF81A4B1B7A1846C3
:10285000FFF72CFB174BDA68164B5B68104600211C
:102860001A4605F053F9AF2000F05AF82C200F213A
:102870000022FEF795FC10480121FEF7A1FE44F668
:102880001F63BB605323BB800023BB810023FB80FD
:102890003B1D0948194604F07FF807480121012231
:1028A00004F04CF90448012104F028F91037BD4622
:1028B00080BD00BF4C090020001C004080B582B0E4
:1028C00000AF0346FB71FB79034880211A4603F0F1
:1028D000B7F90837BD4680BD0004024080B582B01C
:1028E00000AF0346FB71FB79034840211A4603F011
:1028F000A7F90837BD4680BD0004024080B582B00C
:1029000000AF0346FB71FB7904484FF480711A460F
:1029100003F096F90837BD4680BD00BF00040240B1
:1029200080B582B000AF0346FB710020FFF7D6FFF1
:10293000FB79184600F004F80837BD4680BD00BF9B
:1029400080B582B000AF0346FB710020FFF7D6FFD1
:10295000FB799BB20848194603F08EFF00BF06487A
:10296000022103F0BBFF0346002BF8D00120FFF744
:10297000C5FF0837BD4680BD003C004090B58DB016
:102980000CAF154802F0C6FD144BDB681C46134B18
:102990005B68402200920193002302934FF480630E
:1029A00003930023049300230593002306934FF41D
:1029B00000330793002308930023099300230A930D
:1029C00000230B9304480021054A2346FDF780FEAF
:1029D0000437BD4690BD00BFB86002404C090020DE
:1029E0000C3C004080B485B000AF03460A46FB7142
:1029F0001346BB71244B5B7A022B03D0224B5B7ACC
:102A0000032B13D1204B1B78FA799A4203D31E4B28
:102A10001B78013BFB711C4B5B78BA799A4204D35B
:102A2000194B5B78013BBB711AE019E0164B5B7ADE
:102A3000002B03D0144B5B7A012B11D1124B5B7826
:102A4000FA799A4203D3104B5B78013BFB710E4B32
:102A50001B78BA799A4203D30B4B1B78013BBB71AD
:102A6000FB793B72BB797B723B89BB8100233A7B4C
:102A700062F307037A7B62F30F2318461437BD46CF
:102A80005DF8047B704700BF4C09002080B588B01A
:102A900004AF0123009303230193072302932C48DF
:102AA000022100220623FDF7DDFF0123009303230B
:102AB0000193072302932648022100220523FDF7F4
:102AC000D1FF24480121FEF70DFD4FF461333B6037
:102AD0000023BB800023FB8000233B810023BB81BC
:102AE0000C237B813B461B48194604F0D1F819485A
:102AF00040F22551012204F0A7F9262002210022EC
:102B0000FEF74EFB1348012104F07EF9124B1B68BF
:102B10005B68184600210222002305F0A5F80E4B41
:102B20001B689B68184600210222002305F09CF8D0
:102B3000094B1B68DB68184600210222002305F0C0
:102B400093F8064805F076F81037BD4680BD00BF03
:102B5000000C0240004400409804002004E30008F8
:102B600080B400AFBD465DF8047B704780B489B087
:102B700000AFF860B96011461A460B46FB71134668
:102B8000BB800023FB76FB68DB78002B22D100237F
:102B90007B610023FB61BB880333002B00DA033326
:102BA0009B107B61FB79FA6832339B0013449B686E
:102BB0003B610023FB6109E0BB681A683B691A604E
:102BC000FB690133FB61BB680433BB60FA697B6955
:102BD0009A42F1D3FB7E18462437BD465DF8047B4C
:102BE000704700BF80B489B000AFF860B960134689
:102BF000FB800023FB61FB880333002B00DA0333E7
:102C00009B10BB61FB68D3F8D0307B610023FB6174
:102C100009E07B691A68BB681A60FB690133FB61D4
:102C2000BB680433BB60FA69BB699A42F1D3BB68E5
:102C300018462437BD465DF8047B704780B586B0E2
:102C400000AF786039600023FB7400237B610023B0
:102C5000FB60FB6843F02003FB603B68DBB203F0E2
:102C60001F03DBB203F01F039B01FA6822F4F86232
:102C70001343FB607B68DB68FA681A617B68DB687A
:102C80001B69FB607B6901337B617B69094A934265
:102C900000D906E0FB685B0903F00103DBB2012BFE
:102CA000ECD0032002F078F9FB7C18461837BD46BB
:102CB00080BD00BF400D030080B483B000AF7860DA
:102CC0007B68DB685B6903F0010318460C37BD467F
:102CD0005DF8047B704700BF80B582B000AF7860BC
:102CE0007868FFF7E9FF0346012B14BF0123002397
:102CF000DBB218460837BD4680BD00BF80B485B042
:102D000000AF78600023FB607B68DB685B69FB6079
:102D10007B68DB689B69FA681340FB60FB681846B8
:102D20001437BD465DF8047B704700BF80B485B0A2
:102D300000AF78600023FB737B681B699B68BB60F6
:102D40003B7AC3F34103DBB2022B09D0032B04D03F
:102D5000012B02D00323FB7305E00223FB7302E087
:102D60000123FB7300BFFB7B18461437BD465DF89B
:102D7000047B704780B487B000AF78600023FB7598
:102D80000023BB607B681B699B683B617B689B6918
:102D90001B68FB603B7CC3F34103DBB2022B04D016
:102DA000BB896FF30A03BB8105E0BB89032262F391
:102DB0000A03BB8100BF7B689B69FA681A607B7A53
:102DC00043F001037B727B681B697A681269516862
:102DD000BA68D2431140BA680A435A60FB7D18466C
:102DE0001C37BD465DF8047B704700BF80B487B0D8
:102DF00000AF786039600023FB740023FB60002380
:102E0000BB603B685B78012B0FD13B681B787A680D
:102E100004339B0013449B687B613B681B781A4614
:102E2000012393409BB23B810EE03B681B787A689C
:102E300014339B0013445B687B613B681B781A4624
:102E4000012393409BB27B817B691B68FB607B7B8A
:102E500023F07F03DBB2002B27D13B689B689BB23A
:102E6000C3F30A039AB2BB8962F30A03BB813B68CE
:102E7000DB7803F00303DAB2BB7B62F38303BB733B
:102E80003B68DB88DBB203F00F03DAB2FB8962F345
:102E90008913FB81FB7B43F01003FB737B7B43F0C7
:102EA00080037B73FA687B691A607B681B697A68A8
:102EB0001269D169BA680A43DA61FB7C18461C378B
:102EC000BD465DF8047B704780B588B000AF786080
:102ED00039600023FB770023BB6100237B61002363
:102EE0003B613B685B78012B40F0AB803B681B7813
:102EF0007A6804339B0013449B681B687B613B68C2
:102F00001B787A6804339B0013449B681B693B6100
:102F10003B685B69002B09D13B696FF312033B618E
:102F20007B8A012262F3CC037B8222E03B685B69EF
:102F3000C3F312023B6962F312033B613B685A69B7
:102F40003B689B6813445A1E3B689B68B2FBF3F3D3
:102F50009BB2C3F309039AB27B8A62F3CC037B82F0
:102F60003B68DB78012B04D1FB7C012262F3461322
:102F7000FB743B681B787A6804339B0013449B689E
:102F80003A691A617B68DB78012B0AD13B681B78B0
:102F90007A6804339B0013449B683A6812695A614B
:102FA00015E03B68DB78012B11D03B685B69002B97
:102FB0000DD03B681B781A4601239340BB617B68A8
:102FC0001B697A681269516BBA690A435A633B6894
:102FD000DB78012B14D17B681B699B68FB60FB6865
:102FE000C3F30D239BB203F00103002B04D1FB7D3F
:102FF00043F02003FB7503E0FB7D43F01003FB75FA
:10300000FB7D43F00403FB75FB7D43F08003FB7500
:103010003B681B787A6804339B0013449B687A6989
:103020001A603B68DB78012B40F089803B68D968E7
:103030003B681A783B685B699BB27868FFF796FD3E
:103040007DE03B681B787A6814339B0013445B680F
:103050001B687B613B681B787A6814339B001344C0
:103060005B681B693B613B685B69002B0DD13B686A
:103070009B68C3F312023B6962F312033B617B8AD4
:10308000012262F3CC037B8220E03B685A693B68F3
:103090009B6813445A1E3B689B68B2FBF3F39BB2D8
:1030A000C3F309039AB27B8A62F3CC037B827B8AE7
:1030B000C3F3C9039BB21A463B689B6803FB02F348
:1030C000C3F312023B6962F312033B613B681B7856
:1030D0007A6814339B0013445B683A691A617B6811
:1030E000DB78012B09D13B681B787A6814339B008D
:1030F00013445B683A6812695A613B68DB78012BBC
:103100000CD13B685B79002B04D0FB7D43F020039E
:10311000FB7503E0FB7D43F01003FB75FB7D43F083
:103120000403FB75FB7D43F08003FB753B681B7854
:103130007A6814339B0013445B687A691A60FB7FDA
:1031400018462037BD4680BD80B489B000AF786096
:1031500039600023FB770023BB6100233B61002320
:10316000BB603B685B78012B70D17B689B697B619E
:103170007B691B683B617B691B69BB603B685B6962
:10318000002B09D13B7A6FF306033B72BB7A012215
:1031900062F3C403BB7223E03B685A693B689B68D7
:1031A0009A420ED93B689A683B685A613B689B68B3
:1031B000DBB203F07F03DAB23B7A62F306033B72C1
:1031C00009E03B685B69DBB203F07F03DAB23B7A6C
:1031D00062F306033B72BB7A012262F3C403BB7243
:1031E000BA687B691A617B68DB78012B09D13B687F
:1031F0001B787A6804339B0013449B683A68126911
:103200005A61FB7C43F00403FB74FB7C43F08003B6
:10321000FB743A697B691A607B68DB78002B76D196
:103220003B685B69002B72D03B681B781A46012310
:1032300093401A46BB691343BB617B681B697A687C
:103240001269516BBA690A435A6360E03B681B78A4
:103250007A6814339B0013445B681B683B613B68CE
:103260001B787A6814339B0013445B681B69BB604E
:103270003B685B69002B0FD13B689B68DBB203F0B6
:103280007F03DAB23B7A62F306033B72BB7A012218
:1032900062F3C403BB7212E03B689A683B685A61F0
:1032A0003B689B68DBB203F07F03DAB23B7A62F3E0
:1032B00006033B72BB7A012262F3C403BB723B6814
:1032C0001B787A6814339B0013445B68BA681A61F0
:1032D0007B68DB78012B09D13B681B787A68143353
:1032E0009B0013445B683A6812695A61FB7C43F0A7
:1032F0000403FB74FB7C43F08003FB743B681B7886
:103300007A6814339B0013445B683A691A60FB7F48
:1033100018462437BD465DF8047B704780B487B0FB
:1033200000AF786039600023FB750023FB603B68C9
:103330005B78012B1CD13B681B787A6804339B00B7
:1033400013449B683B613B691B68FB60FB7B23F07C
:103350007F03DBB2002B03D0FB7B43F04003FB7306
:10336000BB7B43F02003BB73FA683B691A6011E032
:103370003B681B787A6814339B0013445B683B619D
:103380003B691B68FB60BB7B43F02003BB73FA689F
:103390003B691A60FB7D18461C37BD465DF8047B0F
:1033A000704700BF80B487B000AF786039600023F9
:1033B000FB740023FB603B685B78012B08D13B6802
:1033C0001B787A6804339B0013449B687B6107E099
:1033D0003B681B787A6814339B0013445B687B61FD
:1033E0007B691B68FB60BB7B6FF34513BB733B685A
:1033F000DB78032B03D03B68DB78022B03D1FB7B0C
:1034000043F01003FB73FA687B691A60FB7C184673
:103410001C37BD465DF8047B704700BF80B485B0A3
:1034200000AF78607B681B699B69FB607B681B69E8
:10343000DB69FA681340FB60FB681B0C1846143705
:10344000BD465DF8047B704780B485B000AF7860FE
:103450000B46FB70FB787A6814339B0013445B685F
:103460009B68FB607B681B695B69FA681340FB60C3
:10347000FB6818461437BD465DF8047B704700BFF3
:1034800080B485B000AF78607B681B699B69FB6086
:103490007B681B69DB69FA681340FB60FB689BB2C1
:1034A00018461437BD465DF8047B704780B487B07A
:1034B00000AF786000233B61FB7C43F0C003FB74EA
:1034C000BB7C012262F3C403BB743B7C182262F311
:1034D00006033B747B685B6D3A691A617B68DB7835
:1034E000012B16D10023FB607B685B6D7A6802F5C7
:1034F000B9625A617B685B6D1B68FB60FB7B43F0C4
:103500008003FB734FF08023FB607B685B6DFA6880
:103510001A601C37BD465DF8047B704780B485B0E7
:1035200000AF78607B689B7A002B1BD07B681B699F
:103530009B68FB603B7B03F00103DBB2002B11D0E7
:103540007B6803F586731B68BB603B7A6FF34103AE
:103550003B723B7A6FF300033B727B68D3F80C310C
:10356000BA681A601437BD465DF8047B704700BF27
:1035700080B584B000AF7860084611461A4603460D
:10358000FB700B463B801346BB70FB785BB2002B95
:103590000CDAFB7803F07F0213469B001344DB0038
:1035A00003F58C737A681344FB600BE0FB7803F03F
:1035B0007F0213469B001344DB0003F55C737A68BB
:1035C0001344FB60FB7803F07F03DAB2FB681A70E8
:1035D000FB78DB09DBB21A46FB685A703A88FB6855
:1035E0009A60FB68BA78DA70FB685B78002B04D0CD
:1035F000FB681B789AB2FB68DA80BB78022B02D199
:10360000FB6800221A717868F968FFF7EFFB002366
:1036100018461037BD4680BD80B586B000AFF86053
:103620007A601A460B46FB7213463B81FB7A03F025
:103630007F0213469B001344DB0003F55C73FA68BA
:1036400013447B617B697A68DA603A897B695A61E5
:103650007B6900229A617B6900225A70FB7A03F031
:103660007F03DAB27B691A70FB68DB78012B02D129
:103670007A687B691A617B691B78002B04D1F86832
:103680007969FFF761FD03E0F8687969FFF71CFCD1
:10369000002318461837BD4680BD00BF80B586B0F0
:1036A00000AFF8607A603B600B46FB72FB7A03F078
:1036B0007F0213469B001344DB0003F58C73FA680A
:1036C00013447B617B6901225A70FB7A03F07F030C
:1036D000DAB27B691A707B697A68DA607A687B692A
:1036E0001A617B6900229A617B693A685A617B6939
:1036F0001B78002B04D1F8687969FFF725FD03E0FA
:10370000F8687969FFF7E0FB002318461837BD46D3
:1037100080BD00BF80B584B000AF78600B46FB7001
:10372000FB785BB2002B0CDAFB7803F07F021346C8
:103730009B001344DB0003F58C737A681344FB6031
:1037400009E0FA7813469B001344DB0003F55C7331
:103750007A681344FB60FB6801229A70FB7803F0DF
:103760007F03DAB2FB681A70FB78DB09DBB21A461A
:10377000FB685A707868F968FFF7D0FD0023184697
:103780001037BD4680BD00BF80B584B000AF786003
:103790000B46FB70FB785BB2002B0CDAFB7803F076
:1037A0007F0213469B001344DB0003F58C737A6899
:1037B0001344FB6009E0FA7813469B001344DB00D6
:1037C00003F55C737A681344FB60FB6800229A700F
:1037D000FB7803F07F03DAB2FB681A70FB78DB0931
:1037E000DBB21A46FB685A707868F968FFF7DAFDB1
:1037F000002318461037BD4680BD00BF80B485B099
:1038000000AF78600B46FB700023FB60FB7803F091
:103810007F03DAB2BB8962F30A13BB817B681B6941
:103820007A6812691168FA680A431A601437BD464B
:103830005DF8047B704700BF80B586B000AF78604C
:1038400000237B617868FFF747FA0346002B00F0FE
:103850009C807868FFF752FA03463B613B69002B76
:1038600001D1002392E0BB7C03F00803DBB2002B04
:1038700006D0786800F012FA02467B6913437B6138
:10388000BB7C03F00403DBB2002B06D0786800F0A9
:103890000FF902467B6913437B613B7C03F0020313
:1038A000DBB2002B09D00023FB603B7B43F002031B
:1038B0003B737B68DB68FA685A61FB7C23F07F030B
:1038C000DBB2002B06D0786800F064F802467B6912
:1038D00013437B617B7C03F00803DBB2002B06D033
:1038E000786800F097F802467B6913437B613B7C64
:1038F00003F00803DBB2002B06D0786800F08AFAE8
:1039000002467B6913437B613B7C03F01003DBB20F
:10391000002B06D0786800F097FA02467B691343C3
:103920007B617B7C03F01003DBB2002B06D0786850
:1039300000F07EFB02467B6913437B617B7C03F0D6
:103940002003DBB2002B06D0786800F00DFC0246A5
:103950007B6913437B61BB7C03F01003DBB2002B5C
:1039600006D0786800F03CFC02467B6913437B611B
:10397000BB7C03F02003DBB2002B06D0786800F09C
:1039800049FC02467B6913437B617B691846183703
:10399000BD4680BD80B586B000AF78607B689B7AFD
:1039A000002B11D07B6803F586731B68FB603B7BA3
:1039B0006FF341033B733B7B6FF300033B737B6807
:1039C000D3F80C31FA681A6000233B613B7C43F06A
:1039D00001033B747B681B697A68126951683A6914
:1039E000D2430A405A600A4B1B689B697868984723
:1039F00000237B61FB7D43F08003FB757B68DB6804
:103A00007A695A61012318461837BD4680BD00BF48
:103A10005400002080B586B000AF7860224B1B6850
:103A20005B69786898477B681B699B68FB6000232B
:103A30007B617B7D43F008037B757B68DB687A697B
:103A40005A617B689B7A002B29D03B7B03F00103F2
:103A5000DBB2002B23D000233B613B7C43F001030E
:103A60003B747B68D3F80C317A68D2F80C2111686A
:103A70003A690A431A603B7C43F002033B747B685B
:103A8000D3F80C317A68D2F80C2111683A690A43EC
:103A90001A60064A054B1B6943F0060313610123B4
:103AA00018461837BD4680BD5400002000ED00E0E8
:103AB00080B586B000AF786000233B610023BB6017
:103AC0007868FFF7DDFC7861DCE07B6903F00103D7
:103AD000002B00F0D1803B69DBB27868194600F01A
:103AE000B3FB0346BB603B7A03F00103DBB2002B60
:103AF00032D03B69012202FA03F3FB607B681B6949
:103B00007A681269516BFA68D2430A405A630023FB
:103B1000BB603B7A43F001033B727A683B69043334
:103B20009B0013449B68BA689A605B4B1B685B6898
:103B30003A69D2B27868114698477B68DB78012BE6
:103B40000AD13B69002B07D17B6893F81131042B14
:103B500002D17868FFF7AAFC3B7A03F00403DBB2DA
:103B6000002B0DD00023BB603B7A43F004033B7273
:103B70007A683B6904339B0013449B68BA689A6077
:103B80003B7A03F00803DBB2002B0DD00023BB60AF
:103B90003B7A43F008033B727A683B6904339B002D
:103BA00013449B68BA689A603B7A03F01003DBB257
:103BB000002B0DD00023BB603B7A43F010033B7217
:103BC0007A683B6904339B0013449B68BA689A6027
:103BD0003B7A03F02003DBB2002B0DD00023BB6047
:103BE0003B7A43F020033B727A683B6904339B00C5
:103BF00013449B68BA689A603B7A03F04003DBB2D7
:103C0000002B0DD00023BB603B7A43F040033B7296
:103C10007A683B6904339B0013449B68BA689A60D6
:103C20003B7A03F00203DBB2002B0DD00023BB6014
:103C30003B7A43F002033B727A683B6904339B0092
:103C400013449B68BA689A603B7A23F07F03DBB227
:103C5000002B11D07868396900F078F90023BB6037
:103C60003B7A43F080033B727A683B6904339B00E4
:103C700013449B68BA689A603B6901333B617B6976
:103C80005B087B617B69002B7FF41FAF0123184623
:103C90001837BD4680BD00BF5400002080B586B0F7
:103CA00000AF786000233B610023FB607868FFF77A
:103CB000B5FB7861A3E07B6903F00103002B00F002
:103CC00098803B69DBB278681946FFF7BDFB034675
:103CD000FB603B7B03F00103DBB2002B48D00023E9
:103CE000FB603B7B43F001033B737A683B69143311
:103CF0009B0013445B68FA689A607B68DB78012B51
:103D00001FD17A683B6914339B0013445B681B69BD
:103D1000BB6079683A6913469B001344DB000B448F
:103D200003F55E731B68BA68C2F31202991A7868C9
:103D30003A6913469B001344DB00034403F56273A6
:103D40001960334B1B681B683A69D2B27868114618
:103D500098477B68DB78012B0AD13B69002B07D1A0
:103D60007B6893F81131052B02D17868FFF79EFB31
:103D70003B7B03F00203DBB2002B0DD00023FB6082
:103D80003B7B43F002033B737A683B6914339B002F
:103D900013445B68FA689A603B7B03F00403DBB270
:103DA000002B0DD00023FB603B7B43F004033B73EF
:103DB0007A683B6914339B0013445B68FA689A6025
:103DC0003B7B03F00803DBB2002B12D0104B1B68C7
:103DD0009B68786898470023FB603B7B43F00803AF
:103DE0003B737A683B6914339B0013445B68FA6841
:103DF0009A603B6901333B617B695B087B617B694E
:103E0000002B7FF458AF012318461837BD4680BDFC
:103E10005400002080B584B000AF7860094B1B6867
:103E2000DB68786898470023FB603B7B43F008031E
:103E30003B737B68DB68FA685A61012318461037C8
:103E4000BD4680BD5400002080B586B000AF7860CC
:103E500000233B613B7C43F010033B747B68DB68D1
:103E60007A68D26891693A69D2430A409A617B685C
:103E7000DB681B6AFB603B7BC3F30303DBB21A46C0
:103E800013469B001344DB0003F55C737A6813440C
:103E90007B61BB7BC3F34303DBB2013B052B47D8FC
:103EA00001A252F823F000BF313F0008C13E0008D4
:103EB000313F0008313F0008313F00080D3F000846
:103EC000BA8947F6F07313409BB2002B1DD07B6973
:103ED000DA68BB89C3F30A139BB2786811461A46A5
:103EE000FEF780FE7B69DB68BA89C2F30A1292B2E0
:103EF0001A447B69DA607B699B69BA89C2F30A124A
:103F000092B21A447B699A6113E012E07B6803F570
:103F1000B963786819460822FEF764FE7B699B69DD
:103F2000BA89C2F30A1292B21A447B699A6100E01C
:103F300000BF7B68DB687A68D26891693A690A4396
:103F40009A61012318461837BD4680BD80B586B0FA
:103F500000AF7860396000237B610023BB603A6862
:103F600013469B001344DB0003F58C737A681344FB
:103F7000FB60FB685A69FB689B69D31A7B61FB682D
:103F80009A687B699A4202D2FB689B687B617B6975
:103F900003339B083B617A683B6804339B001344FE
:103FA0009B689B69BB602EE0FB685A69FB689B6954
:103FB000D31A7B61FB689A687B699A4202D2FB68DC
:103FC0009B687B617B6903339B083B61FB68D96815
:103FD0003B68DAB27B699BB27868FEF7C7FDFB6885
:103FE000DA687B691A44FB68DA60FB689A697B6966
:103FF0001A44FB689A617A683B6804339B00134457
:104000009B689B69BB603B891A463B699A4209D908
:10401000FB689A69FB685B699A4203D2FB685B693B
:10402000002BC1D1012318461837BD4680BD00BF03
:1040300080B58AB000AF786000233B6100233B620B
:104040000023FB610023BB6100237B610023FB6035
:104050003B7C43F001033B747B681B697A681269FF
:1040600051683A69D2430A405A6078680021FEF7E5
:10407000E5FD00237B6212E07A687B6A04339B00D3
:1040800013449B68FF229A607A687B6A14339B0012
:1040900013445B68FF229A607B6A01337B627B6812
:1040A0005B781A467B6A9A42E6D87B681B694FF0B8
:1040B000FF329A6101233B8401237B847B681B6967
:1040C0003A6ADA613B7F43F008033B773B7F43F07A
:1040D00001033B773B7F43F004033B773B7F43F097
:1040E00002033B777B681B69FA695A613B7E43F0A8
:1040F00001033B763B7E43F008033B763B7E43F077
:1041000002033B763B7E43F004033B763B7E43F069
:1041100020033B767B681B69BA691A617B681B695F
:104120001B687B61BB8A6FF30A13BB827B681B69C8
:104130007A691A607868FFF7B9F90023FB607B7B26
:1041400043F010037B737B68DB68FA685A61054BA8
:104150001B681B6978689847012318462837BD46B5
:1041600080BD00BF5400002080B584B000AF7860EF
:104170007868FEF7FFFD7B68DB68DB68BB6078680A
:10418000FEF7D4FD0346032B0CD17B6800229A7006
:104190007B684FF400729A807B7A092262F3850370
:1041A0007B720AE07B6801229A707B6840229A80C9
:1041B0007B7A052262F385037B727B68DB68BA68D1
:1041C000DA600023FB607B7B43F020037B737B681A
:1041D000DB68FA685A61012318461037BD4680BD76
:1041E00080B584B000AF78600023FB60084B1B688B
:1041F000DB6978689847BB7B43F01003BB737B682F
:10420000DB68FA685A61012318461037BD4680BD45
:104210005400002080B584B000AF78600023FB60BC
:10422000084B1B681B6A78689847BB7B43F02003E8
:10423000BB737B68DB68FA685A6101231846103744
:10424000BD4680BD5400002080B487B000AF7860C8
:104250000B46FB707B681B691B697B617B681B6974
:104260005B6B3B61FB783A6922FA03F3DB01DBB25B
:104270007A6913437B61FB787A6804339B001344AB
:104280009B689A687B691340FB60FB6818461C3783
:10429000BD465DF8047B704780B584B000AF7860A0
:1042A00007F108037868194600F00AFE3B7A03F02C
:1042B0001F03012B0AD0022B0FD0002B14D107F1C2
:1042C00008037868194600F025FA16E007F108039C
:1042D0007868194600F06EFA0FE007F10803786875
:1042E000194600F09BFA08E03B7A23F07F03DBB22B
:1042F00078681946FFF70EFA00BF002318461037FA
:10430000BD4680BD80B584B000AF78600B46FB70C1
:10431000FB78002B44D17B6803F55C73FB607B6802
:1043200093F81131032B4ED1FB68DA69FB689B6867
:104330009A4220D9FB68DA69FB689B68D21AFB684D
:10434000DA617B68DB78012B06D1FB68DA68FB68F1
:104350009B681A44FB68DA60FB68D968FB689A6856
:10436000FB68DB69934228BF13469BB278681A4604
:1043700000F08CF927E07B68D3F8E0351B69002B4F
:104380000AD07B6893F81231032B05D17B68D3F8F0
:10439000E0351B6978689847786800F08BF912E07F
:1043A0007B68D3F8E0359B69002B0CD07B6893F8D1
:1043B0001231032B07D17B68D3F8E0359B69FA787B
:1043C000786811469847002318461037BD4680BDCF
:1043D00080B584B000AF78600B46FB70FB78002B93
:1043E00060D17B6803F58C73FB607B6893F81131B7
:1043F000022B6AD1FB68DA69FB689B689A421CD978
:10440000FB68DA69FB689B68D21AFB68DA617B6833
:10441000DB78012B06D1FB68DA68FB689B681A44DD
:10442000FB68DA60FB68DA68FB68DB699BB2786876
:1044300011461A4600F016F947E0FB681B6AFA6855
:104440009268B3FBF2F102FB01F29B1A002B14D12C
:10445000FB681A6AFB689B689A420ED3FB681A6A6B
:10446000FB685B6A9A4208D278680021002200F05B
:10447000F9F8FB6800225A6227E07B68D3F8E03540
:10448000DB68002B0AD07B6893F81231032B05D12F
:104490007B68D3F8E035DB6878689847786800F087
:1044A00021F912E07B68D3F8E0355B69002B0CD072
:1044B0007B6893F81231032B07D17B68D3F8E03582
:1044C0005B69FA78786811469847002318461037D8
:1044D000BD4680BD80B582B000AF786078680021AD
:1044E00040220023FFF744F878688021402200230F
:1044F000FFF73EF87B68012283F812217B68D3F82E
:10450000E4355B687A68927810469847002318462D
:104510000837BD4680BD00BF80B582B000AF78606F
:104520007B68D3F8E4351B6998477B68032283F8DE
:104530001221002318460837BD4680BD80B582B0E1
:1045400000AF78607B68042283F812217B68D3F87F
:10455000E435DB689847002318460837BD4680BD20
:1045600080B582B000AF78607B68D3F8E035DB6956
:10457000002B05D07B68D3F8E035DB697868984775
:10458000002318460837BD4680BD00BF80B582B005
:1045900000AF78600B46FB707B68D3F8E0351B6892
:1045A000FA787868114698477B68D3F8E4359B68B9
:1045B0009847002318460837BD4680BD80B582B0B5
:1045C00000AF78600B46FB707B68D3F8E0355B6822
:1045D000FA78786811469847002318460837BD4690
:1045E00080BD00BF80B582B000AF78607B68D3F833
:1045F000E0351B6A78689847002318460837BD469F
:1046000080BD00BF80B582B000AF78607B68D3F812
:10461000E0355B6A78689847002318460837BD463E
:1046200080BD00BF80B586B000AFF860B9601346AA
:10463000FB800023FB75FA88FB68C3F83821FA88F1
:10464000FB68C3F83421FB68022283F81121FB8840
:10465000F8680021BA68FFF721F8FB7D1846183783
:10466000BD4680BD80B586B000AFF860B960134626
:10467000FB800023FB75FB88F8680021BA68FFF710
:104680000DF8FB7D18461837BD4680BD80B586B055
:1046900000AFF860B9601346FB800023FB75FB8810
:1046A000F8680021BA68FEF7B7FFFB7D1846183797
:1046B000BD4680BD80B584B000AF78600023FB7339
:1046C0007B68042283F811217868002100220023EE
:1046D000FEF7E4FF7868FEF7E9FEFB7B184610372B
:1046E000BD4680BD80B584B000AF78600023FB7309
:1046F0007B68052283F811217868002100220023BD
:10470000FEF78AFF7868FEF7D1FEFB7B184610376C
:10471000BD4680BD80B584B000AF786039600023AD
:10472000FB733B685B78092B39D801A252F823F060
:1047300081470008954700089F4700088B470008FD
:104740009F47000863470008594700089F47000833
:10475000774700086D4700087868396800F036F937
:1047600022E07868396800F00DFA1DE07868396851
:1047700000F046FA18E07868396800F0BBFA13E0F8
:104780007868396800F0E6FA0EE07868396800F079
:1047900009FB09E07868396800F06AFB04E0786892
:1047A000396800F0D5FB00BFFB7B18461037BD46CB
:1047B00080BD00BF80B584B000AF78603960002351
:1047C000FB737B6893F81231032B1CD13B689B88E9
:1047D000DBB2012B11D87B68D3F8E0359B68786891
:1047E000396898473B68DB88002B0BD1FB7B002B9B
:1047F00008D17868FFF75EFF0AE07868396800F052
:10480000A7FB05E004E07868396800F0A1FB00BF71
:10481000FB7B18461037BD4680BD00BF80B584B015
:1048200000AF786039600023FB733B689B88BB73E3
:104830003B685B78012B39D0032B02D0002B6BD067
:10484000BCE07B6893F81231022B02D0032B0DD011
:1048500026E0BB7B002B08D0BB7B802B05D0BB7B2D
:1048600078681946FEF756FF1FE01EE03B685B883C
:10487000002B0AD1BB7B002B07D0BB7B802B04D045
:10488000BB7B78681946FEF745FF7B68D3F8E035B7
:104890009B687868396898477868FFF70BFF04E0F1
:1048A0007868396800F054FB00BF87E07B6893F8B4
:1048B0001231022B02D0032B0DD027E0BB7B002B43
:1048C00008D0BB7B802B05D0BB7B78681946FEF7F0
:1048D00021FF20E01FE03B685B88002B15D1BB7BEC
:1048E000002B0ED0BB7B802B0BD0BB7B786819468E
:1048F000FEF74AFF7B68D3F8E0359B687868396833
:1049000098477868FFF7D6FE05E004E078683968D4
:1049100000F01EFB00BF51E07B6893F81231022BC0
:1049200002D0032B0DD043E0BB7B002B08D0BB7B18
:10493000802B05D0BB7B78681946FEF7EBFE3CE088
:104940003BE0BB7B5BB2002B15DABB7B03F07F0245
:10495000796813469B001344DB000B4403F58C730A
:104960009B78002B03D0184B01221A601AE0164BDB
:1049700000221A6016E0BB7B5BB2002B12DBBA7B15
:10498000796813469B001344DB000B4403F55C730A
:104990009B78002B03D00C4B01221A6002E00A4BDB
:1049A00000221A60786808490222FFF73BFE04E003
:1049B0007868396800F0CCFA00BF00BFFB7B18466E
:1049C0001037BD4680BD00BF6009002080B584B0AF
:1049D00000AF786039603B685B881B0A9BB2013B83
:1049E000062B00F2B18001A252F823F0094A000818
:1049F0003B4A0008654A0008494B0008494B00083B
:104A0000354B00083F4B00087B68D3F8E8351B683E
:104A10007A68917807F10A02084611469847F860CB
:104A20003B68DB88402B04D07B6893F81231012B64
:104A300002D108237B818CE08BE07B68D3F8E035E2
:104A40009B6A7A68917807F10A02084611469847EE
:104A5000F860FB68013302221A707B68FA68C3F8B9
:104A6000EC2576E03B685B88DBB2052B5CD801A2C5
:104A700052F823F08D4A0008A74A0008C14A0008EE
:104A8000DB4A0008F54A00080F4B00087B68D3F8A2
:104A9000E8355B687A68917807F10A0208461146A2
:104AA0009847F86045E07B68D3F8E8359B687A68FA
:104AB000917807F10A02084611469847F86038E0F5
:104AC0007B68D3F8E835DB687A68917807F10A02E9
:104AD000084611469847F8602BE07B68D3F8E83524
:104AE0001B697A68917807F10A02084611469847CF
:104AF000F8601EE07B68D3F8E8355B697A689178E6
:104B000007F10A02084611469847F86011E07B68F1
:104B1000D3F8E8359B697A68917807F10A0208466C
:104B200011469847F86004E07868396800F010FA98
:104B300024E00EE07868396800F00AFA1EE0786830
:104B4000396800F005FA19E07868396800F000FA71
:104B500014E07B89002B11D03B68DB88002B0DD043
:104B60003B68DA887B89934228BF13469BB27B81DE
:104B70007B897868F9681A46FFF754FD1037BD46FF
:104B800080BD00BF80B584B000AF786039603B68FD
:104B90009B88002B2DD13B68DB88002B29D13B68FB
:104BA0005B88DBB203F07F03FB737B6893F8123101
:104BB000032B04D17868396800F0CAF918E07B68E3
:104BC000FA7B83F81321FB7B78681946FEF716FE03
:104BD0007868FFF76FFDFB7B002B04D07B68022217
:104BE00083F8122104E07B68012283F8122104E09B
:104BF00003E07868396800F0ABF91037BD4680BD36
:104C000080B582B000AF786039603B685B88DAB20B
:104C1000374B1A70364B1B78012B04D978683968EA
:104C200000F096F960E07B6893F81231022B02D015
:104C3000032B1BD053E02E4B1B78002B12D02C4B98
:104C40001A787B6883F810217B68032283F812218D
:104C5000274B1B7878681946FFF798FC7868FFF7B0
:104C600029FD41E07868FFF725FD3DE0204B1B78EA
:104C7000002B12D17B68022283F812211C4B1A7878
:104C80007B6883F810211A4B1B7878681946FFF768
:104C900095FC7868FFF70EFD20E07B6893F8102103
:104CA000134B1B789A4215D07B6893F810317868C3
:104CB0001946FFF783FC0E4B1A787B6883F81021A6
:104CC0000B4B1B7878681946FFF760FC7868FFF794
:104CD000F1FC03E07868FFF7EDFC05E004E078689C
:104CE000396800F035F900BF0837BD4680BD00BF08
:104CF0006C09002080B582B000AF786039603B68F5
:104D0000DB88012B04D07868396800F021F91BE0BA
:104D10007B6893F81231022B02D0032B06D00EE0F1
:104D200078680B490122FFF77DFC0DE07B6803F5F5
:104D30008873786819460122FFF774FC04E07868EC
:104D4000396800F005F900BF0837BD4680BD00BFD7
:104D50006409002080B582B000AF786039607B685C
:104D600093F81231023B012B11D87B68D3F8143130
:104D7000002B03D00A4B03221A6002E0084B0122E9
:104D80001A60786806490122FFF74CFC04E0786855
:104D9000396800F0DDF800BF0837BD4680BD00BFB0
:104DA0006809002080B584B000AF786039600023C6
:104DB000FB733B685B88012B0ED17B680122C3F833
:104DC00014217B68D3F8E0359B6878683968984788
:104DD0007868FFF76FFC48E03B685B88022B44D1A2
:104DE0003B689B88DBB2002B3FD17B681B695B680B
:104DF000BB603B689B881B0A9BB2FB73FB7B013B40
:104E0000042B2BD801A252F823F000BF214E00083A
:104E10002D4E0008394E0008454E0008514E00083E
:104E20003B7A012262F306133B7217E03B7A0222BF
:104E300062F306133B7211E03B7A032262F306131E
:104E40003B720BE03B7A042262F306133B7205E0EF
:104E50003B7A052262F306133B7200BF7B681B6935
:104E6000BA685A607868FFF725FC1037BD4680BDE8
:104E700080B582B000AF786039607B6893F81231FA
:104E8000023B012B13D83B685B88012B0ED17B685A
:104E90000022C3F814217B68D3F8E0359B6878685A
:104EA000396898477868FFF705FC05E004E0786802
:104EB000396800F04DF800BF0837BD4680BD00BF1F
:104EC00080B483B000AF786039607B6893F8C82500
:104ED0003B681A707B6893F8C9253B685A707B68F9
:104EE00093F8CA359AB27B6893F8CB359BB21B0214
:104EF0009BB213449AB23B685A807B6893F8CC35D6
:104F00009AB27B6893F8CD359BB21B029BB21344D7
:104F10009AB23B689A807B6893F8CE359AB27B68E8
:104F200093F8CF359BB21B029BB213449AB23B68F5
:104F3000DA803B68DB881A467B68C3F83C217B68D3
:104F4000012283F811210C37BD465DF8047B7047C0
:104F500080B582B000AF786039603B681B78DBB207
:104F60005BB2002B04DA78688021FEF7D3FB0CE0FB
:104F70003B68DB88002B04D178688021FEF7CAFBF0
:104F800003E078680021FEF7C5FB7868FEF78EFA2B
:104F90000837BD4680BD00BF80B485B000AF7860E3
:104FA0000023FB607A6813461B019B1ADB001A463C
:104FB0000A4BA3FB0213D21A520813449B08BB608E
:104FC000FB680133FB60FA68BB689A4200D900E0D5
:104FD000F6E71437BD465DF8047B704725499224F7
:104FE00080B584B000AF7860144B1B68002B02D1F1
:104FF000124B134A1A60114B1B68FB607B6803332A
:1050000023F003037B600D4B1A687B6813440D4A41
:10501000934207D902F02CFA02460C2313604FF09A
:10502000FF3306E0054B1A687B681344034A13609C
:10503000FB6818461037BD4680BD00BF70090020D0
:10504000D018002000FC012080B582B000AF78604D
:1050500001200249042200F07FF8FEE72CE300085B
:1050600080B483B000AF78604FF0FF3318460C3740
:10507000BD465DF8047B704780B483B000AF7860B4
:1050800039603B684FF400525A60002318460C37D1
:10509000BD465DF8047B704780B483B000AF786094
:1050A0007B680033022B01D8012303E0044B092263
:1050B0001A60002318460C37BD465DF8047B704724
:1050C000CC18002080B485B000AFF860B9607A6079
:1050D000002318461437BD465DF8047B704700BFB7
:1050E00080B489B000AFF860B9607A600023BB611A
:1050F000FB68002B20D10023FB6116E000BF144B9E
:105100001B889BB203F02003002BF8D0104B9B8828
:105110009BB2FB75BB685A1CBA60FA7D1A70BB69FA
:105120000133BB61FB690133FB61FA697B689A4219
:10513000E4DB00BFBB6904E0064B09221A604FF0B4
:10514000FF3318462437BD465DF8047B704700BF27
:1051500000440040CC18002080B487B000AFF86055
:10516000B9607A60FB68012B02D0022B1ED03BE0B5
:1051700000237B6115E000BF224B1B889BB203F02C
:105180004003002BF8D01F49BB685A1CBA601B783B
:105190005BB29BB2C3F308039BB28B807B69013384
:1051A0007B617A697B689A42E5DB23E000237B61BF
:1051B00015E000BF134B1B889BB203F04003002B8C
:1051C000F8D01049BB685A1CBA601B785BB29BB21E
:1051D000C3F308039BB28B807B6901337B617A69DF
:1051E0007B689A42E5DB05E0074B09221A604FF025
:1051F000FF3300E07B6818461C37BD465DF8047B32
:10520000704700BF00440040CC18002080B485B037
:1052100000AF03463960FB71FB79002B01D00B23F3
:1052200016E0FB790D4A52F82330FB60FB68002B37
:1052300002D0FB6800221A703B68002B02D03B684A
:1052400000221A70FB7905493A6841F823200023AF
:1052500018461437BD465DF8047B7047740900207A
:1052600080B582B000AF154A154BD31A9B103B6036
:1052700000237B6007E0124A7B6852F8233098478E
:105280007B6801337B607A683B689A42F3D30D4AAE
:105290000D4BD31A9B103B6000237B6007E00A4A4A
:1052A0007B6852F8233098477B6801337B607A68CB
:1052B0003B689A42F3D30837BD4680BD68020008B8
:1052C000640200086C0200086802000880B582B021
:1052D00000AF0B4A0B4BD31A9B103B603B687B60C3
:1052E00008E07B68013B074A52F8233098477B6807
:1052F000013B7B607B68002BF3D10837BD4680BD46
:105300006C0200086C02000880B500AF114A114B16
:105310001B6843F0010313600E4B00229A600D4A94
:105320000C4B1B6823F0847323F480331360094B08
:10533000094A5A60074A074B1B6823F4802313600D
:10534000044B0022DA6000F00BF8044B4FF00062CF
:105350009A6080BD003802401030002400ED00E06B
:1053600080B483B000AF00237B6000233B60354AEC
:10537000344B1B6843F480331360324B1B6803F4D7
:1053800000333B607B6801337B603B68002B03D1BB
:105390007B68B3F5A04FF0D12A4B1B6803F40033B0
:1053A000002B02D001233B6001E000233B603B68FF
:1053B000012B42D1234A234B1B6C43F080531364CF
:1053C000214A214B1B6843F4404313601D4A1D4B87
:1053D0009B6893601B4A1B4B9B6843F4004393609C
:1053E000184A184B9B6843F4A0539360154B174A17
:1053F0005A60144A134B1B6843F08073136000BF5C
:10540000104B1B6803F00073002BF9D0104B40F2D7
:1054100005721A600B4A0B4B9B6823F003039360E1
:10542000084A084B9B6843F00203936000BF054B9A
:105430009B6803F00C03082BF9D10C37BD465DF8CF
:10544000047B704700380240007000400854400759
:10545000003C024080B485B000AF78600023FB734D
:105460000023BB730F237B737B68DB78002B38D062
:10547000264BDB68DB4303F4E0631B0AFB73FB7B17
:10548000C3F10403BB737A7BFB7B42FA03F37B73A8
:105490007B685B781A46BB7B02FA03F3FB737B687D
:1054A0009A787B7B1340DAB2FB7B1343FB73FB7B65
:1054B0001B01FB73164A7B681B781344FA7B83F845
:1054C0000023134A7B681B785B09DBB218467B68B4
:1054D0001B7803F01F03012101FA03F342F8203087
:1054E0000FE00B497B681B785B09DBB218467B68D1
:1054F0001B7803F01F0301229A4000F1200341F8BA
:1055000023201437BD465DF8047B704700ED00E0B2
:1055100000E100E080B483B000AF78607B681B6876
:1055200023F001027B681A607B6800221A607B68A6
:1055300000225A607B6800229A607B680022DA6051
:105540007B6800221A617B6821225A617B68454A88
:10555000934203D1444B3D229A607EE07B68434AEC
:10556000934204D1404B4FF474629A6075E07B68BB
:105570003F4A934204D13C4B4FF474129A606CE062
:105580007B683C4A934204D1374B4FF074629A6077
:1055900063E07B68384A934203D1334B374ADA6081
:1055A0005BE07B68364A934203D12F4B354ADA6081
:1055B00053E07B68344A934203D12B4B334ADA6081
:1055C0004BE07B68324A934204D1274B4FF03D5267
:1055D000DA6042E07B682F4A934203D12E4B3D2292
:1055E0009A603AE07B682D4A934204D12A4B4FF4EB
:1055F00074629A6031E07B68294A934204D1264B59
:105600004FF474129A6028E07B68264A934204D1D2
:10561000214B4FF074629A601FE07B68224A9342EC
:1056200003D11D4B154ADA6017E07B681F4A93428D
:1056300003D1194B134ADA600FE07B681C4A93428E
:1056400003D1154B114ADA6007E07B68194A93428F
:1056500003D1114B4FF03D52DA600C37BD465DF877
:10566000047B7047106002400060024028600240E6
:105670004060024058600240706002403D000020DF
:1056800088600240400F0020A060024000003D20E2
:10569000B860024010640240006402402864024086
:1056A00040640240586402407064024088640240D2
:1056B000A0640240B864024080B485B000AF786056
:1056C00039600023FB607B681B68FB60FA68244B31
:1056D0001340FB603B681A683B68DB681A433B6811
:1056E0005B691A433B689B691A433B68DB691A4351
:1056F0003B681B6A1A433B685B6A1A433B689B6AB8
:105700001A433B685B6B1A433B689B6B1343FA6815
:105710001343FB607B68FA681A607B685B69FB6017
:10572000FB6823F00703FB603B68DA6A3B681B6B8E
:105730001343FA681343FB607B68FA685A613B685D
:105740001A697B685A603B685A687B689A603B6854
:105750009A687B68DA601437BD465DF8047B704751
:105760003F801CF080B483B000AF78600B46FB70C4
:10577000FB78002B06D07B681B6843F001027B6836
:105780001A6005E07B681B6823F001027B681A60E1
:105790000C37BD465DF8047B704700BF80B487B00E
:1057A00000AF786039600023FB750023FB607B68E5
:1057B000154A934202D8154B3B6101E0144B3B6103
:1057C0003B6803F00053002B03D03B695B68FB6030
:1057D00002E03B691B68FB60FB6823F0F02323F0C9
:1057E0008213FB60FA683B681340002B02D0012350
:1057F000FB7501E00023FB75FB7D18461C37BD4699
:105800005DF8047B704700BF0F64024000600240F7
:105810000064024080B485B000AF786039607B6876
:10582000104A934202D8104BFB6001E00F4BFB6023
:105830003B6803F00053002B07D03B6823F0F023B4
:1058400023F08213FA68D36006E03B6823F0F0236C
:1058500023F08213FA6893601437BD465DF8047B29
:10586000704700BF0F6402400060024000640240C5
:1058700080B485B000AFF860B9601346FB71BB68B7
:1058800003F08003002B0FD0FB79002B06D0FB68C0
:105890005B6943F08002FB685A6105E0FB685B6965
:1058A00023F08002FB685A61BB68802B14D0FB791F
:1058B000002B08D0FB681A68BB6803F01E031A436C
:1058C000FB681A6008E0FB681A68BB6803F01E03F7
:1058D000DB431A40FB681A601437BD465DF8047B51
:1058E000704700BF80B487B000AF78603960002394
:1058F000FB750023FB600023BB607B68224A934258
:1059000002D8224B3B6101E0214B3B613B6823F015
:10591000F02323F0C313002B0AD03B68DB0A03F00B
:105920001E03FB607B681A68FB681340BB6004E0E1
:105930007B685B6903F08003BB603B6803F0005346
:10594000002B03D03B695B68FB6002E03B691B688E
:10595000FB60FB6823F0F02323F08213FB60FA68FE
:105960003B681340002B05D0BB68002B02D00123FD
:10597000FB7501E00023FB75FB7D18461C37BD4617
:105980005DF8047B704700BF0F6402400060024076
:105990000064024080B485B000AF786039607B68F5
:1059A000104A934202D8104BFB6001E00F4BFB60A2
:1059B0003B6803F00053002B07D03B6823F0F02333
:1059C00023F08213FA68D36006E03B6823F0F023EB
:1059D00023F08213FA6893601437BD465DF8047BA8
:1059E000704700BF0F640240006002400064024044
:1059F00080B485B000AF78600023FB60344BFB605F
:105A00007B689B79002B4FD03149314B1A687B68FA
:105A10001B68DB4313400B602D492D4B5A687B6894
:105A20001B68DB4313404B607B681B791A46FB689D
:105A30001344FB60FB68FA6811687A6812680A43CD
:105A40001A602349224B9A687B681B68DB4313402A
:105A50008B601F491E4BDA687B681B68DB43134071
:105A6000CB607B685B79102B0ED11949184B9A6873
:105A70007B681B6813438B601549154BDA687B689C
:105A80001B681343CB601DE0114BFB607B685B79A7
:105A90001A46FB681344FB60FB68FA6811687A6871
:105AA00012680A431A600DE07B681B791A46FB688E
:105AB0001344FB60FB68FA6811687A681268D24385
:105AC0000A401A601437BD465DF8047B704700BF7A
:105AD000003C014080B485B000AF78600023FB73C8
