:020000040800F2
:1000000000200020D9020008A5120008A71200084D
:10001000A9120008AB120008AD1200080000000091
:10002000000000000000000000000000AF12000807
:10003000B112000800000000B3120008B512000859
:100040004511000845110008451100084511000838
:100050004511000845110008451100084511000828
:100060004511000845110008451100084511000818
:100070004511000845110008451100084511000808
:100080004511000845110008451100080000000056
:100090000000000000000000000000004511000802
:1000A00045110008451100084511000845110008D8
:1000B00045110008451100084511000845110008C8
:1000C0004511000800000000000000004511000874
:1000D00045110008451100084511000845110008A8
:1000E00045110008451100084511000800000000F6
:1000F0000000000000000000000000000000000000
:1001000000000000000000000000000000000000EF
:100110000000000000000000451100084511000823
:1001200000000000000000000000000000000000CF
:1001300000000000000000000000000000000000BF
:1001400000000000000000000000000000000000AF
:10015000000000000000000000000000000000009F
:10016000000000000000000000000000000000008F
:10017000000000000000000000000000000000007F
:10018000000000000000000000000000000000006F
:10019000000000000000000000000000000000005F
:1001A000000000000000000000000000000000004F
:1001B000000000000000000000000000000000003F
:1001C0000000000000000000000000005FF808F1DF
:1001D00007B500F038FF2E4B2E492F4A2F4C3048E0
:1001E0000B6013602F4DA84204D254F8045F40F80E
:1001F000045BF7E708682C49884203D111682B4A51
:10020000914200D0FEE72A492A4A0B6013602A4B2C
:100210002A48834203D2002043F8040BF8E70B6816
:100220000BB9146804B1FEE700F00FFF684601A99E
:1002300000F0E6FE224B234D1E46ED1AAD10AC42F7
:1002400004DA56F8243098470134F8E71E4B1F4C67
:100250001E46E41AA4100025A54204DA56F82530FB
:1002600098470135F8E79DE8030000F0F3FF184BCD
:1002700006461D46174CE41AA410002C04DD013C70
:1002800055F824309847F8E7304600F097FE00BF55
:10029000BABADECA0000002084000020A81C0008B2
:1002A00000000020880000207856341232547698DE
:1002B0008800002034010020880000203801002040
:1002C000D8030008D8030008D8030008D8030008A2
:1002D000D8030008D803000808B5FFF779FF00BE6F
:1002E000FEE71EF0040F0CBFEFF30880EFF3098068
:1002F0007146364A10472DE9F341884607460848BB
:10030000456B846B866A074800F082FECDF800805A
:10031000384631462A46234600F09AFE00BEFEE7E4
:1003200000ED00E04E1C000800BEFEE71EF0040FCA
:100330000CBFEFF30880EFF309807146244A1047A1
:100340002DE9F341884607460848456B846B866A69
:10035000074800F05DFECDF80080384631462A4659
:10036000234600F075FE00BEFEE700BF00ED00E092
:100370005B1C00081EF0040F0CBFEFF30880EFF3C6
:1003800009807146134A10472DE9F3418846074614
:100390000848456B846B866A074800F039FECDF843
:1003A0000080384631462A46234600F051FE00BE02
:1003B000FEE700BF00ED00E0671C000800BEFEE79E
:1003C00000BEFEE700BEFEE770470000F70200082F
:0803D000410300088903000845
:1003D80010B5044600F07EFD4FF47A73B0FBF3F0DD
:1003E80000F072F84FF0FF302146002200F03CF890
:1003F800002010BD08B5032000F024F80F20FFF7F7
:10040800E7FF00F041F9002008BD0000024A136828
:1004180001331360704700BF8C000020014B18683F
:10042800704700BF8C00002013B50190FFF7F6FF5E
:100438000446FFF7F3FF019B001B9842F9D302B073
:1004480010BD0000074A00F00700D36823F4E063FA
:100458001B041B0C43F0BF6343F4003343EA00233F
:10046800D360704700ED00E0154B70B5DB68C3F34F
:100478000223C3F107051C1D042D28BF0425062CE3
:100488008CBF033B0023012404FA03F6AC40013C73
:10049800013E214099403240002842EA01024FEAD9
:1004A8000212AFBF00F16040064B00F00F00D2B25D
:1004B800A5BFD2B200F561401A5480F8002370BD80
:1004C80000ED00E014ED00E00138B0F1807F3FBF9F
:1004D800064B074AF02158603FBF82F823100020DE
:1004E8000722986034BF1A600120704710E000E0CE
:1004F80000ED00E00023F7B51D4601220C68AA4074
:100508001440944240F0AC804A68122A2BD00ED88E
:10051800022A25D004D84AB3012A30D1CB682EE06C
:10052800032A1BD0112A2AD1CB68043327E04F4E67
:10053800B2421BD006D8A6F58016B24216D006F5F0
:10054800803608E04A4EB24210D006F58036B242F4
:100558000CD0A6F58016B24211D107E000230EE0B8
:10056800CB6808330BE0CB680C3308E08B682BB101
:10057800012B0CBF04614461082300E00423FF2C15
:1005880097BF8646A5F108070668AF0084BF46688E
:10059800BF004FF00F0202FA07FC26EA0C0603FA26
:1005A80007F746EA070688BF00F1040ECEF8006098
:1005B8004F68FE0054D52F4E05F0030CD6F818E00E
:1005C8004FEA8C0C4EF0010EC6F818E0B66902FA34
:1005D8000CF206F001060196019E25F0030606F1CD
:1005E800804606F58036D6F808E02EEA020E224A42
:1005F80090420ED002F5806290420CD002F58062E3
:1006080090420AD002F5806290420CBF0322042275
:1006180004E0002202E0012200E0022202FA0CF2C9
:1006280042EA0E02B260154A17F4803F166814BFFA
:100638002643A6431660566817F4003F14BF2643A6
:10064800A6435660966817F4801F14BF2643A64336
:100658009660D668BF024CBF344326EA0404D460CF
:100668000135102D7FF449AF03B0F0BD0000211013
:100678000000311000100240000801400004014051
:10068800C3685940C1607047704700000368F7B5F8
:10069800DC07054604D42B68980700F1D58079E17A
:1006A800BA4C636803F00C03042B07D0636803F0AB
:1006B8000C03082B27D16368D90324D54FF40032E3
:1006C80092FAA2F3B3FA83F343F02003C3F342137D
:1006D800012B01D1226804E092FAA2F2B2FA82F266
:1006E800626A4FF4003393FAA3F3B3FA83F303F087
:1006F8001F03DA40D207CED56B6823F00403012B21
:10070800C9D0012031E3236823F4803323602368B0
:1007180023F480232360FFF781FE06464FF400325E
:1007280092FAA2F3B3FA83F343F02003C3F342131C
:10073800012B01D1226804E092FAA2F2B2FA82F205
:10074800626A4FF4003393FAA3F3B3FA83F303F026
:100758001F03DA40D30708D5FFF760FE41F288335C
:10076800801B9842DAD90320FFE22268874B22F4E3
:10077800803222606A68012A07D11A6822F480222E
:100788001A601A6842F4803207E0052A02D1804BC9
:100798001A7003E01A6822F480221A606B684BB35F
:1007A800FFF73CFE06464FF4003292FAA2F3B3FA82
:1007B80083F343F02003C3F34213012B01D12268D2
:1007C80004E092FAA2F2B2FA82F2626A4FF40033BB
:1007D80093FAA3F3B3FA83F303F01F03DA40D707BE
:1007E8003FF559AFFFF71AFE41F28833801B984254
:1007F800D9D9B8E7FFF712FE06464FF4003292FA4D
:10080800A2F3B3FA83F343F02003C3F34213012B9B
:1008180001D1226804E092FAA2F2B2FA82F2626A84
:100828004FF4003393FAA3F3B3FA83F303F01F03EF
:10083800DA40D0077FF52FAFFFF7F0FD41F288339C
:10084800801B9842D9D98EE7504C636813F00C0F7F
:1008580007D0636803F00C03082B23D16368D9031E
:1008680020D4022292FAA2F3B3FA83F343F02003CE
:10087800C3F34213012B01D1226804E092FAA2F2D9
:10088800B2FA82F2626A022393FAA3F3B3FA83F309
:1008980003F01F03DA40D20738D52B69012B7FF408
:1008A80030AF33E02A690123002A3ED093FAA3F23D
:1008B800B2FA82F2D2B2920002F1844202F58402C4
:1008C8001360FFF7ABFD0646022292FAA2F3B3FAD1
:1008D80083F343F02003C3F34213012B01D12268B1
:1008E80004E092FAA2F2B2FA82F2626A022393FA5E
:1008F800A3F3B3FA83F303F01F03DA40D30705D455
:10090800FFF78CFD801B6428DED92CE72268F823CA
:1009180093FAA3F3B3FA83F36969DBB2994022F03F
:10092800F80241EA0203236034E093FAA3F3B3FA2E
:1009380083F3DBB29B0003F1844303F584031A605D
:10094800FFF76CFD0646022292FAA2F3B3FA83F38C
:1009580043F02003C3F34213012B01D1226804E0C2
:1009680092FAA2F2B2FA82F2626A022393FAA3F32B
:10097800B3FA83F303F01F03DA40D7070AD5FFF76A
:100988004DFD801B6428DED9EDE600BF0010024053
:10099800021002402B681C0750D5AA69C94C0123D4
:1009A800C9493AB393FAA3F2B2FA82F2D2B241F841
:1009B8002230FFF733FD0646022393FAA3F2B2FA78
:1009C80082F293FAA3F2B2FA82F2626A93FAA3F37A
:1009D800B3FA83F303F01F0322FA03F3D80705D40D
:1009E800FFF71CFD801B6428E6D9BCE60120FFF751
:1009F8001BFD23E093FAA3F3B3FA83F3DBB241F8C8
:100A08002320FFF70BFD0646022393FAA3F2B2FA5E
:100A180082F293FAA3F2B2FA82F2626A93FAA3F329
:100A2800B3FA83F303F01F0322FA03F3D90705D5BA
:100A3800FFF7F4FC801B6428E6D994E62B685A0774
:100A480004D4EA69002A40F0CD8039E19D4C9F4AE0
:100A5800E36943F08053E361E36903F08053019352
:100A6800019B136843F480731360FFF7D7FC0646B5
:100A7800964B1B68DB0505D4FFF7D0FC801B642868
:100A8800F6D970E6012393FAA3F3B3FA83F3904EF1
:100A9800DBB2002246F82320042393FAA3F3B3FA27
:100AA80083F3DBB246F82320FFF7B8FC074602239E
:100AB80093FAA3F2B2FA82F293FAA3F2B2FA82F2AA
:100AC80042F04002C2F342129A420CBF226A626AA2
:100AD80093FAA3F3B3FA83F303F01F0322FA03F3A1
:100AE80013F0010307D0FFF799FC41F28833C01BCC
:100AF8009842DCD937E6E96841B9012393FAA3F3B0
:100B0800B3FA83F3DBB246F8231014E001290AD1C3
:100B1800042292FAA2F2B2FA82F2D2B246F8223053
:100B280091FAA1F30AE0012191FAA1F2B2FA82F254
:100B3800D2B246F82230042393FAA3F3B3FA83F32C
:100B4800DBB246F82310EB68012B25D1FFF766FCD2
:100B58000646022393FAA3F2B2FA82F293FAA3F2B8
:100B6800B2FA82F242F04002C2F342129A420CBF39
:100B7800226A626A93FAA3F3B3FA83F303F01F03BA
:100B8800DA40D7073FF55DAFFFF748FC41F28833FD
:100B9800801B9842DDD9E6E5FFF740FC06460223B4
:100BA80093FAA3F2B2FA82F293FAA3F2B2FA82F2B9
:100BB80042F04002C2F342129A420CBF226A626AB1
:100BC80093FAA3F3B3FA83F303F01F03DA40D007D1
:100BD8007FF537AFFFF722FC41F28833801B98423C
:100BE800DDD9C0E5374C636803F00C03082B3FF4EC
:100BF80088AD022A4FF0807340F0848093FAA3F303
:100C0800B3FA83F3DBB29B0003F1844303F5840357
:100C180000221A60FFF702FC06464FF0007292FAB3
:100C2800A2F3B3FA83F343F02003C3F34213012B77
:100C380050D122684FF0007393FAA3F3B3FA83F309
:100C480003F01F03DA40D1074AD42E6AB6F5803F75
:100C580001BFE16A21F00F00A968014308BFE16202
:100C680063686A6A23F474133243134363604FF072
:100C7800807393FAA3F3B3FA83F3DBB29B0003F117
:100C8800844303F5840301221A60FFF7C7FB054676
:100C98004FF0007292FAA2F3B3FA83F343F0200301
:100CA800C3F34213012B21D122684FF0007393FA4A
:100CB800A3F3B3FA83F303F01F03DA40D2071BD57B
:100CC800002052E0001002408004424200700040C0
:100CD8000004424292FAA2F2B2FA82F2626AA9E7E8
:100CE800FFF79CFB801B642897D93CE592FAA2F297
:100CF800B2FA82F2626AD8E7FFF790FB401B6428D9
:100D0800C6D930E593FAA3F3B3FA83F3DBB29B00B9
:100D180003F1844303F5840300221A60FFF77EFB86
:100D280005464FF0007292FAA2F3B3FA83F343F048
:100D38002003C3F34213012B01D1226804E092FA85
:100D4800A2F2B2FA82F2626A4FF0007393FAA3F346
:100D5800B3FA83F303F01F03DA40D307B0D5FFF7E4
:100D68005DFB401B6428DCD9FDE403B0F0BD00BF87
:100D780070B5054601688E0741BF5548436823F0A2
:100D8800F002AB6844BF13434360CC070BD4296817
:100D9800480740F18A804E48436823F4E062EB68D4
:100DA8001343436081E06A68494C012A15D14FF426
:100DB800003191FAA1F3B3FA83F343F02003C3F3AC
:100DC8004213012B01D1216804E091FAA1F1B1FA93
:100DD80081F1616A4FF400332AE0022A15D14FF0FD
:100DE800007191FAA1F3B3FA83F343F02003C3F33C
:100DF8004213012B01D1216804E091FAA1F1B1FA63
:100E080081F1616A4FF0007312E0022191FAA1F3B7
:100E1800B3FA83F343F02003C3F34213012B01D148
:100E2800216804E091FAA1F1B1FA81F1616A022323
:100E380093FAA3F3B3FA83F303F01F03D940C90766
:100E480044D5636823F003031A436260FFF7E6FAA8
:100E58006B680646012B0DD1636803F00C03042B65
:100E680095D0FFF7DBFA41F28833801B9842F3D91B
:100E7800032070BD022B13D1636803F00C03082B09
:100E880085D0FFF7CBFA41F28833801B9842F3D91B
:100E9800EEE7FFF7C3FA41F28833801B9842E7D8A0
:100EA800636813F00C0FF4D171E70B0742BF084ACF
:100EB800296953684FF00F0042BF23F4605343EA97
:100EC800C1035360FFF784FA002070BD012070BD94
:100ED8000010024008B500F019F8094B5A68F023D1
:100EE80093FAA3F3B3FA83F302F0F002DBB222FA27
:100EF80003F3044AD35CD840034B186008BD00BF15
:100F080000100240281B00081C00002030B589B0E2
:100F18006C46234B03F110052246186859680833BC
:100F280003C2AB421446F7D11E4B04AC03F11005C3
:100F3800224618685968083303C2AB421446F7D1F1
:100F4800194C606800F00C03082B25D14FF470137E
:100F580093FAA3F3B3FA83F300F47012DBB222FA24
:100F680003F308AA134413F8201CC30311D5E36A3A
:100F78000F2292FAA2F2B2FA82F2D2B203F00F036F
:100F8800D34008AA134413F8100C084BB3FBF0F035
:100F980000E00748484300E0044809B030BD00BFFE
:100FA800381B0008481B00080010024000127A0095
:100FB80000093D00FEE7000008B50C4B1A680AB9A5
:100FC8000B4A1A601A68C31C23F003030949134427
:100FD8008B4206D900F06CF90C2303604FF0FF3008
:100FE80008BD024910460B6008BD00BF90000020F4
:100FF80038010020001C002001230360014B0B6016
:10100800704700BF040000200FB407B504AB53F8C5
:10101800042B80210748019300F08CF9011E03DDA1
:10102800044800F009F80146084603B05DF804EBEF
:1010380004B07047950000204FF0FF30704700F073
:101048007FB800F0A5B800002DE9F04104460D4630
:10105800274890461F46069EFFF7D6FF2168254879
:10106800FFF7D2FF61682448FFF7CEFFA168234845
:10107800FFF7CAFFE1682248FFF7C6FF2169214848
:10108800FFF7C2FF61692048FFF7BEFFA1691F484B
:10109800FFF7BAFFE1691E48FFF7B6FF1D4C1E486F
:1010A800FFF7B2FF29461D48FFF7AEFFE16A1C486B
:1010B800FFF7AAFF216B1B48FFF7A6FFE16B1A4851
:1010C800FFF7A2FF2A0603D518484146FFF79CFF01
:1010D8002B0403D516483946FFF796FF1548FFF746
:1010E80093FF3146BDE8F0411348FFF78DBF00BFBD
:1010F800581B0008661B0008731B0008801B0008AB
:101108008D1B00089A1B0008A71B0008B41B0008C9
:10111800C11B000800ED00E0CE1B0008D81B00082A
:10112800E71B0008F61B0008051C0008141C000833
:10113800231C0008321C0008381C0008FEE70000C9
:10114800104B1A6842F001021A6059680E4A0A40A8
:101158005A601A6822F0847222F480321A601A687F
:1011680022F480221A605A6822F4FE025A604FF470
:101178001F029A600022DA62044B4FF000629A6004
:10118800704700BF001002400000FFF800ED00E0CB
:10119800134A10B55368134903F00C03042B01D00C
:1011A800082B01D0104B10E053685068C3F38343F9
:1011B800C00341BFD06A0C4C00F00F0001304CBF97
:1011C800B4FBF0F00948023343430B605368084A04
:1011D800C3F30313D25C0B68D3400B6010BD00BF90
:1011E800001002401C00002000127A0000093D0097
:1011F8000C00002010B590B00021142201A800F0C6
:1012080068F80021282206A800F063F801230A9351
:10121800102302240B9306A84FF4601306940D9430
:101228000F93FFF733FA014600B1FEE70F2301934E
:10123800039005904FF4806301A802940493FFF78C
:1012480097FD00B1FEE710B010BD000007B5FFF72D
:10125800D1F8FFF7CFFF0E4B0E499A690E4842F0BE
:1012680004029A619B6903F004030193019B012323
:101278004B608B600323CB6020230B60FFF73AF9A8
:1012880005482021FFF7FCF96420FFF7CDF8F7E7C0
:101298000010024018010020000801407047FEE7D6
:1012A800FEE7FEE7FEE7704770477047FFF7AEB806
:1012B800014B1868704700BF8000002010B5431E1E
:1012C8000A44914204D011F8014B03F8014FF8E7A2
:1012D80010BD03460244934202D003F8011BFAE70B
:1012E800704730B5141E9BB0054604DA8B230360A3
:1012F8004FF0FF301CE04FF40272ADF80C200CBF29
:10130800224604F1FF32029205924FF6FF720091D5
:101318000491ADF80E2069461A461E9B00F074F839
:10132800431CBCBF8B232B6014B1009B00221A7096
:101338001BB030BD73B506460D4614460093044BEA
:10134800314618682A462346FFF7CBFF02B070BD26
:10135800800000202DE9F0478E688246B3420C4693
:101368009046994640D38A8912F4906F3AD02568FE
:10137800096902236F1A656905EB450595FBF3F5C5
:101388007B1C4B449D4238BF1D4653050FD529464B
:1013980000F030FB064698B121693A46FFF78EFF08
:1013A800A38923F4906343F08003A38113E02A46C2
:1013B80000F076FB064670B95046216900F0D6FA6F
:1013C8000C23CAF80030A3894FF0FF3043F04003E4
:1013D800A381BDE8F08726613E4426604E466561DC
:1013E800ED1BA560B14500D24E4632462068414605
:1013F80000F0A0FAA36800209B1BA36023681E448A
:101408002660BDE8F08700002DE9F0439DB0039306
:101418008B8906461C060D4690460CD50B6953B9B8
:10142800402100F0E7FA2860286110B90C233360E6
:10143800CCE040236B610023099320238DF82930E9
:1014480030238DF82A3043461C4613F8012B1AB96D
:10145800B4EB08090FD002E0252AF5D1F8E73046A9
:10146800294642464B46FFF775FF013000F0A98038
:10147800099B4B4409932378002B00F0A28000239A
:101488004FF0FF3204930793059206938DF853307B
:101498001A9304F101084446DFF848912178484638
:1014A800052200F039FA08F10108049B30B1C9EBB4
:1014B80000000122824013430493ECE7D80644BF9E
:1014C80020228DF85320190744BF2B228DF8532072
:1014D80022782A2A02D0079923460EE0039A01347B
:1014E800111D12680391002ABBBF524243F0020348
:1014F80007920792B8BF04930AE01C46227801338A
:10150800303A092A03D80A2000FB0121F5E70791A0
:1015180023782E2B1AD163782A2B0AD1039B023405
:101528001A1D1B680392002BB8BF4FF0FF330593B9
:101538000CE0611C00220C4623780131303B092B5A
:1015480003D80A2000FB0232F5E70592DFF89880FD
:1015580021784046032200F0DFF938B1049AC8EB3D
:1015680000004023834013430493013421781A4830
:10157800062204F101088DF8281000F0CDF988B191
:10158800164B33B9039B073323F007030833039340
:1015980013E003AB0093304604A92A46104BAFF37F
:1015A800008007E003AB0093304604A92A460C4BA1
:1015B80000F092F8421C074603D0099B3B4409936C
:1015C80041E7AB895B0601D4099801E04FF0FF3091
:1015D8001DB0BDE8F08300BF811C000800000000BA
:1015E8005D130008771C00087D1C00082DE9F843EE
:1015F80091461F468A680B6906469342B8BF134650
:10160800C9F8003091F843200C46DDF8208012B16B
:101618000133C9F800302368990642BFD9F8003071
:101628000233C9F80030256815F006051CD094F877
:1016380043302268003318BF012392061FD5E118F2
:10164800302081F843005A1C94F845102244023394
:1016580082F8431013E03046394604F11902012399
:10166800C047013007D00135E368D9F800209B1A3C
:101678009D42F0DBDBE74FF0FF30BDE8F8833046F2
:10168800394604F14302C0470130F4D02268D9F842
:101698000050E36802F00602042A08BF5D1B2269B5
:1016A800A3680CBF25EAE57500259342C4BF9B1AC1
:1016B800ED184FF00009A9450ADA3046394604F119
:1016C8001A020123C0470130D5D009F10109F2E718
:1016D8000020BDE8F88300002DE9FF410C461746BD
:1016E800227E98466E2A06460A9B01F1430100F0C5
:1016F800B08012D8632A23D00AD8002A00F0BD800F
:10170800582A40F0CC8084F84520DFF804E257E0FE
:10171800642A1ED0692A1CD0C1E0732A00F0B18067
:1017280009D86F2A2ED0702A40F0B980226842F07A
:10173800200222603FE0752A24D0782A3BD0AEE010
:101748001A6804F14205111D1960136884F84230C3
:10175800A9E020681A6810F0800F02D0101D1860E8
:1017680008E010F0400F02F10400186002D0B2F94E
:10177800003000E01368002B3EDA2D225B4284F82B
:10178800432039E020681A6810F0800F02D0101D3D
:10179800186007E010F0400F02F10400186001D053
:1017A800138800E01368227EDFF864E16F2A0CBF1B
:1017B80008220A221CE07822DFF858E184F8452044
:1017C8002268186812F0800F00F104051D6003D12B
:1017D800550601D5038800E00368D00744BF42F0EE
:1017E800200222601BB9226822F020022260102207
:1017F800002084F8430002E0DFF814E10A2265685B
:10180800002DA8BF2068A560A4BF20F004002060B8
:1018180003B965B10D46B3FBF2F002FB10331EF8B5
:10182800033005F8013D03460028F4D100E00D46D9
:10183800082A0BD12368DA0708D5236962689A4217
:10184800DEBF302305F8013C05F1FF35491B216156
:101858002EE025681A6815F0800F606903D0151D01
:101868001D60136808E015F0400F02F104051D60C3
:10187800136801D0188000E01860002323610D462A
:1018880016E01A68111D196015680021284662685B
:1018980000F042F808B1401B6060636804E004F19E
:1018A800420584F8422001232361002384F8433051
:1018B800CDF800803046214603AA3B46FFF796FE46
:1018C800013002D14FF0FF301FE0304639462A463A
:1018D8002369C0470130F5D023689B0705D4E06829
:1018E800039B9842B8BF18460FE00025E368039AA7
:1018F8009B1A9D42F3DA3046394604F11902012356
:10190800C0470130DED00135F0E704B0BDE8F08112
:10191800881C0008991C000810B5C9B202449042FE
:10192800034605D01C7801308C42F8D1184610BD0A
:10193800002010BD814210B501EB020301D3421E05
:101948000BE09842FBD28118D21AD34204D013F884
:10195800014D01F8014DF8E710BD994204D011F886
:10196800014B02F8014FF8E710BD000030B500291F
:101978003CD051F8042C0B1F1D49002AB8BF9B18F6
:101988000A680C4612B95A600B6030BD93420DD2FA
:1019980019685818904201BF5A5852181A6042687C
:1019A80023605A6030BD994203D80A46516800291D
:1019B800F9D1146815199D420AD11B682344D0181F
:1019C8008842136012D10868034413604B680CE026
:1019D80002D90C23036030BD1C681819884201BF66
:1019E80008684968001918605960536030BD00BF25
:1019F8002C01002070B5CC1C24F0030408340C2CF6
:101A080038BF0C24002C064603DA0C233360002070
:101A180070BD8C42F9D3204A136810461946A1B10B
:101A28000A68121B0ED40B2A03D90A608B188C5033
:101A38001FE08B420BBF5A684A6802605A6018BFA1
:101A48000B4616E00B464968E9E7144D2B681BB9AD
:101A5800304600F04BF828603046214600F046F842
:101A6800421C0346D1D0C51C25F0030585420AD186
:101A78001C6003F10B001A1D20F00700821A0AD01F
:101A88005142995070BD3046E91A00F02FF80130E4
:101A9800BBD02B46ECE770BD2C01002028010020AC
:101AA800F8B5074615460E4621B91146BDE8F84077
:101AB800FFF7A0BF1AB9FFF759FF2846F8BD00F095
:101AC80025F8A8420ED238462946FFF793FF044668
:101AD80050B131462A46FFF7F1FB38463146FFF749
:101AE80045FF01E03046F8BD2046F8BD38B5064C44
:101AF8000023054608462360FFF75EFA431C02D11F
:101B0800236803B12B6038BD3001002051F8040C64
:101B18000028BEBF091851F8043CC01804387047A3
:101B2800000000000102030401020304060708097B
:101B380002030405060708090A0B0C0D0E0F101006
:101B48000102030405060708090A0B0C0D0E0F1005
:101B5800537461636B206672616D653A0A002052A6
:101B680030203D2020253038580A00205231203DB1
:101B78002020253038580A00205232203D202025C8
:101B88003038580A00205233203D2020253038585C
:101B98000A0020523132203D20253038580A0020D2
:101BA8004C52203D2020253038580A002050432030
:101BB8003D2020253038580A0020505352203D201F
:101BC800253038580A004653522F4641523A0A00E7
:101BD8002043465352203D2020253038580A002003
:101BE80048465352203D2020253038580A002044CA
:101BF800465352203D2020253038580A00204146BF
:101C08005352203D2020253038580A00204D4D469B
:101C18004152203D20253038580A00204246415282
:101C2800203D2020253038580A004D6973630A008A
:101C3800204C522F4558435F52455455524E3D2033
:101C4800253038580A005B486172644661756C74C7
:101C58005D0A005B4275734661756C745D0A005BD2
:101C680055736167654661756C745D0A00430023AE
:101C78002D302B2000686C4C006566674546470090
:101C880030313233343536373839414243444546AA
:101C98000030313233343536373839616263646540
:021CA8006600D4
:101CAC007856341294000020000000000000000060
:101CBC0000000000010203040607080900366E014B
:101CCC000000000000000000000000000000000008
:101CDC0000000000000000000000000000000000F8
:101CEC00751C00080000000000000000000000004F
:101CFC0000000000000000000000000000000000D8
:101D0C0000000000000000000000000000000000C7
:101D1C0000000000000000000000000000000000B7
:081D2C002000002032547698DB
:04000005080001D11D
:00000001FF
