:020000040800F2
:1000000000200020D5010008DD010008E101000802
:1000100000000000000000000000000000000000E0
:10002000000000000000000000000000E5010008E2
:100030000000000000000000E90100086D0F00084A
:10004000F1010008F1010008F1010008F1010008C8
:10005000F1010008F1010008F1010008F1010008B8
:10006000F1010008F1010008F1010008F1010008A8
:10007000F1010008F1010008F1010008F101000898
:10008000F1010008F101000800000000F101000882
:10009000F1010008F1010008F1010008F101000878
:1000A000F1010008F1010008F1010008F101000868
:1000B000F101000800000000F1010008000000004C
:1000C0005FF808F130B583B0314B324A1360324AE1
:1000D0001360324B3249002201E01A6004338B4234
:1000E000FBD32C4B1B68002B03D12B4B1B68002B25
:1000F00000D0FEE7264B2B4A13602B4A13602B4B94
:100100002B4A2C4903E010681860043304328B42F8
:10011000F9D3244B1A68284B9A4204D1224B1A680F
:100120001B689A4200D0FEE700F028FE01A869464D
:1001300000F0AAFD214B224DED1AAD10002404E081
:10014000A3001E4A9B5898470134A542F8DC1D4B7A
:100150001D4DED1AAD10002404E0A30019481B58F2
:1001600098470134A542F8DC0198009900F072FF2D
:10017000051C164B164CE41AA41004E0013CA30025
:10018000124A9B589847002CF8DC281C01F002F812
:10019000BABADECA9800002034010020980000207E
:1001A0003801002000000020940000200000002002
:1001B0000C2600089800002078563412F40100083C
:1001C000F4010008F4010008F4010008F40100083B
:1001D000F401000808B5FFF775FFC046FEE7C0460A
:1001E000FEE7C046FEE7C046FEE7C046FEE7C04663
:0401F000FEE7C04620
:1001F400F8B5051C0E1C9023DB05984212D03D4B2C
:1002040098420FD03C4B98420CD03C4B984209D0BA
:100214003B4B984206D03B4B984203D03A48B4211A
:1002240000F038FD3368002B03D13748B52100F0C6
:1002340031FD3379032B03D93348B62100F02AFD6D
:10024400F379022B03D93048B72100F023FD0024B1
:1002540001274BE03B1CA34032681A409A4244D128
:100264003379013B012B28D87379012B05D9032B52
:1002740003D02548C72100F00DFDAA6863000321BF
:1002840099408A43AA60AA68717999400B1C134368
:10029400AB60B379012B03D91B48CE2100F0FAFCE3
:1002A400AA8823041B0C391C99408A43AA80AA8873
:1002B400B17999408BB21343AB8029686300032260
:1002C400101C984081432960286831799940014382
:1002D4002960E9682004C00B82409143E960EA6820
:1002E400F17999400B1C1343EB6001340F2CB1D905
:1002F400F8BDC0460004004800080048000C00484F
:100304000010004800140048E823000870B5041CDD
:100314000D1C161C9023DB05984212D0174B9842F3
:100324000FD0174B98420CD0164B984209D0164B5D
:10033400984206D0154B984203D01548154900F051
:10034400A9FC0F2D03D91248134900F0A3FC072E72
:1003540003D90F48114900F09DFC07232B409B0053
:100364009E40E908083189000A590F2098408243C9
:100374000A510B591E430E5170BDC046000400487B
:1003840000080048000C0048001000480014004811
:10039400E82300080D0200000E0200000F02000016
:1003A400114B196801221143196058680F49014023
:1003B400596018680E490140196018680D490140D8
:1003C400196058680C4901405960D96A0F2081436B
:1003D400D962186B094901401963596B91435963F8
:1003E40000229A607047C046001002400CB8FFF823
:1003F400FFFFF6FEFFFFFBFFFFFFC0FFACFEFFFFAA
:1004040010B5041E012C04D909489521490000F0B7
:1004140041FC002C05D0074B196801220A431A60DD
:1004240004E0044B1A6801218A431A6010BDC046D7
:100434001C2400080010024038B5051C0C1C0028C0
:1004440010D0C0235B0298420CD080231B02984238
:1004540008D080235B02984204D02748EC21FF3166
:1004640000F018FC002C3CD08023DB029C4238D0E6
:1004740080231B039C4234D0C0231B039C4230D0F6
:1004840080235B039C422CD0A0235B039C4228D096
:10049400C0235B039C4224D0E0235B039C4220D016
:1004A40080239B039C421CD090239B039C4218D026
:1004B400A0239B039C4214D0B0239B039C4210D0E6
:1004C400C0239B039C420CD0D0239B039C4208D0A6
:1004D400E0239B039C4204D00748F621490000F026
:1004E400D9FB064B5968064A0A405A605A682C439D
:1004F40014435C6038BDC0461C2400080010024050
:10050400FF7FC2FF10B5041E012C03D909480A4914
:1005140000F0C0FB002C06D0084B1968802252045E
:100524000A431A6004E0054B1968054A0A401A6038
:1005340010BDC0461C240008030200000010024045
:10054400FFFFFFFE10B5041E012C07D9032805D0B8
:10055400022803D00548064900F09CFB054B5A6865
:1005640003218A4314435C6010BDC0461C24000868
:100574000903000000100240024B58680C23184085
:100584007047C0460010024010B5041E13D08028E6
:1005940011D090280FD0A0280DD0B0280BD0C0289F
:1005A40009D0D02807D0E02805D0F02803D005488A
:1005B400054900F06FFB054B5A68F0218A43144348
:1005C4005C6010BD1C2400083B03000000100240C6
:1005D40070B5041C5E4B5B680C221340042B0CD0DA
:1005E40002D8002B05D028E0082B0AD00C2B20D0F1
:1005F40023E0584B0360002022E0564B03600020A8
:100604001EE0534B5D68AD025A682D0F0235C023BE
:100614005B021A4202D15048684308E04C4BDB6A43
:100624000F21194001314B4800F0BCFD68432060A4
:1006340006E04A4B0360002002E0464B23600020A2
:10064400434B5A681206120F454DA95CC9B226687D
:10065400321CCA40111C62605A685205520FAA5CCF
:10066400D2B2D1400A1CA1601B6BD90502D43D4B08
:10067400E36008E0364B5B68590402D45308E36036
:1006840001E09308E360324B1B6B590602D4364BEE
:10069400236102E080231B0223612D4B1B6BD906CF
:1006A40002D42C4B636100E06661294B1B6B9907F4
:1006B40001D1A26119E0264B1B6B03210B40012BD6
:1006C40001D1A66111E0224B1B6B03210B40022BCD
:1006D40003D180231B02A36107E01D4B1B6B032185
:1006E4000B40032B01D11B4BA361194B196BC02386
:1006F4009B02194201D1E26120E0154B1B6BC02221
:1007040092021A4080235B029A4201D1E66115E00D
:100714000F4B1B6BC02292021A4080239B029A4209
:1007240003D180231B02E36108E0094B1A6BC02349
:100734009B021A409A4201D1064BE361044B1B6BA6
:100744001A0602D4054B236200E0206270BDC04645
:100754000010024000127A0000093D00006CDC0227
:1007640004000020809FD5001280000038B5041CCE
:100774000D1C0D4B184201D1002803D10B480C4924
:1007840000F088FA012D03D908480A4900F082FADA
:10079400002D04D0084B5A6914435C6103E0064BF6
:1007A4005A69A2435A6138BDAAFF81FE1C2400087D
:1007B40036050000370500000010024038B5041C5F
:1007C4000D1C0D4B184201D1002803D10B480C49D4
:1007D40000F060FA012D03D908480A4900F05AFADA
:1007E400002D04D0084B9A6914439C6103E0064B26
:1007F4009A69A2439A6138BDFEA5B8FF1C2400087B
:100804005A0500005B0500000010024010B5041EEC
:10081400012C20D011281ED019281CD021281AD030
:10082400412818D0592816D05A2814D05B2812D041
:100834005C2810D05D280ED05E280CD05F280AD02A
:10084400612808D0712806D0572804D00F48CA213F
:10085400C90000F01FFA630902D10D4B1A680BE0BE
:10086400012B02D10A4B1A6A06E0022B02D1084B73
:100874005A6A01E0064B5A6B1F231C40E240D3071F
:1008840001D5012000E0002010BDC0461C24000852
:1008940000100240F0B5474680B48AB0041C0D1C19
:1008A4005C4B98420CD05C4B984209D05B4B98420D
:1008B40006D05B4B984203D05A48DC2100F0EAF999
:1008C4002A68013A584B9A4203D95648DD2100F070
:1008D400E1F96B68002B0AD080225201934206D0C2
:1008E400524A934203D04F48DE2100F0D3F9AB685B
:1008F400002B0BD080229201934207D0C022920198
:10090400934203D04748DF2100F0C4F9EB68002B81
:100914000BD08022D200934207D0C022D20093424F
:1009240003D04048E02100F0B5F92B690C22191CD2
:10093400914301D1002B03D13A48E12100F0AAF9F7
:100944006B69002B0FD08022520093420BD080227F
:100954009200934207D0C0229200934203D03148C0
:10096400E22100F097F9236801229343236062682F
:100974002F4B1340AA681343636022682D4B1A401F
:100984006B68E9680B4329690B4313432360A2682E
:10099400294B13406A691343A36001A8FFF718FEAB
:1009A4001C4B9C4201D1079F05E01B4B9C4201D18B
:1009B400089F00E0039F236819040CD57F00B84604
:1009C4002F684046391C00F0EDFB061C4046391CDC
:1009D40000F02CFC0AE02A689046381C111C00F038
:1009E400E1FB061C381C414600F020FC2B685B0828
:1009F4008B4200D801362368190404D533075B0FF2
:100A04000E4A16401E43B6B2A6810AB004BC9046F4
:100A1400F0BDC0460038014000440040004800409A
:100A2400004C00404C2400087F8D5B000010001037
:100A3400FFCFFFFFF3E9FFFFFFFCFFFFF0FF000024
:100A440038B5041C0D1C124B98420DD0114B984222
:100A54000AD0114B984207D0104B984204D010484A
:100A6400C821490000F016F9012D04D90C4892213F
:100A7400FF3100F00FF9002D04D022680123134345
:100A8400236003E0236801229343236038BDC046FA
:100A9400003801400044004000480040004C004041
:100AA4004C24000838B5041C0D1C0D4B98420CD086
:100AB4000C4B984209D00C4B984206D00B4B9842F1
:100AC40003D00B480B4900F0E5F80B4B9D4203D9CA
:100AD40007480A4900F0DEF8ED05ED0D258538BD1F
:100AE400003801400044004000480040004C0040F1
:100AF4004C24000895030000FF0100009603000049
:100B040010B5041C094B98420CD0094B984209D0EB
:100B1400084B984206D0084B984203D0074808492E
:100B240000F0B8F8A08CC005C00D10BD003801401D
:100B34000044004000480040004C00404C240008A1
:100B4400A603000038B5051C0C1C314B98420CD090
:100B5400304B984209D0304B984206D02F4B9842E4
:100B640003D02F482F4900F095F8012C49D0802C50
:100B740047D0402C45D0202C43D0102C41D080238A
:100B84005B009C423DD080239B009C4239D0082CC2
:100B940037D0042C35D0022C33D08023DB009C4288
:100BA4002FD080231B019C422BD080235B019C42CD
:100BB40027D08023DB019C4223D080231B029C424C
:100BC4001FD080235B029C421BD080239B029C424B
:100BD40017D08023DB029C4213D080231B039C424A
:100BE4000FD080235B039C420BD080239B039C4249
:100BF40007D08023DB039C4203D009480A4900F054
:100C040049F8EB691C4201D0012000E0002038BD06
:100C1400003801400044004000480040004C0040BF
:100C24004C240008930700009407000008B503480B
:100C340000F054F8012000F0ABFAC046802400080C
:100C440008B50D4B1B68002B02D10C4A0A4B1A60E5
:100C5400094B1B680330032290431818084A90423A
:100C640006D900F0EFFA0C2303600120404202E0B1
:100C7400014A1060181C08BD9C00002038010020A7
:100C8400001C002001230360014B0B607047C04629
:100C94001400002008B5031C0A1C0348191C00F0AA
:100CA40005F8FFF7C3FFC046D42400080FB400B50D
:100CB40083B004AB04CB01930748802100F0CCFD42
:100CC400011E03DD044800F053F8011C081C03B0A6
:100CD40008BC04B01847C046A400002010B5041C8A
:100CE40000F0D0FA011C201C00F042F80248012157
:100CF40000F03EF810BDC04600250008F0B55F4680
:100D040056464D464446F0B485B0041C8B46435CBD
:100D1400002B1BD10425281C211CABBE041C1EE087
:100D2400351E102D00D95546434604E02278694605
:100D3400CA5401330134AB42F8D36F464246FA54E5
:100D44004846391CABBE071C761B06E00E1C10235C
:100D54009A460021884604229146002EE0D1584646
:100D640005B03CBC90469946A246AB46F0BDC04691
:100D740008B5FFF7C3FF08BD08B500F05BF808BD70
:100D840082B0002301930093274B196880225202FA
:100D94000A431A60191C80229202A020C0010B6829
:100DA40013400093019B01330193009B002B02D15C
:100DB400019B8342F3D11C4B1B689A0302D5012388
:100DC400009301E000230093009B012B2AD1112200
:100DD400164B1A60144B5A685A605A685A6059681C
:100DE400134A0A405A605968882252030A435A60D7
:100DF4001968802252040A431A60191C8022920442
:100E04000B681342FCD0084B5A6803218A435A608A
:100E1400596802220A435A60191C0C224B68134079
:100E2400082BFBD102B070470010024000200240A2
:100E3400FF7FC0FF08B5124B1968012211431960E6
:100E4400586810490140596018680F4901401960F9
:100E540018680E490140196058680D4901405960ED
:100E6400D96A0F208143D962186B0A49014019637A
:100E7400596B9143596300229A60FFF781FF08BDC3
:100E8400001002400CB8FF08FFFFF6FEFFFFFBFF57
:100E9400FFFFC0FFACFEFFFF10B51E4B5B680C22CA
:100EA4001340042B07D0082B09D0002B22D11A4A57
:100EB4001A4B1A6021E0184A184B1A601DE0154BB2
:100EC4005C68A4025A68240F0234C0235B021A42ED
:100ED40004D1134B5C43114B1C600EE00D4BDB6AD9
:100EE4000F21194001310C4800F05CF944430B4BCD
:100EF4001C6002E0084A094B1A60064B5B681B063B
:100F04001B0F084AD25CD2B2044B1968D140196055
:100F140010BDC0460010024000127A002C000020D0
:100F240000093D001C00002038B5051C064C201C9F
:100F34008021FFF707FE0028F9D0E9B20248FFF745
:100F4400B1FD281C38BDC0460038014010B5054C21
:100F5400201C2021FFF7F6FD0028F9D00148FFF7F7
:100F6400CFFD10BD00380140024B1A6801321A60EF
:100F74007047C04624010020034B19681A1C1368EB
:100F84005B1A8342FBD370472401002030B589B03B
:100F94008020C0020121FFF7E9FBC0230093022354
:100FA4006A461371002494710123D371032353718E
:100FB400134D281C6946FFF71BF9281C0621002243
:100FC400FFF7A4F9281C07210022FFF79FF98020CE
:100FD400C0010121FFF7F2FBE1239B020293079476
:100FE4000594049403940C230693064C201C02A934
:100FF400FFF750FC201C0121FFF722FD09B030BD92
:10100400000400480038014010B5041CFFF7C8F97B
:101014000020FFF777FA0120FFF7F2F90020FFF72D
:10102400B3FA0020211CFFF707FA0120FFF76AFA40
:101034001920FFF7EBFB0028FAD00220FFF782FA11
:10104400FFF79AFA0828FBD1FFF726FF10BDC04628
:10105400F8B5A0208003FFF7D7FFFFF797FF1B48E1
:1010640000F0F6F81A4C1B48216800F0F1F82068EB
:10107400FA21890000F096F80138174B98420FD8EE
:10108400164B5860164A106A0002000AC02109066D
:101094000143116200229A6007221A60002300E0D3
:1010A4000123002B00D0FEE700240E4F094E084D0B
:1010B4000134381C211C00F0CBF8301C296800F0E6
:1010C400C7F86420FFF758FFF2E7C0463025000850
:1010D4002C0000203C250008FFFFFF0010E000E08A
:1010E40000ED00E050250008012040427047C04652
:1010F40080239B014B6000207047C046022804D91E
:101104000922034B1A60002000E001207047C0460A
:101114003001002000207047F0B5474680B40D1C14
:101124009046002808D00DE06F1CFFF70FFF2870D1
:10113400013601343D1C01E0002600244445F3DB64
:10114400301C04E00922034B1A600120404204BC15
:101154009046F0BD3001002070B5161C01380128FE
:1011640008D90CE04D1C00200856FFF7DDFE0134C1
:10117400291C00E00024B442F4DB301C04E0092202
:10118400024B1A600120404270BDC046300100206D
:1011940008B5012002490422FFF7DEFFFEE7C0463E
:1011A40068250008002934D00123002210B48842A5
:1011B4002CD301242407A14204D2814202D2090182
:1011C4001B01F8E7E400A14204D2814202D24900A3
:1011D4005B00F8E7884201D3401A1A434C08A04246
:1011E40002D3001B5C0822438C08A04202D3001BDC
:1011F4009C082243CC08A04202D3001BDC082243F3
:10120400002803D01B0901D00909E3E7101C10BC16
:101214007047002801D00020C04307B4024802A14F
:101224004018029003BDC046190000000029F0D008
:1012340003B5FFF7B9FF0EBC4243891A1847C046ED
:101244007047C046014B18687047C04690000020A4
:101254000FB40B4B13B51C68002C05D0A369002BED
:1012640002D1201C00F0DCFC05ABA168201C049A10
:10127400019300F035F816BC08BC04B01847C0460A
:10128400900000200023C25C0133002AFBD1581EC9
:101294007047936810B5013B9360002B05DA94699D
:1012A400A34208DBCBB20A2B05D01368581C10608C
:1012B4001970C8B201E000F0DFFA10BDF8B5061CE1
:1012C4000F1C141CD518AC4208D02178301C3A1CD1
:1012D400FFF7DFFF0134431CF5D100E00020F8BD27
:1012E400F0B59FB0061C0F1C03920593002804D090
:1012F4008169002901D100F093FC754B9F4201D113
:10130400776808E0734B9F4201D1B76803E0724BE2
:101314009F4200D1F768BB891A070AD53B69002BA5
:1013240007D006AD00236B6120236B763023AB76A8
:101334003BE0301C391C00F0F7FA0028F1D0012002
:101344004042C2E0059A111D12680591002A76DB1D
:101354000992013423782E2B00D181E021785F4853
:10136400032200F01DFD002807D05C492A68431AB7
:10137400402098401043286001342178631C584869
:1013840006220393297600F00BFD002800D18AE0A1
:10139400544B002B7ED1059B07220733934308331C
:1013A40005936A69049953186B61039C2378002B95
:1013B40004D10399611A029110D003E0252BF8D0CF
:1013C4000134F3E7301C391C039A029BFFF776FFC4
:1013D400013075D06A69029953186B612378002B28
:1013E4006ED0012252426A606A4600235B320134A5
:1013F4002B60EB60AB601370AB6521783A48052233
:1014040000F0CEFC002808D0374A0134831A0120AA
:1014140098402B6818432860EFE72B68D90603D55A
:101424006A4620215B3211701A0703D56A462B21C4
:101434005B32117022782A2A84D0099B05E052423B
:10144400EA60022213432B6083E72278303A092AA8
:1014540004D80A214B4301349B18F6E7099379E732
:1014640063782A2B09D1059B02341A1D1B68059247
:10147400002B0DDA01235B420AE0013400232278B9
:10148400303A092A04D80A214B4301349B18F6E761
:10149400079363E705AB0093301C291C3A1C134BDC
:1014A40000E000BF07E005AB0093301C291C3A1C88
:1014B4000E4B00F091F804900499013100D070E7CC
:1014C400BB895A0600D53AE70B981FB0F0BDC04659
:1014D400AC250008CC250008EC2500087E25000872
:1014E400822500080000000078250008C1120008C9
:1014F400F7B5151C01930A698B68061C0C1C9342F2
:1015040000DA131C221C2B6043321278002A01D00B
:1015140001332B602068800602D52B6802332B60D0
:10152400216806270F401FD0231C43331B785A1E03
:101534009341226892061FD5E11840313020C870CB
:10154400211C5A1C45310978A21840320233D1704B
:1015540012E0221C301C019919320123089FB8475C
:10156400013011D0009F01370097E0682968009F7F
:10157400431A9F42EDDBD7E7221C301C019943320A
:10158400089FB847013002D10120404223E020687F
:1015940006212B68E26801400025042903D1D51AED
:1015A400EB43DB171D40A26823699A4201DDD31A7D
:1015B400ED1800270097009FAF420BDA221C301C65
:1015C40001991A320123089FB8470130DCD0009FEB
:1015D4000137EFE70020FEBDF0B50D1C8BB043359D
:1015E40006920590079304950B7E0C1C109A6E2BA3
:1015F40000D1A7E011D8632B22D009D8002B00D149
:10160400B0E0582B00D0C0E045310B707B4D4EE06C
:10161400642B1CD0692B1AD0B7E0732B00D1A5E042
:1016240009D86F2B29D0702B00D0AEE00E68202390
:1016340033430B6036E0752B1FD0782B32D0A4E0F7
:1016440013680D1C191D423511601B689FE0216849
:1016540013680E0603D5191D11601E6805E04806BF
:10166400F9D5191D116000215E5E644B002E3BDA32
:10167400049D2D2276422A7036E0216813680E06F6
:1016840003D5191D11601E6804E04806F9D5191D1B
:101694001E881160594B227E039308276F2A1ED09F
:1016A4000A271CE0231C78214533554D1970116815
:1016B4002368081D039510601E0601D50E6802E01C
:1016C4005806FBD50E88D90702D520221343236080
:1016D4001027002E03D1226820239A432260231C62
:1016E400002243331A7001E003930A276368A3605E
:1016F400002B03DB2568042295432560002E02D1CC
:10170400049D002B0ED0049D301C391CFFF78EFD68
:101714000398013D435C301C2B70391CFFF742FDDC
:10172400061EF1D1082F09D12168C90706D56268C0
:1017340023699A4202DC013D30232B70049E731B03
:1017440023612AE0086813684969050604D5181D51
:1017540010601B68196005E04606F8D5181D106076
:101764001B68198000232361049D16E01368191D6A
:1017740011601D68281CFFF785FD6368206198428D
:1017840000D923612069606004E0251C42352B7078
:1017940001232361049E00233370079E059800965D
:1017A400211C09AA069BFFF7A3FE013002D10120E8
:1017B400404221E02A1C059806992369079DA84701
:1017C4000130F4D02668B60705D4099BE068984236
:1017D40012DA181C10E00025E0680999431A9D42AA
:1017E400F3DA221C0598069919320123079EB047A3
:1017F4000130DCD00135EFE70BB0F0BD89250008DE
:101804009A25000830B5051C9BB0141E04DA8B23FE
:101814000360012040421DE082229200684600914C
:101824000491002182818C4200D0611E0122524227
:10183400029105916946CA81281C1A1C1E9B00F05E
:1018440065FC421C01DA8B232B60002C02D000992A
:1018540000230B701BB030BD73B5141C054A061C65
:101864000D1C1068311C00932A1C231CFFF7CAFFAF
:1018740076BDC0469000002070B5051C0E1C141CDB
:10188400002804D08269002A01D100F0C9F9234B51
:101894009C4201D16C6808E0214B9C4201D1AC68A8
:1018A40003E0204B9C4200D1EC68A369A360A389A8
:1018B4001A070AD52369002B07D022682369F6B2D8
:1018C400D01A626990420FDB08E0281C211C00F04A
:1018D4002BF80028F1D0012040421DE0281C211CD7
:1018E40000F01EF90028F6D1A3680130013BA36083
:1018F40023685A1C22601E706369984205D0A3892C
:10190400301CDA0708D50A2E06D1281C211C00F049
:1019140007F90028DFD1301C70BDC046AC25000893
:10192400CC250008EC250008344B70B51D68061C56
:101934000C1C002D05D0A969002902D1281C00F037
:101944006FF92F4B9C4201D16C6808E02D4B9C42EF
:1019540001D1AC6803E02C4B9C4200D1EC68A28915
:1019640093B2190721D4D90605D40923336040233F
:101974001A43A2813FE05A0713D5616B002908D0AE
:10198400231C4433994202D0301C00F03FFA002358
:101994006363A38924229343A3810023636023699F
:1019A4002360A38908221343A381216900290BD151
:1019B400A389A02292001A4080239B009A4203D05C
:1019C400301C211C00F09CF9A38901221A4005D087
:1019D40061690022A2604A42A26103E0990700D42F
:1019E4006269A26022690020824206D1190604D5E8
:1019F40040221343A3810120404270BD9000002087
:101A0400AC250008CC250008EC250008F7B58B8927
:101A1400051C0C1C19075ED46268002A02DC276CC2
:101A2400002F1ADDE76A002F17D000222E682A60E3
:101A3400802252011A4001D0626D15E0281C216AEF
:101A44000123B847021C411C0ED12B68002B0BD07C
:101A54001D2B01D0162B02D12E6000205EE0A3893D
:101A640040210B43A38159E0A3895F0706D5616830
:101A7400636B521A002B01D0276CD21B281C216ADD
:101A84000023E76AB847A289411C06D12B68002BC2
:101A940003D01D2B01D0162B19D1002363602369B9
:101AA4002360D70405D5411C02D12A68002A00D13D
:101AB4006065616B2E600029CFD0231C44339942AA
:101AC40002D0281C00F0A2F90020606326E0402325
:101AD4001A43A28122E02669002EBED02768002284
:101AE400BF1B01972660990700D16269A260019F1C
:101AF400002FB2DD281C216A321C019BA76AB8475B
:101B0400002806DCA389402213430120A38140421C
:101B140004E0019F36183F1A0197E8E7FEBD000074
:101B24000A6938B5051C0C1C002A01D100201CE0F0
:101B3400002804D08369002B01D100F071F80B4B0D
:101B44009C4201D16C6808E0094B9C4201D1AC680D
:101B540003E0084B9C4200D1EC680C22A35E002BEE
:101B6400E4D0281C211CFFF751FF38BDAC25000828
:101B7400CC250008EC250008F8B5041C071C4834E3
:101B8400002C12D0A5686668013E0CD4AB89012BE9
:101B940007D90E22AB5E013303D0381C291CFFF792
:101BA400BFFF6835F0E72468EAE7F8BD002310B505
:101BB400041C03604360836081814366C2810361C6
:101BC40043618361191C08225C3000F016F9054B4F
:101BD40024626362044BA362044BE362044B2363F9
:101BE40010BDC046B91F0008E11F000819200008F5
:101BF4004520000870B54B1E68255D430E1C291C4A
:101C0400743100F04BF9041E08D0002101604660D5
:101C14002A1C0C30A060683200F0EFF8201C70BD64
:101C2400836913B5041C002B27D18364C364036543
:101C3400124B134A1B688262984201D101238361CB
:101C4400201C00F01FF86060201C00F01BF8A0604E
:101C5400201C00F017F80421E06000226068FFF700
:101C6400A5FFA06809210122FFF7A0FFE068122167
:101C74000222FFF79BFF0123A36113BD7425000813
:101C84007D1B0008F8B51D4B071C1E68B269002AAD
:101C940002D1301CFFF7C4FF4836B4687368013BB7
:101CA40005D40C22A55E002D10D06834F7E7336804
:101CB400002B06D1381C0421FFF79CFF306000285C
:101CC40001D03668E9E70C233B6016E001235B4250
:101CD400E381201C0123A38165662560A5606560FE
:101CE40025616561A5615C30291C082200F085F836
:101CF4006563A563A564E564201CF8BD742500082C
:101D0400F0B58B8991B0051C0C1C9A0725D40E23C1
:101D1400C95E002906DAA78980231F400FD0002757
:101D240040260EE001AA00F007FB0028F3DB029B2B
:101D3400F0273F02184A1F40BF187B425F418026AC
:101D4400F600281C311C00F0A9F800280CD1A38946
:101D54009A051FD402221343A381231C4733236013
:101D640023610123636115E00C4B8022AB62A389DC
:101D740020601343A38120616661002F0AD00E23E3
:101D8400E15E281C00F0EAFA002803D0A3890122AE
:101D94001343A38111B0F0BD00E0FFFF7D1B0008D9
:101DA400C9B28218904204D003788B4202D0013029
:101DB400F8E70020704710B50023934203D0CC5CB1
:101DC400C4540133F9E710BD70B5814201D3002337
:101DD4000CE08C18A042FAD28518131C013B0BD3DB
:101DE40051426618F65C6918CE54F7E7934203D063
:101DF400CC5CC4540133F9E770BD031C82189342D0
:101E040002D019700133FAE77047000030B5002999
:101E140040D004390B68002B00DAC9181E4A136835
:101E2400141C002B02D14B60116033E099420FD295
:101E340008680A189A4205D113685268C0180860E5
:101E44004A6000E04B60216024E08A4203D8131CFE
:101E54005A68002AF9D11D685C198C420BD10968B3
:101E6400691858181960904214D1146852680919F5
:101E740019605A600EE08C4202D90C23036009E019
:101E840008680C18944203D1146852680019086059
:101E94004A60596030BDC0462C01002070B5032350
:101EA400CD1C9D430835061C0C2D01D20C2501E0E8
:101EB400002D3FDB8D423DD3204B1C681A1C211C96
:101EC400002913D00868431B0DD40B2B02D90B60D7
:101ED400CC181EE08C4202D1636813601AE0486893
:101EE40060600C1C16E00C1C4968E9E7144C20687F
:101EF400002803D1301C00F04BF82060301C291C52
:101F040000F046F8431C15D0C41C03239C438442B0
:101F14000AD12560201C0B300722231D9043C31ACD
:101F24000BD05A42E25008E0211A301C00F030F87D
:101F34000130EED10C233360002070BD2C01002051
:101F440028010020F8B5061C0C1C151C002904D11E
:101F5400111CFFF7A3FF041C18E0002A03D1FFF7AC
:101F640055FF2C1C12E000F01FFAA8420ED2301CC0
:101F7400291CFFF793FF071E07D0211C2A1CFFF71B
:101F84001AFF301C211CFFF741FF3C1C201CF8BD2C
:101F940038B5074C0023051C081C2360FEF750FECF
:101FA400431C03D12368002B00D02B6038BDC046EE
:101FB4003001002038B50C1C0E25495F00F0FEF9F5
:101FC400002803DB626D1318636503E0A289024BEA
:101FD4001340A38138BDC046FFEFFFFFF8B51E1CB8
:101FE4008B89051C0C1C171CDA0505D50E23C95E4C
:101FF4000022022300F0C4F9A289054B281C1340D7
:10200400A3810E22A15E331C3A1C00F06FF9F8BDC7
:10201400FFEFFFFF38B50C1C0E25495F00F0B0F947
:10202400A389421C03D1054A1340A38104E0802202
:1020340052011343A381606538BDC046FFEFFFFF23
:1020440008B50E23C95E00F065F908BDF0B58D68CA
:1020540085B0071C0C1C03920193AB4245D390221C
:102064008B89D20013423DD0626903265643096925
:102074002068F20F401A96190290021C019801324E
:1020840012187610964200D2161C381C5A050FD529
:10209400311CFFF703FF051E13D0029A2169FFF7D5
:1020A4008AFEA289184B134080221343A38111E0B6
:1020B400321CFFF747FF051E0CD1381C2169FFF7BE
:1020C400A5FE0C233B60A389402213430120A38176
:1020D400404217E0029B2561ED1825606661019D71
:1020E400F61AA6600198A84200D2019D2A1C206815
:1020F4000399FFF769FEA2680020531BA3602368BD
:102104005D19256005B0F0BD7FFBFFFFF0B59FB002
:10211400039005938B890E1C171C19060FD5326981
:10212400002A0CD14021FFF7B9FE3060306100284D
:1021340003D103990C230B60C9E04023736106ADFE
:1021440000236B6120236B763023AB763C1C237811
:10215400002B03D1E21B029211D003E0252BF9D00E
:102164000134F4E70398311C3A1C029BFFF76EFF1D
:10217400013000D1A6E06969029A8B186B6123785B
:10218400002B00D19EE0012252426A606A4600237D
:102194005B3201342B60EB60AB601370AB654E4F68
:1021A4002178381C0522FFF7FBFD002807D0C71B48
:1021B4002B680120B840184328600134EFE72B68EE
:1021C400D90603D56A4620215B3211701A0703D55C
:1021D4006A462B215B32117022782A2A01D0099B8E
:1021E4000EE0059A111D12680591002A01DB09927F
:1021F40004E05242EA60022213432B60013409E0F6
:102204002278303A092A04D80A214B4301349B1816
:10221400F6E7099323782E2B18D163782A2B09D15A
:10222400059B02341A1D1B680592002B0DDA01234D
:102234005B420AE0013400232278303A092A04D8A8
:102244000A214B4301349B18F6E70793234F217867
:10225400381C0322FFF7A4FD002806D0C71B2B68F7
:102264004020B84018432860013421781C480622D5
:10227400671C2976FFF794FD002812D0194B002B18
:1022840006D1059B0722073393430833059314E0D3
:1022940005AB00930398291C321C134B00E000BFCC
:1022A40007E005AB00930398291C321C0E4BFFF783
:1022B40093F904900499013104D06A69049953187C
:1022C4006B6143E7B3895A0601D40B9801E00120FE
:1022D40040421FB0F0BDC046782500087E250008A6
:1022E40082250008000000005120000838B5084C81
:1022F400051C00202060081C111C1A1CFEF72CFF72
:10230400431C03D12368002B00D02B6038BDC0468A
:102314003001002038B5074C0023051C081C23603D
:10232400FEF7E2FE431C03D12368002B00D02B6090
:1023340038BDC0463001002038B5074C0023051CC9
:10234400081C111C2360FEF7D3FE431C03D1236831
:10235400002B00D02B6038BD3001002038B5074C6D
:102364000023051C081C2360FEF7C8FE431C03D190
:102374002368002B00D02B6038BDC04630010020FC
:1023840038B5084C051C00202060081C111C1A1CC0
:10239400FEF7C0FE431C03D12368002B00D02B6042
:1023A40038BDC0463001002004390B68181F002BCB
:1023B40002DAC8581B18181F7047000038B5084CBB
:1023C400051C00202060081C111C1A1CFEF7A4FE2A
:1023D400431C03D12368002B00D02B6038BDC046BA
:1023E400300100202E2E2F73797374656D2F737254
:1023F400632F73746D333266302D73746470657239
:102404006970682F73746D3332663078785F6770E3
:10241400696F2E63000000002E2E2F73797374658C
:102424006D2F7372632F73746D333266302D737432
:10243400647065726970682F73746D3332663078B6
:10244400785F7263632E63002E2E2F737973746525
:102454006D2F7372632F73746D333266302D737402
:10246400647065726970682F73746D333266307886
:10247400785F75736172742E6300000061626F721D
:102484007428292C2065786974696E672E2E2E00B5
:102494002C2066756E6374696F6E3A20000000002C
:1024A400617373657274696F6E20222573222066CE
:1024B40061696C65643A2066696C65202225732223
:1024C4002C206C696E65202564257325730A000031
:1024D4006173736572745F706172616D282920661F
:1024E40061696C65643A2066696C652022257322F3
:1024F4002C206C696E652025640A00000A00000027
:102504006D61696E28617267633D25642C20617278
:1025140067763D5B000000002C200000222573221A
:10252400000000005D293B0A00000000776F726B19
:10253400732120070D0A0000537973636C6F636B7A
:102544003A20256C64200D0A0000000048656C6C7C
:102554006F20776F726C64212120256C64200D0A32
:10256400000000006578697400000000430000006A
:1025740030000020232D302B2000686C4C00656651
:1025840067454647003031323334353637383941C0
:1025940042434445460030313233343536373839D6
:1025A40061626364656600000000000000000000D2
:1025B4000000000000000000000000000000000017
:1025C4000000000000000000000000000000000007
:1025D40000000000000000000000000000000000F7
:1025E40000000000000000000000000000000000E7
:1025F40000000000000000000000000000000000D7
:082604000000000000000000CE
:10260C007856341200000000010203040102030496
:10261C0006070809A00000200000000000000000D0
:10262C00000000000102030406070809006CDC022C
:10263C0000000000AC250008CC250008EC250008A3
:10264C00000000000000000000000000000000007E
:10265C0070250008000000000000000000000000D1
:10266C00000000000000000000000000000000005E
:10267C00000000000000000000000000000000004E
:10268C00000000000000000000000000000000003E
:08269C00300000203254769852
:04000005080000C52A
:00000001FF
