:020000040800F2
:1000000000100020C50000085D010008650100081F
:1000100000000000000000000000000000000000E0
:100020000000000000000000000000006D0100085A
:100030000000000000000000750100081102000827
:100040005501000800000000550100085501000896
:100050005501000855010008550100085501000828
:100060000000000055010008550100085501000876
:100070005501000855010008550100080000000066
:1000800055010008000000000000000055010008B4
:1000900055010008550100085501000855010008E8
:1000A00055010008550100085501000855010008D8
:1000B00055010008000000000000000000000000E2
:1000C0005FF808F180B584B000AF0E4BBB600E4BFB
:1000D0007B60BB683B6004E03B681A1D3A6000220D
:1000E0001A607A683B689A42F6D800F091F900F0FD
:1000F00067F8031CFB6000F0C1F9FB68181C00F0F6
:10010000DBF9C046040000200800002080B584B060
:1001100000AF0D4BFB600D4BBB600D4B7B60BB68B4
:100120003B6007E03B681A1D3A60FA68111DF960F0
:1001300012681A607A683B689A42F3D800F0C2F9F4
:10014000BD4604B080BDC046540700080000002032
:100150000400002080B500AFFEE7C04680B500AFC8
:10016000FEE7C04680B500AFFEE7C04680B500AFF1
:10017000FEE7C04680B500AFFEE7C04680B500AFE1
:04018000FEE7C04690
:040184000D01000861
:1001880010B5041C00F080F8002000F0DBF8211CFA
:10019800002000F0BDF8002000F040F8012000F039
:1001A80057F8002000F008F9012000F0CBF80220F1
:1001B80000F0E8F810BDC046A02008B58003FFF79E
:1001C800DFFFFA210C4B8900186800F02DFA0B4B61
:1001D8000138984200D9FEE7094A0A495060C02010
:1001E8000B6A00061B021B0A03430B620023936081
:1001F80007331360EFE7C04600000020FFFFFF0051
:1002080010E000E000ED00E0034B1A68002A02D07D
:100218001A68013A1A6070470400002080B584B05B
:1002280000AF78600023FB60084B1B68FB60FB682D
:1002380001229343FB60FA687B681343FB60034B1E
:10024800FA681A60BD4604B080BDC046002002406E
:1002580080B582B000AF021CFB1D1A70FB1D1B7815
:10026800002B06D0074B074A126810210A431A6070
:1002780005E0044B034A126810218A431A60BD4600
:1002880002B080BD0020024080B500AF1A4B1A4A68
:10029800126801210A431A60174B174A5268174916
:1002A8000A405A60144B144A126815490A401A60E9
:1002B800114B114A126813490A401A600E4B0E4A34
:1002C800526811490A405A600B4B0B4AD26A0F21F7
:1002D8008A43DA62084B084A126B0C490A401A63CF
:1002E800054B054A526B01218A435A63024B00228F
:1002F8009A60BD4680BDC046001002400CB8FF0899
:10030800FFFFF6FEFFFFFBFFFFFFC0FFACFEFFFF96
:1003180080B582B000AF78603960084B074A5268F0
:1003280007490A405A60054B044A516878683A6898
:1003380002430A435A60BD4602B080BD0010024025
:10034800FFFFC2FF80B582B000AF021CFB1D1A7010
:10035800FB1D1B78002B07D0084B084A1268802128
:1003680049040A431A6005E0044B044A1268044928
:100378000A401A60BD4602B080BDC0460010024067
:10038800FFFFFFFE80B584B000AF78600023FB60FC
:10039800084B5B68FB60FB6803229343FB60FA68C9
:1003A8007B681343FB60034BFA685A60BD4604B090
:1003B80080BDC0460010024080B582B000AF7860B2
:1003C8000E4B0E4A52680E490A405A600B4B0B4AB4
:1003D80051687A681204120C0A435A60074B074A9C
:1003E800126B08490A401A63044B044A116B7A6875
:1003F800120C0A431A63BD4602B080BD00100240C9
:10040800FFBFFFFFFFFEFFFF80B582B000AF154AB8
:10041800154BD31A9B103B6000237B6007E0124BFF
:100428007A689200D35898477B6801337B607A6872
:100438003B689A42F3D30D4A0D4BD31A9B103B608D
:1004480000237B6007E00A4B7A689200D3589847EC
:100458007B6801337B607A683B689A42F3D3BD4678
:1004680002B080BD880100088401000888010008E6
:100478008801000880B582B000AF0B4A0B4BD31A35
:100488009B103B603B687B6008E07B685A1E074B0B
:100498009200D35898477B68013B7B607B68002BB0
:1004A800F3D1BD4602B080BD88010008880100086C
:1004B80080B582B000AF7860FEE7C04680B500AF77
:1004C8001B4B1B4A126801210A431A60184B184A31
:1004D800526818490A405A60154B154A126816495D
:1004E8000A401A60124B124A126814490A401A60EC
:1004F8000F4B0F4A526812490A405A600C4B0C4A7B
:10050800D26A0F218A43DA62094B094A126B0D49F4
:100518000A401A63064B064A526B01218A435A6302
:10052800034B00229A6000F00FF8BD4680BDC0461C
:10053800001002400CB8FF08FFFFF6FEFFFFFBFFAC
:10054800FFFFC0FFACFEFFFF80B582B000AF002305
:100558007B6000233B60314B304A1268802149029E
:100568000A431A602D4B1A6880239B0213403B6094
:100578007B6801337B603B68002B04D17A68A02339
:10058800DB019A42EED1254B1A6880239B02134067
:1005980002D001233B6001E000233B603B68012B54
:1005A80038D11F4B11221A601C4B1C4A52685A60E2
:1005B8001A4B1A4A52685A60184B184A5268194915
:1005C8000A405A60154B154A5268882149030A4364
:1005D8005A60124B114A1268802149040A431A6072
:1005E800C0460E4B1A6880239B041340F9D00B4B6E
:1005F8000A4A526803218A435A60084B074A5268DC
:1006080002210A435A60C046044B5B680C2213401F
:10061800082BF9D1BD4602B080BDC046001002408B
:1006280000200240FFFFC0FF002243088B4274D322
:1006380003098B425FD3030A8B4244D3030B8B42DB
:1006480028D3030C8B420DD3FF22090212BA030CE4
:100658008B4202D31212090265D0030B8B4219D3C5
:1006680000E0090AC30B8B4201D3CB03C01A5241E5
:10067800830B8B4201D38B03C01A5241430B8B422D
:1006880001D34B03C01A5241030B8B4201D30B0316
:10069800C01A5241C30A8B4201D3CB02C01A52413D
:1006A800830A8B4201D38B02C01A5241430A8B4200
:1006B80001D34B02C01A5241030A8B4201D30B02E9
:1006C800C01A5241CDD2C3098B4201D3CB01C01A03
:1006D800524183098B4201D38B01C01A524143090D
:1006E8008B4201D34B01C01A524103098B4201D3FB
:1006F8000B01C01A5241C3088B4201D3CB00C01A68
:10070800524183088B4201D38B00C01A52414308DF
:100718008B4201D34B00C01A5241411A00D2014604
:10072800524110467047FFE701B5002000F00CF871
:1007380002BDC0460029F7D003B5FFF775FF0EBC10
:0C0748004243891A1847C0467047C0465B
:04075400006CDC0257
:04000005080000C52A
:00000001FF
