:1000000000200020D1010000110E0000130E00009E
:1000100000000000000000000000000000000000E0
:10002000000000000000000000000000150E0000AD
:10003000170E000000000000190E00001B0E00004B
:10004000890C0000890C0000890C0000890C00005C
:10005000890C0000890C0000890C0000890C00004C
:10006000890C0000890C0000890C0000890C00003C
:10007000890C0000890C000000000000890C0000C1
:1000800000000000890C00000000000000000000DB
:10009000890C000000000000890C0000890C0000A1
:1000A000890C0000890C0000890C0000890C0000FC
:1000B000890C0000890C0000890C0000890C0000EC
:1000C00073B500F094FD3049304B081C0B600024E0
:1000D000191C2F4A13602F4B2F4DE318AB4204D24B
:1000E0002E4D2D5904341D60F5E700682C4B9842C5
:1000F00003D112682B4B9A4200D0FEE72A4A2B4BC1
:10010000116019602A492B48814202D2002001C1A6
:10011000F9E71268002A02D11D68002D00D0FEE721
:1001200000F069FD684601A900F03EFD224A234B1C
:10013000161C9B1A9C10A54204DAAB00F358984792
:100140000135F8E71E4A0025161C1E4B9B1A9C1011
:10015000A54204DAAB00F35898470135F8E7009858
:10016000019900F00DFE184B051C1E1C174CE41ADB
:10017000A410002C04DD013CA300F3589847F8E7D5
:10018000281C00F0EFFCC04600000020BABADECA0E
:10019000AC00002000000020B00000209C180000EF
:1001A0007856341232547698B00000206001002056
:1001B000B0000020640100202002000020020000A6
:1001C00020020000200200002002000020020000A7
:1001D00008B5FFF775FF00BEFEE704207146084230
:1001E00002D0EFF3098001E0EFF3088071460B4A7B
:1001F000104738B5051C0C1C044800F0DDFC281C19
:10020000211C00F0FDFC00BEFEE7C0465A180000AD
:1002100000BEFEE700BEFEE770470000F3010000ED
:1002200010B5041C00F08AFCFA21890000F004FEDD
:1002300000F068F80120211C4042002200F030F854
:10024000002010BD402108B5074B03201A680A435F
:100250001A601A683E390A431A60FFF7E1FF00F09E
:1002600027F9002008BDC04600200240024A13685A
:10027000013313607047C046B4000020014B18687A
:100280007047C046B400002013B50190FFF7F6FF99
:10029000041CFFF7F3FF019B001B9842F9D313BD29
:1002A00070B58901002815DA0F23C0B20340083B5E
:1002B000124A9B0803249B009B18FF222040A04069
:1002C000141C8440DD691140A54381402A1C0A4367
:1002D000DA6112E084080A4B0326A400E418FF2325
:1002E0003040B0401E1CC0258640AD006259194008
:1002F000B2438140131C0B43635170BD00ED00E01D
:1003000000E100E0094A431E012093420DD8C020BD
:10031000074A084953600B6A00061B021B0A034385
:100320000B6200200723906013607047FFFFFF00FF
:1003300010E000E000ED00E0F0B50B6885B002933E
:100340000023009101249C40029A2240A24200D046
:1003500096E0009910244D682E1CA643341C013EE3
:10036000022C0FD107260F211E40B600B140DC0839
:10037000A4000419276A8F4300990969B1400F430B
:10038000276201E0012E10D8032700995E00C9689A
:10039000B740B140EE06F60F9E408468BC430C4364
:1003A0008460446894433443446003265F00BE4045
:1003B000F64304683440A44603242C406146BC4004
:1003C0000C43009904608968C468B94026400E4314
:1003D000C660E90054D501272C4E2D49746B3C436F
:1003E000746303249E08B6007618B1681C408C46DE
:1003F000A100102464428C40019161462140039188
:10040000A0210024C905884211D03C1C214FB842CC
:100410000DD0214F2419B84209D0204F0134B842E1
:1004200005D01F4944186142614105277C1A019992
:100430008C4003990C43B4601A4CD64321680F1CBE
:100440008C461743E90301D467463740276061684B
:100450000F1C8C461743A90301D4674637406760D9
:10046000A1680F1C8C461743E90201D46746374048
:10047000A760E7683A43A90201D43A1C3240E2601F
:100480000133102B00D05DE705B0F0BD0010024035
:10049000000001400004005000080050000C005013
:1004A00000E4FFAF000401404369594041617047D7
:1004B00070470000F8B50368041CDB0703D4236809
:1004C0009B074DD493E00C23BE4DEA681A40082ADE
:1004D00006D0EA6813400C2B0CD1EB68DB0309D57E
:1004E0002B689B03EBD5802362685B029A42E6D0BF
:1004F0000120D7E12B68B44E33402B60FFF7BEFEDE
:10050000071C2B68AF4A9B0307D5FFF7B7FEAF4B1D
:10051000C01B9842F5D90320C4E1116863680E40FE
:100520001E4316608022520293420CD1FFF7A6FEB2
:10053000061C2B689B03C2D4FFF7A0FEA34B801BB5
:100540009842F6D9E7E7FFF799FE061C2B689B0354
:10055000B5D5FFF793FE9D4B801B9842F6D9DAE79D
:100560000C23984DEA681A40042A06D0EA68134022
:100570000C2B10D1EB68DB030DD42B685B0702D585
:10058000E368012BB4D122696B681102904A1340D1
:100590000B436B602BE0E3680921002B18D02A681D
:1005A0008A4313432B60FFF769FE061C2B688548BE
:1005B0005B0705D4FFF762FE801B6428F6D9AAE723
:1005C000226943681102824A13400B4343600EE0E4
:1005D0002B688B432B60FFF751FE061C2B685B07D3
:1005E00005D5FFF74BFE801B6428F7D993E72368F6
:1005F000DB064CD50C23734DEA681A4214D12B68E4
:100600009B0503D5E369012B00D071E76A68714B44
:100610001340626A13436B606B68226A1B02120606
:100620001B0A13436B6032E0E369002B1FD080226A
:100630002B68520013432B60FFF720FE061C2B682B
:10064000604A9B0505D4FFF719FE801B6428F6D984
:1006500061E751685F4B0B40616A0B43536053681D
:10066000216A1B0209061B0A0B4353600FE02A682C
:10067000594B13402B60FFF701FE061C2B689B05AE
:1006800005D5FFF7FBFD801B6428F7D943E72368F6
:100690001B0703D423689B0623D438E06369012237
:1006A000484D002B0ED02B6D13432B65FFF7E6FD55
:1006B000061C2B6D9B07EDD4FFF7E0FD801B642823
:1006C000F7D928E72B6D93432B65FFF7D7FD061C61
:1006D0002B6D9B07DED5FFF7D1FD801B6428F7D972
:1006E00019E7A2690121374D3C4B002A19D0AA68AD
:1006F0000A43AA606A6B114369631A6A38490A435C
:100700001A62FFF7BBFD061CAB689B0703D5236885
:100710005B0745D518E0FFF7B1FD801B6428F3D9CE
:10072000F9E6AA688A43AA60196A2E4A0A401A6240
:10073000FFF7A4FD061CAB689B07E8D5FFF79EFDFD
:10074000801B6428F7D9E6E680221E4D5205AB6B6C
:10075000254E13438022AB6333685200134333604A
:10076000FFF78CFD071C3368DB051DD52B6D1F4E75
:1007700033402B65FFF782FD071C2B6D114A9B054B
:1007800018D4116DA3680E401E43166580225200D6
:10079000934234D1FFF772FD061C2B6D9B0527D5C4
:1007A000A26A002A38D160E0FFF768FDC01B642808
:1007B000D9D9B0E6FFF762FD044BC01B9842DCD9E3
:1007C000A9E6C04600100240FFFFFAFF88130000B0
:1007D000FFE0FFFFFF1FFFFFFFFEFFFF00000140E4
:1007E00001200000FEDFFFFF00700040FFFAFFFF66
:1007F000FFF744FD2C4B801B9842CED98BE6FFF7C8
:100800003DFD061C2B6D9B05CAD5FFF737FD264B1A
:10081000801B9842F6D97EE60C23244D0120E9681E
:100820000B400C2B3ED0224B022A2CD12A681340BD
:100830002B60FFF723FD061C2B681C499B0116D477
:10084000226B606BCB681043E26A1043194A134075
:1008500080220343CB600B68520413430B60FFF705
:100860000DFD041C2B689B0107D500201AE0FFF743
:1008700005FD801B6428DFD94DE6FFF7FFFC001B58
:100880006428EFD947E62A6813402B60FFF7F6FC8F
:10089000041C2B689B01E8D5FFF7F0FC001B6428C3
:1008A000F7D938E6F8BDC0468813000000100240B2
:1008B000FFFFFFFEFFFF02FF0123F7B57D4A0E1C7D
:1008C0001168041C1940171C8E4274D91168994391
:1008D0003143116012681340B34201D00120E7E0B8
:1008E0000268930706D5F0207349CB688343A0685C
:1008F0000343CB60D3070BD42268530700D4C9E06D
:100900006D496E4BC8680340E0680343CB60C1E0AB
:10091000694D63682A68022B02D192030CD4DDE78B
:10092000002B02D1920507D4D8E7032B02D1920104
:1009300002D4D3E75207D1D50321EA688A4313438F
:10094000EB60FFF79BFC6368061C022B0CD10C23A9
:10095000EA681340082BCFD0FFF790FC584B801B60
:100960009842F4D90320A3E0032B0BD10C23EA68AF
:1009700013400C2BC0D0FFF781FC514B801B9842D9
:10098000F4D9EFE7002B10D10C23EA681A42B3D058
:10099000FFF774FC4A4B801B9842F5D9E2E7FFF75A
:1009A0006DFC474B801B9842DCD80C23EA6813404F
:1009B000042BF4D1A0E70268930706D5F0203E4946
:1009C000CB688343A0680343CB60D3070AD40122DA
:1009D0003B68934333433B603B681A40B24200D0CC
:1009E0007CE789E7344D63682A68022B02D19203C1
:1009F0000DD473E7002B02D1920508D46EE7032BC8
:100A000002D1920103D469E7520700D466E70321BB
:100A1000EA688A431343EB60FFF730FC6368019098
:100A2000022B0CD10C23EA681340082BCFD0FFF720
:100A300025FC019BC01A224B9842F3D992E7032B65
:100A40000CD10C23EA6813400C2BC0D0FFF716FC26
:100A5000019BC01A1A4B9842F3D983E7002B13D19C
:100A60000C23EA681A42B2D0FFF708FC019BC01AB7
:100A7000134B9842F4D975E7FFF700FC019BC01AAD
:100A80000F4B984200D96DE70C23EA681340042B02
:100A9000F2D19CE7130707D507482169C368094AC3
:100AA000C90013400B43C3600320FFF7B9FB0020CC
:100AB000FEBDC0460020024000100240FFF8FFFFCC
:100AC00088130000FFC7FFFF164A08B55368164990
:100AD0001B045B0F9B0058580C23D1680B40082B5C
:100AE0001CD00C2B06D0042B1BD11368DB0617D4AB
:100AF0000E4816E0D3680E48D1689B021B0FC35CFA
:100B00000902D268890FDBB20131D20301D4074850
:100B100000E00848584300F08FF902E0054800E083
:100B2000054808BD00100240AC1700000024F40086
:100B30000400002000127A0000093D0008B5FFF70C
:100B4000C3FF054B054ADB681B061B0FD35CD8406F
:100B5000034B186008BDC046001002400D00002085
:100B600044000020FEE700000C4A08B51168031C91
:100B7000002901D10A4911600321106803338B4316
:100B80000849C3188B4206D900F0E8F90C2303602A
:100B90000120404200E0136008BDC046B8000020BC
:100BA00064010020001C002001230360014B0B6046
:100BB0007047C046200000200FB413B5094C04ABA9
:100BC00004CB8021201C019300F002FA011E03DDFA
:100BD000201C00F009F8011C081C16BC08BC04B05D
:100BE0001847C046BD00002001204042704708B5AC
:100BF00000F04CF808BD08B500F076F808BD00001C
:100C000038B5041C0D1C1548FFF7D6FF21681448A1
:100C1000FFF7D2FF61681348FFF7CEFFA1681248C3
:100C2000FFF7CAFFE1681148FFF7C6FF21691048C6
:100C3000FFF7C2FF61690F48FFF7BEFFA1690E48C9
:100C4000FFF7BAFFE1690D48FFF7B6FF0C48FFF761
:100C5000B3FF291C0B48FFF7AFFF38BDC8170000D2
:100C6000D6170000E3170000F0170000FD17000082
:100C70000A1800001718000024180000311800009E
:100C80003E18000044180000FEE700008021104BD1
:100C900049001A680A431A60D9680E4A0A40DA60A5
:100CA00019680D4A0A4001211A609A688A439A60BD
:100CB00019680A4A0A401A60D968094A0A40DA6083
:100CC00000221A618022074B12059A607047C046C5
:100CD000001002400C40FF88F6FFF6FEFFFFFBFF0E
:100CE000FFFF02FF00ED00E038B50C231E4C1F4D46
:100CF000E068184000F096F8072525250C252525E5
:100D00000E25252510006368FA221B045B0F1DE0E9
:100D1000174B1EE0174B1CE0E368174AE1689B0283
:100D20001B0FD35C0902E268890FDBB20131D203E9
:100D300001D40F4800E00F48584300F07DF82860C8
:100D400008E0802263681B045B0F013312029A40A3
:100D5000131C2B60E368094A1B061B0FD35C2A682F
:100D6000DA402A6038BDC04600100240440000202E
:100D70000024F40000127A00280000203100002036
:100D800070B594B0FFF75EFA8022C0211D4E520567
:100D9000B36B490113431C4AB363136800240B432C
:100DA000136010230693A02301251B0206A80F93AE
:100DB0000D950E941094FFF77DFB0F23211C01A8C5
:100DC00001930294039404940594FFF775FDF36A6C
:100DD000A0202B43F36220230C49C0050B601E3B6F
:100DE0004D608D60CB60FFF7A7FA6420FFF74CFAE7
:100DF000A0202021C005FFF757FB6420FFF744FA2D
:100E0000F3E7C0460010024000700040400100209F
:100E10007047FEE770477047704708B5FFF726FA3E
:100E200008BD000002B4714649084900095C490048
:100E30008E4402BC7047C046002243088B4274D3E4
:100E400003098B425FD3030A8B4244D3030B8B42CB
:100E500028D3030C8B420DD3FF22090212BA030CD4
:100E60008B4202D31212090265D0030B8B4219D3B5
:100E700000E0090AC30B8B4201D3CB03C01A5241D5
:100E8000830B8B4201D38B03C01A5241430B8B421D
:100E900001D34B03C01A5241030B8B4201D30B0306
:100EA000C01A5241C30A8B4201D3CB02C01A52412D
:100EB000830A8B4201D38B02C01A5241430A8B42F0
:100EC00001D34B02C01A5241030A8B4201D30B02D9
:100ED000C01A5241CDD2C3098B4201D3CB01C01AF3
:100EE000524183098B4201D38B01C01A52414309FD
:100EF0008B4201D34B01C01A524103098B4201D3EB
:100F00000B01C01A5241C3088B4201D3CB00C01A57
:100F1000524183088B4201D38B00C01A52414308CF
:100F20008B4201D34B00C01A5241411A00D20146F4
:100F3000524110467047FFE701B5002000F00CF861
:100F400002BDC0460029F7D003B5FFF775FF0EBC00
:100F50004243891A1847C0467047C046014B18687B
:100F60007047C046A8000020002310B5934203D06C
:100F7000CC5CC4540133F9E710BD30B5151C9BB0EF
:100F8000002A04DA8B230360012040421DE0822204
:100F90006C460091049100219200A2818D4200D004
:100FA000691E1A1C01230291059169465B42CB819F
:100FB0001E9B041C00F07CF8431C01DA8B23236089
:100FC000002D02D00023009A13701BB030BD00002A
:100FD00073B5061C0D1C141C0093044B311C2A1CF9
:100FE0001868231CFFF7C9FF76BDC046A800002083
:100FF000F0B58E6885B0071C0C1C03920193B342B8
:1010000045D390238A89DB001A423DD00325096924
:10101000236801985B1A029363695D43EB0F5D19C6
:10102000029B6D1001331B189D4200D21D1C381C01
:1010300053050FD5291C00F01DFB061E13D0029A84
:101040002169FFF791FFA289184B134080221343B7
:10105000A38111E02A1C00F065FB061E0CD1381C90
:10106000216900F0C1FA0C23402201203B60A389D2
:1010700040421343A38117E0029B2661F6182660C5
:101080006561019EED1AA560019BB34200D2019EED
:10109000321C2068039900F092FA0020A3689B1B81
:1010A000A36023689E19266005B0F0BD7FFBFFFF9B
:1010B000F0B59FB0029005938B890E1C171C1B0680
:1010C00010D50B69002B0DD1402100F0D3FA306010
:1010D0003061002804D10C23029A01381360D0E05B
:1010E00040237361002306AD6B6120336B761033B0
:1010F000AB763C1C2378002B03D1E31B049312D066
:1011000003E0252BF9D00134F4E7049B0298311C4D
:101110003A1CFFF76DFF431C00D1ACE06A69049BE9
:10112000944663446B612378002B00D1A3E0012235
:10113000002352426A6002A95432521801342B60D3
:10114000EB60AB601370AB654F4F2178381C052204
:1011500000F02AFA002808D0C01B01278740381C5D
:101160002B68013418432860EEE72B68DA0604D5B3
:101170005322202102A8121811701A0704D55322F5
:101180002B2102A81218117022782A2A01D0099B5B
:101190000EE0059A111D12680591002A01DB0992E3
:1011A00004E05242EA60022213432B60013409E05A
:1011B0002278303A092A04D80A214B4301349B187B
:1011C000F6E7099323782E2B18D163782A2B09D1BF
:1011D000059B02341A1D1B680592002B0DDA0123B2
:1011E0005B420AE0002301342278303A092A04D80D
:1011F0000A214B4301349B18F6E70793234F2178CC
:10120000381C032200F0D0F9002807D0C01B40276B
:101210008740381C2B6801341843286021781C480B
:101220000622671C297600F0BFF9002812D0194B5E
:10123000002B06D10722059B073393430833059300
:1012400014E005AB00930298291C321C124B00E0FD
:1012500000BF07E005AB00930298291C321C0E4B1F
:1012600000F08AF80390039B013304D06B69039A62
:101270009B186B613DE7B3890B985B0601D5012094
:1012800040421FB0F0BDC046691800006F18000052
:101290007318000000000000F10F0000F7B5171CE4
:1012A00001930A698B6800900C1C934200DA131CAE
:1012B000221C3B6043321278002A01D001333B608C
:1012C00023689B0602D53B6802333B6006252368F2
:1012D0001D401ED0231C43331B785A1E93412268A5
:1012E00092061CD53020E1184031C870211C5A1CD0
:1012F00045310978A21840320233D1700FE0221C28
:101300000123009801991932089EB047431C0ED062
:101310000135E3683A689B1A9D42F0DBDAE7221C4C
:10132000009801994332089DA847431C02D101202F
:10133000404220E006232068E1683A680340002527
:10134000042B03D18D1AEB43DB171D40A3682269E0
:10135000934201DD9B1AED180027AF420ADA221CE6
:101360000123009801991A32089EB047431CDED031
:101370000137F2E70020FEBDF0B58BB006920A1CE3
:1013800043320793059004920A7E0C1C109B6E2A30
:1013900000D1A8E011D8632A22D009D8002A00D1B0
:1013A000B2E0582A00D0C2E045310A707C4A4FE0D2
:1013B000642A1DD0692A1BD0B9E0732A00D1A7E0A6
:1013C00009D86F2A29D0702A00D0B0E020220968FD
:1013D0000A43226037E0752A1FD0782A33D0A6E06E
:1013E0000E1C1A684236111D196013683370A1E093
:1013F00021681A68080606D4490604D5111D19602B
:101400000023D55E02E0111D19601568002D3BDA3E
:101410002D23049A6D42137036E021681A6808067D
:1014200006D4490604D51568111D1960ADB202E055
:10143000111D196015685A4B227E03930A276F2AE3
:101440001DD108271BE0221C782145321170554A16
:1014500019680392081D226818600D68100602D4EE
:10146000500600D5ADB2D30702D520231A4322601F
:101470001027002D03D1202322689A432260231CC9
:10148000002243331A7002E00A27454B0393636836
:10149000A360002B03DB0422216891432160002D0F
:1014A00002D1049E002B0ED0049E281C391CFFF78D
:1014B00049FD039B013E5B5C281C3370391CFFF720
:1014C000BBFC051EF1D1082F09D12368DB0706D527
:1014D00063682269934202DC3023013E3370049B2F
:1014E0009B1B23612BE009681A68080607D449068C
:1014F00005D5111D19601368A28A1A8004E0111D18
:101500001960136862691A600023049E236116E063
:101510001A68111D196016680021301C626800F0FD
:1015200043F8002801D0801B6060636803E0261C3C
:1015300042363270012323610023049A1370079B03
:1015400005980093211C069B09AAFFF7A7FE431CE0
:1015500002D10120404221E0236905980699321CFE
:10156000079DA847431CF4D023689B0705D4099B1B
:10157000E068984212DA181C10E00025E368099A26
:101580009B1A9D42F3DA221C012305980699193211
:10159000079EB047431CDCD00135EFE70BB0F0BD30
:1015A0007A1800008B180000C9B28218904204D04B
:1015B00003788B4202D00130F8E70020704710B565
:1015C000814208D28B18984205D29B1A013A09D35E
:1015D000995C8154FAE70023934203D0CC5CC45455
:1015E0000133F9E710BD000030B500293ED00439C1
:1015F0000B68002B00DAC9181D4A1368141C002B55
:1016000002D14B60116031E099420DD208680A188E
:101610009A4203D11368C3180B6053684B60216072
:1016200024E08A4203D8131C5A68002AF9D11D68A5
:101630005C198C420BD109686918581819609042DE
:1016400014D110685268091819605A600EE08C4273
:1016500002D90C23036009E008680C18944203D1F6
:1016600014685268001908604A60596030BDC0466D
:1016700058010020032370B5CC1C9C430834051C82
:101680000C2C01D20C2405E0002C03DA0C230020E2
:101690002B6042E08C42F9D3204A1368101C191CBD
:1016A000002913D00A68121B0DD40B2A02D90A6034
:1016B0008B181FE08B4202D15A6802601BE04A6817
:1016C0005A600B1C17E00B1C4968E9E7144E33689D
:1016D000002B03D1281C00F04BF83060281C211C83
:1016E00000F046F8031C421CD0D00322C61C9643CF
:1016F00086420AD11C60181C07210B301A1D884332
:10170000821A0AD05142995007E0311A281C00F081
:101710002FF8431CBAD0331CECE770BD58010020F1
:1017200054010020F8B5061C0C1C151C002904D11E
:10173000111CFFF79FFF041C18E0002A03D1FFF7DC
:1017400053FF2C1C12E000F025F8A8420ED2301CEA
:10175000291CFFF78FFF071E07D0211C2A1CFFF74B
:1017600003FC301C211CFFF73FFF3C1C201CF8BD74
:1017700038B50023064C051C081C2360FFF7F4F95C
:10178000431C03D12368002B00D02B6038BDC0461A
:101790005C0100200B1F1A68101F002A04DA891848
:1017A00004390B68D01804387047000000FA0000B4
:1017B00000F4010000E8030000D0070040420F00E1
:1017C00080841E0000093D00537461636B206672C3
:1017D000616D653A0A00205230203D2020253038C6
:1017E000580A00205231203D2020253038580A0068
:1017F000205232203D2020253038580A0020523314
:10180000203D2020253038580A0020523132203D1A
:1018100020253038580A00204C52203D2020253009
:1018200038580A00205043203D2020253038580ADF
:101830000020505352203D20253038580A004D6971
:1018400073630A00204C522F4558435F524554554C
:10185000524E3D20253038580A005B48617264467C
:1018600061756C745D0A004300232D302B200068E5
:101870006C4C00656667454647003031323334357D
:1018800036373839414243444546003031323334EB
:0C189000353637383961626364656600E4
:10189C0078563412030406080C101820300000008F
:1018AC0000010203040102030406070809000000FA
:1018BC00BC00002000000000030406080C101820D7
:1018CC0030000000000000000001020304060708BD
:1018DC000900000080841E000000000000000000D1
:1018EC0000000000000000000000000000000000EC
:1018FC00000000000000000067180000000000005D
:10190C0000000000000000000000000000000000CB
:10191C0000000000000000000000000000000000BB
:10192C0000000000000000000000000000000000AB
:10193C00000000000000000048000020325476989F
:04000003000000C138
:00000001FF
