:020000040800F2
:1000000000400020D1010008090C00080B0C00087A
:1000100000000000000000000000000000000000E0
:100020000000000000000000000000000D0C0008AF
:1000300000000000000000000F0C0008110C000878
:10004000B90A000800000000B90A0008B90A00084F
:10005000B90A0008B90A0008B90A0008B90A000874
:1000600000000000B90A0008B90A0008B90A00082F
:10007000B90A0008B90A0008B90A0008000000001F
:10008000B90A00080000000000000000B90A0008DA
:1000900000000000B90A0008B90A0008B90A0008FF
:1000A00000000000B90A000800000000B90A0008BA
:1000B000B90A00080000000000000000B90A0008AA
:1000C00073B500F0F1FC3049304B081C0B60002484
:1000D000191C2F4A13602F4B2F4DE318AB4204D24B
:1000E0002E4D2D5904341D60F5E700682C4B9842C5
:1000F00003D112682B4B9A4200D0FEE72A4A2B4BC1
:10010000116019602A492B48814202D2002001C1A6
:10011000F9E71268002A02D11D68002D00D0FEE721
:1001200000F0C6FC684601A900F0B6FC224A234B49
:10013000161C9B1A9C10A54204DAAB00F358984792
:100140000135F8E71E4A0025161C1E4B9B1A9C1011
:10015000A54204DAAB00F35898470135F8E7009858
:10016000019900F00BFD184B051C1E1C174CE41ADE
:10017000A410002C04DD013CA300F3589847F8E7D5
:10018000281C00F087FCC04600000020BABADECA76
:10019000200000200000002024000020800D000826
:1001A00078563412325476982400002044000020FF
:1001B0002400002048000020040200080402000877
:1001C00004020008040200080402000804020008F7
:1001D00008B5FFF775FF00BEFEE704207146084230
:1001E00002D0EFF3098001E0EFF308807146044A82
:1001F000104700BEFEE700BEFEE700BEFEE7704708
:04020000F3010008FE
:1002040010B5041C00F030FCFA21890000F002FD56
:1002140000F064F80120211C4042002200F02CF878
:10022400002010BD1021064A08B5136803200B43B3
:100234001360FFF7E5FF00F015F9002008BDC04684
:1002440000200240024A1368013313607047C0461D
:1002540028000020014B18687047C0462800002081
:1002640013B50190FFF7F6FF041CFFF7F3FF019BA2
:10027400001B9842F9D313BD70B58901002815DA23
:100284000F23C0B20340083B124A9B0803249B007F
:100294009B18FF222040A040141C8440DD691140BB
:1002A400A54381402A1C0A43DA6112E084080A4B00
:1002B4000326A400E418FF233040B0401E1CC025D0
:1002C4008640AD0062591940B2438140131C0B4370
:1002D400635170BD00ED00E000E100E0094A431EF7
:1002E400012093420DD8C020074A084953600B6A85
:1002F40000061B021B0A03430B62002007239060C5
:1003040013607047FFFFFF0010E000E000ED00E025
:10031400F0B50B6887B0029300230191029ADA408A
:1003240000D18FE001229A40029C1440009400D135
:1003340086E0019A10245268171CA743022F0ED19D
:1003440007250F211D40AD00A940DC08A4000419B5
:10035400266A8E4301990969A9400E432662032443
:10036400251C5E00B5401440ED43B4400168013FD4
:1003740029400C430460012F0FD801998768CC6889
:100384002F40B4403C43846001249C404768A74309
:10039400D406E40F9C403C4344600199C4688968D6
:1003A4002540B1400D43C560D10049D50127264CF5
:1003B4000326A5691E403D43A5610F25B600B5403F
:1003C400A46922493C400594059C9C08A400641837
:1003D400A168A943039190210025C905884208D04A
:1003E4003D1C1B4FB84204D01A4F6D19B84200D0BF
:1003F4000335B54003990D430099A5600E1C164CB6
:10040400CD4327683E43D10301D43E1C2E402660D1
:100414006768009E3E43910301D43E1C2E406660F3
:10042400A768009E3E43D10201D43E1C2E40A66024
:10043400E668009F3743920201D42E40371CE760E0
:1004440001336BE707B0F0BD00100240000001402B
:100454000004004800080048000401404369594072
:100464004161704770470000F0B5036885B0041C13
:10047400DB0703D423689B075FD4A8E00C23C14D9A
:100484006A681A40042A0BD06A681340082B0FD1FB
:10049400C0236A685B02134080225202934207D150
:1004A4002B689B03E6D56368002BE3D10120D2E1DE
:1004B4002B68B54FB54E3B402B602B6833402B6007
:1004C400FFF7C8FE01902A68AE4B920308D5FFF7E8
:1004D400C1FE019BC01AAE4B9842F4D90320BAE185
:1004E4006268012A12D0002A09D11A6817401F60D5
:1004F4001A6816401E60FFF7ADFE061C19E0052AB7
:100504000AD180211A68C9020A431A6080211A6834
:1005140049020A431A608CE11A6817401F601A687E
:1005240016401E6085E1FFF795FE994B801B9842AB
:10053400D4D82B689B03F6D49CE70C23914D6A68AE
:100544001A420BD06A681340082B15D1C0236A687D
:100554005B0213408022120293420DD12B689B0749
:1005640002D5E368012BA1D1F8212B6822698B43C2
:10057400D20013432B602AE0E3680122002B17D03A
:100584002B6813432B60FFF765FE061C2B687D491F
:100594009B0705D4FFF75EFE801B6428F6D99DE710
:1005A400F8200B6822698343D20013430B600EE0EA
:1005B4002B6893432B60FFF74DFE061C2B689B07AB
:1005C40005D5FFF747FE801B6428F7D986E7236823
:1005D4001B0703D423685B072DD530E0236A01226F
:1005E400684D002B0ED06B6A13436B62FFF732FE2B
:1005F400061C6B6A9B07EDD4FFF72CFE801B642856
:10060400F7D96BE76B6A93436B62FFF723FE061C13
:100614006B6A9B07DED5FFF71DFE801B6428F7D9A4
:100624005CE7FFF717FE5A4B801B984200D955E749
:100634002B6A9B07F5D52368DB0663D4ACE08023E3
:10064400504D5B05EA69534E1A43EA61EA69134067
:1006540080220393039B3368520013433360FFF7F4
:10066400F9FD071C3368DB0505D4FFF7F3FDC01B58
:100674006428F7D932E701222B6A93432B622B6A51
:10068400033293432B62FFF7E5FD061C2A6A3D4BB8
:10069400920706D5FFF7DEFD3D4B801B9842F5D946
:1006A4001CE7A268012A02D1196A0A431DE001214C
:1006B400002A0AD11A6A8A431A621A6A03318A43DF
:1006C4001A62FFF7C7FD061C18E0052A07D10420AB
:1006D4001A6A02431A621A6A11431962B7E01A6A63
:1006E4008A4304211A621A6A8A431A62AFE0FFF746
:1006F400B1FD274B801B984200D9EFE62B6A9B077C
:10070400F5D498E762691F4D0423012A1AD1696B55
:100714000B436B636B6B1A436A63FFF79BFD061C09
:100724006B6B18499B0705D4FFF794FD801B642865
:10073400F6D9D3E6F8204B6BA2698343D200134366
:100744004B6329E005320AD1F8216A6B9A436A6344
:100754006B6BA2698B43D20013436B631CE06A6B1F
:10076400134301226B636B6B93436B63FFF772FD5F
:10077400061C6B6B9B070FD5FFF76CFD801B642871
:10078400F7D9ABE600100240FFFFFEFFFFFFFBFFBF
:100794008813000000700040626A002A01D1002022
:1007A40059E00C232D4D012069680B40082B52D0D1
:1007B4002B4B022A2ED12A6813402B60FFF74AFDE7
:1007C400061C2A68254B920105D5FFF743FD801BC3
:1007D4006428F6D982E60F21DA6A8A43216B0A4338
:1007E400DA62E16AA06A5A6808431E490A40802115
:1007F40002435A601A6849040A431A60FFF72AFD43
:10080400041C2B689B01CAD4FFF724FD001B642839
:10081400F7D963E62A6813402B60FFF71BFD041C1D
:100824002B689B01BBD5FFF715FD001B6428F7D986
:1008340054E6FFF70FFD061C2B689B0300D519E651
:10084400FFF708FD084B801B9842F5D946E6FFF7F1
:1008540001FD061CECE605B0F0BDC04600100240E8
:10086400FFFFFFFEFF7FC2FF881300000123F7B5DF
:10087400634A0E1C1168041C1940171C8E4261D96E
:10088400116899433143116012681340B34201D097
:100894000120B3E00268930706D5F02059494B685C
:1008A4008343A06803434B60D3070BD423685B07DF
:1008B40000D49FE05349544B4A681340E268134301
:1008C4004B6097E04F4D63682A68012B02D1920375
:1008D40007D4DDE7022B02D1920102D4D8E79207B4
:1008E400D6D503216A688A4313436B60FFF7B2FCD1
:1008F4006368061C012B0CD10C236A681340042B7B
:10090400D4D0FFF7A7FC414B801B9842F4D90320B5
:1009140074E0022B11D10C236A681340082BC5D054
:10092400FFF798FC394B801B9842F4D9EFE7FFF7A7
:1009340091FC364B801B9842E9D80C236A681A4212
:10094400F5D1B3E70268930706D5F0202D494B682B
:100954008343A06803434B60D30709D401223B6857
:10096400934333433B603B681A40B24290D19DE7C6
:10097400244D63682A68012B02D1920307D487E7C8
:10098400022B02D1920102D482E7920780D503217F
:100994006A688A4313436B60FFF75CFC63680190E9
:1009A400012B0CD10C236A681340042BD6D0FFF71B
:1009B40051FC019BC01A154B9842F3D9A7E7022BAF
:1009C40013D10C236A681340082BC7D0FFF742FCED
:1009D400019BC01A0D4B9842F3D998E7FFF73AFCF4
:1009E400019BC01A094B984291D80C236A681A4299
:1009F400F4D1B3E70320FFF703FC0020FEBDC0469B
:100A04000020024000100240FFF8FFFF881300009E
:100A140030B5124C89B0211C1022684600F08CF9C4
:100A2400211C04AD10221031281C00F085F90C2380
:100A34000B4A54682340082B0CD1D26A0733134065
:100A4400E95C084800F0E6F86B46A402240F1B5D3D
:100A5400584300E0034809B030BDC0464E0D0008BD
:100A64000010024000127A0008B5FFF7D1FF054BD1
:100A7400054A5B681B061B0FD35CD840034B186008
:100A840008BDC046001002406E0D00081C00002086
:100A9400FEE7000001230360014B0B607047C04672
:100AA4000400002008B500F007F808BD08B500F000
:100AB40037F808BDFEE700000121134B1A680A430A
:100AC4001A605868114A02405A601868104A024075
:100AD4001A6018680F4A02401A6058680E4A0240A9
:100AE4000F205A60DA6A8243DA62186B0B4A0240BA
:100AF40080201A631A6B02431A635A6B8A435A633F
:100B040000229A607047C046001002400CB8FF08EB
:100B1400FFFFF6FEFFFFFBFFFFFFC0FF6CFEFFFFC2
:100B24000C2370B5104E114D72681340042B01D084
:100B3400082B02D00E4B2B600DE0746873680F23F2
:100B4400F16A0B481940013100F064F8A402240F43
:100B54000234604328607368064A1B061B0FD35C8B
:100B64002A68DA402A6070BD001002401C00002090
:100B740000127A000C00002010B592B0FFF752FB6F
:100B84000023802205931193A023022412029B03C5
:100B940005A80E940F921093FFF766FC002800D06E
:100BA400FEE7072303900490012101A80193029416
:100BB400FFF75CFE002800D0FEE780230E4A1B03EB
:100BC40051690E481943516152690D491340059307
:100BD400059B01234B608B600233CB60FD330B60BC
:100BE400FFF796FB802105484900FFF737FC642096
:100BF400FFF736FBF6E7C046001002400008004845
:100C0400300000207047FEE77047704708B5FFF7D3
:100C140019FB08BD002243088B4274D303098B429D
:100C24005FD3030A8B4244D3030B8B4228D3030CB8
:100C34008B420DD3FF22090212BA030C8B4202D35A
:100C44001212090265D0030B8B4219D300E0090A82
:100C5400C30B8B4201D3CB03C01A5241830B8B428B
:100C640001D38B03C01A5241430B8B4201D34B0374
:100C7400C01A5241030B8B4201D30B03C01A5241D9
:100C8400C30A8B4201D3CB02C01A5241830A8B425E
:100C940001D38B02C01A5241430A8B4201D34B0247
:100CA400C01A5241030A8B4201D30B02C01A5241AB
:100CB400CDD2C3098B4201D3CB01C01A524183095F
:100CC4008B4201D38B01C01A524143098B4201D399
:100CD4004B01C01A524103098B4201D30B01C01AC4
:100CE4005241C3088B4201D3CB00C01A524183083E
:100CF4008B4201D38B00C01A524143088B4201D36B
:100D04004B00C01A5241411A00D2014652411046CA
:100D14007047FFE701B5002000F00CF802BDC046A3
:100D24000029F7D003B5FFF775FF0EBC4243891ABB
:100D34001847C0467047C046002310B5934203D0FD
:100D4400CC5CC4540133F9E710BD02030405060763
:100D540008090A0B0C0D0E0F1010010203040506FE
:100D64000708090A0B0C0D0E0F1000000000010209
:0A0D74000304010203040607080946
:100D8000785634122C000020000000000000000003
:100D900000000000010203040607080900127A009F
:040DA00032547698BB
:04000005080000C12E
:00000001FF
