:020000040800F2
:1000000000100020F10000081F0100082101000875
:1000100000000000000000000000000000000000E0
:1000200000000000000000000000000023010008A4
:10003000000000000000000025010008CD0C0008B1
:100040001D010008000000001D0100081D0100083E
:100050001D0100081D0100081D0100081D01000808
:10006000000000001D0100081D0100081D0100081E
:100070001D0100081D0100081D010008000000000E
:100080001D01000800000000000000001D01000824
:100090001D0100081D0100081D010008D50C000805
:1000A0001D0100081D0100081D0100081D010008B8
:1000B0001D0100080000000000000000000000001A
:1000C0005FF808F1002208B5064B0749D3188B42A8
:1000D00004D20649895804321960F5E701F0B4F9F1
:1000E00008BDC0460000002014000020541F000876
:1000F00010B5084B084A934202D2002204C3F9E724
:1001000001F060F900F0A2FD041C01F07FF9201C51
:1001100001F08EF91400002054000020FEE7FEE7F5
:08012000FEE7FEE7FEE7FEE743
:04012800C500000806
:10012C0082B00190019A034B1A601A68002AFCD124
:10013C0002B0704734000020FA2108B50B4B89003F
:10014C00186801F0FFF90A4B013898420DD8094A9A
:10015C0009495060C0200B6A00061B021B0A0343AE
:10016C000B62002393600733136008BD100000205E
:10017C00FFFFFF0010E000E000ED00E0034B1A6809
:10018C00002A02D01A68013A1A6070473400002025
:10019C0010B5041C00F02CFF002000F069FF211C9E
:1001AC00002000F055FF002000F0E4FD012000F0DD
:1001BC00EBFD002000F078FF012000F059FF022039
:1001CC0000F068FF10BD000037B580200121C0038E
:1001DC0001F052F8684600F01FFE01256B466A4696
:1001EC001D71002393710323084C6946201CD571A3
:1001FC005371009300F0D4FD291C201C00F020FE4C
:10020C00201C022100F01CFE37BDC0460014004823
:10021C0010B50121041C0C4800F010FE21780029B7
:10022C000CD049B289B2094801F0BBF807488021CB
:10023C0001F0BBF80028F9D00134EFE70248013196
:10024C0000F0FEFD10BDC04600140048003801400F
:10025C00F0B589B000246B4602279C711F710C23EA
:10026C0080209025009303266B46ED05800201212A
:10027C00DC715E7101F000F8281C694600F090FDFD
:10028C00281C391C012200F0E3FD0122281C311C22
:10029C0000F0DEFDE12380209B0202930C230794E7
:1002AC00059404940394094CC0010121069300F0B9
:1002BC00EFFF201C02A901F00FF8201C012101F016
:1002CC0067F80348FFF7A4FF09B0F0BD0038014000
:1002DC007C1D0008002370B5061C0D1C0B4CE37331
:1002EC000F34301C291C0A22002301F0ADFA013C0A
:1002FC0030322270301C291C0A22002301F0A4FA8F
:10030C00061C0D1C0843ECD1201C70BD24000020E1
:10031C0008B5FFF7DFFFFFF77BFF08BDD3B50090F3
:10032C000191019B061C0F1C002B04DA031C0C1CF6
:10033C0000275E42A74100230F4CE3730F34301C9F
:10034C00391C0A22002301F07FFA013C3032227062
:10035C00301C391C00230A2201F076FA031C061CFF
:10036C000F1C0B43EBD1019A002A02DA2D22013C1F
:10037C002270201CD6BDC0461400002008B5FFF723
:10038C00CDFFFFF745FF08BD022370B58AB001AE63
:10039C003371C0230125DB0080200024019303234B
:1003AC008002291C7371B571F47100F065FF902007
:1003BC00311CC00500F0F4FC90200921C00504227A
:1003CC0000F046FD902004220A21C00500F040FDFB
:1003DC00102000F081FE8020291C800300F064FFB7
:1003EC00124800F047FD80231B020893104B0F4866
:1003FC0003A903930694079409940494059400F0BC
:10040C0053FD0A48291C00F081FD6A4617236846F3
:10041C0013705470957000F0BBFD802103480902E5
:10042C0000F093FD0028F8D10AB070BD00540040D4
:10043C000903335073B5061C0D1C2F4C80212F481B
:10044C00090200F082FD002804D0013C002CF5D1FB
:10045C002B4849E080239B01009380232748EE2101
:10046C0001225B0400F05CFD234C2448022100F0C7
:10047C006CFD002804D1013C002CF6D1214833E05E
:10048C001E48311C00F05CFD1B4C1C48802100F008
:10049C005CFD002804D1013C002CF6D11A4823E065
:1004AC000023009380231548EE2101229B0400F0C9
:1004BC0037FD114C1148022100F047FD002804D1F2
:1004CC00013C002CF6D111480EE00C48291C00F020
:1004DC0037FD094C0948202100F037FD002806D1D2
:1004EC00013C002CF6D10A48FFF792FE03E00348CA
:1004FC00202100F030FD73BDFFFF030000540040CD
:10050C00AF1D0008C41D0008D91D0008EE1D000811
:10051C00031E000837B5051C304C802130480902F9
:10052C0000F013FD002802D0013CF6D202E02D4869
:10053C00002C13D080239B0100932948EE2101222B
:10054C00002300F0EDFC254C2548022100F0FDFCB9
:10055C00002806D1013C002CF6D12348FFF758FEA9
:10056C0039E01F48291C00F0EBFC1C4C1C484021B6
:10057C0000F0EBFC002804D1013C002CF6D11B4808
:10058C00ECE790239B01009380231548EE21012278
:10059C009B0400F0C5FC114C1148042100F0D5FC63
:1005AC00002804D1013C002CF6D11148D6E70C48A8
:1005BC0000F0C8FC041C094D0948202100F0C5FCC2
:1005CC00002804D1013D002DF6D10A48C6E70448A5
:1005DC00202100F0C0FC201C3EBDC046FFFF0300E4
:1005EC0000540040AF1D0008C41D0008D91D0008B0
:1005FC00EE1D0008031E0008F7B5071C0E1C081C96
:10060C000021151C01F06EFB324C8021324809028E
:10061C0000F09BFC002802D0013CF6D202E02F48EF
:10062C00002C4FD080239B0100932B48EE210122FC
:10063C00002300F075FC274C2748022100F085FCB4
:10064C00002804D1013C002CF6D125483AE0224880
:10065C00391C00F075FC1F4C1F48402100F075FC44
:10066C00002804D1013C002CF6D11E482AE090232E
:10067C009B01009380231848EE212A1C9B0400F058
:10068C004FFC341CA31BAB4211DA124F124804214D
:10069C0000F05BFC002804D1013F002FF6D112487A
:1006AC0010E00D4800F04EFC20700134EAE7094CD4
:1006BC000948202100F049FC002806D1013C002CFF
:1006CC00F6D10A48FFF7A4FD03E00348202100F00F
:1006DC0042FCF7BDFFFF030000540040AF1D0008B3
:1006EC00C41D0008D91D0008EE1D0008031E0008DB
:1006FC0070B588B002AC201C0021162201F0F2FA71
:10070C004E4D80214E48090200F01FFC002802D0FB
:10071C00013DF6D202E04B48002D13D080239B0103
:10072C0000934748EE210122002300F0F9FB434DD2
:10073C004348022100F009FC002806D1013D002DA0
:10074C00F6D14148FFF764FD3DE03D48AA2100F099
:10075C00F7FB3A4D3A48402100F0F7FB002804D152
:10076C00013D002DF6D13948ECE790239B01009315
:10077C0080233348EE2116229B0400F0D1FB002588
:10078C002E4E2F48042100F0E0FB002804D1013E3E
:10079C00002EF6D12E48D5E7294800F0D3FB605542
:1007AC000135162DECD1254D2548202100F0CDFB2F
:1007BC00002804D1013D002DF6D12648C2E720487F
:1007CC00202100F0C8FB22786178234B12020A43E7
:1007DC001A80A278E17812020A435A802279617950
:1007EC0012020A439A80A279E17912020A43DA8052
:1007FC00227A617A12020A431A81A27AE17A1202EF
:10080C000A435A81227B617B12020A439A81A27BA2
:10081C00E17B12020A43DA81227C617C12020A43D8
:10082C001A82A27CE17C12020A435A82227D617DEB
:10083C0012020A439A8208B070BDC046FFFF030043
:10084C0000540040AF1D0008C41D0008D91D00084D
:10085C00EE1D0008031E00083800002070B50026AD
:10086C003D48FFF7D5FC3D48FFF7D2FC3C4D00233B
:10087C00E85EC117FFF782FD3A4C201CFFF7C8FC5D
:10088C003948FFF7C5FC0223E85EC117FFF776FD78
:10089C00201CFFF7BDFC3548FFF7BAFC0423E85ECB
:1008AC00C117FFF76BFD201CFFF7B2FC3048FFF7B8
:1008BC00AFFC311CE888FFF761FD201CFFF7A8FC9A
:1008CC002C48FFF7A5FC311C2889FFF757FD201C8D
:1008DC00FFF79EFC2848FFF79BFC311C6889FFF74B
:1008EC004DFD201CFFF794FC2448FFF791FC0C23D2
:1008FC00E85EC117FFF742FD201CFFF789FC20487A
:10090C00FFF786FC0E23E85EC117FFF737FD201CAE
:10091C00FFF77EFC1B48FFF77BFC1023E85EC1173A
:10092C00FFF72CFD201CFFF773FC1748FFF770FC3A
:10093C001223E85EC117FFF721FD201CFFF768FCAE
:10094C001248FFF765FC1423E85EC117FFF716FD8C
:10095C00201CFFF75DFC70BD181E0008351E00083A
:10096C00380000201E1F00083C1E0008431E000813
:10097C004A1E0008511E0008581E00085F1E000881
:10098C00651E00086B1E0008711E0008771E00080B
:10099C0038B500250E48FFF73BFCD020FFF7BAFD19
:1009AC00291CFFF7B5FC0B4C201CFFF731FC0A4847
:1009BC00FFF72EFCD120FFF7ADFD291CFFF7A8FC9B
:1009CC00201CFFF725FCFFF793FEFFF747FF38BD10
:1009DC007D1E00081E1F0008861E000813B52E2160
:1009EC00F420FFF727FD01AC0620FFF799FBF6205A
:1009FC00211C0222FFF700FE2078637800021843C6
:100A0C0016BD37B5041E032C0ED800F091FD0B0259
:100A1C0005080925742107E00F25B42104E01B25E6
:100A2C00F42101E006253421F420FFF703FD281CF6
:100A3C0001ADFFF775FB291CF6200322FFF7DCFD47
:100A4C0028786B7800041B021843AB7818430823F2
:100A5C001C1BE0403EBD000038B50A4D6C892B894B
:100A6C00001B58431423E95EC4131223E85E61187B
:100A7C00C00200F0F7FD2018A8610830001100B288
:100A8C0038BDC04638000020F8B5234D234AAB6969
:100A9C000C1C9B181A1C0426A95F5A4359434E136D
:100AAC000C27E95F121351430914711880268446F0
:100ABC000231360289108919EE8871430027EE5FE6
:100ACC000E202F5E02202D5E7A436B43D212DD1274
:100ADC005219B600B318A340624602339B10D01AC9
:100AEC000F4AC90B22415043002803DB400000F0A1
:100AFC0029FD02E000F026FD400003125B43094A89
:100B0C0053431914084B43431A148B18074A9B1868
:100B1C001B11C018F8BDC0463800002060F0FFFF64
:100B2C0050C30000DE0B000043E3FFFFCF0E0000BC
:100B3C00F8B5FFF753FF071CFFF78EFF051C0020CD
:100B4C00FFF75FFF0021061CFFF79EFF041C3148D6
:100B5C00FFF75EFB0021381CFFF710FC2E4F381CF2
:100B6C00FFF756FB2D48FFF753FB0021301CFFF716
:100B7C0005FC381CFFF74CFB2948FFF749FBE9172C
:100B8C00281CFFF7FBFB274F381CFFF741FB281CE9
:100B9C000A2100F067FDC117FFF7F0FB224E301C55
:100BAC00FFF736FB281C0A2100F042FE081CC9176F
:100BBC00FFF7E4FB1D48FFF72BFB1D48FFF728FB55
:100BCC00E117201CFFF7DAFB381CFFF721FBFA2199
:100BDC00201C890000F046FDC117FFF7CFFB301C2D
:100BEC00FFF716FBFA21201C890000F021FE081CDF
:100BFC00C917FFF7C3FB0F48FFF70AFB4B200E4941
:100C0C00604300F02FFDC117FFF7B8FB0B48FFF74F
:100C1C00FFFAF8BD901E00081E1F0008AD1E00084C
:100C2C00C71E0008DA1E0008AD1D0008DF1E0008F4
:100C3C00E31E0008F31E000810270000F91E000830
:100C4C00A02038B58003FFF7A3FAFFF775FAFFF77A
:100C5C00BBFAFFF7FDFAFFF797FB002801D1134809
:100C6C0000E01348FFF7D4FAFFF792FEFA20800059
:100C7C00FFF756FA02210F4800F0DAF842424241DF
:100C8C000221D2B20B4800F0DDF8FFF751FF0A4801
:100C9C00FFF7BEFA01220023A4185D41201C291C79
:100CAC00FFF736FB0548FFF7B3FADFE7011F000833
:100CBC000E1F000800140048211F0008391F0008EF
:100CCC0008B5FFF75BFA08BD802108B528488901F3
:100CDC0000F043F9002804D080212548890100F058
:100CEC0054F980212248490100F037F9002804D03A
:100CFC0080211F48490100F048F980211C488900D7
:100D0C0000F02BF9002804D080211948890000F04C
:100D1C003CF980211648090100F01FF9002804D085
:100D2C0080211348090100F030F980211048C900D6
:100D3C0000F013F9002804D080210D48C90000F000
:100D4C0024F90B48102100F008F9002803D00848BA
:100D5C00102100F01AF980210548490000F0FDF837
:100D6C00002804D080210248490000F00EF908BD8B
:100D7C00005400400121034A13688B431843106050
:100D8C007047C04600200240044B10211A6800280E
:100D9C0001D00A4300E08A431A60704700200240E9
:100DAC00F7B500220B68019301239340019E1E406E
:100DBC009E422DD10C79631E012B16D85700BC46D0
:100DCC0003276546AF408368BB4383604B798768D4
:100DDC00AB403B4383608388B34383808E798788A1
:100DEC00331C93403B439BB2838003235600B34098
:100DFC00DB43B44007681F40076007683C4304604E
:100E0C00C4682340C360CB79C468B3402343C36038
:100E1C000132102AC8D1F7BD044B01220360002314
:100E2C00427103718371C3717047C046FFFF0000AC
:100E3C00808A0840411E8841C0B27047816170476A
:100E4C0001857047002A01D0816100E0018570475F
:100E5C00072310B50F240B409B009A409C40131C99
:100E6C00C90889004018016AA1430162016A0B4359
:100E7C00036210BD08B50B4B984207D180200121AD
:100E8C00800300F01DFA8020800306E08020012101
:100E9C00C00300F015FA8020C003002100F010FA06
:100EAC0008BDC0460054004010B501240368A3439C
:100EBC0003600268124B13408A68120213434A689B
:100ECC00134303600F4A0B681A40026103688A6976
:100EDC002343036000238360C3600B6913438022A8
:100EEC00836083681202134383600368CA681343E8
:100EFC0003604268044B13404A691343436010BDBE
:100F0C00FFE0CF00FFFFFFF0FF7FFF070122036828
:100F1C00002901D0134300E09343036070470000A5
:100F2C0030B54468054D89052C40039D890D2C4333
:100F3C0023430B4312041343436030BD009800FC61
:100F4C0081627047406AC0B2704780690840411E98
:100F5C008841C0B27047C1617047FC239B011942A4
:100F6C0002D00268802304E0C023194203D0026837
:100F7C00803B134001E003680B40826900200A4269
:100F8C0002D0581E8341D8B27047C161704700002F
:100F9C00827870B50378002A1DD003249908234069
:100FAC00DC00FF23104A890089181A1CC025A240B6
:100FBC00AD004E599643427892011A40131CA3403F
:100FCC0033434B511F230278134001229A40131CC8
:100FDC00054A136006E01F2213401E3A9A40131C68
:100FEC00024AD36770BDC04600E100E004E100E0B6
:100FFC000121114B1A680A431A6058680F4A0240C3
:10100C005A6018680E4A02401A6018680D4A02406D
:10101C001A6058680C4A02400F205A60DA6A824300
:10102C00DA62186B094A02401A635A6B8A435A6394
:10103C0000229A607047C046001002400CB8FF08AE
:10104C00FFFFF6FEFFFFFBFFFFFFC0FFACFEF0FF54
:10105C00054B10B5054A5C6822405A605A6811432A
:10106C000843586010BDC04600100240FF7FC2FF0D
:10107C00064B002804D080211A6849040A4302E078
:10108C001968034A0A401A607047C04600100240B3
:10109C00FFFFFFFE0321034A53688B431843506044
:1010AC007047C04600100240084B094A59680A4074
:1010BC005A605A6881B20A435A60196B054A000C8F
:1010CC000A401A631A6B10431863704700100240F1
:1010DC00FFBFFFFFFFFEFFFF1021044B1A6B8A437B
:1010EC001A631A6B104318637047C0460010024015
:1010FC00F8B50C23594D041C6868184000F018FA18
:10110C001F1F1F1F1F1F1F1F071F1F1F1D00C02377
:10111C0068686A688002000F5B02861C1A4201D163
:10112C004F4807E04D4B4F48D96A0F231940013106
:10113C0000F008FA7043206004E04B4B00E0494B90
:10114C000020236021686B680A1C484E1B061B0F8D
:10115C00F35CDA40131C62606A685205520FB25C91
:10116C00D340A3602A6BD20501D4414A06E03B4A26
:10117C005268520401D45A0800E09A08E2602A6BC3
:10118C00520601D43B4A01E08022120222612A6BF2
:10119C00D20602D4334A626100E0616103222F6BF4
:1011AC002E4E174201D1A36112E0376B1740012F6D
:1011BC0001D1A1610CE0376B1740022F02D18022C4
:1011CC00120204E0366B3240032A01D1254AA26197
:1011DC00C0222F6B9202174201D1E36119E01F4E1E
:1011EC00376B802617407602B74201D1E16110E0DF
:1011FC001A4E376B80261740B602B74202D18022B6
:10120C00120205E0154E366B1640964201D1154A76
:10121C00E261C0222F6B1203104E174215D08027AB
:10122C00336BFF021340BB4201D121620EE08021DF
:10123C00336B090313408B4202D180231B0204E061
:10124C00336B1340934201D1064B23622B6B1B066D
:10125C0002D4054B636200E06062F8BD00100240EE
:10126C0000093D0000127A00006CDC020000002036
:10127C00809FD50012800000044B5A69002902D0CF
:10128C001043586101E082435A61704700100240DC
:10129C00044B9A69002902D01043986101E0824303
:1012AC009A61704700100240044BDA69002902D0A1
:1012BC001043D86101E08243DA61704700100240AC
:1012CC00044B1A69002902D01043186101E08243D3
:1012DC001A617047001002400122F0B50D1C036822
:1012EC008BB0934303604268224B041C13408A6802
:1012FC00134343600268204B1A40CB6849680B4388
:10130C0029690B431343036082681C4B13406A69C1
:10131C00134383606846FFF7EBFE194B069E9C4215
:10132C0008D0184B079E9C4204D0174B089E9C4239
:10133C0000D0029E23682F681B0400D57600391C50
:10134C00301C00F0FFF8391C051C301C00F080F933
:10135C0000237F08B9425B41ED1823681B0404D5B8
:10136C000A4B2A07520F1D401543ADB2A5810BB095
:10137C00F0BDC046FFCFFFFFF3E9FFFFFFFCFFFF0F
:10138C00003801400044004000480040F0FF0000DD
:10139C0001220368002901D0134300E0934303604A
:1013AC007047C905C90D01857047C0690840411EC9
:1013BC008841C0B2704700000D4B70B500251E1C53
:1013CC000C4CE41AA410A54204D0AB00F358984777
:1013DC000135F8E7084B00251E1C084CE41AA41034
:1013EC00A54204D0AB00F35898470135F8E770BD1F
:1013FC00280100082C0100082C0100082C01000811
:10140C0038B5064B064C1D1CE41AA410002C04D055
:10141C00013CA300EB589847F8E738BD2C010008B5
:10142C002C010008BFF34F8F024A034BDA60BFF365
:10143C004F8FFEE70400FA0500ED00E00121344B6C
:10144C0082B01A680A431A605868324A02405A60DD
:10145C001868314A02401A601868304A02401A6013
:10146C0058682F4A02400F205A60DA6A8243DA62C7
:10147C00186B2C4A02401A635A6B8A435A63002237
:10148C0080219A60009201921A6849020A431A60FC
:10149C00802219689202114001910099013100914A
:1014AC000199002904D1A0210098C9018842EFD1EB
:1014BC0019680A4000D001220192019A012A25D113
:1014CC001121194A11605A685A605A685A60596851
:1014DC00164A0A4088215A605A6849030A438021F7
:1014EC005A601A6849040A431A601968084A890143
:1014FC00FBD5032051688143516051680138014389
:10150C0051600C2259680A40082AFAD102B070477F
:10151C00001002400CB8FF08FFFFF6FEFFFFFBFFB8
:10152C00FFFFC0FFACFEFFFF00200240FF7FC0FFAB
:10153C0002B4714649084900095C49008E4402BC5A
:10154C007047C046002243088B4274D303098B4278
:10155C005FD3030A8B4244D3030B8B4228D3030C77
:10156C008B420DD3FF22090212BA030C8B4202D319
:10157C001212090265D0030B8B4219D300E0090A41
:10158C00C30B8B4201D3CB03C01A5241830B8B424A
:10159C0001D38B03C01A5241430B8B4201D34B0333
:1015AC00C01A5241030B8B4201D30B03C01A524198
:1015BC00C30A8B4201D3CB02C01A5241830A8B421D
:1015CC0001D38B02C01A5241430A8B4201D34B0206
:1015DC00C01A5241030A8B4201D30B02C01A52416A
:1015EC00CDD2C3098B4201D3CB01C01A524183091E
:1015FC008B4201D38B01C01A524143098B4201D358
:10160C004B01C01A524103098B4201D30B01C01A82
:10161C005241C3088B4201D3CB00C01A52418308FC
:10162C008B4201D38B00C01A524143088B4201D329
:10163C004B00C01A5241411A00D201465241104689
:10164C007047FFE701B5002000F0FCF802BDC04672
:10165C000029F7D003B5FFF775FF0EBC4243891A7A
:10166C001847C04603460B437FD4002243088B42E5
:10167C0074D303098B425FD3030A8B4244D3030B0D
:10168C008B4228D3030C8B420DD3FF22090212BAD2
:10169C00030C8B4202D31212090265D0030B8B424E
:1016AC0019D300E0090AC30B8B4201D3CB03C01A38
:1016BC005241830B8B4201D38B03C01A5241430B13
:1016CC008B4201D34B03C01A5241030B8B4201D303
:1016DC000B03C01A5241C30A8B4201D3CB02C01A6E
:1016EC005241830A8B4201D38B02C01A5241430AE6
:1016FC008B4201D34B02C01A5241030A8B4201D3D5
:10170C000B02C01A5241CDD2C3098B4201D3CB017B
:10171C00C01A524183098B4201D38B01C01A52412A
:10172C0043098B4201D34B01C01A524103098B422E
:10173C0001D30B01C01A5241C3088B4201D3CB0019
:10174C00C01A524183088B4201D38B00C01A5241FC
:10175C0043088B4201D34B00C01A5241411A00D2AC
:10176C0001465241104670475DE0CA0F00D0494215
:10177C00031000D34042534000229C4603098B4285
:10178C002DD3030A8B4212D3FC22890112BA030A0D
:10179C008B420CD3890192118B4208D3890192118F
:1017AC008B4204D389013AD0921100E08909C30914
:1017BC008B4201D3CB01C01A524183098B4201D316
:1017CC008B01C01A524143098B4201D34B01C01A01
:1017DC00524103098B4201D30B01C01A5241C30879
:1017EC008B4201D3CB00C01A524183088B4201D3E8
:1017FC008B00C01A5241D9D243088B4201D34B0003
:10180C00C01A5241411A00D20146634652415B1044
:10181C00104601D34042002B00D549427047634625
:10182C005B1000D3404201B5002000F00BF802BD64
:10183C000029F8D003B5FFF715FF0EBC4243891AF7
:10184C001847C0467047C046002B11D1002A0FD153
:10185C00002900D1002802D00021C943081C07B47C
:10186C00024802A14018029003BDC046D9FFFFFFF9
:10187C0003B4684601B5029800F022F8019B9E461D
:10188C0002B00CBC7047C046F0B583B0161C1F1CD0
:10189C000090019100F058F8041C0D1C221C2B1C0C
:1018AC00301C391C00F026F8009A019B121A8B414F
:1018BC000899201C0A604B60291C03B0F0BDC0467F
:1018CC00F0B5141C83B01D1C0090019100F034F98C
:1018DC00221C2B1C061C0F1C00F00CF8009A019B00
:1018EC00121A8B410899301C0A604B60391C03B0EA
:1018FC00F0BDC046F0B54F46464605042D0C2C1CD9
:10190C00C0B41704160C3F0C9946030C7C4375436A
:10191C005F4373437D19260CAD199C46AF4203D926
:10192C0080235B029846C4444B46514343432404F2
:10193C002E0C240C2D0466442C1959188919201CC2
:10194C000CBC90469946F0BDF0B544465F465646F1
:10195C004D46F0B41C1C85B0002900DAA9E00F1C20
:10196C000021061C8846101C191C002C00DA97E07C
:10197C00341C3D1C82468946B94273D870D0494606
:10198C00504600F085F98346391C301C00F080F974
:10199C005B46181A031C8346203B9C4600D59CE0F2
:1019AC000023002251460092019363469940019115
:1019BC0051468140019B0091BB4200D983E000D18C
:1019CC007EE0009A019B341C3D1CA41A9D41634689
:1019DC00002B00DA9AE000260027029603970136C6
:1019EC009E400396012686400296002800D171E0A5
:1019FC000099019AD30799464B464E081E43570847
:101A0C00002301220CE0AF4201D1A6420AD8A41B4C
:101A1C00BD4124196D410138A4185D41002806D040
:101A2C00AF42F0D9013824196D410028F8D1202299
:101A3C00029E039F5B46524236196F4199185AD445
:101A4C00281CC8402C1C5B46DC40002968DB041CAD
:101A5C008C40231C59468840021CB61A9F4103E057
:101A6C00B0428CD90026002741464B1E99410023D9
:101A7C0000910193009A019B002554429D41331C17
:101A8C006340181C3B1C6B40191C009B019CC0182C
:101A9C00614105B03CBC90469946A246AB46F0BDB0
:101AAC004346DB430C1C9846131C00215842A141B1
:101ABC005EE7002746428F4101214942884652E7A2
:101ACC00B14200D87DE70026002702960397002834
:101ADC0000D08DE7029E039FC6E720215346091ACA
:101AEC00CB400022191C0023009201934B468340EB
:101AFC000B4301935CE75A4620239B1A2A1C9A40FD
:101B0C00201C131C5A46D04018439BE72026002764
:101B1C00331A0026029603970127DF40039761E7EB
:101B2C005B4620215D46C91A031CAC40CB40191CF6
:101B3C00231C0B438EE7C046F0B545464E46574630
:101B4C00E0B4041C82B00D1C914698468B4262D8BE
:101B5C005FD04146484600F09BF8291C061C201C0F
:101B6C0000F096F82023311A5B428A46C81865D4D7
:101B7C004B4683401F1C4B468B401E1CAF4258D813
:101B8C0055D0A41BBD41002800DA77E000220023C9
:101B9C000092019301328240019201238B40009309
:101BAC0000293CD0FB079846404672087B0802434C
:101BBC00012600270CE0AB4201D1A2420AD8A41A9C
:101BCC009D4124196D410139A4197D41002906D08C
:101BDC00AB42F0D9013924196D410029F8D12022EA
:101BEC000098019953465242001969419E183AD403
:101BFC002F1CF7405346DD40002E29DB3C1CB44023
:101C0C00231C5446A7403A1C801A9941009001911C
:101C1C0005E082429DD90023002400930194009892
:101C2C00019902B01CBC90469946A246F0BDA34255
:101C3C00A7D90022002300920193B1E720224B4642
:101C4C00521AD3401A1C43468B401F1C174392E771
:101C5C00534620245646E41A3B1CB540E3401C1C5A
:101C6C002B1C2343CDE7524620239B1A2A1C9A4057
:101C7C00271C131C5246D7401F43BBE720230022CE
:101C8C00581A0023009201930132C240019284E75A
:101C9C0010B5002903D100F007F8203002E0081C31
:101CAC0000F002F810BDC0461C2101231B04984211
:101CBC0001D3000C10391B0A984201D3000A0839D1
:101CCC001B09984201D30009043902A2105C401888
:101CDC007047C0460403020201010101000000002C
:101CEC000000000070B583073FD0541E002A3BD083
:101CFC00CEB2031C032503E0621E002C34D0141C4E
:101D0C0001335A1E16702B42F6D1032C24D9FF2511
:101D1C000D402A0215432A0415430F2C11D9261CF9
:101D2C00103E3609013636011A1C9B191560556098
:101D3C009560D56010329342F8D10F221440032CD9
:101D4C000AD9261FB6080136B6001A1C9B1920C2E8
:101D5C009342FCD103221440002C05D0C9B21C19AB
:101D6C0019700133A342FBD170BD141C031CCCE7CA
:101D7C0054657374696E67207561727421210D0A44
:101D8C000053656E736F72206572726F722E2E2EF9
:101D9C000053656E736F7220776F726B696E672E6E
:101DAC002E2E00312E2E2E74696D656F7574206584
:101DBC0072726F722E2E2E00322E2E2E74696D655D
:101DCC006F7574206572726F722E2E2E00332E2E4C
:101DDC002E74696D656F7574206572726F722E2E1C
:101DEC002E00342E2E2E74696D656F7574206572FD
:101DFC00726F722E2E2E00352E2E2E74696D656F1D
:101E0C007574206572726F722E2E2E0045325052F0
:101E1C004F4D2043616C6962726174696F6E2076FC
:101E2C00616C7565733A0D0A00094143313A09003A
:101E3C00094143323A0900094143333A0900094147
:101E4C0043343A0900094143353A09000941433604
:101E5C003A09000942313A09000942323A090009AB
:101E6C004D423A0900094D433A0900094D443A09DB
:101E7C00004368697049443A200056657273696F73
:101E8C006E3A2000556E20636F6D70656E736174D1
:101E9C0065642074656D70657261747572653A2045
:101EAC0000556E20636F6D70656E73617465642090
:101EBC0070726573737572653A20005265616C209F
:101ECC0074656D70657261747572653A2000202DB1
:101EDC003E2000430D0A005265616C2070726573E0
:101EEC00737572653A20006B50612028006D6D4847
:101EFC0067290D0A00493243207265616479200D0F
:101F0C000A0049324320696E6974206661696C6508
:101F1C0064200D0A002D2D2D2D2D2D2D2D2D2D2D2B
:101F2C002D2D68656172746265617420002D2D2DF4
:0E1F3C002D2D2D2D2D2D2D2D2D2D2D0D0A0091
:081F4C0008FAFF7F010000000C
:101F5400000000000102030401020304060708094B
:041F6400006CDC022F
:04000005080000F1FE
:00000001FF
