:020000040800F2
:100000000000022091020008F10E0008F30E000823
:10001000F50E0008F70E0008F90E000800000000B9
:10002000000000000000000000000000FB0E0008BF
:10003000FD0E000800000000FF0E0008010F000880
:10004000350C0008350C0008350C0008350C00088C
:10005000350C0008350C0008050F0008350C0008A9
:10006000350C0008350C0008350C0008350C00086C
:10007000350C0008350C0008350C0008350C00085C
:10008000350C0008350C0008350C0008350C00084C
:10009000350C0008350C0008350C0008350C00083C
:1000A000350C0008350C0008350C0008350C00082C
:1000B000350C0008350C0008350C0008350C00081C
:1000C000350C0008350C0008350C0008350C00080C
:1000D000350C0008350C0008350C0008350C0008FC
:1000E000350C0008350C0008350C0008350C0008EC
:1000F000350C0008350C0008350C0008350C0008DC
:10010000350C0008350C0008350C0008350C0008CB
:10011000350C0008350C0008350C0008350C0008BB
:10012000350C0008350C0008350C0008350C0008AB
:10013000350C0008350C0008350C0008350C00089B
:10014000350C0008350C0008350C0008350C00088B
:10015000350C0008350C0008350C0008350C00087B
:10016000350C0008350C0008350C0008350C00086B
:10017000350C0008350C0008350C000800000000A4
:10018000350C0008350C000807B500F04FFD2E496E
:100190002E4A2F4B2F4C30480B6013602F4DA84236
:1001A00004D254F8045F40F8045BF7E708682C4970
:1001B000884203D111682B4A914200D0FEE72A49B8
:1001C0002A4A0B6013602A4B2A48834203D200203C
:1001D00043F8040BF8E70B680BB9146804B1FEE7A9
:1001E00000F026FD684601A900F018FD224D234BC2
:1001F000ED1AAD101E46AC4204DA56F8243098478A
:100200000134F8E71E4B1F4CE41AA41000251E46CB
:10021000A54204DA56F8253098470135F8E79DE8FD
:10022000030000F063FD184C184BE41A0646A410B6
:100230001D46002C04DD013C55F824309847F8E7B2
:10024000304600F0E9FC00BF000000202000002044
:10025000BABADECA300F00080000002024000020D7
:100260007856341232547698240000203000002052
:1002700024000020340000200003000800030008D0
:100280000003000800030008000300080003000842
:1002900008B5FFF779FF00BEFEE71EF0040F0CBFA4
:1002A000EFF30880EFF309807146124A104700BE51
:1002B000FEE700BEFEE71EF0040F0CBFEFF3088060
:1002C000EFF3098071460C4A104700BEFEE71EF0AE
:1002D000040F0CBFEFF30880EFF309807146074A63
:1002E000104700BEFEE700BEFEE700BEFEE700BE10
:1002F000FEE77047AF020008CB020008E3020008E7
:1003000010B5044600F06CFC4FF47A73B0FBF3F0C8
:1003100000F080F84FF0FF302146002200F03EF858
:10032000002010BD08B5094B1A6842F400721A602B
:100330001A6842F480621A60032000F01DF80F2052
:10034000FFF7DEFF00F074F9002008BD003C02401A
:10035000024A136801331360704700BF2800002071
:10036000014B1868704700BF28000020014B186837
:10037000000C7047002004E0074AD36823F4E063D0
:100380001B041B0C43F0BF6343F4003300F0070071
:1003900043EA0023D360704700ED00E0154BDB68B3
:1003A000C3F3022370B5C3F107051C1D042D28BF3C
:1003B0000425062C8CBF033B0023012404FA03F61A
:1003C000AC40013C013E214099403240002842EAC5
:1003D00001024FEA0212AFBF00F1604000F00F00CF
:1003E000054BD2B2A5BF00F56140D2B21A5480F8D5
:1003F000002370BD00ED00E014ED00E04109012391
:1004000000F01F00024A834042F82130704700BFCD
:1004100000E100E00138B0F1807F3FBF064B074AA2
:100420005860F0213FBF82F8231000200722986017
:1004300034BF1A600120704710E000E000ED00E0DA
:100440002DE9F3410F6800220123934003EA0705D9
:100450009D4240F0CB804C6824F0100CBCF1020FA0
:1004600014D14FEAD20E00EB8E0E02F00706DEF832
:100470002030B6004FF00F0808FA06F823EA080803
:100480000B69B34048EA0303CEF820304FEA420E2E
:100490000323066803FA0EF3DB4303EA060804F0BD
:1004A000030606FA0EF60CF1FF3C48EA0606BCF11C
:1004B000010F066011D8866803EA060CCE6806FABA
:1004C0000EF64CEA06068660466826EA050CC4F37A
:1004D000001696404CEA06064660C66803EA060C1B
:1004E0008B6803FA0EF64CEA0603C360E3007DD581
:1004F000424B5E6C46F480465E645B6C22F0030601
:1005000006F1804603F4804306F59C36019302F021
:10051000030C019BD6F808E04FEA8C0C0F2303FA7A
:100520000CF32EEA030E364B984222D003F580637B
:10053000984220D003F5806398421ED003F5806373
:1005400098421CD003F5806398421AD003F580636B
:10055000984218D003F58063984216D003F5806363
:10056000984214D003F5806398420CBF08230923F6
:100570000EE000230CE001230AE0022308E003233D
:1005800006E0042304E0052302E0062300E007233D
:1005900003FA0CF343EA0E03DFF868E0B360DEF819
:1005A0000030EE4314F4803F14BF2B433340CEF8A9
:1005B0000030DEF80430DFF84CE014F4003F14BFE4
:1005C0002B433340CEF80430DEF8083014F4801F9B
:1005D00014BF2B433340CEF80830DEF80C30A402B1
:1005E00054BF06EA03051D43064BDD600132102AA5
:1005F0007FF42AAF02B0BDE8F08100BF00380240AE
:1006000000000240003C014002B9090481617047CA
:10061000436959404161704708B5044B5969084224
:1006200002D0586100F0E4FB08BD00BF003C01406F
:10063000704700000368F7B5DD07044603D423685C
:1006400098074CD49DE08C4B9A6802F00C02042A67
:1006500007D09A6802F00C02082A0BD15B68590295
:1006600008D5854B1B689A03E9D56368002BE6D152
:10067000012069E1814D00232B70FFF771FE0646D2
:100680007D4B1B689B0308D5FFF76AFE41F2883358
:10069000801B9842F4D9032056E123792B706368BC
:1006A00073B1FFF75DFE0546734B1B689F03C6D40D
:1006B000FFF756FE41F28833401B9842F4D9EAE72F
:1006C000FFF74EFE05466C4B1B689E03B7D5FFF740
:1006D00047FE41F28833401B9842F4D9DBE7664B72
:1006E0009A6812F00C0F07D09A6802F00C02082AE0
:1006F00018D15B68580215D45F4A1368990702D570
:10070000E368012BB4D11168F82393FAA3F3B3FA89
:1007100083F32069DBB2984021F0F80140EA01033D
:1007200013602EE0E268564BEAB101221A60FFF72F
:1007300017FE054650490B689B0705D4FFF710FECE
:10074000401B6428F6D9A6E70A68F82393FAA3F3B6
:10075000B3FA83F32069DBB2984022F0F80240EA52
:1007600002030B600DE01A60FFF7FAFD0546424BED
:100770001B689F0705D5FFF7F3FD401B6428F6D9DA
:1007800089E723681E0703D423685D074BD51FE064
:1007900062693C4B72B101221A60FFF7E1FD054628
:1007A000354B5B6F9807EFD4FFF7DAFD401B6428E9
:1007B000F6D970E71A60FFF7D3FD05462E4B5B6F45
:1007C0009907E1D5FFF7CCFD401B6428F6D962E715
:1007D000294B1A6C42F080521A641B6C2A4A03F0AF
:1007E00080530193019B136843F480731360FFF7F8
:1007F000B7FD0546244B1B68DA0517D5234D0023AA
:100800002B70FFF7ADFD06461B4B1B6F9B0713D4E8
:10081000237A2B70A368FBB1FFF7A2FD0546164BA8
:100820001B6F9F0710D5A26992BB72E0FFF798FD7E
:10083000401B6428DED92EE7FFF792FD41F2883392
:10084000801B9842E0D926E7FFF78AFD41F2883302
:10085000401B9842E3D91EE7FFF782FD0546064B91
:100860001B6F9E07DFD5FFF77BFD41F28833401BEE
:100870009842F4D90FE700BF003802400238024026
:1008800000004742800E474200700040703802402E
:100890002E4B9B6803F00C03082B3FF4E9AE2C4D64
:1008A0000023022A2B6042D1FFF75AFD0646274952
:1008B0000B6898012FD447F6C07292FAA2F2B2FAEE
:1008C00082F24FF4403696FAA6F6B6FA86F64FF064
:1008D000706090FAA0F0B0FA80F0E369276A1F43D5
:1008E000636AD2B2934047EA0302A36A5B08013B02
:1008F000F6B2B3401343E26AC0B2824013434B6086
:1009000001232B60FFF72CFD0446104B1B689A0156
:1009100007D5002018E0FFF723FD801B6428C6D907
:10092000B9E6FFF71DFD001B6428EED9B3E6FFF71B
:1009300017FD0446054B1B689B01EAD5FFF710FD28
:10094000001B6428F6D9A6E603B0F0BD00380240CB
:10095000600047427F4B1A6802F00F02914270B567
:1009600004460D4677D9CAB21A701B6803F00F030C
:100970008B4201D0012070BD01688B0741BF7648D2
:10098000836823F0F002A36844BF13438360CE075B
:100990000BD421684D0740F1CC806F48836823F465
:1009A000E052E36813438360C3E063686A4A012B43
:1009B00003D1126812F4003F08E0991E0129126861
:1009C00002D812F0007F01E012F0020FD2D062498B
:1009D0008A6822F0030213438B60FFF7C1FC63684F
:1009E000012B05460ED15C4B9B6803F00C03042BD6
:1009F000CFD0FFF7B5FC41F28833401B9842F2D9C3
:100A0000032070BD022B0DD1534B9B6803F00C03E8
:100A1000082BBED0FFF7A4FC41F28833401B98425C
:100A2000F2D9EDE7032B10D14B4B9B68FFF798FCF5
:100A300041F28833401B9842F6D9E1E7FFF790FC7A
:100A400041F28833401B9842DAD8434B9B6813F03D
:100A50000C0FF3D19DE70168880741BF3E488368CA
:100A600023F0F002A36844BF13438360CA0709D48C
:100A7000384BEAB21A701B6803F00F03AB427FF4E5
:100A800079AF86E76368344A012B03D1126812F408
:100A9000003F08E0991E0129126802D812F0007F79
:100AA00001E012F0020F3FF465AF2B498A6822F093
:100AB000030213438B60FFF753FC6368012B064668
:100AC0000DD1254B9B6803F00C03042BD0D0FFF70E
:100AD00047FC41F28833801B9842F2D990E7022B01
:100AE0000DD11D4B9B6803F00C03082BC0D0FFF702
:100AF00037FC41F28833801B9842F2D980E7032B00
:100B000011D1154B9B68FFF72BFC41F28833801BFA
:100B10009842F6D974E7FFF723FC41F28833801B33
:100B200098423FF66DAF0C4B9B6813F00C0FF2D15F
:100B30009EE70B0741BF084A2169936823F460438D
:100B400044BF43EAC10393600F20FFF7D9FB0020A5
:100B500070BD00BF003C02400038024030B51D4C63
:100B6000A36803F00C03042B30D0082B30D162684B
:100B7000636802F03F0513F4800F47F6C0716368A5
:100B800091FAA1F1B1FA81F147F6C07004BF124A9F
:100B9000B2FBF5F2C9B200EA030020FA01F01CBF73
:100BA0000E49B1FBF5F202FB00F30A4A50684FF41C
:100BB000403292FAA2F2B2FA82F2D2B200F440309B
:100BC000D04001304000B3FBF0F030BD034830BDF1
:100BD000014830BD003802400024F40000127A00C1
:100BE00008B5FFF7BBFF094B9A68F02393FAA3F30C
:100BF000B3FA83F302F0F002DBB222FA03F3044A01
:100C0000D35CD840034B186008BD00BF00380240D9
:100C10000A0F00080C000020FEE70000012303601B
:100C2000014B0B60704700BF0400002000F004B8C7
:100C300000F022B8FEE700000C4B1A68002142F0D9
:100C400001021A6099601A6822F0847222F48032DC
:100C50001A60074A5A601A6822F480221A60D96022
:100C6000044B4FF000629A60704700BF00380240AA
:100C70001030002400ED00E0174A1849936803F093
:100C80000C03042B03D0082B03D0154B18E0154B95
:100C900016E05068536810F4800F03F03F0350686B
:100CA00014BF104A0E4AB2FBF3F30B4A5268C2F368
:100CB0000142C0F38810013243435200B3FBF2F308
:100CC0000B60054B084A9B68C3F30313D25C0B68A7
:100CD000D3400B60704700BF003802400C0000207A
:100CE0000024F40000127A001A0F000800B595B035
:100CF000FFF718FB012000F08DF8002000F08AF8C3
:100D0000022000F087F8032000F084F8334B1A6CBF
:100D100042F080521A641B6C03F080530193019BD4
:100D20002F4B1A6842F480421A601B6803F4804318
:100D30000293029B0123089309934FF480030F93BE
:100D4000082310934FF4A8730224119308A80723D3
:100D50000E9412941393FFF76DFC18B1204600F027
:100D6000ABF8FEE70F2303934FF4A05305900693CF
:100D700003A84FF48053052104940793FFF7EAFD7D
:100D800018B1204600F098F8FEE7FFF7EFFA41F2BD
:100D90000103984208BF134A134802BF136843F483
:100DA000807313600D4B1A6B42F001021A631B6BC8
:100DB00003F001030393039B0C4B099300240123CD
:100DC00008A908930A94FFF73BFB0620022122465C
:100DD000FFF7E4FA0620FFF711FBFEE700380240B8
:100DE00000700040003C0240000002400000211062
:100DF000012808B50CD100F06DF8002000F06AF869
:100E0000022000F067F80320BDE8084000F062B857
:100E100008BD000070B504468AB050B9234B1A6B68
:100E200042F008021A631B6B03F008030193019B55
:100E300025E001280AD11D4B1A6B42F008021A6303
:100E40001B6B03F008030293029B18E002280AD1EF
:100E5000164B1A6B42F008021A631B6B03F008036F
:100E60000393039B0BE0032809D1104B1A6B42F04C
:100E700008021A631B6B03F008030493049B0C4BDA
:100E80000C4E33F8145056F82400059501230693B0
:100E9000079305A902230893FFF7D2FA56F8240016
:100EA00029460022FFF7B0FB0AB070BD00380240AF
:100EB0002A0F000810000020044A034652F82000C0
:100EC000034A32F813100122FFF79EBB10000020E6
:100ED0002A0F0008044A034652F82000034A32F859
:100EE0001310FFF795BB00BF100000202A0F000869
:100EF0007047FEE7FEE7FEE7FEE770477047704782
:100F0000FFF726BA0120FFF787BB000000000102AF
:100F100003040102030406070809000000000000A2
:100F20000000010203040607080900100020004029
:020F300000803F
:100F3400785634122C000020000000000024F40035
:100F4400000C0240000C0240000C0240000C024065
:040F54003254769805
:040000050800018965
:00000001FF
