:020000040800F2
:1000000000100020F10000088D0100089101000897
:1000100000000000000000000000000000000000E0
:100020000000000000000000000000009501000832
:10003000000000000000000099010008A50200086F
:1000400089010008000000008901000889010008FA
:100050008901000889010008890100088901000858
:1000600000000000890100088901000889010008DA
:1000700089010008890100088901000800000000CA
:10008000890100080000000000000000890100084C
:100090008901000889010008890100088901000818
:1000A0008901000889010008890100088901000808
:1000B00089010008000000000000000000000000AE
:1000C0005FF808F108B50748074B984207D2C243CA
:1000D000D218920801329200044900F017FB00F098
:1000E000FDF908BD000000200400002014080008ED
:1000F0001C481D4B70B5984207D2C243D2189208D3
:1001000001329200002100F03FFB184E184D0024F0
:10011000AD1BAD1005D0A300F35801349847A5429C
:10012000F9D1144E144D0024AD1BAD1005D0A30021
:10013000F35801349847A542F9D100F06BF80F4B02
:100140000F4C061CE41AA41009D00E4AA518AD00E5
:10015000ED182B68013C9847043D002CF9D1301C68
:1001600000F0BAF90400002008000020A0010008F7
:10017000A4010008A4010008A4010008A4010008CB
:10018000A4010008FFFFFF3FFEE7C046FEE7C046B0
:10019000FEE7C046FEE7C046FEE7C046FEE7C046B3
:0401A000C50000088E
:1001A40010B5041C00F014F9002000F051F9211CD2
:1001B400002000F03DF9002000F07CF8012000F060
:1001C40083F8002000F060F9012000F041F90220DA
:1001D40000F050F910BDC046802000B5012183B065
:1001E400C00300F06BF9684600F0E2F86A460123A8
:1001F4001371002305489371D37169460333537116
:10020400009300F071F803B000BDC046001400482C
:10021400A02038B58003FFF7C3FFFA211A4B8900E9
:10022400186800F0DFF9194B013898420DD8184AC4
:1002340018495060C0200B6A00061B021B0A0343C6
:100244000B620023936007331360FA25FFF7C4FFA2
:10025400114CAD001148012100F0B6F80F480221FD
:1002640000F0B4F825602368002BFCD10B48012171
:1002740000F0ACF80948022100F0A6F825602368D4
:10028400002BFCD1E6E7C04600000020FFFFFF0082
:1002940010E000E000ED00E004000020001400483D
:1002A400034B1A68002A02D01A68013A1A60704790
:1002B400040000200121034A13688B431843106093
:1002C4007047C04600200240064A002804D110218D
:1002D40013688B4313607047102311680B4313603A
:1002E400F9E7C04600200240F0B544465F46564652
:1002F4004D46F0B403248C4683B0096800220023E1
:100304000127A04603E001330232102B26D03C1C07
:100314000D1C9C402540A542F5D164462479A34692
:10032400013C012C21D944469440E44301940568DE
:1003340001332C4004605C46944005682C434546D8
:1003440095400460C468AC43C4606446E479C568FD
:1003540094402C43C4600232102BD8D103B03CBC6F
:1003640090469946A246AB46F0BD8468A1464446F1
:1003740094404E46E4432640866086680194B24623
:10038400664676799640B14656464C462643866084
:100394008488261CAE4386808488A1466446A57959
:1003A4004C469D402543ADB28580019CBFE7C046C5
:1003B400044B012203600023427103718371C371F2
:1003C4007047C046FFFF0000816170470185704798
:1003D4000121114B1A680A431A6058680F4A0240F7
:1003E4005A6018680E4A02401A6018680D4A0240A2
:1003F4001A6058680C4A02400F205A60DA6A824335
:10040400DA62186B094A02401A635A6B8A435A63C8
:1004140000229A607047C046001002400CB8FF08E2
:10042400FFFFF6FEFFFFFBFFFFFFC0FFACFEFFFF79
:10043400054B10B5054A5C6822405A605A6811435E
:100444000843586010BDC04600100240FFFFC2FFC1
:10045400064A002804D11168054B0B40136070470D
:100464008021136849040B431360F8E7001002402D
:10047400FFFFFFFE0321034A53688B431843506078
:100484007047C04600100240094B0A4A59680A40A6
:100494005A6059680204120C0A435A60196B064ADE
:1004A400000C0A401A631A6B104318637047C04665
:1004B40000100240FFBFFFFFFFFEFFFF044A536925
:1004C400002902D183435361704718435061FBE70D
:1004D40000100240FEE7C04601213B4B82B01A687F
:1004E4000A431A605868394A02405A601868384A00
:1004F40002401A601868374A02401A605868364A3F
:1005040002400F205A60DA6A8243DA62186B334A77
:1005140002401A635A6BA0208A435A630022802146
:100524009A60009201921A6849020A4380211A6073
:1005340089021A1CC00102E0009B834208D01368A0
:100544000B400193009B01330093019B002BF3D0DC
:100554001D4B1A6880239B02134006D0012301938C
:10056400019B012B05D002B070470193019B012B25
:10057400F9D111221A4B80201A60134A800453685F
:100584005360536853605168134B0B408821536088
:10059400536849030B4380215360136849040B4398
:1005A40013601168084B0142FBD003215A688A4347
:1005B4005A60022259680A435A600C211A1C536873
:1005C4000B40082BFBD1CEE7001002400CB8FF080B
:1005D400FFFFF6FEFFFFFBFFFFFFC0FFACFEFFFFC8
:1005E40000200240002243088B4274D303098B424B
:1005F4005FD3030A8B4244D3030B8B4228D3030CEF
:100604008B420DD3FF22090212BA030C8B4202D390
:100614001212090265D0030B8B4219D300E0090AB8
:10062400C30B8B4201D3CB03C01A5241830B8B42C1
:1006340001D38B03C01A5241430B8B4201D34B03AA
:10064400C01A5241030B8B4201D30B03C01A52410F
:10065400C30A8B4201D3CB02C01A5241830A8B4294
:1006640001D38B02C01A5241430A8B4201D34B027D
:10067400C01A5241030A8B4201D30B02C01A5241E1
:10068400CDD2C3098B4201D3CB01C01A5241830995
:100694008B4201D38B01C01A524143098B4201D3CF
:1006A4004B01C01A524103098B4201D30B01C01AFA
:1006B4005241C3088B4201D3CB00C01A5241830874
:1006C4008B4201D38B00C01A524143088B4201D3A1
:1006D4004B00C01A5241411A00D201465241104601
:1006E4007047FFE701B5002000F00CF802BDC046DA
:1006F4000029F7D003B5FFF775FF0EBC4243891AF2
:100704001847C0467047C04670B50F2A32D9041C3A
:100714000C430B1CA40731D1151C041C103D2D09DE
:1007240001352D0149191E6826605E6866609E6861
:10073400A660DE681033E66010349942F3D10F23CB
:1007440045191340032B1BD91C1F0023A408013493
:10075400A400CE58EE500433A342FAD1ED18C918C0
:1007640003231A4005D00023CC5CEC54013393429C
:10077400FAD170BD051C002AF5D1FAE7051CF2E791
:100784001A1CF8E770B583073FD0541E002A3BD0EB
:10079400CEB2031C032503E0621E002C34D0141CCB
:1007A40001335A1E16702B42F6D1032C24D9FF258F
:1007B4000D402A0215432A0415430F2C11D9261C77
:1007C400103E3609013636011A1C9B191560556016
:1007D4009560D56010329342F8D10F221440032C57
:1007E4000AD9261FB6080136B6001A1C9B1920C266
:1007F4009342FCD103221440002C05D0C9B21C1929
:1008040019700133A342FBD170BD141C031CCCE747
:04081400006CDC0296
:04000005080000F1FE
:00000001FF
