:020000040800F2
:1000000000100020F10000081F0100082101000875
:1000100000000000000000000000000000000000E0
:1000200000000000000000000000000023010008A4
:100030000000000000000000250100083D04000849
:100040001D010008000000001D0100081D0100083E
:100050001D0100081D0100081D0100081D01000808
:10006000000000001D0100081D0100081D0100081E
:100070001D0100081D0100081D010008000000000E
:100080001D01000800000000000000001D01000824
:100090001D0100081D0100081D0100081D010008C8
:1000A0001D0100081D0100081D0100081D010008B8
:1000B0001D0100080000000000000000000000001A
:1000C0005FF808F1002208B5064B0749D3188B42A8
:1000D00004D20649895804321960F5E700F0A2FC01
:1000E00008BDC046000000201400002034110008A4
:1000F00010B5084B084A934202D2002204C3F9E724
:1001000000F04EFC00F052F9041C00F06DFC201CC5
:1001100000F07CFC140000202C000020FEE7FEE72D
:08012000FEE7FEE7FEE7FEE743
:04012800C500000806
:10012C0082B00190019A034B1A601A68002AFCD124
:10013C0002B0704728000020FA2108B50B4B89004B
:10014C00186800F0EDFC0A4B013898420DD8094AAA
:10015C0009495060C0200B6A00061B021B0A0343AE
:10016C000B62002393600733136008BD100000205E
:10017C00FFFFFF0010E000E000ED00E0034B1A6809
:10018C00002A02D01A68013A1A6070472800002031
:10019C0010B5041C00F032FA002000F06FFA211C9C
:1001AC00002000F05BFA002000F0A8F9012000F01C
:1001BC00AFF9002000F07EFA012000F05FFA022077
:1001CC0000F06EFA10BD000037B580200121C0038D
:1001DC0000F04CFB684600F0E3F901256B466A46DB
:1001EC001D71002393710323084C6946201CD571A3
:1001FC005371009300F098F9291C201C00F0E4F9CD
:10020C00201C022100F0E0F937BDC0460014004864
:10021C0010B50121041C0C4800F0D4F921780029F8
:10022C000CD049B289B2094800F0A9FB07488021DB
:10023C0000F0A9FB0028F9D00134EFE702480131A6
:10024C0000F0C2F910BDC04600140048003801404F
:10025C00F0B589B000246B4602279C711F710C23EA
:10026C0080209025009303266B46ED05800201212A
:10027C00DC715E7100F0FAFA281C694600F054F942
:10028C00281C391C012200F0A7F90122281C311C62
:10029C0000F0A2F9E12380209B0202930C23079427
:1002AC00059404940394094CC0010121069300F0B9
:1002BC00E9FA201C02A900F0FDFA201C012100F033
:1002CC0055FB0348FFF7A4FF09B0F0BD003801400F
:1002DC00EC100008002370B5061C0D1C0B4CE373CE
:1002EC000F34301C291C0A22002300F0ABFC013C0B
:1002FC0030322270301C291C0A22002300F0A2FC90
:10030C00061C0D1C0843ECD1201C70BD14000020F1
:10031C0008B5FFF7DFFFFFF77BFF08BD30B51F48BF
:10032C0089B000F089F880200121800200F09EFA4B
:10033C0080200121800000F0A5FA90206A4600245C
:10034C00032301256946C00513719471D47154714E
:10035C00009500F0E9F802A910480D718C600C6151
:10036C004C61029400F07AF80C4800F09AF8C04600
:10037C00C0460A48291C072200F08EF80748291CA1
:10038C0000F082F80548012100F0AAF80028F9D005
:10039C00024800F09CF809B030BDC0460024014072
:1003AC00A02070B58003FFF7F3FEFFF7C5FEFFF743
:1003BC000BFFFFF74DFFFFF7B1FF6420FFF7B0FE17
:1003CC000221144800F0F8F8424242410221D2B214
:1003DC00104800F0FBF8104800F07EF80F4E30800B
:1003EC000F48FFF715FF3088002180B2FFF790FF10
:1003FC000C48FFF70DFF0C48FFF70AFF0122002302
:10040C00A4185D41201C291CFFF782FF0748FFF749
:10041C00FFFED2E700140048002401402400002015
:10042C00FD100008FA100008031100081B11000849
:10043C0008B5FFF7A3FE08BD08B5074B984209D1D4
:10044C0080200121800000F029FA8020002180000A
:10045C0000F024FA08BDC046002401400A6810B51B
:10046C008C68C3681443CA6814430A6914434A6904
:10047C001443044A13400A79234352031343C360C1
:10048C0010BDC04603D2FFFF83680122002900D1B2
:10049C000222134383607047836A1943816242616D
:1004AC0070478021826809060A43F021031C826090
:1004BC0009029A680139D20FD207002901D0002A0B
:1004CC00F7D100209A68824200DB186C7047042236
:1004DC008368134383607047006C80B270470000E0
:1004EC00CB0103D58068044B184000E0006808403D
:1004FC00411E8841C0B27047FFFFFFFE0121034A35
:10050C0013688B43184310607047C04600200240AC
:10051C00044B10211A68002801D00A4300E08A43DA
:10052C001A60704700200240F7B500220B68019357
:10053C0001239340019E1E409E422DD10C79631ED7
:10054C00012B16D85700BC4603276546AF4083687D
:10055C00BB4383604B798768AB403B4383608388A4
:10056C00B34383808E798788331C93403B439BB283
:10057C00838003235600B340DB43B44007681F401D
:10058C00076007683C430460C4682340C360CB79B0
:10059C00C468B3402343C3600132102AC8D1F7BDED
:1005AC00044B012203600023427103718371C371F8
:1005BC007047C046FFFF0000808A0840411E8841FA
:1005CC00C0B270478161704701857047002A01D025
:1005DC00816100E001857047072310B50F240B40A3
:1005EC009B009A409C40131CC90889004018016A62
:1005FC00A1430162016A0B43036210BD0121114B3F
:10060C001A680A431A6058680F4A02405A60186800
:10061C000E4A02401A6018680D4A02401A60586867
:10062C000C4A02400F205A60DA6A8243DA62186B75
:10063C00094A02401A635A6B8A435A6300229A6031
:10064C007047C046001002400CB8FF08FFFFF6FED2
:10065C00FFFFFBFFFFFFC0FFACFEF0FF054B10B52B
:10066C00054A5C6822405A605A6811430843586036
:10067C0010BDC04600100240FF7FC2FF064B002891
:10068C0004D080211A6849040A4302E01968034A1D
:10069C000A401A607047C04600100240FFFFFFFE80
:1006AC000321034A53688B43184350607047C0467C
:1006BC0000100240084B094A59680A405A605A68AF
:1006CC0081B20A435A60196B054A000C0A401A633E
:1006DC001A6B10431863704700100240FFBFFFFFF6
:1006EC00FFFEFFFFF8B50C23594D041C6868184039
:1006FC0000F00CFA1F1F1F1F1F1F1F1F071F1F1F9C
:10070C001D00C02368686A688002000F5B02861CAB
:10071C001A4201D14F4807E04D4B4F48D96A0F237D
:10072C001940013100F0FCF97043206004E04B4BA0
:10073C0000E0494B0020236021686B680A1C484E7E
:10074C001B061B0FF35CDA40131C62606A685205CF
:10075C00520FB25CD340A3602A6BD20501D4414A3C
:10076C0006E03B4A5268520401D45A0800E09A0849
:10077C00E2602A6B520601D43B4A01E0802212024D
:10078C0022612A6BD20602D4334A626100E06161B5
:10079C0003222F6B2E4E174201D1A36112E0376B4F
:1007AC001740012F01D1A1610CE0376B1740022FCC
:1007BC0002D18022120204E0366B3240032A01D1AE
:1007CC00254AA261C0222F6B9202174201D1E3612C
:1007DC0019E01F4E376B802617407602B74201D1C5
:1007EC00E16110E01A4E376B80261740B602B74213
:1007FC0002D18022120205E0154E366B164096424D
:10080C0001D1154AE261C0222F6B1203104E174220
:10081C0015D08027336BFF021340BB4201D12162FC
:10082C000EE08021336B090313408B4202D18023ED
:10083C001B0204E0336B1340934201D1064B23623D
:10084C002B6B1B0602D4054B636200E06062F8BDA3
:10085C000010024000093D0000127A00006CDC021E
:10086C0000000020809FD50012800000044B5A69C4
:10087C00002902D01043586101E082435A6170474D
:10088C0000100240044B9A69002902D01043986171
:10089C0001E082439A61704700100240044BDA6811
:1008AC00002902D01043D86001E08243DA6070471F
:1008BC00001002400122F0B50D1C03688BB093436D
:1008CC0003604268224B041C13408A681343436044
:1008DC000268204B1A40CB6849680B4329690B43CB
:1008EC001343036082681C4B13406A691343836093
:1008FC006846FFF7F7FE194B069E9C4208D0184B32
:10090C00079E9C4204D0174B089E9C4200D0029E2E
:10091C0023682F681B0400D57600391C301C00F0AE
:10092C00FFF8391C051C301C00F080F900237F08EF
:10093C00B9425B41ED1823681B0404D50A4B2A0706
:10094C00520F1D401543ADB2A5810BB0F0BDC04692
:10095C00FFCFFFFFF3E9FFFFFFFCFFFF0038014073
:10096C000044004000480040F0FF000001220368F2
:10097C00002901D0134300E0934303607047C9057D
:10098C00C90D01857047C0690840411E8841C0B23D
:10099C00704700000D4B70B500251E1C0C4CE41A62
:1009AC00A410A54204D0AB00F35898470135F8E7E2
:1009BC00084B00251E1C084CE41AA410A54204D0B8
:1009CC00AB00F35898470135F8E770BD28010008D3
:1009DC002C0100082C0100082C01000838B5064B2E
:1009EC00064C1D1CE41AA410002C04D0013CA300DE
:1009FC00EB589847F8E738BD2C0100082C0100088B
:100A0C00BFF34F8F024A034BDA60BFF34F8FFEE701
:100A1C000400FA0500ED00E00121344B82B01A68A5
:100A2C000A431A605868324A02405A601868314AC0
:100A3C0002401A601868304A02401A6058682F4AFF
:100A4C0002400F205A60DA6A8243DA62186B2C4A31
:100A5C0002401A635A6B8A435A63002280219A60BF
:100A6C00009201921A6849020A431A60802219689E
:100A7C0092021140019100990131009101990029D4
:100A8C0004D1A0210098C9018842EFD119680A400D
:100A9C0000D001220192019A012A25D11121194A73
:100AAC0011605A685A605A685A605968164A0A4066
:100ABC0088215A605A6849030A4380215A601A688F
:100ACC0049040A431A601968084A8901FBD50320B6
:100ADC0051688143516051680138014351600C22C7
:100AEC0059680A40082AFAD102B070470010024037
:100AFC000CB8FF08FFFFF6FEFFFFFBFFFFFFC0FF78
:100B0C00ACFEFFFF00200240FF7FC0FF02B4714625
:100B1C0049084900095C49008E4402BC7047C04634
:100B2C00002243088B4274D303098B425FD3030A20
:100B3C008B4244D3030B8B4228D3030C8B420DD333
:100B4C00FF22090212BA030C8B4202D312120902C1
:100B5C0065D0030B8B4219D300E0090AC30B8B42FF
:100B6C0001D3CB03C01A5241830B8B4201D38B03AD
:100B7C00C01A5241430B8B4201D34B03C01A524152
:100B8C00030B8B4201D30B03C01A5241C30A8B4295
:100B9C0001D3CB02C01A5241830A8B4201D38B0280
:100BAC00C01A5241430A8B4201D34B02C01A524124
:100BBC00030A8B4201D30B02C01A5241CDD2C30996
:100BCC008B4201D3CB01C01A524183098B4201D312
:100BDC008B01C01A524143098B4201D34B01C01AFD
:100BEC00524103098B4201D30B01C01A5241C30875
:100BFC008B4201D3CB00C01A524183088B4201D3E4
:100C0C008B00C01A524143088B4201D34B00C01ACF
:100C1C005241411A00D20146524110467047FFE73B
:100C2C0001B5002000F00CF802BDC0460029F7D039
:100C3C0003B5FFF775FF0EBC4243891A1847C0462F
:100C4C007047C046002B11D1002A0FD1002900D1CA
:100C5C00002802D00021C943081C07B4024802A195
:100C6C004018029003BDC046D9FFFFFF03B468468D
:100C7C0001B5029800F022F8019B9E4602B00CBC14
:100C8C007047C046F0B583B0161C1F1C0090019134
:100C9C0000F058F8041C0D1C221C2B1C301C391C99
:100CAC0000F026F8009A019B121A8B410899201C1F
:100CBC000A604B60291C03B0F0BDC046F0B5141C93
:100CCC0083B01D1C0090019100F034F9221C2B1CE8
:100CDC00061C0F1C00F00CF8009A019B121A8B4199
:100CEC000899301C0A604B60391C03B0F0BDC0463B
:100CFC00F0B54F46464605042D0C2C1CC0B4170409
:100D0C00160C3F0C9946030C7C4375435F437343AD
:100D1C007D19260CAD199C46AF4203D980235B028A
:100D2C009846C4444B465143434324042E0C240C94
:100D3C002D0466442C1959188919201C0CBC90469A
:100D4C009946F0BDF0B544465F4656464D46F0B464
:100D5C001C1C85B0002900DAA9E00F1C0021061C20
:100D6C008846101C191C002C00DA97E0341C3D1C22
:100D7C0082468946B94273D870D04946504600F035
:100D8C0085F98346391C301C00F080F95B46181A33
:100D9C00031C8346203B9C4600D59CE0002300228C
:100DAC00514600920193634699400191514681400E
:100DBC00019B0091BB4200D983E000D17EE0009AF8
:100DCC00019B341C3D1CA41A9D416346002B00DA88
:100DDC009AE0002600270296039701369E40039660
:100DEC00012686400296002800D171E00099019AF4
:100DFC00D30799464B464E081E4357080023012241
:100E0C000CE0AF4201D1A6420AD8A41BBD41241963
:100E1C006D410138A4185D41002806D0AF42F0D9CD
:100E2C00013824196D410028F8D12022029E039F1D
:100E3C005B46524236196F4199185AD4281CC84047
:100E4C002C1C5B46DC40002968DB041C8C40231CFA
:100E5C0059468840021CB61A9F4103E0B0428CD917
:100E6C000026002741464B1E994100230091019317
:100E7C00009A019B002554429D41331C6340181C71
:100E8C003B1C6B40191C009B019CC018614105B0B8
:100E9C003CBC90469946A246AB46F0BD4346DB436C
:100EAC000C1C9846131C00215842A1415EE70027F8
:100EBC0046428F4101214942884652E7B14200D84F
:100ECC007DE70026002702960397002800D08DE7C7
:100EDC00029E039FC6E720215346091ACB400022ED
:100EEC00191C0023009201934B4683400B43019342
:100EFC005CE75A4620239B1A2A1C9A40201C131C80
:100F0C005A46D04018439BE720260027331A002668
:100F1C00029603970127DF40039761E75B46202188
:100F2C005D46C91A031CAC40CB40191C231C0B4357
:100F3C008EE7C046F0B545464E465746E0B4041C15
:100F4C0082B00D1C914698468B4262D85FD04146C8
:100F5C00484600F09BF8291C061C201C00F096F853
:100F6C002023311A5B428A46C81865D44B4683400D
:100F7C001F1C4B468B401E1CAF4258D855D0A41B8F
:100F8C00BD41002800DA77E0002200230092019393
:100F9C0001328240019201238B40009300293CD006
:100FAC00FB079846404672087B080243012600273F
:100FBC000CE0AB4201D1A2420AD8A41A9D412419DB
:100FCC006D410139A4197D41002906D0AB42F0D9FD
:100FDC00013924196D410029F8D12022009801997A
:100FEC0053465242001969419E183AD42F1CF740BF
:100FFC005346DD40002E29DB3C1CB440231C5446D8
:10100C00A7403A1C801A99410090019105E0824258
:10101C009DD900230024009301940098019902B0FB
:10102C001CBC90469946A246F0BDA342A7D900220B
:10103C00002300920193B1E720224B46521AD34071
:10104C001A1C43468B401F1C174392E7534620241F
:10105C005646E41A3B1CB540E3401C1C2B1C234396
:10106C00CDE7524620239B1A2A1C9A40271C131C9E
:10107C005246D7401F43BBE720230022581A0023B7
:10108C00009201930132C240019284E710B500290D
:10109C0003D100F007F8203002E0081C00F002F841
:1010AC0010BDC0461C2101231B04984201D3000C27
:1010BC0010391B0A984201D3000A08391B099842BF
:1010CC0001D30009043902A2105C40187047C046D5
:1010DC0004030202010101010000000000000000F5
:1010EC0054657374696E67207561727421210D0AE1
:1010FC00004144433A20002D2D2D2D2D2D2D2D2D2D
:10110C002D2D2D2D68656172746265617420002D22
:10111C002D2D2D2D2D2D2D2D2D2D2D2D2D0D0A0063
:08112C0024FCFF7F010000001C
:101134000000000001020304010203040607080979
:04114400006CDC025D
:04000005080000F1FE
:00000001FF
