:020000040800F2
:1000000000100020F10000081F0100082101000875
:1000100000000000000000000000000000000000E0
:1000200000000000000000000000000023010008A4
:10003000000000000000000025010008F901000890
:100040001D010008000000001D0100081D0100083E
:100050001D0100081D0100081D0100081D01000808
:10006000000000001D0100081D0100081D0100081E
:100070001D0100081D0100081D010008000000000E
:100080001D01000800000000000000001D01000824
:100090001D0100081D0100081D0100081D010008C8
:1000A0001D0100081D0100081D0100081D010008B8
:1000B0001D0100080000000000000000000000001A
:1000C0005FF808F1002208B5064B0749D3188B42A8
:1000D00004D20649895804321960F5E700F0AEF9F8
:1000E00008BDC046000000200400002050060008A3
:1000F00010B5084B084A934202D2002204C3F9E724
:1001000000F05AF900F012F8041C00F079F9201CF4
:1001100000F088F90400002008000020FEE7FEE758
:08012000FEE7FEE7FEE7FEE743
:04012800C500000806
:10012C0073B500F0C3F8002000F000F9A021002006
:10013C00890300F0EBF8002000F062F8012000F0D9
:10014C0069F8002000F00EF9012000F0EFF8022011
:10015C0000F0FEF8FA211F4B8900186800F0E0F956
:10016C001D4B013898420DD81C4A1D495060C020C7
:10017C000B6A00061B021B0A03430B6200239360ED
:10018C000733136080200121C00300F003F9012321
:10019C006A46009313710023694693710322114838
:1001AC004A71CB7100F042F80E48012100F07CF846
:1001BC00FA230D4D5B001C1C2E1C2B603368002B8E
:1001CC00FCD10848012100F06DF82C603368002B3D
:1001DC00FCD1E9E700000020FFFFFF0010E000E089
:1001EC0000ED00E00014004804000020034B1A68E6
:1001FC00002A02D01A68013A1A60704704000020E5
:10020C000121034A13688B43184310607047C046A2
:10021C0000200240044B10211A68002801D00A4328
:10022C0000E08A431A60704700200240F7B50022B4
:10023C000B68019301239340019E1E409E422DD1D9
:10024C000C79631E012B16D85700BC460327654654
:10025C00AF408368BB4383604B798768AB403B43BB
:10026C0083608388B34383808E798788331C934063
:10027C003B439BB2838003235600B340DB43B44023
:10028C0007681F40076007683C430460C46823404C
:10029C00C360CB79C468B3402343C3600132102AD6
:1002AC00C8D1F7BD81617047018570470121114BA1
:1002BC001A680A431A6058680F4A02405A60186854
:1002CC000E4A02401A6018680D4A02401A605868BB
:1002DC000C4A02400F205A60DA6A8243DA62186BC9
:1002EC00094A02401A635A6B8A435A6300229A6085
:1002FC007047C046001002400CB8FF08FFFFF6FE26
:10030C00FFFFFBFFFFFFC0FFACFEFFFF054B10B56F
:10031C00054A5C6822405A605A6811430843586089
:10032C0010BDC04600100240FFFFC2FF064B002864
:10033C0004D080211A6849040A4302E01968034A70
:10034C000A401A607047C04600100240FFFFFFFED3
:10035C000321034A53688B43184350607047C046CF
:10036C0000100240084B094A59680A405A605A6802
:10037C0081B20A435A60196B054A000C0A401A6391
:10038C001A6B10431863704700100240FFBFFFFF49
:10039C00FFFEFFFF044B5A69002902D0104358613D
:1003AC0001E082435A617047001002400D4B70B55A
:1003BC0000251E1C0C4CE41AA410A54204D0AB0062
:1003CC00F35898470135F8E7084B00251E1C084CDC
:1003DC00E41AA410A54204D0AB00F3589847013599
:1003EC00F8E770BD280100082C0100082C0100085A
:1003FC002C01000838B5064B064C1D1CE41AA41041
:10040C00002C04D0013CA300EB589847F8E738BD0A
:10041C002C0100082C010008BFF34F8F024A034B3C
:10042C00DA60BFF34F8FFEE70400FA0500ED00E041
:10043C0013B501200F24334B1A6802431A60596814
:10044C00314A0A405A601968304A0A401A601968E1
:10045C002F4A0A401A6059682E4A11405960D96ACD
:10046C00A143D9621C6B2C4921401963596B814300
:10047C005963002180209960009101911968400214
:10048C0001431960111C80221868920210400190DF
:10049C000098013000900198002804D1A020009C05
:1004AC00C0018442EFD11868024000D001220192B1
:1004BC00019A012A24D11120184A10605A685A60F6
:1004CC005A685A605A680A4088215A605A68490327
:1004DC000A4380215A601A6849040A431A60196851
:1004EC00084A8901FBD5032051688143516051684A
:1004FC000138014351600C2259680A40082AFAD18C
:10050C0013BDC046001002400CB8FF08FFFFF6FEFA
:10051C00FFFFFBFFFFFFC0FFACFEFFFF0020024010
:10052C00002243088B4274D303098B425FD3030A26
:10053C008B4244D3030B8B4228D3030C8B420DD339
:10054C00FF22090212BA030C8B4202D312120902C7
:10055C0065D0030B8B4219D300E0090AC30B8B4205
:10056C0001D3CB03C01A5241830B8B4201D38B03B3
:10057C00C01A5241430B8B4201D34B03C01A524158
:10058C00030B8B4201D30B03C01A5241C30A8B429B
:10059C0001D3CB02C01A5241830A8B4201D38B0286
:1005AC00C01A5241430A8B4201D34B02C01A52412A
:1005BC00030A8B4201D30B02C01A5241CDD2C3099C
:1005CC008B4201D3CB01C01A524183098B4201D318
:1005DC008B01C01A524143098B4201D34B01C01A03
:1005EC00524103098B4201D30B01C01A5241C3087B
:1005FC008B4201D3CB00C01A524183088B4201D3EA
:10060C008B00C01A524143088B4201D34B00C01AD5
:10061C005241411A00D20146524110467047FFE741
:10062C0001B5002000F00CF802BDC0460029F7D03F
:10063C0003B5FFF775FF0EBC4243891A1847C04635
:04064C007047C046ED
:04065000006CDC025C
:04000005080000F1FE
:00000001FF
